:100000000C9423020C942F1C0C9440020C9440027C
:100010000C9440020C9440020C9440020C94400258
:100020000C9440020C9440020C9440020C94400248
:100030000C9440020C9440020C9440020C94400238
:100040000C94E51B0C9440020C9440020C9440026A
:100050000C9440020C9440020C9440020C94400218
:100060000C9440020C944002200020000FED03216C
:10007000534449534B494920434647004E6F205350
:100080004420696E7365727465640046415431366C
:1000900000464154333200547970653A2000436F72
:1000A00064653A2000534420426C6F636B204552D4
:1000B000524F52004D697373696E67204D42522052
:1000C000202000436C7573746572203C2033326BC2
:1000D00042004E6F742046415431362F3332202077
:1000E00000426F6F7420736563746F72202020006C
:1000F00053442063616E277420696E697420005335
:10010000442063616E27742069646C65200045207B
:10011000522052204F2052004E6F726D616C20535E
:1001200044206361726400202020534448432063CC
:1001300061726420200020536F7274696E672066BC
:10014000696C657300204E6F7468696E672068651E
:1001500072652100204275696C64696E67206C6964
:100160007374002053454C454354204E494320208E
:100170002000547261636B3A2000205344204445B0
:100180004C4159202020202000204C434420434F44
:100190004E545241535420002056616C75653A20EC
:1001A000002053657420636F6E7472617374200055
:1001B000205365742053442064656C6179200020CD
:1001C000202020202020202020202020200020531C
:1001D00045545550202020202020202000204E492A
:1001E000432020202020202020202000762E203593
:1001F0002E3420283230313829004170706C65204F
:100200005D5B202D20425200534469736B205D5B7F
:100210000008141C1C1C1C1C1C366363220000FFFD
:10022000FFF7E3E3F7FFFD00000074325242424261
:100230004A4C2E00000000000402FF0204000000EF
:10024000000000002040FF402000000000000020CF
:1002500070A82020203F0000000000FE82828284DF
:1002600084FC000000000000000000005F000000AF
:1002700007000700147F147F14242A7F2A122313F7
:1002800008646236495522500005030000001C2214
:1002900041000041221C0014083E081408083E08D2
:1002A00008005030000008080808080060600000DE
:1002B00020100804023E5149453E00427F40004262
:1002C000615149462141454B311814127F10274591
:1002D0004545393C4A4949300171090503364949C8
:1002E0004936064949291E003636000000563600B8
:1002F000000814224100141414141400412214089C
:100300000201510906324979413E7E1111117E7F69
:10031000494949363E414141227F4141221C7F49A2
:100320004949417F090909013E4149497A7F080845
:10033000087F00417F41002040413F017F08142297
:10034000417F404040407F020C027F7F0408107FC5
:100350003E4141413E7F090909063E4151215E7FF0
:1003600009192946464949493101017F01013F40A8
:1003700040403F1F2040201F3F4038403F6314084B
:10038000146307087008076151494543007F4141E4
:100390000002040810200041417F00040201020411
:1003A0004040404040000102040020545454787FF3
:1003B000484444383844444420384444487F3854FE
:1003C000545418087E0901020C5252523E7F080410
:1003D000047800447D40002040443D007F102844C4
:1003E0000000417F40007C041804787C08040478F5
:1003F00038444444387C14141408081414187C7CC1
:10040000080404084854545420043F4440203C400D
:1004100040207C1C2040201C3C4030403C442810A4
:1004200028440C5050503C4464544C44000836411D
:100430000000007F00000041360800100808100886
:1004400000060909060011241FBECFEFD8E0DEBF69
:10045000CDBF11E0A0E0B1E0E6E6FDE302C005900B
:100460000D92A630B107D9F726E0A6E0B1E001C0B1
:100470001D92A73FB207E1F70E94931C0C94B11E96
:100480000C9400000E94731461E08FE00E948014BD
:100490008EE091E00E94A61563E080E00E94801447
:1004A0008CE790E00E94A6154B99FECF0895CF935C
:1004B000C82F14B817B81AB815B818B81BB8249AAA
:1004C0002C9A399A3B9A419A17BC14BC91E095BD7D
:1004D00022E025BF20936900109294061092D10665
:1004E0001092D0061092CF061092930610929206A8
:1004F00010929A069093A4061092A30610921101EE
:10050000109219018AE191E09093A6068093A506C6
:1005100080E090E00E949B1E823018F48093990640
:1005200007C01092990660E080E090E00E94A31E50
:10053000CC2359F10E9464140E94731460E080E09F
:100540000E9480140E948D1461E082E10E94801458
:1005500088E092E00E94A61562E083E00E94801489
:100560008AEF91E00E94A61564E083E00E94801467
:100570008CEE91E00E94A6152FE988E99BE72150B7
:1005800080409040E1F700C00000CF9108950F93A4
:100590001F93CF93DF931F92CDB7DEB7182F062F8F
:1005A00065E080E049830E9480140E94C5158FEBAE
:1005B00091E00E94A61565E080E00E948014812FE2
:1005C00090E00E94C01465E084E20E948014802FB5
:1005D00090E00E94C01465E087E40E948014498185
:1005E000842F90E00E94C0140F90DF91CF911F9153
:1005F0000F910C94C515FC01892B89F0808188230B
:1006000079F0853E61F08F3551F080858E3439F474
:100610008185893421F481E09285933409F080E06A
:100620000895FC01892B59F08081882349F0853E8B
:1006300031F08F3521F0838582958170089580E0B7
:100640000895CF92DF92EF92FF920F931F93CF9373
:10065000DF938FEF9FEF90930101809300010E9441
:100660002E1A6B017C01672B682B692BD9F180E076
:1006700090E00E945F1B00E010E0C8010E94BB1ADE
:10068000EC01892B49F18881853E11F0811124C04C
:100690008B858F3009F1109301010093000160E711
:1006A00070E0CE010E94FF1D81E08B87FD8AEC8AFD
:1006B000DB8ECA8E6091D7067091D8068091D906DC
:1006C0009091DA06DF91CF911F910F91FF90EF90FB
:1006D000DF90CF900C94C2170F5F1F4F003981E05D
:1006E000180759F6DF91CF911F910F91FF90EF906E
:1006F000DF90CF9008958F929F92AF92BF92CF924A
:10070000DF92EF92FF921F93CF93DF93182FD62F94
:10071000C42F862F90E09C0140E1C49F200D311D25
:100720001124F9010090F60602C0F695E7950A94A7
:10073000E2F7EE0FFF1FEE0FFF1FE955F94F408163
:1007400051816281738182E08BB91BB89091F5066B
:10075000892F90E0019782239323C090E206D090E6
:10076000E306E090E406F090E50646015701880EA6
:10077000991EA11CB11C42505109610971090090D8
:10078000F60604C0440F551F661F771F0A94D2F760
:10079000480D591D6A1D7B1D88E10E949D168FEF33
:1007A0000E94D4158EEF0E94D41580EB90E030E1CA
:1007B00020E33BB92BB90197E1F71BB883E00E9416
:1007C000D4158CEF0E94D4158FEF0E94D4158FE3BF
:1007D0000E94D4158FEC0E94D41583EF0E94D4158B
:1007E0008CEF0E94D4158FEF0E94D4158FE30E94E6
:1007F000D4158FEC0E94D41583EF0E94D4158CEF92
:100800000E94D41585ED0E94D4158AEA0E94D41561
:1008100086E90E94D4158FEF0E94D4158EEF0E94B6
:10082000D4158C2F86958A6A0E94D4158C2F8A6ADB
:100830000E94D4158D2F86958A6A0E94D4158D2F1B
:100840008A6A0E94D4158EEFD827CD278C2F8695E3
:100850008A6A0E94D4158C2F8A6A0E94D4158EED64
:100860000E94D4158AEA0E94D4158BEE0E94D415FA
:100870008FEF0E94D4158FEF0E94D4158FEF0E9446
:10088000D4158FEF0E94D4158FEF0E94D4158EE5FA
:1008900091E0189FB001199F700D112480E090E045
:1008A00050E2A0E1B0E3FC01E60FF71FE65EFE4F69
:1008B000E08128E030E040E8F42FFE2319F0ABB9E6
:1008C000BBB902C01BB85BB9469521503109A1F7ED
:1008D00001968D3521E0920731F71BB880E790E053
:1008E00030E120E33BB92BB90197E1F71BB880E079
:1008F00093E020E21BB82BB90197E1F71BB88FEF0B
:100900000E94D4158FEF0E94D4150E94E8150E9412
:10091000CB1882E08BB91BB8DF91CF911F91FF906C
:10092000EF90DF90CF90BF90AF909F908F90089501
:10093000AF92BF92DF92EF92FF920F931F93CF93EC
:10094000DF934B9933C0CDE0D1E0FE018C2F8C5F5B
:1009500091919F3F49F182E1A82E81E0B82E750167
:1009600000E010E0DD24DA948E2D8A1968816F3F53
:1009700021F0F70140810E947B03D992F701D192C7
:100980007F01F801E65EFE4F1282025A1E4F0837C1
:10099000F5E01F0749F7109211018AE191E0909369
:1009A000A6068093A50602C08E13D2CFDF91CF9109
:1009B0001F910F91FF90EF90DF90BF90AF9008953F
:1009C000809192069091930680399C40C0F480E11A
:1009D0008BB9809192069091930620E330E18031AB
:1009E00040E1940730F44B990AC02BB93BB901960A
:1009F000F6CF80E99CE09093930680939206089549
:100A00004B996EC090911101292F30E04EE551E0D5
:100A1000249FF001259FF00D349FF00D1124E65E18
:100A2000FE4F82818D3A09F042C0809119018111F7
:100A300031C080919406F901E35FFE4F8083F90194
:100A4000EE5EFE4F4091A306469546954083282FC3
:100A50002D7F2D3011F48E5F01C08F5F8F708093DA
:100A60009406933029F40E94E0040E9498041CC06C
:100A70009F5F909311014EE551E0949F9001959FE7
:100A8000300D1124C901865E9E4F9093A606809377
:100A9000A5060DC080910A01809394061092190159
:100AA0008F3029F40E94E00481E08093A406209115
:100AB00011018EE591E0289FF001299FF00D11248E
:100AC000E65EFE4F8281863959F487818575880FED
:100AD00090859575892B80930A0181E08093190197
:100AE00008952AE131E044E080E090E0F901E80F68
:100AF000F91F108201968E3551E09507B9F74150E4
:100B0000225A3E4F4111F0CF8FEF80931201809314
:100B10000D018093130180930E0180931401809343
:100B20000F0180931501809310010895CF93C82F72
:100B30008FEF9FEF90930101809300010E94951623
:100B400059984B9B03C00E9442024CC08AE191E03D
:100B50009093DC068093DB060E941018811144C03C
:100B60000E94731461E08FE00E9480148EE091E097
:100B70000E94A61563E080E00E9480148091D40654
:100B8000813019F48FEF90E004C0823029F480EFB7
:100B900090E00E94A61522C0833019F481EE90E007
:100BA000F8CF843019F482ED90E0F3CF853019F45A
:100BB00083EC90E0EECF863019F484EB90E0E9CF3F
:100BC000873019F485EA90E0E4CF8EE990E00E9446
:100BD000A6158091D40690E00E946C151092D10663
:100BE0004B9BFECF80E0B0C0CC23D9F00E947314A1
:100BF00061E080E00E9480148091DF06823019F469
:100C000087E291E002C088E191E00E94A615599820
:100C10002FEB85E692E5215080409040E1F700C03F
:100C200000000E94D218811143C00E94731461E039
:100C30008FE00E9480148EE091E00E94A61563E090
:100C400080E00E9480148091D406813019F48FEFE7
:100C500090E004C0823029F480EF90E00E94A61555
:100C600022C0833019F481EE90E0F8CF843019F47B
:100C700082ED90E0F3CF853019F483EC90E0EECF75
:100C8000863019F484EB90E0E9CF873019F485EAD7
:100C900090E0E4CF8EE990E00E94A6158091D40602
:100CA00090E00E946C151092D1064B9BFECF9ACF1C
:100CB0004091F5062091EF063091F006429FC00169
:100CC000439F900D112481159047D0F485E08093C7
:100CD000D4060E94731461E08FE00E9480148EE0BD
:100CE00091E00E94A61563E080E00E94801483ECEE
:100CF00090E00E94A6151092D1064B9BFECF72CFBA
:100D0000CC23E1F064E089E00E94801487E990E060
:100D10000E94A6158091E6068B3019F481E990E0D7
:100D200002C08BE890E00E94A6158FEB95E622E5C5
:100D3000815090402040E1F700C0000059980E9487
:100D400071050E94911681E0CF9108958F929F9234
:100D5000AF92BF92CF92DF92EF92FF920F931F93C9
:100D6000CF93DF936115710519F480E090E055C1D0
:100D70007B01EC010E94731460E080E00E9480140B
:100D80000E94BD158DED91E00E94A61560E085E3FF
:100D90000E9480148091E6068B3019F481E990E07E
:100DA00002C08BE890E00E94A6150E94BD1542E0AB
:100DB00061E080E00E94C70262E080E00E9480144F
:100DC00081E090E00E94C0146701570108E0A00E86
:100DD000B11CF60181916F01803211F00E9415154E
:100DE000CA14DB04B1F7D0930701C0930601209128
:100DF000E606F701828D938D2B3091F44489558955
:100E000060E070E0BA0155274427A0E0B0E08A0115
:100E10009B01082B192B2A2B3B2BC901B80103C0BE
:100E2000BC0180E090E0611571058105910509F430
:100E30009CCFE7EAF6E0119211921192119216E01E
:100E4000EF3CF107C1F76093A7067093A806809363
:100E5000A9069093AA0611E0663FFFEF7F07810580
:100E60009105A8F40E94C819663F2FEF720781050B
:100E7000910558F434E0139FF0011124E955F94F1E
:100E800060837183828393831F5F1A3028F380907D
:100E9000EB069090EC06A090ED06B090EE068091E7
:100EA000000190910101019609F488C080E090E072
:100EB0000E945F1B8FEF9FEFDC018093D70690931A
:100EC000D806A093D906B093DA06809100019091DC
:100ED00001010E94CE1BFC012091E606828D938DBC
:100EE0002B3071F4C488D588E12CF12C7601DD24F7
:100EF000CC24A0E0B0E0C82AD92AEA2AFB2A03C001
:100F00006C01E12CF12C02E0C01AD108E108F108D3
:100F1000A091F506B0E0A70196010E94F41D009192
:100F2000E2061091E3062091E4063091E506600F99
:100F3000711F821F931F0E945A17E091DB06F091E8
:100F4000DC068DEC92E0ABEAB1E080839183A28372
:100F5000B383458156816781708581859285481567
:100F600059056A057B0519F48C179D0731F04387F5
:100F7000548765877687908B878785829682A7823C
:100F8000B086D287C1878091D606848380919D06E2
:100F9000818BA091F506B0E0A70196010E94F41D97
:100FA000C090E206D090E306E090E406F090E506FB
:100FB0006C0D7D1D8E1D9F1D0E94C2178092EB0639
:100FC0009092EC06A092ED06B092EE061092930677
:100FD000109292061092D00610929A06C1E0C09329
:100FE000A4061092A306109294061092110110927A
:100FF00019018AE191E09093A6068093A50659987D
:1010000040E052E060E070E080E10E94E2160E9461
:101010007105C093D10681E090E0DF91CF911F91DF
:101020000F91FF90EF90DF90CF90BF90AF909F9087
:101030008F900895CF92DF92EF92FF920F931F93BC
:10104000CF93DF93C090EB06D090EC06E090ED06D6
:10105000F090EE068091000190910101019609F453
:1010600077C080E090E00E945F1B8FEF9FEFDC0174
:101070008093D7069093D806A093D906B093DA064A
:1010800080910001909101010E94CE1BFC012091F2
:10109000E606828D938D2B3079F424893589A90158
:1010A00060E070E0BA0155274427A0E0B0E0842B4F
:1010B000952BA62BB72B02C0A0E0B0E09C01AD01A0
:1010C0002250310941095109A091F506B0E00E9472
:1010D000F41D0091E2061091E3062091E4063091A0
:1010E000E506600F711F821F931F0E945A17E0913F
:1010F000DB06F091DC068FEF9FEFDC018093D706D3
:101100009093D806A093D906B093DA068385948588
:10111000A585B6858093EB069093EC06A093ED062B
:10112000B093EE06C785D089CE010E94CE1B8C01FC
:101130000E94FB02882361F0B801CE01DF91CF91BC
:101140001F910F91FF90EF90DF90CF900C94A60627
:10115000C092EB06D092EC06E092ED06F092EE061D
:10116000DF91CF911F910F91FF90EF90DF90CF9083
:1011700008955E9A2D9A5F9A08954F925F926F92AA
:101180007F928F929F92AF92BF92CF92DF92EF9217
:10119000FF920F931F93CF93DF9380910001909163
:1011A0000101019619F4DFEABD2E5AC080E090E0FB
:1011B0000E945F1B8AE191E09093DC068093DB063E
:1011C0000E9471051092D7061092D8061092D90687
:1011D0001092DA0680910001909101010E94CE1BCD
:1011E000FC012091E606828D938D2B3079F42489C1
:1011F0003589A90160E070E0BA0155274427A0E0D5
:10120000B0E0842B952BA62BB72B02C0A0E0B0E05A
:101210009C01AD012250310941095109A091F50607
:10122000B0E00E94F41D4090E2065090E30660900A
:10123000E4067090E506640D751D861D971D0E94DD
:101240005A17E091DB06F091DC0680819181A28142
:10125000B3818D3C9240AB4AB14009F0A4CFB18834
:101260000E94731460E080E00E9480140E94BD150B
:1012700089E891E00E94A6150E94BD1543E065E053
:1012800084E00E94C70262E080E00E94801488E946
:1012900091E00E94A6158B2D90E00E946C157B2C8E
:1012A000DB2DAA24A3940E94B908D71581F062E02F
:1012B00080E00E94801488E991E00E94A6158D2F9D
:1012C00090E00E946C158AE690E00E94A6154B996A
:1012D00076C189B12091990641E050E0222311F0B6
:1012E00040E050E093B161E070E0213011F060E047
:1012F00070E09295969597709A2590FB882480F8D7
:10130000912C869EF001879EF00D969EF00D112483
:10131000082E000C990B809590958827990F881FAF
:101320009927849F9001859F300D949F300D112443
:101330002E2B3F2B232BB1F189B193B1929596952A
:1013400097709A25092F017010E0069FF001079F02
:10135000F00D169FF00D1124082E000C990B8095AE
:1013600090958827990F881F9927849F9001859FC2
:10137000300D949F300D11242E2B3F2B232BE1F6A3
:101380008FEB9AE720E1815090402040E1F700C0C8
:101390000000CFEFCD0FCE3138F0C0939D060E94F4
:1013A000451403C0CD2F01C0CEE1E3B19091990661
:1013B00021E030E0992311F020E030E089B141E0F4
:1013C00050E0913011F040E050E0082E000C990BF5
:1013D000809590958827990F881F9927849FB00141
:1013E000859F700D949F700D11248E2F8295869588
:1013F00087708A2580FBEE24E0F8F12CE29EC00184
:10140000E39E900DF29E900D1124682B792B672B93
:10141000C1F1E3B189B1082E000C990B809590952C
:101420008827990F881F9927849FB001859F700D89
:10143000949F700D11248E2F8295869587708A2532
:1014400080FBCC24C0F8D12CC29EC001C39E900D5D
:10145000D29E900D1124682B792B672BD1F68FEB40
:101460009AE720E1815090402040E1F700C0000061
:10147000CF5FCD3328F4C0939D060E94451401C070
:10148000CCE37D2E4E9B02C0DC2F0DCF4E9BFECFBA
:101490008FEB9AE720E1815090402040E1F700C0B7
:1014A0000000CB1509F48BC0C0939D060E94451423
:1014B00059988091000190910101019609F47FC033
:1014C00080E090E00E945F1B8AE191E09093DC064F
:1014D0008093DB060E9471051092D7061092D80601
:1014E0001092D9061092DA068091000190910101C4
:1014F0000E94CE1BFC012091E606828D938D2B303D
:1015000071F4C488D588E12CF12C7601DD24CC243B
:10151000A0E0B0E0C82AD92AEA2AFB2A03C06C015D
:10152000E12CF12C82E0C81AD108E108F108A09161
:10153000F506B0E0A70196010E94F41D0091E206B5
:101540001091E3062091E4063091E506600F711FCB
:10155000821F931F0E945A17E091DB06F091DC0670
:1015600080819181A281B3818D3C9240AB4AB14090
:1015700031F5C18BA091F506B0E0A70196010E945C
:10158000F41D0091E2061091E3062091E4063091EB
:10159000E506600F711F821F931FDF91CF911F918E
:1015A0000F91FF90EF90DF90CF90BF90AF909F9002
:1015B0008F907F906F905F904F900C94C217DF9147
:1015C000CF911F910F91FF90EF90DF90CF90BF9040
:1015D000AF909F908F907F906F905F904F90089505
:1015E0007F928F929F92AF92BF92CF92DF92EF92B3
:1015F000FF920F931F93CF93DF930E94731460E0C9
:1016000080E00E9480140E94BD158AE791E00E944C
:10161000A6150E94BD1543E065E084E00E94C70264
:1016200062E080E00E94801488E991E00E94A615A3
:101630008091D60690E00E946C159090D606D92D28
:10164000C1E0772473941AE0812E0E94B90880913A
:10165000D6068D1799F062E080E00E94801488E938
:1016600091E00E94A6158091D60690E00E946C152C
:1016700088E690E00E94A615D091D6064B996FC1DE
:1016800089B12091990641E050E0222311F040E019
:1016900050E093B161E070E0213011F060E070E063
:1016A0009295969597709C27092F017010E0069FE0
:1016B000F001079FF00D169FF00D1124082E000C6D
:1016C000990B809590958827990F881F9927849F5B
:1016D0009001859F300D949F300D11242E2B3F2BB0
:1016E000232BB9F189B193B19295969597709C2768
:1016F00090FBEE24E0F8F12CE69EF001E79EF00D61
:10170000F69EF00D1124082E000C990B80959095F3
:101710008827990F881F9927849F9001859F300DF6
:10172000949F300D11242E2B3F2B232BD9F62FEB1A
:101730008AE790E1215080409040E1F700C000002E
:101740008091D606815019F08093D60602C080920F
:10175000D606E3B19091990621E030E0992311F08B
:1017600020E030E069B141E050E0913011F040E01C
:1017700050E0062E000C770B60957095CB01882702
:10178000990F881F9927849FB001859F700D949FA2
:10179000700D11248E2F8295869587708C2780FB83
:1017A000CC24C0F8D12CC29EC001C39E900DD29E05
:1017B000900D1124682B792B672BD1F1E3B169B11E
:1017C000062E000C770B60957095CB018827990F3A
:1017D000881F9927849FB001859F700D949F700D7D
:1017E00011248E2F8295869587708C2780FBAA24E2
:1017F000A0F8B12CA29EC001A39E900DB29E900DA8
:101800001124682B792B672BC9F62FEB8AE790E11F
:10181000215080409040E1F700C000008091D60642
:101820008F5F8B3018F48093D60602C07092D60674
:101830004E990BCF4E9BFECF2FEB8AE790E12150C4
:1018400080409040E1F700C000008091D6068915E5
:1018500009F485C08091000190910101019609F47D
:101860007EC080E090E00E945F1B8AE191E090934F
:10187000DC068093DB060E9471051092D706109259
:10188000D8061092D9061092DA0680910001909144
:1018900001010E94CE1BFC012091E606828D938DF2
:1018A0002B3071F4C488D588E12CF12C7601DD242D
:1018B000CC24A0E0B0E0C82AD92AEA2AFB2A03C037
:1018C0006C01E12CF12C82E0C81AD108E108F10882
:1018D000A091F506B0E0A70196010E94F41D0091C9
:1018E000E2061091E3062091E4063091E506600FD0
:1018F000711F821F931F0E945A17E091DB06F0911F
:10190000DC0680819181A281B3818D3C9240AB4AFB
:10191000B14029F58091D6068483A091F506B0E008
:10192000A70196010E94F41D0091E2061091E306C2
:101930002091E4063091E506600F711F821F931F0E
:10194000DF91CF911F910F91FF90EF90DF90CF909B
:10195000BF90AF909F908F907F900C94C217DF91B3
:10196000CF911F910F91FF90EF90DF90CF90BF909C
:10197000AF909F908F907F9008959F92AF92BF926B
:10198000CF92DF92EF92FF920F931F93CF93DF934B
:101990000E94731460E080E00E9480140E94BD15D4
:1019A0008EEC91E00E94A6150E94BD1543E065E013
:1019B00084E00E94C70262E080E00E9480140E94DE
:1019C000B51580EB91E00E94A6150E94B51563E065
:1019D00080E00E94801481EA91E00E94A615C1E097
:1019E000992493940E94B90889B16091990621E0E5
:1019F00030E0662311F020E030E093B141E050E0A8
:101A0000613011F040E050E09295969597709925DD
:101A1000092F017010E0049FB001059F700D149F05
:101A2000700D1124082E000C990B80959095882735
:101A3000990F881F9927829FF001839FF00D929F35
:101A4000F00D11246E2B7F2B672B09F44FC089B149
:101A500093B1929596959770992590FBEE24E0F8B6
:101A6000F12CE49EB001E59E700DF49E700D1124E2
:101A7000082E000C990B809590958827990F881F48
:101A80009927829FF001839FF00D929FF00D112402
:101A90006E2B7F2B672BD9F62FEB8AE790E1215035
:101AA00080409040E1F700C00000D1E0DC0FD3306F
:101AB000F8F4D13011F40E94B51562E080E00E9484
:101AC000801480EB91E00E94A615C23010F40E94B1
:101AD000B51563E080E00E94801481EA91E00E94E5
:101AE000A615D23031F40E94B51503C0DC2F01C019
:101AF000D2E0E3B19091990621E030E0992311F012
:101B000020E030E089B141E050E0913011F040E058
:101B100050E0082E000C990B809590958827990F1E
:101B2000881F9927849FB001859F700D949F700D29
:101B300011248E2F829586958770892580FBCC2471
:101B4000C0F8D12CC29EC001C39E900DD29E900DB4
:101B50001124682B792B672B09F450C0E3B189B1AC
:101B6000082E000C990B809590958827990F881F57
:101B70009927849FB001859F700D949F700D11244B
:101B80008E2F829586958770892580FBAA24A0F8E0
:101B9000B12CA29EC001A39E900DB29E900D112467
:101BA000682B792B672BD1F62FEB8AE790E1215038
:101BB00080409040E1F700C00000CFEFCD0F01F171
:101BC000C13011F40E94B51562E080E00E948014DB
:101BD00080EB91E00E94A615D250D23010F40E9402
:101BE000B51563E080E00E94801481EA91E00E94D4
:101BF000A615C23031F40E94B51503C0CD2F01C027
:101C0000C1E04E99EFCE4E9BFECF2FEB8AE790E1DD
:101C1000215080409040E1F700C00000C13069F4DD
:101C2000DF91CF911F910F91FF90EF90DF90CF90B8
:101C3000BF90AF909F900C94F00AC23069F4DF918E
:101C4000CF911F910F91FF90EF90DF90CF90BF90B9
:101C5000AF909F900C94BD08DF91CF911F910F9191
:101C6000FF90EF90DF90CF90BF90AF909F9008953E
:101C70002F923F924F925F926F927F928F929F929C
:101C8000AF92BF92CF92DF92EF92FF920F931F938A
:101C9000CF93DF93CDB7DEB728970FB6F894DEBFAA
:101CA0000FBECDBF10920901109208018AE191E0A8
:101CB0009093DC068093DB0686ED93E09093A0067C
:101CC00080939F068FEF9FEFDC018093D706909360
:101CD000D806A093D906B093DA060E9471050E9437
:101CE000BD1560E080E00E94801483E691E00E94D0
:101CF000A61561E080E00E9480140E94BD1543E0BB
:101D000065E084E00E94C70211E0612F80E00E943C
:101D100080148FEB91E00E94A6151F5F1530A9F784
:101D200062E080E00E94801484E591E00E94A615A4
:101D300000E010E0C8010E94CE1B5C01009799F002
:101D4000FC01808181110FC08091080190910901EF
:101D5000892BC9F562E080E00E94801485E491E05F
:101D60000E94A61505C2C5010E94FB02811105C093
:101D7000C5010E9411038823B9F0E0910801F09198
:101D80000901EE0FFF1F80919F069091A006E80FBA
:101D9000F91F118300838091080190910901019638
:101DA00090930901809308010F5F1F4F80910801F4
:101DB00090910901883C91053CF60039F1E01F073C
:101DC00009F0B8CFC1CF62E080E00E94801486E3C2
:101DD00091E00E94A6158091080190910901029757
:101DE0008CF4209108013091090140910601509135
:101DF0000701E0919F06F091A00600E010E080E06E
:101E000090E063C000E010E080910801909109012A
:101E10000197081719072CF7812C912CAA24A39459
:101E2000B12C8091080190910901801B910BA8169B
:101E3000B9060CF040C03501660C771CE0919F0696
:101E4000F091A006E60DF71D808191810E94CE1BC6
:101E500048E050E0BC01CE0101960E94211EE091B5
:101E60009F06F091A006E80DF91D808191810E94E6
:101E7000CE1B48E050E0BC01CE0101960E94141E2A
:101E800097FF12C0E0919F06F091A006DF01A60D1A
:101E9000B71D8D919C911197E80DF91D208131811D
:101EA0002D933C93918380832FEFA21AB20A82E094
:101EB000880E911CB6CF0F5F1F4FA6CF6191719115
:101EC0004617570709F48C01019682179307B4F35C
:101ED00088248A94982CBB24B3940E94B9084B9907
:101EE00047C189B12091990641E050E0222311F0C9
:101EF00040E050E093B161E070E0213011F060E02B
:101F000070E09295969597709B2590FB222420F87F
:101F1000312C269EF001279EF00D369EF00D1124E7
:101F2000082E000C990B809590958827990F881F93
:101F30009927849F9001859F300D949F300D112427
:101F40002E2B3F2B232BC9F189B193B192959695F6
:101F500097709B2590FB442440F8512C469EF0013D
:101F6000479EF00D569EF00D1124082E000C990B83
:101F7000809590958827990F881F9927849F9001B5
:101F8000859F300D949F300D11242E2B3F2B232B3A
:101F9000D9F69FEBEAE7F0E19150E040F040E1F73D
:101FA00000C000000F5F1F4F809108019091090150
:101FB0000817190711F400E010E0E3B190919906B9
:101FC00021E030E0992311F020E030E069B141E0F8
:101FD00050E0913011F040E050E0062E000C770BFD
:101FE00060957095CB018827990F881F9927849F4A
:101FF000B001859F700D949F700D11248E2F8295D6
:10200000869587708B2580FBEE24E0F8F12CE29E0C
:10201000C001E39E900DF29E900D1124682B792B48
:10202000672BD1F1E3B169B1062E000C770B6095F7
:102030007095CB018827990F881F9927849FB0013D
:10204000859F700D949F700D11248E2F829586951B
:1020500087708B2580FBCC24C0F8D12CC29EC00198
:10206000C39E900DD29E900D1124682B792B672B67
:10207000C9F62FEB8AE790E1215080409040E1F7CC
:1020800000C000000150110917FF06C000910801AF
:1020900010910901015011094E992FC04E9BFECF9E
:1020A000EFEBFAE720E1E150F0402040E1F700C01B
:1020B0000000000F111FE0919F06F091A006E00FB5
:1020C000F11F808191810E94CE1B7C010E9411032F
:1020D000882331F0C7010E945F1B0E94380E48C060
:1020E00080919F069091A006FC01E00FF11FB701BF
:1020F000808191810E94A6063BC00815190511F444
:102100008401EBCEE0919F06F091A006C801880FF4
:10211000991FE80FF91F808191810E94CE1B982E94
:10212000A92E62E080E00E948014892D9A2D0E94E1
:102130001103882319F086E090E002C081E090E06E
:102140000E94C014692C7A2C430188E0880E911CEF
:10215000F30181913F01803211F00E94151568143E
:102160007904B1F78FEB91E00E94A6154801C8CF22
:1021700028960FB6F894DEBF0FBECDBFDF91CF918A
:102180001F910F91FF90EF90DF90CF90BF90AF9095
:102190009F908F907F906F905F904F903F902F9087
:1021A00008958F929F92AF92BF92CF92DF92EF925B
:1021B000FF920F931F93CF93DF938AE191E0909367
:1021C000DC068093DB068FEF9FEFDC018093D70660
:1021D0009093D806A093D906B093DA0680E090E0F9
:1021E0000E945F1B8FEF9FEF90930101809300018E
:1021F000CFEFDFEF00E010E09EE1F92E2CE3E22EBE
:10220000C8010E94CE1B6C01009709F49AC0FC0122
:102210008081882309F49CC0C6010E94FB028823A8
:1022200029F0CF3FFFEFDF0709F4E8014BE050E072
:1022300060E770E0C6010E94061E892B09F081C08C
:1022400010930101009300018091E606F601428D92
:10225000538D8B3079F484889588A12CB12C54014E
:1022600099248824CA01A0E0B0E088299929AA29E4
:10227000BB2903C0CA01A0E0B0E09C01AD0122501F
:10228000310941095109A091F506B0E00E94F41D01
:102290008090E2069090E306A090E406B090E506F8
:1022A000680D791D8A1D9B1D0E945A17C090DB0680
:1022B000D090DC06F60180819181A281B3818D3CB2
:1022C0009240AB4AB140A9F5F60184818093D606CD
:1022D00081898D3318F480939D0602C0E0929D069B
:1022E00080919D068E3110F4F0929D060E94451457
:1022F0005998F60185819681A781B0858093EB0678
:102300009093EC06A093ED06B093EE06B184D284D0
:102310008B2D9D2D0E94CE1B009739F00E94FB0251
:10232000882319F0CB2DDD2D13C080E090E00E94B2
:102330005F1B80E090E00E945F1BCF3FFFEFDF0755
:10234000E1F40F5F1F4F003921E0120709F058CF69
:10235000CF3F8FEFD80789F4F8940E94380E4B993D
:102360001FC08091D106882331F080916E0081607A
:1023700080936E00E89A789413C0CE010E94CE1B21
:10238000BC01CE01DF91CF911F910F91FF90EF9093
:10239000DF90CF90BF90AF909F908F900C94A60647
:1023A000DF91CF911F910F91FF90EF90DF90CF9031
:1023B000BF90AF909F908F9008954F925F926F92D1
:1023C0007F928F929F92AF92BF92CF92DF92EF92C5
:1023D000FF920F931F93CF93DF930E94B9084B9BFB
:1023E00022C08FEF90E04B9BC2C10197E1F7809133
:1023F0006E008E7F80936E00E8981092D106109246
:10240000A406DF91CF911F910F91FF90EF90DF9085
:10241000CF90BF90AF909F908F907F906F905F9084
:102420004F900C944202309B86C14E9B5BC089B199
:102430006091990621E030E0662311F020E030E061
:1024400093B141E050E0613011F040E050E09295EE
:1024500096959770A1E09A2790FB882480F8912C9C
:10246000849EB001859E700D949E700D1124082EDF
:10247000000C990B809590958827990F881F9927B4
:10248000829FF001839FF00D929FF00D11246E2B1F
:102490007F2B672B39F5E3B189B1082E000C990B1E
:1024A000809590958827990F881F9927849FB00160
:1024B000859F700D949F700D11248E2F82958695A7
:1024C0008770A827A0FBAA24A0F8B12CA29EC00167
:1024D000A39E900DB29E900D1124682B792B672B33
:1024E00009F429C14E9910C084E690E021E04E998C
:1024F00020E00197E1F7222309F439C14E9BFECF7A
:10250000F8940E94380E14C149B16091990681E097
:1025100090E0662311F080E090E053B121E030E0DC
:10252000613011F020E030E0529556955770A1E0EF
:102530005A2750FBCC24C0F8D12CC29EB001C39EB8
:10254000700DD29E700D1124042E000C550B409579
:1025500050954427550F441F5527489FF001499F28
:10256000F00D589FF00D11246E2B7F2B672B09F473
:102570005DC064E670E0C1E0D1E049B153B152956D
:10258000569557705D2750FBEE24E0F8F12CE29E43
:10259000F001E39EF00DF29EF00D1124042E000CCC
:1025A000550B409550954427550F441F5527489F7C
:1025B000D001499FB00D589FB00D1124AF014A2B97
:1025C0005B2B452B09F4C0E061507109B1F6CC23B7
:1025D00009F4CDC0A1E049B153B152955695577059
:1025E0005A27052F017010E0029FF001039FF00DA4
:1025F000129FF00D1124042E000C550B40955095A0
:102600004427550F441F5527489FB001499F700D1F
:10261000589F700D1124AF01462B572B452BD9F62F
:10262000F8940E94BD0C4B99A2C094C0E3B149B18B
:10263000042E000C550B409550954427550F441F10
:102640005527429FB001439F700D529F700D11247A
:102650005E2F529556955770A527A170CA2F40E05E
:10266000D42FC89FA001C99F500DD89F500D112491
:10267000462B572B452B09F47AC064E670E0F1E055
:10268000C1E0E3B149B1042E000C550B40955095C3
:102690004427550F441F5527429FD001439FB00D3B
:1026A000529FB00D11244E2F4295469547704C27EE
:1026B00040FB662460F8712C689EA001699E500D55
:1026C000789E500D11244A2B5B2B452B09F4F0E02A
:1026D00061507109B1F6FF2309F449C071E063B19B
:1026E00049B1042E000C550B409550954427550FC9
:1026F000441F5527429FF001439FF00D529FF00D5C
:102700001124462F429546954770472740FB4424A5
:1027100040F8512C489EA001499E500D589E500DE6
:1027200011244E2B5F2B452BD1F6F8940E941A08EA
:102730004B9B12C01CC08091D106811118C08FEF35
:1027400090E04B9914C00197E1F7F89481E00E9462
:10275000960581110E94D1108091D106882331F015
:1027600080916E00816080936E00E89A7894DF918A
:10277000CF911F910F91FF90EF90DF90CF90BF907E
:10278000AF909F908F907F906F905F904F90089543
:102790006115710571F448B121E030E0B90102C062
:1027A000660F771F8A95E2F7CB018095842388B95D
:1027B00008956130710539F498B101C0660F8A95AA
:1027C000EAF7692B68B908958F929F92AF92BF92F2
:1027D000CF92DF92EF92FF920F931F93CF93DF93ED
:1027E000042FA62EB12C11E001C0110F6A95EAF753
:1027F000C7E0D0E0E22EF12CC82ED12C87E0882E45
:10280000912C013029F4C4018C1B9D0BB70102C02F
:10281000B7018C2F02C0759567958A95E2F76170B4
:102820007727C6010E94C81388B1812B88B960E060
:1028300070E0C5010E94C813219718F7DF91CF916E
:102840001F910F91FF90EF90DF90CF90BF90AF90CE
:102850009F908F900895CF93DF931F92CDB7DEB7EF
:10286000262F599A682F70E083E090E029830E9418
:10287000C8134598298140E064E081E00E94E41398
:10288000459A0F90DF91CF910895599A61E280E0C7
:102890000E942B1460919D06606880E00E942B14BA
:1028A00064E080E00E942B1464E180E00E942B141D
:1028B0006CE080E00E942B1460E280E00E942B1408
:1028C0006CE080E00C942B148FE280939D061092B4
:1028D000A1061092A20610929E063D9A3B9A399A42
:1028E0003C9A0C944514CF93DF93C8EFD1E060E09D
:1028F00081E00E942B142197D1F7DF91CF910895A9
:10290000CF93C62F682F606880E00E942B146C2F35
:10291000606480E0CF910C942B14CF93C0E060E012
:102920008C2F0E94801461E081E00E942B14CF5F05
:10293000C435A9F7C0E065E08C2F0E94801460E8E0
:1029400081E00E942B14CF5FC435A9F7C0E06C2F43
:1029500083E50E9480146FEF81E00E942B14CF5F0B
:10296000C630A9F7C0E06C2F80E00E9480146FEFA2
:1029700081E00E942B14CF5FC630A9F7CF91089554
:10298000EF92FF920F931F93CF93DF937C018CE024
:102990008E9D80018F9D100D1124C0E0D0E08FEF3F
:1029A000E816F10439F0FE01E00FF11FEF5EFD4F74
:1029B000E49101C0E0E08091A1068111E095809151
:1029C000A206813011F090E001C090E861E08091B2
:1029D0009E06813009F060E0E62B6E2F692B81E0C6
:1029E0000E942B142196CC30D105C9F661E080916C
:1029F000A106813009F060E061958091A2068130E6
:102A000011F080E001C080E891E020919E06213025
:102A100009F090E0692B682B81E0DF91CF911F9145
:102A20000F91FF90EF900C942B140F931F93CF9363
:102A3000DF9325E0829FC0011124C0E0D0E08C012B
:102A4000005A1109F801EC0FFD1FEB59FD4FE491FD
:102A50008091A1068111E0958091A206813011F04C
:102A600090E001C090E861E080919E06813009F01D
:102A700060E0E62B6E2F692B81E00E942B142196DB
:102A8000C530D105F9F661E08091A106813009F0E9
:102A900060E061958091A206813011F080E001C074
:102AA00080E891E020919E06213009F090E0692BAA
:102AB000682B81E0DF91CF911F910F910C942B1423
:102AC000CF93DF93EC018991882319F00E941515AB
:102AD000FACFDF91CF910895CF93DF93CDB7DEB7D3
:102AE0002A970FB6F894DEBF0FBECDBF4AE0BE01F5
:102AF0006F5F7F4F0E94351ECE0101960E946015C8
:102B00002A960FB6F894DEBF0FBECDBFDF91CF91EE
:102B10000895CF93DF93CDB7DEB72A970FB6F89419
:102B2000DEBF0FBECDBF2AE0AE014F5F5F4F0E94F8
:102B3000401ECE0101960E9460152A960FB6F894A9
:102B4000DEBF0FBECDBFDF91CF910895CF93DF934E
:102B5000FC018491EF012196882321F00E94151534
:102B6000FE01F7CFDF91CF91089581E09091A1060A
:102B7000911180E08093A106089581E09091A206D2
:102B8000911180E08093A206089581E090919E06C5
:102B9000911180E080939E060895519A549A559A17
:102BA00050981092D306089528E030E090E840E273
:102BB00050E160E3792F782319F05BB96BB902C05B
:102BC0001BB84BB9969521503109A1F71BB8089550
:102BD000CF93DF931F92CDB7DEB780E18BB9198217
:102BE00080E020E330E19981983051F02BB999B120
:102BF000880F9170892B3BB999819F5F9983F3CF9F
:102C00000F90DF91CF91089582E38BB982E18BB968
:102C1000089528E100002A95E9F70197D1F7089572
:102C20000895DF92EF92FF920F931F93CF93DF935C
:102C3000082FC8E0D0E010E880E2F82E90E1E92EFD
:102C400020E3D22E812F802339F0EBB881E090E091
:102C50000E940916DBB806C01BB881E090E00E9414
:102C60000916FBB81695219769F781E090E00E945C
:102C700009161BB8DF91CF911F910F91FF90EF9034
:102C8000DF9008959091D306911103C00E94111610
:102C900002C00E94D41580E00895FF920F931F9305
:102CA000CF93DF931F92CDB7DEB780E18BB981E080
:102CB00090E00E940916198210E000E380E1F82EEE
:102CC0008981883091F00BB981E090E00E9409166B
:102CD00089B1110F8170182BFBB881E090E00E9440
:102CE000091689818F5F8983EBCF812F0F90DF9148
:102CF000CF911F910F91FF9008958091D30681117C
:102D000002C00C944D160C94E81582E38BB981E057
:102D100090E00E94091682E18BB981E090E00C946A
:102D2000091681E08093D30608951092D306089582
:102D30000E94E81587FDFCCF0895CF92DF92EF92B5
:102D4000FF92CF93C82F6A017B010090D50604C083
:102D5000CC0CDD1CEE1CFF1C0A94D2F78FEF0E94F6
:102D6000D4158C2F80640E94D4158F2D0E94D41509
:102D70008E2D0E94D4158D2D0E94D4158C2D0E946D
:102D8000D41585E90E94D4158FEF0E94D4150E94B6
:102D900098168093E00681508E3FC8F3CF91FF9044
:102DA000EF90DF90CF900895AB01BC011092DE064A
:102DB00081E10E949D160E94E8158093E1068E3FF6
:102DC000D1F70895FF920F931F93CF93DF9300D015
:102DD00000D0CDB7DEB7F82E8091DD06811113C08B
:102DE0008FEE8F0D823040F088EE8F0D823020F014
:102DF00080EE8F0D823038F489E0440F551F661F36
:102E0000771F8A95D1F78FEF49835A836B837C8331
:102E10000E9442168F2D80640E9442167C81872F6B
:102E20000E9442166B81862F0E9442165A81852F7E
:102E30000E9442164981842F0E94421688E0F812AF
:102E400002C087E801C085E90E94421610E00E9496
:102E50007D16082F8F3F19F41150C9F71EC081113C
:102E60001CC08AE3F81219C00E947D161092D50684
:102E700086FF05C081E08093DD0682E006C01092E7
:102E8000DD0689E08093D50681E08093DF060E940D
:102E90007D160E947D160E947D160E947D16802F51
:102EA0000F900F900F900F90DF91CF911F910F9186
:102EB000FF900895EF92FF920F931F93CF93DF93AC
:102EC00000D000D0CDB7DEB70091D7061091D8065C
:102ED0002091D9063091DA066017710782079307AF
:102EE00009F444C0AB01BC014093D7065093D80607
:102EF0006093D9067093DA0659988FEF49835A8305
:102F00006B837C830E9442168FEF0E944216498198
:102F10005A816B817C8181E10E94E216811127C078
:102F200000E010E00E947D168E3F31F00150110943
:102F3000C9F7599A80E01BC0E12CF12C0091DB0607
:102F40001091DC060E0D1F1D0E947D16F801808376
:102F5000FFEFEF1AFF0AE11482E0F80679F70E940A
:102F60007D160E947D160E947D16599A81E00F9071
:102F70000F900F900F90DF91CF911F910F91FF90C5
:102F8000EF900895CF93DF93AB01BC0188E10E94DD
:102F9000E21681113DC059988EEF0E944216C0E0A2
:102FA000D0E0E091DB06F091DC06EC0FFD1F8081A4
:102FB0000E9442162196C11582E0D80791F78FEF43
:102FC0000E9442168FEF0E9442160E947D16982F93
:102FD0009F71953079F4C0E0D0E00E947D16811198
:102FE00003C02196D1F706C0599A8FEF0E9442166E
:102FF000599808C0599A0CC09E012F5F3F4F2196E7
:10300000C9F3E9010E947D168823B1F3599A81E042
:10301000DF91CF910895AB01BC0180E10C94E216E1
:10302000CF92DF92EF92FF920F931F93CF93DF9394
:103030001092D40685E08093D6060E94CD150E949A
:1030400095164B9998C080E185B9599A8FE097E21F
:10305000A0E0B0E08093D7069093D806A093D9065D
:10306000B093DA06C4E60E948516C150E1F759987C
:10307000CCE08FEF0E944216C150D9F700E018E073
:1030800040E050E0BA0180E00E94E21601501109D0
:1030900031F415B8599A81E08093D4066DC081301F
:1030A00079F7CCE08FEF0E944216C150D9F7C1E00A
:1030B000D2E04AEA51E060E070E088E00E94E21667
:1030C0008A3A49F481E08093DF06C12CD12CE12CAF
:1030D00080E4F82E09C08130A9F3219751F71092AE
:1030E000DF06C12CD12C7601CCE08FEF0E94421676
:1030F000C150D9F701E012E040E050E0BA0187E3A7
:103100000E94E216B701A60189E20E94E216015070
:10311000110931F482E08093D40615B8599A2CC075
:103120008111EACF1092DD0689E08093D506809167
:10313000DF06813081F040E050E0BA018BE30E946D
:10314000E21660E072E080E090E00E940B1815B893
:10315000599AC1E011C0C5E6D0E08FEF0E94421637
:1031600040E050E0BA018AE30E94E216219719F389
:103170008111F3CFE0CFC0E08C2FDF91CF911F9171
:103180000F91FF90EF90DF90CF90089580E185B987
:10319000089515B808950E94E8154B9902C08F3F15
:1031A000D1F708954F925F926F927F928F929F9284
:1031B000AF92BF92CF92DF92EF92FF921F93CF9385
:1031C000DF9360E070E0CB010E945A17E091DB06CC
:1031D000F091DC0680818D7F893E51F1DF01A250A4
:1031E000BE4F8D919C9185359A4A11F086E014C0AE
:1031F000E254FE4F84818093E60660857185828566
:1032000093850E945A17E091DB06F091DC068081DD
:103210008D7F893E29F083E08093D40680E0A8C0AA
:103220008091E6068B3021F0863011F084E0F4CFF7
:10323000C091DB06D091DC06438554855093F0069F
:103240004093EF0615851093F50686859785C48C07
:10325000D58CE68CF78CC80ED91EE11CF11CC092EF
:10326000F106D092F206E092F306F092F406209175
:10327000E606263019F48689978902C08CA19DA1A3
:10328000A089B0E08A9FB0018B9F700D9A9F700D4E
:10329000112446015701860E971EA11CB11C809275
:1032A000E2069092E306A092E406B092E5064CA4F2
:1032B0005DA46EA47FA42630B9F0A3019201225030
:1032C000310941095109A12FB0E00E94F41D860E79
:1032D000971EA81EB91E8092E7069092E806A0925B
:1032E000E906B092EA0625C09C010E94E51DC60EC3
:1032F000D71EE81EF91EC092E706D092E806E092BB
:10330000E906F092EA068189928935E0880F991FD3
:103310003A95E1F7BA010E94AF1DC60ED71EE11C17
:10332000F11CC092E206D092E306E092E406F0922D
:10333000E506812F90E020E031E0320F81309105E9
:1033400021F096958795232FF7CF2093F60680914D
:10335000E7069091E806A091E906B091EA0680930D
:10336000EB069093EC06A093ED06B093EE0681E099
:10337000DF91CF911F91FF90EF90DF90CF90BF90A2
:10338000AF909F908F907F906F905F904F90089537
:103390004F925F926F927F928F929F92AF92BF9265
:1033A000CF92DF92EF92FF92CF932091E6062630E4
:1033B00039F488248A94982CA12CB12C21E007C0E0
:1033C00088248A94982CA82C2FE0B22E22E004C0E6
:1033D000660F771F881F991F2A95D2F72091EF0655
:1033E0003091F00640E050E00E94C31D6B017C016B
:1033F0008091F1069091F206A091F306B091F40647
:1034000029013A01480E591E6A1E7B1ECAE0C301FB
:10341000B2010E945A17882311F0C150C1F7809160
:10342000DB069091DC06FC01EC0DFD1D8081918195
:10343000A281B381BC01CD01682179218A219B2120
:10344000CF91FF90EF90DF90CF90BF90AF909F9083
:103450008F907F906F905F904F9008954F925F9202
:103460006F927F928F929F92AF92BF92CF92DF9294
:10347000EF92FF92CF9388EEC82E83E0D82EE12CF6
:10348000F12CC701B6010E94C819611571058105AB
:10349000910591F030EAC31636E8D30631E0E30631
:1034A000F10431F02FEFC21AD20AE20AF20AE9CF90
:1034B00060E070E0CB0151C040EAC41646E8D40693
:1034C00041E0E406F10409F448C08091E606863044
:1034D00011F481E001C082E0A701960104C0220F2F
:1034E000331F441F551F8A95D2F7CA01B901209195
:1034F000EF063091F00640E050E00E94C31D2B0122
:103500003C018091F1069091F206A091F306B091F2
:10351000F40649015A01880E991EAA1EBB1ECAE074
:10352000C501B4010E945A17882311F0C150C1F798
:103530008091DB069091DC06FC01E40DF51D8FEF18
:1035400090E0A0E0B0E080839183A283B383C501C3
:10355000B4010E94C217C701B601CF91FF90EF904E
:10356000DF90CF90BF90AF909F908F907F906F90A3
:103570005F904F9008958F929F92AF92BF92CF929B
:10358000DF92EF92FF920F931F93CF93DF93EC01A3
:1035900055E0CC0FDD1F5A95E1F78E01012F112761
:1035A00006952091F506622F70E0C8010E94AF1DBC
:1035B0007B018091EB069091EC06A091ED06B09115
:1035C000EE06672B09F44EC03091E606363071F4F2
:1035D0008090E7069090E806A090E906B090EA0691
:1035E00088159905AA05BB0509F45AC08090E20622
:1035F0009090E306A090E406B090E506BC01CD01F2
:10360000681979098A099B0930E040E050E00E947E
:10361000C31DCA01B9016E5F7F4F8F4F9F4FC12CF1
:10362000D12C0E94C8192FEFC21AD20ACE14DF047F
:10363000C1F79B01AC012250310941095109A09108
:10364000F506B0E00E94F41D8090E2069090E3063B
:10365000A090E406B090E506DC01CB01880D991D31
:10366000AA1DBB1D9801322F2227330FC21BD30B7B
:103670004091F5064E9D90014F9D300D1124021B87
:10368000130BBC01CD01600F711F811D911D0E94A4
:103690005A178091DB069091DC068C0F9D1F02C0AB
:1036A00080E090E0DF91CF911F910F91FF90EF901C
:1036B000DF90CF90BF90AF909F908F9008950F9321
:1036C0001F93FC01892B49F48091E7069091E8064D
:1036D000A091E906B091EA0639C09385892F8071DF
:1036E00094FF3DC02091E606828D938D2B3079F4B6
:1036F00024893589A90160E070E0BA015527442783
:10370000A0E0B0E0842B952BA62BB72B02C0A0E045
:10371000B0E00097A105B105B9F29C01AD012250BE
:10372000310941095109A091F506B0E00E94F41D4C
:103730000091E2061091E3062091E4063091E5063F
:10374000DC01CB01800F911FA21FB31F8093EB06FA
:103750009093EC06A093ED06B093EE0681E01F91E6
:103760000F910895FC01892BB1F08081882399F095
:10377000853E89F08E3221F481818E3219F00BC0A2
:10378000853049F083858E3131F08F3021F08832D9
:1037900011F0CF01089580E090E008950E94BB1AD7
:1037A0000C94B21B000000000000000000000000AC
:1037B000000000000000089500000000000000006C
:1037C0002091D6062A95F1F70895AF93AFB7AF933E
:1037D000BF932F93A091D0062091CF06A22BA8B91A
:1037E000A4EBA6BD20E0E8DFA091CF06A8B9B09178
:1037F000A406BB2341F02093D0062F91BF91AF9137
:10380000AFBFAF911895A0E3ABB9A9B1A170AA0F52
:103810002A2FA0E1ABB9A0919206B0919306119620
:10382000A0939206B0939306A03989F4BC3079F442
:10383000A1E0A093A406CF93C0E7A8E0B0E3BBB992
:10384000B0E1BBB9AA95D1F7CA95B9F7CF9120934A
:10385000D0062F91BF91AF91AFBFAF9118952F9325
:103860002FB72F9330995BC03F9330919A0626B1C2
:1038700024702327E1F326B1247020939A0628E0D0
:103880002A95F1F700004F935F936F937F938F9387
:10389000EF93FF9360E0E091A506F091A6063DE569
:1038A00041E00DC050919A0676B174707527E1F32E
:1038B00076B1747070939A067EE07A95F1F727E0FE
:1038C00081E079B17470D9F4000000007BE17A9551
:1038D000F1F776B1747050919A0670939A06752735
:1038E00076957695880F872B2A9559F7853D09F4AB
:1038F00061E06030B9F281933150404099F69F9376
:10390000AF93BF930E940005BF91AF919F91FF912C
:10391000EF918F917F916F915F914F913F912F9197
:103920002FBF2F91189581E00E9457028FEF80934F
:103930001601CBE80E94DD11309B03C00E94C9181C
:10394000F9CF0E94C61883B18F7080930C019091BB
:103950000B01891771F180930B01883049F0843095
:1039600009F4F4C0823009F4F3C0813011F5F2C0DB
:1039700082E02091A306982F920FE92FE7708E2FF7
:103980008695E82FF0E0E459FF4FE49190FFE2952F
:10399000EF708E2F887009F0E86FE20FE53C08F0B9
:1039A000DBC0E093A3068091A3068C3810F0C0938F
:1039B000A3068091D106882309F4BCCF8091A40688
:1039C000882309F4B7CFF894309194063F5F3F7095
:1039D000309394062091A306269526952093D2062F
:1039E00040E1249FC0011124830F911D90939C06F8
:1039F00080939B060090F60602C0969587950A94E0
:103A0000E2F79093180180931701880F991F880F90
:103A1000991FFC01E955F94F80819181A281B38101
:103A20008093950690939606A0939706B093980678
:103A3000809116012817B9F02093160163E08CE0FD
:103A40000E94801482E791E00E94A6158091D20620
:103A50008A3020F483E091E00E9460158091D206C4
:103A600090E00E946C158091940690910D0198133E
:103A700006C0209112019091D206291741F1909130
:103A80000E01981306C0209113019091D2062917B8
:103A9000F1F090910F01981306C0209114019091BC
:103AA000D2062917A1F090911001981306C0209119
:103AB00015019091D206291751F090911101981398
:103AC00008C0909116018091D206981302C00E94FE
:103AD00098048091950690919606A0919706B091D2
:103AE00098060297A109B109AC01BD010090F60644
:103AF00004C0440F551F661F771F0A94D2F78091A8
:103B0000E2069091E306A091E406B091E506840FE9
:103B1000951FA61FB71F2091F50630E021503109EF
:103B200040919B0650919C0624233523BC01CD0176
:103B3000620F731F811D911D0E94D416109293066F
:103B4000109292061092A4067894F4CE84E011CFDD
:103B500086E00FCF80E00DCF1092A30624CFAA1BE2
:103B6000BB1B51E107C0AA1FBB1FA617B70710F068
:103B7000A61BB70B881F991F5A95A9F7809590959A
:103B8000BC01CD010895A1E21A2EAA1BBB1BFD01A9
:103B90000DC0AA1FBB1FEE1FFF1FA217B307E4072C
:103BA000F50720F0A21BB30BE40BF50B661F771F84
:103BB000881F991F1A9469F7609570958095909564
:103BC0009B01AC01BD01CF010895A29FB001B39F3D
:103BD000C001A39F700D811D1124911DB29F700D16
:103BE000811D1124911D08950E94E51DA59F900D32
:103BF000B49F900DA49F800D911D11240895FB0189
:103C0000DC0105900D920020E1F70895FB01DC0135
:103C10004150504030F08D910590801919F40020EA
:103C2000B9F7881B990B0895FB01DC0104C08D9145
:103C30000190801921F441505040C8F7881B990B1E
:103C40000895DC01FB014150504058F049F00190CB
:103C50000D920020C1F7E61BF70B3197CF010895B5
:103C60001C9201900020E9F7F6CFBB274A3031F4CF
:103C7000992322F4BDE2909581959F4F0C94721E7A
:103C8000BB272A3051F4992342F4BDE290958095E8
:103C9000709561957F4F8F4F9F4F0C94501EBB279F
:103CA000FA01A62F6217710581059105330B30FBD0
:103CB00066F0AA27660F771F881F991FAA1FA217F1
:103CC00010F0A21B63953850A9F7A05DAA3308F045
:103CD000A95DA19336F7B111B1931082CA010C947A
:103CE0008B1EBB27FB015527AA27880F991FAA1FE8
:103CF000A41710F0A41B83955051B9F7A05DAA3307
:103D000008F0A95DA193009779F7B111B1931192D1
:103D1000CB010C948B1EDC01FC01672F7191772382
:103D2000E1F7329704C07C916D9370836291AE1776
:103D3000BF07C8F30895F999FECF92BD81BDF89AE7
:103D4000992780B50895262FF999FECF1FBA92BD05
:103D500081BD20BD0FB6F894FA9AF99A0FBE01966C
:063D60000895F894FFCF66
:063D6600FFFFFE2000003B
:00000001FF
