:100000000C94E5000C9475150C9402010C940201FB
:100010000C9402010C9402010C9402010C94020154
:100020000C9402010C9402010C9402010C94020144
:100030000C9402010C9402010C9402010C94020134
:100040000C942B150C9402010C9402010C940201E7
:100050000C9402010C9402010C9402010C94020114
:100060000C9402010C94020120000FED0321534473
:1000700049534B494920434647004E6F2053442083
:10008000696E73657274656400464154313600468A
:100090004154333200547970653A2000436F6465EF
:1000A0003A2000534420426C6F636B204552524FFC
:1000B00052004D697373696E67204D4252202020B3
:1000C00000436C7573746572203C2033326B4200C0
:1000D0004E6F742046415431362F33322020004277
:1000E0006F6F7420736563746F7220202000534417
:1000F0002063616E277420696E6974200053442068
:1001000063616E27742069646C652000452052206D
:1001100052204F205200204E6F726D616C2053446C
:1001200020636172642000202020534448432063F0
:100130006172642020202000536F7274696E672002
:1001400066696C65732E2E2E00204E6F7468696E82
:10015000672068657265212020004275696C6469BA
:100160006E67206C6973742E2E2E0053656C656368
:1001700074204E494320696D6167650054523A20EE
:100180000053656C6563742064656C61793A202066
:100190000044656C61793A20002020202020202036
:1001A000202020202020202020004E49433A2000FB
:1001B0002020202020762E352E3428323031382948
:1001C000004170706C65205D5B0011241FBECFEF95
:1001D000D8E0DEBFCDBF11E0A0E0B1E0E6EEFFE287
:1001E00002C005900D92AA30B107D9F728E0AAE025
:1001F000B1E001C01D92A735B207E1F70E94D81502
:100200000C94F1170C9400000E94D60E60E080E080
:100210000E94DC0E8AE790E00E942C0F61E081E0F2
:100220000E94DC0E89E991E00E942C0F4B99FECFD1
:100230000895CF93C82F14B817B81AB815B818B8BE
:100240001BB8249A2C9A8AE387B982E38AB982E0A0
:1002500088B98BB9399A3B9A419A17BC14BC91E082
:1002600095BD85BF809369001092F7071092310801
:100270001092300810922F081092F6071092F5078E
:100280001092FD0790930408109203081092150134
:1002900010921E018FE191E090930608809305086B
:1002A00080E090E00E94DB17823018F48093FC0716
:1002B00007C01092FC0760E080E090E00E94E31726
:1002C000CC23E9F00E94920E0E94D60E60E080E0FE
:1002D0000E94DC0E81EC91E00E942C0F61E080E036
:1002E0000E94DC0E80EB91E00E942C0F2FE988E940
:1002F0009BE7215080409040E1F700C00000CF9183
:100300000895FC01892B89F08081882379F0853E4E
:1003100061F08F3551F080858E3439F481858934D0
:1003200021F481E09285933409F080E00895FC0186
:10033000892B59F08081882349F0853E31F08F3533
:1003400021F0838582958170089580E00895CF9291
:10035000DF92EF92FF920F931F93CF93DF938FEF74
:100360009FEF90930101809300010E9475136B0130
:100370007C01672B682B692BD9F180E090E00E940B
:10038000A61400E010E0C8010E940214EC01892BC1
:1003900049F18881853E11F0811124C08B858F3011
:1003A00009F110930101009300016EE670E0CE01A7
:1003B0000E943F1781E08B87FD8AEC8ADB8ECA8E14
:1003C00060913708709138088091390890913A0807
:1003D000DF91CF911F910F91FF90EF90DF90CF9021
:1003E0000C9412110F5F1F4F003981E0180759F666
:1003F000DF91CF911F910F91FF90EF90DF90CF9001
:1004000008958F929F92AF92BF92CF92DF92EF9218
:10041000FF921F93CF93DF93182FD62FC42F862FD1
:1004200090E020E1429F800D911D1124FC0100907D
:10043000560802C0F695E7950A94E2F7EE0FFF1F03
:10044000EE0FFF1FE95FF74F408151816281738199
:1004500022E02BB91BB82091550830E0215031091A
:1004600082239323C0904208D0904308E090440830
:10047000F090450846015701880E991EA11CB11C39
:1004800042505109610971090090560804C0440F97
:10049000551F661F771F0A94D2F7480D591D6A1D14
:1004A0007B1D88E10E940B108FEF0E94420F8EEFA0
:1004B0000E94420F80EB90E030E120E33BB92BB982
:1004C0000197E1F71BB883E00E94420F8CEF0E9476
:1004D000420F8FEF0E94420F8FE30E94420F8FEC7A
:1004E0000E94420F83EF0E94420F8CEF0E94420F46
:1004F0008FEF0E94420F8FE30E94420F8FEC0E9409
:10050000420F83EF0E94420F8CEF0E94420F85ED55
:100510000E94420F8AEA0E94420F86E90E94420F1F
:100520008FEF0E94420F8EEF0E94420F8C2F869514
:100530008A6A0E94420F8C2F8A6A0E94420F8D2F76
:1005400086958A6A0E94420F8D2F8A6A0E94420F06
:100550008EEFD827CD278C2F86958A6A0E94420F6E
:100560008C2F8A6A0E94420F8EED0E94420F8AEA07
:100570000E94420F8BEE0E94420F8FEF0E94420FAB
:100580008FEF0E94420F8FEF0E94420F8FEF0E9469
:10059000420F8FEF0E94420F8EE591E0189FB0014D
:1005A000199F700D112480E090E050E2A0E1B0E3CB
:1005B000FB01E80FF91FE15EFE4FE08128E030E02B
:1005C00040E8FE2FF42319F0ABB9BBB902C01BB849
:1005D0005BB9469521503109A1F701968D3521E08F
:1005E000920731F71BB880E790E030E120E33BB998
:1005F0002BB90197E1F71BB880E093E020E21BB82C
:100600002BB90197E1F71BB88FEF0E94420F8FEFD4
:100610000E94420F0E94560F0E941B1282E08BB96B
:100620001BB8DF91CF911F91FF90EF90DF90CF909B
:10063000BF90AF909F908F900895CF92DF92EF92EE
:10064000FF920F931F93CF93DF934B9935C000E137
:1006500011E0F80181918F3F59F186E1C82E81E0C8
:10066000D82E9FE1E92E91E0F92EC0E0DFEFF801EE
:1006700060816F3F29F0F60140818C2F0E940102BA
:10068000F801D1938F01F601D1936F01F701128226
:10069000CF5FF2EAEF1AFEEFFF0AC53041F7109282
:1006A00015018FE191E0909306088093050804C03E
:1006B00081E0E531F80771F6DF91CF911F910F913D
:1006C000FF90EF90DF90CF9008958091F507909183
:1006D000F60780399C40C0F480E18BB98091F50722
:1006E0009091F60720E330E1803140E1940730F447
:1006F0004B990AC02BB93BB90196F6CF80E99CE033
:100700009093F6078093F50708954B996EC09091EA
:100710001501292F30E04EE551E0249FF001259F7F
:10072000F00D349FF00D1124E15EFE4F82818D3A71
:1007300009F042C080911E01811131C08091F707FC
:10074000F901E05FFE4F8083F901EA5EFE4F4091C0
:100750000308469546954083282F2D7F2D3011F4B0
:100760008E5F01C08F5F8F708093F707943029F4FC
:100770000E9465030E941D031CC09F5F909315019A
:100780004EE551E0949F9001959F300D1124C901D1
:10079000815E9E4F90930608809305080DC080915E
:1007A0000E018093F70710921E018F30F1F40E9422
:1007B000650381E080930408209115018EE591E0A6
:1007C000289FF001299FF00D1124E15EFE4F8281E8
:1007D000863959F487818575880F90859575892BA1
:1007E00080930E0181E080931E0108952FE131E096
:1007F00045E080E090E0F901E80FF91F10820196D2
:100800008E3551E09507B9F74150225A3E4F4111BC
:10081000F0CFE6E1F1E0A0E1B1E08FEF81938D93BD
:1008200091E0EB31F907D1F70895CF93C82F8FEFFF
:100830009FEF90930101809300010E94031059984B
:100840004B9B03C00E9404014CC08FE191E0909348
:100850003C0880933B080E946011811144C00E94B3
:10086000D60E60E080E00E94DC0E8CE091E00E94F9
:100870002C0F61E080E00E94DC0E80913408813012
:1008800019F48DEF90E004C0823029F48EEE90E0F0
:100890000E942C0F22C0833019F48FED90E0F8CF26
:1008A000843019F480ED90E0F3CF853019F481ECB9
:1008B00090E0EECF863019F482EB90E0E9CF8730FC
:1008C00019F483EA90E0E4CF8CE990E00E942C0FC9
:1008D0008091340890E00E94F20E109231084B9BF8
:1008E000FECF80E0B0C0CC23D9F00E94D60E60E0ED
:1008F00080E00E94DC0E80913F08823019F487E28C
:1009000091E002C086E191E00E942C0F59982FEBF4
:1009100085E692E5215080409040E1F700C000005C
:100920000E942212811143C00E94D60E60E080E036
:100930000E94DC0E8CE091E00E942C0F61E080E0D0
:100940000E94DC0E80913408813019F48DEF90E024
:1009500004C0823029F48EEE90E00E942C0F22C059
:10096000833019F48FED90E0F8CF843019F480EDE6
:1009700090E0F3CF853019F481EC90E0EECF863033
:1009800019F482EB90E0E9CF873019F483EA90E024
:10099000E4CF8CE990E00E942C0F8091340890E025
:1009A0000E94F20E109231084B9BFECF9ACF4091DD
:1009B000550820914F0830915008429FC001439F35
:1009C000900D112481159047D0F485E08093340870
:1009D0000E94D60E60E080E00E94DC0E8CE091E088
:1009E0000E942C0F61E080E00E94DC0E81EC90E020
:1009F0000E942C0F109231084B9BFECF72CFCC235C
:100A0000E1F061E080E00E94DC0E85E990E00E9468
:100A10002C0F809146088B3019F48FE890E002C0CB
:100A200089E890E00E942C0F8FEB95E622E581503B
:100A300090402040E1F700C0000059980E94F60362
:100A40000E94FF0F81E0CF9108958F929F92AF9205
:100A5000BF92CF92DF92EF92FF920F931F93CF93AB
:100A6000DF936115710519F480E090E04CC17B01C2
:100A7000EC0160E080E00E94DC0E8AEA91E00E94D6
:100A80002C0F6701570108E0A00EB11CF6018191FF
:100A90006F01803211F00E94E40EAC14BD04B1F776
:100AA00089E991E00E942C0F61E080E00E94DC0E59
:100AB00089E991E00E942C0F61E080E00E94DC0E49
:100AC00081E991E00E942C0F8091360890E00E940D
:100AD000F20ED0930B01C0930A0120914608F70152
:100AE000828D938D2B3091F44489558960E070E0BC
:100AF000BA0155274427A0E0B0E08A019B01082BEA
:100B0000192B2A2B3B2BC901B80103C0BC0180E083
:100B100090E0611571058105910509F4A5CFE7E025
:100B2000F8E0119211921192119218E0EF32F10750
:100B3000C1F76093070870930808809309089093A1
:100B40000A0811E0663FFFEF7F0781059105A8F4D1
:100B50000E940F13663F2FEF72078105910558F42D
:100B600034E0139FF0011124E95FF74F6083718334
:100B7000828393831F5F1A3028F380904B089090F4
:100B80004C08A0904D08B0904E08809100019091C3
:100B90000101019609F488C080E090E00E94A6144B
:100BA0008FEF9FEFDC018093370890933808A09374
:100BB0003908B0933A0880910001909101010E9498
:100BC0001515FC0120914608828D938D2B3071F410
:100BD000C488D588E12CF12C7601DD24CC24A0E05A
:100BE000B0E0C82AD92AEA2AFB2A03C06C01E12C0A
:100BF000F12C02E0C01AD108E108F108A0915508D3
:100C0000B0E0A70196010E943417009142081091AC
:100C100043082091440830914508600F711F821FDE
:100C2000931F0E94BB10E0913B08F0913C088DECB3
:100C300092E0ABEAB1E080839183A283B3834581E4
:100C40005681678170858185928584169506A606F2
:100C5000B70619F48C179D0731F0438754876587D1
:100C60007687908B878785829682A782B086D28787
:100C7000C18780913608848380910008818BA09180
:100C80005508B0E0A70196010E943417C0904208B1
:100C9000D0904308E0904408F09045086C0D7D1D0D
:100CA0008E1D9F1D0E94121180924B0890924C083D
:100CB000A0924D08B0924E081092F6071092F507D8
:100CC000109230081092FD07C1E0C0930408109202
:100CD00003081092F7071092150110921E018FE180
:100CE00091E09093060880930508599840E052E0FF
:100CF00060E070E080E10E9450100E94F603C09313
:100D0000310881E090E0DF91CF911F910F91FF902A
:100D1000EF90DF90CF90BF90AF909F908F9008950D
:100D2000CF92DF92EF92FF920F931F93CF93DF93B7
:100D3000C0904B08D0904C08E0904D08F0904E08C1
:100D40008091000190910101019609F477C080E043
:100D500090E00E94A6148FEF9FEFDC01809337088C
:100D600090933808A0933908B0933A088091000115
:100D7000909101010E941515FC0120914608828D79
:100D8000938D2B3079F424893589A90160E070E0D6
:100D9000BA0155274427A0E0B0E0842B952BA62B61
:100DA000B72B02C0A0E0B0E09C01AD012250310998
:100DB00041095109A0915508B0E00E9434170091F3
:100DC0004208109143082091440830914508600F73
:100DD000711F821F931F0E94BB10E0913B08F0918E
:100DE0003C088FEF9FEFDC01809337089093380821
:100DF000A0933908B0933A0883859485A585B68574
:100E000080934B0890934C08A0934D08B0934E08E4
:100E1000C785D089CE010E9415158C010E948101E1
:100E2000882361F0B801CE01DF91CF911F910F911E
:100E3000FF90EF90DF90CF900C942505C0924B0867
:100E4000D0924C08E0924D08F0924E08DF91CF917D
:100E50001F910F91FF90EF90DF90CF9008955E9AD1
:100E60002D9A5F9A08957F928F929F92AF92BF9230
:100E7000CF92DF92EF92FF920F931F93CF93DF9366
:100E80000E94D60E60E080E00E94DC0E81E891E0D6
:100E90000E942C0F61E080E00E94DC0E81E991E06D
:100EA0000E942C0F8091360890E00E94F20E9090E4
:100EB0003608A92CBB24B39477247394DAE08D2EE2
:100EC0000E942F0780913608A81699F061E080E013
:100ED0000E94DC0E81E991E00E942C0F809136087F
:100EE00090E00E94F20E88E690E00E942C0FA09005
:100EF00036084B996BC189B12091FC0741E050E065
:100F0000222311F040E050E093B161E070E0213025
:100F100011F060E070E09295969597709B25917026
:100F2000C92F20E0D22FC69FF001C79FF00DD69F9A
:100F3000F00D1124082E000C990B809590958827B0
:100F4000990F881F9927849F9001859F300D949F4A
:100F5000300D11242E2B3F2B232BB1F189B193B1EE
:100F60009295969597709B25092F017010E0069F2A
:100F7000F001079FF00D169FF00D1124082E000CB4
:100F8000990B809590958827990F881F9927849FA2
:100F90009001859F300D949F300D11242E2B3F2BF7
:100FA000232BE1F68FEB9AE720E18150904020401F
:100FB000E1F700C0000080913608815019F080935D
:100FC000360802C08092360893B12091FC0761E098
:100FD00070E0222311F060E070E089B141E050E060
:100FE000213011F040E050E09295969597709B2546
:100FF00090FBEE24E0F8F12CE69EF001E79EF00D68
:10100000F69EF00D1124082E000C990B80959095FA
:101010008827990F881F9927849F9001859F300DFD
:10102000949F300D11242E2B3F2B232BC1F193B114
:1010300089B19295969597709B2590FBCC24C0F82A
:10104000D12CC69EF001C79EF00DD69EF00D112446
:10105000082E000C990B809590958827990F881F72
:101060009927849F9001859F300D949F300D112406
:101070002E2B3F2B232BD9F68FEB9AE720E18150C3
:1010800090402040E1F700C00000809136088F5F5B
:101090008B3018F48093360802C0709236084E994F
:1010A0000FCF4E9BFECF8FEB9AE720E1815090400F
:1010B0002040E1F700C0000080913608981609F43E
:1010C00085C08091000190910101019609F47EC0D4
:1010D00080E090E00E94A6148FE191E090933C089C
:1010E00080933B080E94F60310923708109238084C
:1010F0001092390810923A088091000190910101F4
:101100000E941515FC0120914608828D938D2B308D
:1011100071F4C488D588E12CF12C7601DD24CC242F
:10112000A0E0B0E0C82AD92AEA2AFB2A03C06C0151
:10113000E12CF12C82E0C81AD108E108F108A09155
:101140005508B0E0A70196010E94341700914208AB
:10115000109143082091440830914508600F711F99
:10116000821F931F0E94BB10E0913B08F0913C0846
:1011700080819181A281B3818D3C9240AB4AB14084
:1011800029F5809136088483A0915508B0E0A70125
:1011900096010E9434170091420810914308209153
:1011A000440830914508600F711F821F931FDF9123
:1011B000CF911F910F91FF90EF90DF90CF90BF9054
:1011C000AF909F908F907F900C941211DF91CF91F0
:1011D0001F910F91FF90EF90DF90CF90BF90AF9055
:1011E0009F908F907F9008952F923F925F926F9281
:1011F0007F928F929F92AF92BF92CF92DF92EF92A7
:10120000FF920F931F93CF93DF93CDB7DEB72A974B
:101210000FB6F894DEBF0FBECDBF10920D01109235
:101220000C018FE191E090933C0880933B088BED9B
:1012300093E090930208809301088FEF9FEFDC0109
:101240008093370890933808A0933908B0933A08F0
:101250000E94F60360E080E00E94DC0E8BE691E0E5
:101260000E942C0F61E080E00E94DC0E8AE591E094
:101270000E942C0F00E010E0C8010E9415157C01AF
:10128000009799F0FC01808181110FC080910C01C1
:1012900090910D01892BC9F561E080E00E94DC0E80
:1012A00089E491E00E942C0F06C2C7010E948101CF
:1012B000811105C0C7010E9497018823B9F0E09110
:1012C0000C01F0910D01EE0FFF1F8091010890912C
:1012D0000208E80FF91F1183008380910C0190919F
:1012E0000D01019690930D0180930C010F5F1F4F2C
:1012F00080910C0190910D01883C91053CF60039DC
:10130000F1E01F0709F0B8CFC1CF61E080E00E9493
:10131000DC0E88E391E00E942C0F80910C019091EB
:101320000D0102971CF0812C912C5DC020910C01C5
:1013300030910D0140910A0150910B01E09101089B
:10134000F091020800E010E080E090E062C08701C8
:10135000000F111FE0910108F0910208E00FF11F4A
:10136000808191810E94151548E050E0BC01CE01BA
:1013700001960E946117E0910108F0910208EA0DC0
:10138000FB1D808191810E94151548E050E0BC0151
:10139000CE0101960E94541797FF12C0E0910108F8
:1013A000F0910208DF01A00FB11F8D919C91119760
:1013B000EA0DFB1D208131812D933C939183808325
:1013C0002FEFE21AF20A32E0A30EB11C80910C0159
:1013D00090910D0188199909E816F9060CF4B7CF18
:1013E0008FEF881A980A80910C0190910D01019756
:1013F000881699060CF09ACFA12CB12CEE24E39418
:10140000F12CE4CF619171916417750709F48C0197
:10141000019682179307B4F3EE24EA94FE2C552428
:1014200053940E942F074B9946C189B12091FC0724
:1014300041E050E0222311F040E050E093B161E040
:1014400070E0213011F060E070E092959695977011
:101450009525917099871A8629853A85269FF001EE
:10146000279FF00D369FF00D1124082E000C990BCC
:10147000809590958827990F881F9927849F9001C0
:10148000859F300D949F300D11242E2B3F2B232B45
:10149000C9F189B193B1929596959770952590FB76
:1014A000222420F8312C269EF001279EF00D369E36
:1014B000F00D1124082E000C990B8095909588272B
:1014C000990F881F9927849F9001859F300D949FC5
:1014D000300D11242E2B3F2B232BD9F63FEB8AE71F
:1014E00090E1315080409040E1F700C000000F5F74
:1014F0001F4F80910C0190910D010817190711F4ED
:1015000000E010E093B12091FC0761E070E022233D
:1015100011F060E070E089B141E050E0213011F05D
:1015200040E050E0929596959770952590FB662443
:1015300060F8712C669EF001679EF00D769EF00DAE
:101540001124082E000C990B809590958827990FEF
:10155000881F9927849F9001859F300D949F300D9F
:1015600011242E2B3F2B232BC1F193B189B19295DE
:1015700096959770952590FBCC24C0F8D12CC69EEB
:10158000F001C79EF00DD69EF00D1124082E000C20
:10159000990B809590958827990F881F9927849F8C
:1015A0009001859F300D949F300D11242E2B3F2BE1
:1015B000232BD9F6EFEBFAE720E1E150F040204091
:1015C000E1F700C000000150110917FF06C00091AB
:1015D0000C0110910D01015011094E992FC04E9B25
:1015E000FECF3FEB8AE790E1315080409040E1F739
:1015F00000C00000000F111FE0910108F0910208E7
:10160000E00FF11F808191810E9415157C010E94DD
:101610009701882331F0C7010E94A6140E94F408A4
:101620004AC08091010890910208FC01E00FF11F6F
:10163000B701808191810E9425053DC00E151F05CF
:1016400009F4EFCEE0910108F0910208C801880F7B
:10165000991FE80FF91F808191810E9415157C0167
:1016600061E080E00E94DC0EC7010E9497018823A0
:1016700021F083E091E00E94E60E57014701E8E087
:101680008E0E911CF50181915F01803211F00E9454
:10169000E40EA814B904B1F7C7010E94970188238A
:1016A00021F085E091E00E94E60E89E991E00E9438
:1016B0002C0F7801B6CE2A960FB6F894DEBF0FBE77
:1016C000CDBFDF91CF911F910F91FF90EF90DF90F1
:1016D000CF90BF90AF909F908F907F906F905F90D2
:1016E0003F902F900895CF92DF92EF92FF920F9349
:1016F0001F93CF93DF938FE191E090933C08809309
:101700003B088FEF9FEFDC018093370890933808F8
:10171000A0933908B0933A0880E090E00E94A614A4
:101720008FEF9FEF9093010180930001CFEFDFEFE8
:1017300000E010E0C8010E9415157C01009709F433
:1017400084C0FC018081882309F486C0C7010E94FF
:101750008101882329F0CF3FFFEFDF0709F4E8017B
:101760004BE050E06EE670E0C7010E944617892BFF
:1017700009F06BC01093010100930001209146080D
:10178000F701828D938D2B3079F424893589A90155
:1017900060E070E0BA0155274427A0E0B0E0482B94
:1017A000592B6A2B7B2B03C0AC0160E070E0A09149
:1017B00055089A01AB012250310941095109B0E0A5
:1017C0000E943417C0904208D0904308E09044082B
:1017D000F09045086C0D7D1D8E1D9F1D0E94BB1055
:1017E000E0913B08F0913C0880819181A281B38116
:1017F0008D3C9240AB4AB14001F58481809336081C
:1018000085819681A781B08580934B0890934C0881
:10181000A0934D08B0934E08E184F284C7010E9462
:101820001515009731F00E948101882311F0E7011E
:1018300013C080E090E00E94A61480E090E00E9437
:10184000A614CF3F8FEFD807E1F40F5F1F4F003989
:10185000E1E01E0709F06ECFCF3FFFEFDF0789F40D
:10186000F8940E94F4084B991BC08091310888239A
:1018700031F080916E00816080936E00E89A7894D8
:101880000FC0CE010E941515BC01CE01DF91CF9192
:101890001F910F91FF90EF90DF90CF900C94250552
:1018A000DF91CF911F910F91FF90EF90DF90CF903C
:1018B00008954F925F926F927F928F929F92AF9214
:1018C000BF92CF92DF92EF92FF920F931F93CF932D
:1018D000DF930E942F074B9B22C08FEF90E04B9B22
:1018E000C3C10197E1F780916E008E7F80936E00F7
:1018F000E8981092310810920408DF91CF911F915F
:101900000F91FF90EF90DF90CF90BF90AF909F909E
:101910008F907F906F905F904F900C940401309B5C
:1019200087C14E9B5AC089B14091FC0761E070E0CD
:10193000442311F060E070E093B121E030E04130E9
:1019400011F020E030E0929596959770A1E09A27EB
:1019500090FBAA24A0F8B12CA29EA001A39E500D3A
:10196000B29E500D1124082E000C990B8095909575
:101970008827990F881F9927869FF001879FF00D70
:10198000969FF00D11244E2B5F2B452B31F593B113
:1019900089B1929596959770A927A0FBCC24C0F8A1
:1019A000D12CC69EA001C79E500DD69E500D11246D
:1019B000082E000C990B809590958827990F881F09
:1019C0009927829FB001839F700D929F700D112403
:1019D000462B572B452B09F42BC14E9910C084E69A
:1019E00090E021E04E9920E00197E1F7222309F4ED
:1019F0003BC14E9BFECFF8940E94F40816C129B15A
:101A00006091FC0741E050E0662311F040E050E0B7
:101A100033B181E090E0613011F080E090E03295E8
:101A200036953770A1E03A2730FBEE24E0F8F12C30
:101A3000E89EB001E99E700DF89E700D1124022EF3
:101A4000000C330B209530952227330F221F3327AC
:101A5000249FF001259FF00D349FF00D11246E2B73
:101A60007F2B672B09F45FC064E670E0FF24F394DA
:101A7000EE24E39429B133B13295369537703E2583
:101A8000032F017010E0089FF001099FF00D189FCF
:101A9000F00D1124022E000C330B209530952227D7
:101AA000330F221F3327249FD001259FB00D349F71
:101AB000B00D11249F012A2B3B2B232B09F4F12C71
:101AC00061507109B9F6FF2009F4CEC0A1E029B137
:101AD00033B13295369537703A273170C32F30E0E5
:101AE000D32FC89FF001C99FF00DD89FF00D11248E
:101AF000022E000C330B209530952227330F221F26
:101B00003327249FB001259F700D349F700D112441
:101B10009F01262B372B232BD1F6F8940E943307F5
:101B20004B99A2C094C033B129B132953695377024
:101B3000A327A0FB882480F8912C849EB001859E69
:101B4000700D949E700D1124022E000C330B209505
:101B500030952227330F221F3327289FF001299F1A
:101B6000F00D389FF00D11249B012E2B3F2B232BC2
:101B700009F47AC064E670E0C1E0D1E033B129B184
:101B80003295369537703D2730FB662460F8712C0E
:101B9000649EF001659EF00D749EF00D1124022EDE
:101BA000000C330B209530952227330F221F33274B
:101BB000289FD001299FB00D389FB00D11249F019F
:101BC0002A2B3B2B232B09F4C0E061507109B1F69D
:101BD000CC2309F449C0A1E033B129B1329536953F
:101BE00037703A2730FB442440F8512C449EF001D2
:101BF000459EF00D549EF00D1124022E000C330B67
:101C0000209530952227330F221F3327289FB001BC
:101C1000299F700D389F700D11249F01262B372BA3
:101C2000232BD1F6F8940E9490064B9B12C01CC047
:101C300080913108811118C08FEF90E04B9914C04A
:101C40000197E1F7F89481E00E94150481110E9448
:101C5000730B80913108882331F080916E00816090
:101C600080936E00E89A7894DF91CF911F910F9145
:101C7000FF90EF90DF90CF90BF90AF909F908F90AC
:101C80007F906F905F904F900895459880FF02C0BD
:101C9000419A01C0419881FF02C0439A01C0439814
:101CA00082FF02C05C9A01C05C9883FF02C05D9A0B
:101CB00001C05D98459A89E08A95F1F7459889E0D9
:101CC0008A95F1F70895CF93C82F599A4498829531
:101CD0008F700E94450E8C2F8F700E94450ECC7F16
:101CE00029F084E991E00197F1F704C082ED9CE2CC
:101CF0000197F1F700C00000CF910895CF93C82F4E
:101D0000599A449A82958F700E94450E8C2F8F703D
:101D10000E94450E82EA92E00197F1F700C00000B0
:101D2000CF91089544982FEA8EE194E021508040AD
:101D30009040E1F700C0000083E00E94450E85ED71
:101D400093E80197F1F700C0000083E00E94450E80
:101D500085ED93E80197F1F700C0000083E00E9451
:101D6000450E85ED93E80197F1F700C0000082E091
:101D70000E94450E85ED93E80197F1F700C0000041
:101D800088E20E94630E88E00E94630E81E00E9458
:101D9000630E82E00E94630E86E00E94630E8CE078
:101DA0000E94630E8AEA80930008089581E00E94F1
:101DB000630E82E00C94630E8F7060FD02C0805849
:101DC00001C080540C94630E0C947E0ECF93DF936D
:101DD000EC018991882319F00E947E0EFACFDF91E1
:101DE000CF910895CF93DF93CDB7DEB72A970FB683
:101DF000F894DEBF0FBECDBF4AE0BE016F5F7F4FDC
:101E00000E947517CE0101960E94E60E2A960FB623
:101E1000F894DEBF0FBECDBFDF91CF910895CF9371
:101E2000DF93CDB7DEB72A970FB6F894DEBF0FBEAB
:101E3000CDBF2AE0AE014F5F5F4F0E948017CE01F9
:101E400001960E94E60E2A960FB6F894DEBF0FBEEA
:101E5000CDBFDF91CF910895CF93DF93FC018491A3
:101E6000EF012196882321F00E947E0EFE01F7CF1C
:101E7000DF91CF910895519A549A559A50981092A3
:101E80003308089528E030E090E840E250E160E354
:101E9000782F792319F05BB96BB902C01BB84BB925
:101EA000969521503109A1F71BB80895CF93DF9380
:101EB0001F92CDB7DEB780E18BB9198280E020E3B5
:101EC00030E19981983051F02BB999B1880F917018
:101ED000892B3BB999819F5F9983F3CF0F90DF9155
:101EE000CF91089582E38BB982E18BB9089528E1FF
:101EF00000002A95E9F70197D1F708950895DF9238
:101F0000EF92FF920F931F93CF93DF93082FC8E0B8
:101F1000D0E010E880E2F82E90E1E92E20E3D22E06
:101F2000802F812339F0EBB881E090E00E94770F99
:101F3000DBB806C01BB881E090E00E94770FFBB8C9
:101F40001695219769F781E090E00E94770F1BB802
:101F5000DF91CF911F910F91FF90EF90DF90089547
:101F600090913308911103C00E947F0F02C00E941C
:101F7000420F80E00895FF920F931F93CF93DF935A
:101F80001F92CDB7DEB780E18BB981E090E00E946F
:101F9000770F198210E000E380E1F82E8981883004
:101FA00091F00BB981E090E00E94770F89B1110F99
:101FB0008170182BFBB881E090E00E94770F898137
:101FC0008F5F8983EBCF812F0F90DF91CF911F918E
:101FD0000F91FF90089580913308811102C00C94F5
:101FE000BB0F0C94560F82E38BB981E090E00E9406
:101FF000770F82E18BB981E090E00C94770F81E05C
:102000008093330808951092330808950E94560F64
:1020100087FDFCCF0895CF92DF92EF92FF92CF938E
:10202000C82F6A017B010090350804C0CC0CDD1C70
:10203000EE1CFF1C0A94D2F78FEF0E94420F8C2FE8
:1020400080640E94420F8F2D0E94420F8E2D0E94AD
:10205000420F8D2D0E94420F8C2D0E94420F85E968
:102060000E94420F8FEF0E94420F0E940610809341
:10207000400881508E3FC8F3CF91FF90EF90DF90E2
:10208000CF900895AB01BC0110923E0881E10E94FF
:102090000B100E94560F809341088E3FD1F7089590
:1020A000CF92DF92EF92FF92CF93DF93C82F6A0116
:1020B0007B0180913D08811113C08FEE8C0F82301F
:1020C00040F088EE8C0F823020F080EE8C0F823052
:1020D00038F489E0CC0CDD1CEE1CFF1C8A95D1F78E
:1020E0008FEF0E94B00F8C2F80640E94B00F8F2D55
:1020F0000E94B00F8E2D0E94B00F8D2D0E94B00F48
:102100008C2D0E94B00FC83011F487E801C085E91A
:102110000E94B00FF12C0E94EB0FD82F8F3F21F4BB
:10212000FA94F110F8CF1DC081111BC0CA33C9F455
:102130000E94EB0F1092350886FF05C081E0809366
:102140003D0882E006C010923D0889E08093350882
:1021500081E080933F080E94EB0F0E94EB0F0E94EA
:10216000EB0F0E94EB0F8D2FDF91CF91FF90EF903F
:10217000DF90CF900895CF92DF92EF92FF92CF93AE
:10218000DF93C0903708D0903808E0903908F0907D
:102190003A08C616D706E806F906E1F16B017C019C
:1021A00060933708709338088093390890933A0801
:1021B00059988FEF0E94B00F8FEF0E94B00FB701B8
:1021C000A60181E10E945010811125C0C0E0D0E03D
:1021D0000E94EB0F8E3F29F02197D1F7599A80E0AA
:1021E0001AC0E12CF12CC0913B08D0913C08CE0DD7
:1021F000DF1D0E94EB0F88838FEFE81AF80AE114C5
:1022000082E0F80681F70E94EB0F0E94EB0F0E941C
:10221000EB0F599A81E0DF91CF91FF90EF90DF9023
:10222000CF900895CF93DF93AB01BC0188E10E946A
:10223000501081113DC059988EEF0E94B00FC0E040
:10224000D0E0E0913B08F0913C08EC0FFD1F80814D
:102250000E94B00F2196C11582E0D80791F78FEF49
:102260000E94B00F8FEF0E94B00F0E94EB0F982FCB
:102270009F71953079F4C0E0D0E00E94EB0F81119E
:1022800003C02196D1F706C0599A8FEF0E94B00F74
:10229000599808C0599A0CC09E012F5F3F4F219654
:1022A000C9F3E9010E94EB0F8823B1F3599A81E049
:1022B000DF91CF910895AB01BC0180E10C945010E7
:1022C000CF92DF92EF92FF920F931F93CF93DF9302
:1022D0001092340885E0809336080E943B0F0E94DC
:1022E00003104B9998C080E185B9599A8FE097E225
:1022F000A0E0B0E08093370890933808A0933908A5
:10230000B0933A08C4E60E94F30FC150E1F7599820
:10231000CCE08FEF0E94B00FC150D9F700E018E079
:1023200040E050E0BA0180E00E94501001501109D5
:1023300031F415B8599A81E0809334086DC081302A
:1023400079F7CCE08FEF0E94B00FC150D9F7C1E010
:10235000D2E04AEA51E060E070E088E00E9450106C
:102360008A3A49F481E080933F08C12CD12CE12CBA
:1023700080E4F82E09C08130A9F3219751F710921B
:102380003F08C12CD12C7601CCE08FEF0E94B00F1A
:10239000C150D9F701E012E040E050E0BA0187E314
:1023A0000E945010B701A60189E20E94501001500E
:1023B000110931F482E08093340815B8599A2CC081
:1023C0008111EACF10923D0889E080933508809111
:1023D0003F08813081F040E050E0BA018BE30E9479
:1023E000501060E072E080E090E00E945B1115B850
:1023F000599AC1E011C0C5E6D0E08FEF0E94B00F3E
:1024000040E050E0BA018AE30E945010219719F38E
:102410008111F3CFE0CFC0E08C2FDF91CF911F91DE
:102420000F91FF90EF90DF90CF90089580E185B9F4
:10243000089515B808950E94560F4B9902C08F3F1A
:10244000D1F708958F929F92AF92BF92CF92DF9271
:10245000EF92FF921F93CF93DF9360E070E0CB0188
:102460000E94BB10E0913B08F0913C0880818D7F79
:10247000893E51F1DF01A250BE4F8D919C9185356F
:102480009A4A11F086E014C0E254FE4F8481809392
:10249000460860857185828593850E94BB10E09116
:1024A0003B08F0913C0880818D7F893E29F083E0D4
:1024B0008093340880E0A7C0809146088B3021F0DB
:1024C000863011F084E0F4CFC0913B08D0913C08F5
:1024D000438554855093500840934F0815851093B9
:1024E000550886859785C48CD58CE68CF78CC80EEC
:1024F000D91EE11CF11CC0925108D0925208E09202
:102500005308F092540880914608863019F4A68941
:10251000B78902C0ACA1BDA1208930E02A9FB001DB
:102520002B9F700D3A9F700D112446015701860EA6
:10253000971EA11CB11C8092420890924308A09261
:102540004408B09245088630D9F08CA59DA5AEA56B
:10255000BFA59C01AD012250310941095109A12FAC
:10256000B0E00E943417860E971EA81EB91E8092F6
:10257000470890924808A0924908B0924A0824C09F
:102580000E942517C60ED71EE81EF91EC0924708E6
:10259000D0924808E0924908F0924A0881899289CD
:1025A00035E0880F991F3A95E1F7BA010E94EF16BE
:1025B000C60ED71EE11CF11CC0924208D0924308FF
:1025C000E0924408F0924508812F90E020E031E04D
:1025D000320F8130910521F096958795232FF7CF03
:1025E000209356088091470890914808A091490887
:1025F000B0914A0880934B0890934C08A0934D08E3
:10260000B0934E0881E0DF91CF911F91FF90EF9042
:10261000DF90CF90BF90AF909F908F9008954F9292
:102620005F926F927F928F929F92AF92BF92CF9262
:10263000DF92EF92FF92CF9320914608263039F433
:1026400088248A94982CA12CB12C21E007C08824DE
:102650008A94982CA82C2FE0B22E22E004C0660F9A
:10266000771F881F991F2A95D2F720914F08309124
:10267000500840E050E00E9403176B017C018091FC
:10268000510890915208A0915308B0915408290123
:102690003A01480E591E6A1E7B1ECAE0C301B201F0
:1026A0000E94BB10882311F0C150C1F780913B08F4
:1026B00090913C08FC01EC0DFD1D80819181A2816F
:1026C000B381BC01CD01682179218A219B21CF9161
:1026D000FF90EF90DF90CF90BF90AF909F908F9042
:1026E0007F906F905F904F9008954F925F926F929E
:1026F0007F928F929F92AF92BF92CF92DF92EF9292
:10270000FF92CF9388EEC82E83E0D82EE12CF12CD7
:10271000C701B6010E940F1361157105810591056E
:1027200091F030EAC31636E8D30631E0E306F1044F
:1027300031F02FEFC21AD20AE20AF20AE9CF60E0C2
:1027400070E0CB0151C040EAC41646E8D40641E02F
:10275000E406F10409F448C080914608863011F47B
:1027600081E001C082E0A701960104C0220F331F5F
:10277000441F551F8A95D2F7CA01B90120914F080D
:102780003091500840E050E00E9403172B013C01BB
:102790008091510890915208A0915308B09154082B
:1027A00049015A01880E991EAA1EBB1ECAE0C50126
:1027B000B4010E94BB10882311F0C150C1F7809171
:1027C0003B0890913C08FC01E40DF51D8FEF90E073
:1027D000A0E0B0E080839183A283B383C501B401FC
:1027E0000E941211C701B601CF91FF90EF90DF90C8
:1027F000CF90BF90AF909F908F907F906F905F90A1
:102800004F9008958F929F92AF92BF92CF92DF9296
:10281000EF92FF920F931F93CF93DF93EC0155E05C
:10282000CC0FDD1F5A95E1F78E01012F1127069578
:1028300020915508622F70E0C8010E94EF167B01BD
:1028400080914B0890914C08A0914D08B0914E0892
:10285000672B09F44EC030914608363071F48090F1
:10286000470890904808A0904908B0904A088815F9
:102870009905AA05BB0509F45AC0809042089090BA
:102880004308A0904408B0904508BC01CD016819E8
:1028900079098A099B0930E040E050E00E94031763
:1028A000CA01B9016E5F7F4F8F4F9F4FC12CD12C52
:1028B0000E940F132FEFC21AD20ACE14DF04C1F701
:1028C0009B01AC012250310941095109A0915508E1
:1028D000B0E00E9434178090420890904308A09086
:1028E0004408B0904508DC01CB01880D991DAA1D54
:1028F000BB1D9801322F2227330FC21BD30B4091EF
:1029000055084E9D90014F9D300D1124021B130B55
:10291000BC01CD01600F711F811D911D0E94BB1074
:1029200080913B0890913C088C0F9D1F02C080E075
:1029300090E0DF91CF911F910F91FF90EF90DF908A
:10294000CF90BF90AF909F908F9008950F931F935B
:10295000FC01892B49F48091470890914808A09187
:102960004908B0914A0839C09385892F807194FF36
:102970003DC020914608828D938D2B3079F42489B7
:102980003589A90160E070E0BA0155274427A0E02D
:10299000B0E0842B952BA62BB72B02C0A0E0B0E0B3
:1029A0000097A105B105B9F29C01AD012250310992
:1029B00041095109A0915508B0E00E9434170091D7
:1029C0004208109143082091440830914508DC01E9
:1029D000CB01800F911FA21FB31F80934B089093D0
:1029E0004C08A0934D08B0934E0881E01F910F91C1
:1029F0000895FC01892BB1F08081882399F0853EF0
:102A000089F08E3221F481818E3219F00BC085302D
:102A100049F083858E3131F08F3021F0883211F00A
:102A2000CF01089580E090E008950E9402140C9474
:102A3000F914000000000000000000000000000089
:102A400000000895000000000000000020913608FA
:102A50002A95F1F70895AF93AFB7AF93BF932F9334
:102A6000A091300820912F08A22BA8B9AAEAA6BDF0
:102A700020E0E8DFA0912F08A8B9B0910408BB239B
:102A800041F0209330082F91BF91AF91AFBFAF912C
:102A90001895A0E3ABB9A9B1A170AA0F2A2FA0E1A4
:102AA000ABB9A091F507B091F6071196A093F50781
:102AB000B093F607A03989F4BC3079F4A1E0A09373
:102AC0000408CF93C0E7A8E0B0E3BBB9B0E1BBB95D
:102AD000AA95D1F7CA95B9F7CF91209330082F91D5
:102AE000BF91AF91AFBFAF9118952F932FB72F9391
:102AF00030995AC03F933091FD0726B124702327A7
:102B0000E1F326B124702093FD0728E02A95F1F720
:102B100000004F935F936F937F938F93EF93FF9397
:102B200060E0E0910508F09106083DE541E00DC048
:102B30005091FD0776B174707527E1F376B174702A
:102B40007093FD077EE07A95F1F727E081E079B197
:102B50007470D1F400007EE17A95F1F776B174706B
:102B60005091FD077093FD07752776957695880F30
:102B7000872B2A9561F7853D09F461E06030C1F249
:102B8000819331504040A1F69F93AF93BF930E9431
:102B90008503BF91AF919F91FF91EF918F917F91AD
:102BA0006F915F914F913F912F912FBF2F9118956A
:102BB00081E00E9419018FEF80931B01CBE80E94F6
:102BC000590C309B03C00E941912F9CF0E941612B3
:102BD00083B18F7090910F01891759F180930F0184
:102BE000883049F0843009F4F1C0823009F4F0C033
:102BF0008130F9F4EFC082E090910308890FE82F4B
:102C0000E770E695F0E0E659FF4FE49180FFE2952A
:102C1000EF708E2F887009F0E86FE90FE53C08F03F
:102C2000DBC0E0930308809103088C3810F0C09358
:102C3000030880913108882309F4C1CF80910408EA
:102C4000882309F4BCCFF8948091F7078F5F8F70C9
:102C50008093F70720910308269526952093320844
:102C600090E030E1239F800D911D11249093FF0788
:102C70008093FE070090560802C0969587950A94A7
:102C8000E2F790931D0180931C01880F991F880F14
:102C9000991FFC01E95FF74F80819181A281B38187
:102CA0008093F8079093F907A093FA07B093FB0776
:102CB00080911B012817B9F020931B0161E08AE085
:102CC0000E94DC0E8CE791E00E942C0F809132086C
:102CD0008A3020F487E091E00E94E60E809132086D
:102CE00090E00E94F20E8091F707909110019813E6
:102CF00006C02091160190913208291741F1909158
:102D00001101891306C020911701909132082917EB
:102D1000F1F090911201891306C020911801909151
:102D200032082917A1F090911301891306C0209150
:102D3000190190913208291751F0909114018913CB
:102D400008C090911A0180913208981302C00E9425
:102D50001D038091F8079091F907A091FA07B091AF
:102D6000FB070297A109B109AC01BD01009056080B
:102D700004C0440F551F661F771F0A94D2F7809135
:102D8000420890914308A0914408B0914508840FEF
:102D9000951FA61FB71F2091550830E0215031091B
:102DA0004091FE075091FF0724233523BC01CD013C
:102DB000620F731F811D911D0E9442101092F60731
:102DC0001092F507109204087894F9CE84E014CF9D
:102DD00086E012CF80E010CF1092030824CFAA1B08
:102DE000BB1B51E107C0AA1FBB1FA617B70710F0F6
:102DF000A61BB70B881F991F5A95A9F78095909528
:102E0000BC01CD010895A1E21A2EAA1BBB1BFD0136
:102E10000DC0AA1FBB1FEE1FFF1FA217B307E407B9
:102E2000F50720F0A21BB30BE40BF50B661F771F11
:102E3000881F991F1A9469F76095709580959095F1
:102E40009B01AC01BD01CF010895A29FB001B39FCA
:102E5000C001A39F700D811D1124911DB29F700DA3
:102E6000811D1124911D08950E942517A59F900D85
:102E7000B49F900DA49F800D911D11240895FB0116
:102E8000DC0105900D920020E1F70895FB01DC01C3
:102E90004150504030F08D910590801919F4002078
:102EA000B9F7881B990B0895FB01DC0104C08D91D3
:102EB0000190801921F441505040C8F7881B990BAC
:102EC0000895DC01FB014150504058F049F0019059
:102ED0000D920020C1F7E61BF70B3197CF01089543
:102EE0001C9201900020E9F7F6CFBB274A3031F45D
:102EF000992322F4BDE2909581959F4F0C94B217CF
:102F0000BB272A3051F4992342F4BDE29095809575
:102F1000709561957F4F8F4F9F4F0C949017BB27F3
:102F2000FA01A62F6217710581059105330B30FB5D
:102F300066F0AA27660F771F881F991FAA1FA2177E
:102F400010F0A21B63953850A9F7A05DAA3308F0D2
:102F5000A95DA19336F7B111B1931082CA010C9407
:102F6000CB17BB27FB015527AA27880F991FAA1F3C
:102F7000A41710F0A41B83955051B9F7A05DAA3394
:102F800008F0A95DA193009779F7B111B19311925F
:102F9000CB010C94CB17DC01FC01672F71917723D7
:102FA000E1F7329704C07C916D9370836291AE1704
:102FB000BF07C8F30895F999FECF92BD81BDF89A75
:102FC000992780B50895262FF999FECF1FBA92BD93
:102FD00081BD20BD0FB6F894FA9AF99A0FBE0196FA
:062FE0000895F894FFCFF4
:0A2FE600FFFFFE5B005D002000000D
:00000001FF
