:100000000C940C030C94051E0C9429030C942903E6
:100010000C9429030C9429030C9429030C942903B0
:100020000C9429030C9429030C9429030C942903A0
:100030000C9429030C9429030C9429030C94290390
:100040000C94BB1D0C9429030C9429030C942903D4
:100050000C9429030C9429030C9429030C94290370
:100060000C9429030C942903200020000FED032198
:10007000534449534B494920434647004E6F205350
:100080004420696E7365727465640046415431366C
:1000900000464154333200547970653A2000436F72
:1000A00064653A2000534420426C6F636B204552D4
:1000B000524F52004D697373696E67204D42522052
:1000C000202000436C7573746572203C2033326BC2
:1000D00042004E6F742046415431362F3332202077
:1000E00000426F6F7420736563746F72202020006C
:1000F00053442063616E277420696E697420005335
:10010000442063616E27742069646C65200045207B
:10011000522052204F2052004E6F726D616C20535E
:1001200044206361726400534448432063617264F5
:1001300020202020200020536F7274696E67206693
:10014000696C6573202E2E2E20202000204E6F74A7
:1001500068696E6720666F756E64206865726521D8
:100160002000204275696C64696E67206C69737445
:10017000002053454C454354204E49432020202025
:1001800020202020202000547261636B3A20002040
:1001900053442053454C4543542044454C41592039
:1001A0002020202000204C434420434F4E545241F5
:1001B00053542020202020202020002056616C75E0
:1001C000653A200020526F74617465206469737011
:1001D0006C6179202020202020002053657420634A
:1001E0006F6E747261737420202020202020200004
:1001F000205365742053442064656C61792020206D
:10020000202020202000202020202020202020200E
:100210002020202020202020202020002053455472
:100220005550202020202020202020202020202069
:100230002000204E49432020202020202020202064
:100240002020202020202000202076657273696FF6
:100250006E20352E342028323031382900202053AA
:100260004449534B205D5B202D2042524153494C61
:1002700000000000000000000000000000000080FE
:10028000C0E0F0F8F83800000000000000000000B6
:10029000000000000000000000000000000000005E
:1002A000000000000000000000000000000000004E
:1002B000000000000000000000000000C0E0F0F0BE
:1002C000F8F8F8F8F8F8F8F0F0F7F7FFFBF9F8F8B5
:1002D000F8F8F8F8F07000000000000000000000DE
:1002E000000000000000000000000000000000000E
:1002F00000000000000000C0E0E00000000000007E
:100300000000000000FFFFFFFFFFFFFFFFFFFFFFF8
:10031000FFFFFFFFFFFFFFFFFFFFFFFFFF83007CEB
:10032000FEFFC7C7C70707FFFF00FFFFFF0787C71D
:10033000C7EFFEFE1800FFFFFF07C7C7C7FFFE7C21
:1003400000FFFFFF007CFEFFC7C7E7F7FFFFDF07E7
:100350001F7FFFFFFFFFFFFFFFFFFFFFFFFFFFFF0D
:10036000FFFFFFFFFFFFFFFFFEFC3801010101005F
:1003700000010100070F0F00010101010000000052
:100380000F0F070001010101000000010101000041
:100390000001010101010101010000000103070F3B
:1003A0001F1F1F1F1F0F0F0F0F0F0F1F1F1F1F1FBD
:1003B0000F07030000000000000000000000000024
:1003C000000000000000000000000000000000002D
:1003D000000000000000000000000000000000001D
:1003E00000000008141C1C1C1C1C1C36636322002B
:1003F00000FFFFF7E3E3F7FFFD0000007432524215
:1004000042424A4C2E00000000000402FF02040099
:100410000000000000002040FF402000000000001D
:10042000002070A82020203F0000000000FE8282F3
:10043000828484FC000000000000000000005F00D7
:10044000000007000700147F147F14242A7F2A125B
:10045000231308646236495522500005030000004A
:100460001C2241000041221C0014083E0814080808
:100470003E080800503000000808080808006060C6
:10048000000020100804023E5149453E00427F40D2
:100490000042615149462141454B311814127F10E9
:1004A00027454545393C4A4949300171090503361C
:1004B00049494936064949291E003636000000568A
:1004C00036000008142241001414141414004122B0
:1004D00014080201510906324979413E7E11111179
:1004E0007E7F494949363E414141227F4141221C9C
:1004F0007F494949417F090909013E4149497A7FBC
:100500000808087F00417F41002040413F017F08EB
:100510001422417F404040407F020C027F7F04084C
:10052000107F3E4141413E7F090909063E4151216C
:100530005E7F09192946464949493101017F010178
:100540003F4040403F1F2040201F3F4038403F6316
:100550001408146307087008076151494543007F78
:1005600041410002040810200041417F00040201C3
:100570000204404040404000010204002054545412
:10058000787F484444383844444420384444487FC1
:100590003854545418087E0901020C5252523E7FBE
:1005A0000804047800447D40002040443D007F1052
:1005B00028440000417F40007C041804787C080433
:1005C000047838444444387C14141408081414186B
:1005D0007C7C080404084854545420043F444020C0
:1005E0003C4040207C1C2040201C3C4030403C448F
:1005F000281028440C5050503C4464544C4400088B
:1006000036410000007F0000004136080010080855
:10061000100800060909060011241FBECFEFD8E01C
:10062000DEBFCDBF11E0A0E0B1E0E2E1F1E402C045
:1006300005900D92A630B107D9F726E0A6E0B1E00B
:1006400001C01D92A93FB207E1F70E94691E0C94F8
:1006500087200C9400000E94D51662E085E20E947B
:1006600009168EE091E00E94131764E086E10E9473
:1006700009168CE790E00E9413174999FECF089560
:10068000CF93C82F14B817B81AB815B818B81BB834
:10069000259A2D9A399A3B9A419A17BC14BC91E03D
:1006A00095BD22E025BF2093690010929406109218
:1006B000CF061092CE061092CD061092930610929D
:1006C000920610929A069093A2061092A10610929A
:1006D0001101109219018AE191E09093A406809390
:1006E000A30680E090E00E947120823018F480938D
:1006F000990607C01092990660E080E090E00E94A1
:100700007920CC2349F10E94D3168091990681303B
:1007100011F40E9445160E94D51660E080E00E9408
:1007200009160E947C1766E08DE00E9409168DE58F
:1007300092E00E94131767E087E00E94091688E4A0
:1007400092E00E9413172FE988E99BE7215080402F
:100750009040E1F700C00000CF9108950F931F93E0
:10076000CF93DF931F92CDB7DEB7182F062F67E028
:1007700080E049830E9409160E947A1786E092E081
:100780000E94131767E080E00E940916812F90E015
:100790000E94221767E08AE30E940916802F90E0EA
:1007A0000E94221767E083E70E9409164981842F7F
:1007B00090E00E9422170F90DF91CF911F910F912F
:1007C0000C947A17FC01892B89F08081882379F0B9
:1007D000853E61F08F3551F080858E3439F4818506
:1007E000893421F481E09285933409F080E0089502
:1007F000FC01892B59F08081882349F0853E31F036
:100800008F3521F0838582958170089580E0089569
:10081000CF92DF92EF92FF920F931F93CF93DF93CC
:100820008FEF9FEF90930101809300010E94041CC1
:100830006B017C01672B682B692BD9F180E090E07C
:100840000E94351D00E010E0C8010E94911CEC01DF
:10085000892B49F18881853E11F0811124C08B8557
:100860008F3009F1109301010093000160E770E0FF
:10087000CE010E94D51F81E08B87FD8AEC8ADB8E3A
:10088000CA8E6091D9067091DA068091DB0690914C
:10089000DC06DF91CF911F910F91FF90EF90DF90D9
:1008A000CF900C9498190F5F1F4F003981E0180703
:1008B00059F6DF91CF911F910F91FF90EF90DF904C
:1008C000CF9008958F929F92AF92BF92CF92DF9276
:1008D000EF92FF921F93CF93DF93182FD62FC42F41
:1008E000862F90E09C0140E1C49F200D311D112412
:1008F000F9010090F80602C0F695E7950A94E2F730
:10090000EE0FFF1FEE0FFF1FEB55F94F4081518196
:100910006281738180E18BB91BB89091F706892FB2
:1009200090E0019782239323C090E406D090E506DF
:10093000E090E606F090E70646015701880E991E02
:10094000A11CB11C42505109610971090090F806BF
:1009500004C0440F551F661F771F0A94D2F7480D35
:10096000591D6A1D7B1D88E10E9473188FEF0E943C
:10097000AA178EEF0E94AA1780EB90E038E028E2D9
:100980003BB92BB90197E1F71BB883E00E94AA1786
:100990008CEF0E94AA178FEF0E94AA178FE30E9484
:1009A000AA178FEC0E94AA1783EF0E94AA178CEF58
:1009B0000E94AA178FEF0E94AA178FE30E94AA171E
:1009C0008FEC0E94AA1783EF0E94AA178CEF0E9457
:1009D000AA1785ED0E94AA178AEA0E94AA1786E93B
:1009E0000E94AA178FEF0E94AA178EEF0E94AA17E3
:1009F0008C2F86958A6A0E94AA178C2F8A6A0E9479
:100A0000AA178D2F86958A6A0E94AA178D2F8A6A47
:100A10000E94AA178EEFD827CD278C2F86958A6A39
:100A20000E94AA178C2F8A6A0E94AA178EED0E9434
:100A3000AA178AEA0E94AA178BEE0E94AA178FEFC4
:100A40000E94AA178FEF0E94AA178FEF0E94AA1781
:100A50008FEF0E94AA178FEF0E94AA178EE591E0F0
:100A6000189FB001199F700D112480E090E050E2B2
:100A7000A8E0B8E2FC01E60FF71FE65EFE4FE0815A
:100A800028E030E040E8F42FFE2319F0ABB9BBB901
:100A900002C01BB85BB9469521503109A1F70196F8
:100AA0008D3521E0920731F71BB880E790E038E000
:100AB00028E23BB92BB90197E1F71BB880E093E03E
:100AC00020E21BB82BB90197E1F71BB88FEF0E940A
:100AD000AA178FEF0E94AA170E94BE170E94A11AA0
:100AE00080E18BB91BB8DF91CF911F91FF90EF9000
:100AF000DF90CF90BF90AF909F908F900895AF926E
:100B0000BF92DF92EF92FF920F931F93CF93DF93E9
:100B1000499933C0CDE0D1E0FE018C2F8C5F9191DB
:100B20009F3F49F182E1A82E81E0B82E750100E0D7
:100B300010E0DD24DA948E2D8A1968816F3F21F050
:100B4000F70140810E946204D992F701D1927F019E
:100B5000F801E65EFE4F1282025A1E4F0837F5E09A
:100B60001F0749F7109211018AE191E09093A406C2
:100B70008093A30602C08E13D2CFDF91CF911F9135
:100B80000F91FF90EF90DF90BF90AF90089580910C
:100B900092069091930680399C40C0F488E08BB90E
:100BA000809192069091930628E238E0803140E1EE
:100BB000940730F449990AC02BB93BB90196F6CF96
:100BC00080E99CE09093930680939206089549995A
:100BD0006EC090911101292F30E04EE551E0249F25
:100BE000F001259FF00D349FF00D1124E65EFE4FBD
:100BF00082818D3A09F042C080911901811131C082
:100C000080919406F901E35FFE4F8083F901EE5E67
:100C1000FE4F4091A106469546954083282F2D7F93
:100C20002D3011F48E5F01C08F5F8F70809394061A
:100C3000933029F40E94C7050E947F051CC09F5F66
:100C4000909311014EE551E0949F9001959F300DD6
:100C50001124C901865E9E4F9093A4068093A3063B
:100C60000DC080910A0180939406109219018F3073
:100C700029F40E94C70581E08093A206209111010A
:100C80008EE591E0289FF001299FF00D1124E65E8A
:100C9000FE4F8281863959F487818575880F90854A
:100CA0009575892B80930A0181E08093190108953D
:100CB0002AE131E044E080E090E0F901E80FF91F1B
:100CC000108201968E3551E09507B9F74150225AAE
:100CD0003E4F4111F0CF8FEF8093120180930D01B1
:100CE0008093130180930E018093140180930F0170
:100CF00080931501809310010895CF93C82F8FEF33
:100D00009FEF90930101809300010E946B185C9803
:100D1000499B03C00E942B034CC08AE191E0909351
:100D2000DE068093DD060E94E619811144C00E9410
:100D3000D51662E085E20E9409168EE091E00E94DD
:100D4000131764E086E10E9409168091D60681306F
:100D500019F48FEF90E004C0823029F480EF90E026
:100D60000E94131722C0833019F481EE90E0F8CF6F
:100D7000843019F482ED90E0F3CF853019F483ECE0
:100D800090E0EECF863019F484EB90E0E9CF873025
:100D900019F485EA90E0E4CF8EE990E00E94131701
:100DA0008091D60690E00E94D9161092CF06499BFA
:100DB000FECF80E0B0C0CC23D9F00E94D51662E00F
:100DC00080E00E9409168091E106823019F487E2E2
:100DD00091E002C088E191E00E9413175C982FEB2C
:100DE00085E692E5215080409040E1F700C0000088
:100DF0000E94A81A811143C00E94D51662E085E2C4
:100E00000E9409168EE091E00E94131764E086E1CB
:100E10000E9409168091D606813019F48FEF90E078
:100E200004C0823029F480EF90E00E94131722C0A2
:100E3000833019F481EE90E0F8CF843019F482ED1C
:100E400090E0F3CF853019F483EC90E0EECF86305C
:100E500019F484EB90E0E9CF873019F485EA90E04B
:100E6000E4CF8EE990E00E9413178091D60690E0BF
:100E70000E94D9161092CF06499BFECF9ACF40917F
:100E8000F7062091F1063091F206429FC001439F80
:100E9000900D112481159047D0F485E08093D606FB
:100EA0000E94D51662E085E20E9409168EE091E06C
:100EB0000E94131764E086E10E94091683EC90E01B
:100EC0000E9413171092CF06499BFECF72CFCC23FE
:100ED000E1F064E080E00E94091687E990E00E945A
:100EE00013178091E8068B3019F481E990E002C075
:100EF0008BE890E00E9413178FEB95E622E5815076
:100F000090402040E1F700C000005C980E94580625
:100F10000E94671881E0CF9108958F929F92AF92BF
:100F2000BF92CF92DF92EF92FF920F931F93CF93D6
:100F3000DF936115710519F480E090E055C17B01E4
:100F4000EC010E94D51660E080E00E9409160E9424
:100F5000781782E392E00E94131760E080E60E9417
:100F600009168091E8068B3019F481E990E002C0FF
:100F70008BE890E00E9413170E94781742E061E02E
:100F800080E00E94AE0362E080E00E94091681E0EA
:100F900090E00E9422176701570108E0A00EB11CE3
:100FA000F60181916F01803211F00E949315CA14ED
:100FB000DB04B1F7D0930701C09306012091E80646
:100FC000F701828D938D2B3091F44489558960E02F
:100FD00070E0BA0155274427A0E0B0E08A019B01E8
:100FE000082B192B2A2B3B2BC901B80103C0BC01CC
:100FF00080E090E0611571058105910509F49CCFB1
:10100000E5EAF6E0119211921192119216E0ED3C90
:10101000F107C1F76093A5067093A6068093A70613
:101020009093A80611E0663FFFEF7F0781059105C9
:10103000A8F40E949E1B663F2FEF72078105910561
:1010400058F434E0139FF0011124EB55F94F6083FD
:101050007183828393831F5F1A3028F38090ED069B
:101060009090EE06A090EF06B090F00680910001FF
:1010700090910101019609F488C080E090E00E94FF
:10108000351D8FEF9FEFDC018093D9069093DA0630
:10109000A093DB06B093DC068091000190910101E2
:1010A0000E94A41DFC012091E806828D938D2B30B7
:1010B00071F4C488D588E12CF12C7601DD24CC2490
:1010C000A0E0B0E0C82AD92AEA2AFB2A03C06C01B2
:1010D000E12CF12C02E0C01AD108E108F108A0913E
:1010E000F706B0E0A70196010E94CA1F0091E4062E
:1010F0001091E5062091E6063091E706600F711F1A
:10110000821F931F0E943019E091DD06F091DE06E8
:101110008DEC92E0ABEAB1E080839183A283B3834C
:10112000458156816781708581859285481559056D
:101130006A057B0519F48C179D0731F043875487A6
:1011400065877687908B878785829682A782B0860F
:10115000D287C1878091D806848380919D06818B38
:10116000A091F706B0E0A70196010E94CA1FC090A7
:10117000E406D090E506E090E606F090E7066C0DF8
:101180007D1D8E1D9F1D0E9498198092ED069092E4
:10119000EE06A092EF06B092F0061092930610921F
:1011A00092061092CE0610929A06C1E0C093A20653
:1011B0001092A1061092940610921101109219013A
:1011C0008AE191E09093A4068093A3065C9840E0A6
:1011D00052E060E070E080E10E94B8180E9458067A
:1011E000C093CF0681E090E0DF91CF911F910F91E6
:1011F000FF90EF90DF90CF90BF90AF909F908F9037
:101200000895CF92DF92EF92FF920F931F93CF93A7
:10121000DF93C090ED06D090EE06E090EF06F090E0
:10122000F0068091000190910101019609F477C0C8
:1012300080E090E00E94351D8FEF9FEFDC018093EE
:10124000D9069093DA06A093DB06B093DC06809172
:101250000001909101010E94A41DFC012091E8066B
:10126000828D938D2B3079F424893589A90160E032
:1012700070E0BA0155274427A0E0B0E0842B952BFD
:10128000A62BB72B02C0A0E0B0E09C01AD0122501C
:10129000310941095109A091F706B0E00E94CA1F27
:1012A0000091E4061091E5062091E6063091E706EC
:1012B000600F711F821F931F0E943019E091DD069D
:1012C000F091DE068FEF9FEFDC018093D9069093BB
:1012D000DA06A093DB06B093DC0683859485A585AA
:1012E000B6858093ED069093EE06A093EF06B0933B
:1012F000F006C785D089CE010E94A41D8C010E94F2
:10130000E203882361F0B801CE01DF91CF911F91F4
:101310000F91FF90EF90DF90CF900C948D07C092CB
:10132000ED06D092EE06E092EF06F092F006DF9125
:10133000CF911F910F91FF90EF90DF90CF90089584
:101340005E9A2C9A5F9A08954F925F926F927F9265
:101350008F929F92AF92BF92CF92DF92EF92FF92C5
:101360000F931F93CF93DF93809100019091010120
:10137000019619F4DFEABD2E5AC080E090E00E9489
:10138000351D8AE191E09093DE068093DD060E9490
:1013900058061092D9061092DA061092DB061092C7
:1013A000DC0680910001909101010E94A41DFC01C6
:1013B0002091E806828D938D2B3079F4248935892C
:1013C000A90160E070E0BA0155274427A0E0B0E031
:1013D000842B952BA62BB72B02C0A0E0B0E09C017C
:1013E000AD012250310941095109A091F706B0E041
:1013F0000E94CA1F4090E4065090E5066090E60601
:101400007090E706640D751D861D971D0E943019AA
:10141000E091DD06F091DE0680819181A281B381A9
:101420008D3C9240AB4AB14009F0A4CFB1880E94F4
:10143000D51660E080E00E9409160E94781785EAC0
:1014400091E00E9413170E94781743E065E084E062
:101450000E94AE0362E080E00E9409168BEB91E0EF
:101460000E9413178B2D90E00E94D9167B2CDB2D48
:10147000AA24A3940E94A009D71581F062E080E01D
:101480000E9409168BEB91E00E9413178D2F90E0BC
:101490000E94D9168AE690E00E94131749996DC1FF
:1014A00089B12091990641E050E0222311F040E0FB
:1014B00050E093B161E070E0213011F060E070E045
:1014C00092959F709A2590FB882480F8912C869E97
:1014D000F001879EF00D969EF00D1124082E000C51
:1014E000990B809590958827990F881F9927849F3D
:1014F0009001859F300D949F300D11242E2B3F2B92
:10150000232BA1F189B193B192959F709A25092F50
:10151000017010E0069FF001079FF00D169FF00D7F
:101520001124082E000C990B809590958827990F0F
:10153000881F9927849F9001859F300D949F300DBF
:1015400011242E2B3F2B232BE9F68FEB9AE720E17A
:10155000815090402040E1F700C00000CFEFCD0F58
:10156000C0939D068C2F0E94851501C0CD2FE3B13D
:101570009091990621E030E0992311F020E030E0CD
:1015800089B141E050E0913011F040E050E0082E88
:10159000000C990B809590958827990F881F9927A3
:1015A000849FB001859F700D949F700D11248E2F24
:1015B00082958F708A2580FBEE24E0F8F12CE29E64
:1015C000C001E39E900DF29E900D1124682B792BA3
:1015D000672BA1F1E3B189B1082E000C990B80951E
:1015E00090958827990F881F9927849FB001859F20
:1015F000700D949F700D11248E2F82958F708A2507
:1016000080FBCC24C0F8D12CC29EC001C39E900D9B
:10161000D29E900D1124682B792B672BD9F68FEB76
:101620009AE720E1815090402040E1F700C000009F
:10163000CF5FC0939D068C2F0E9485157D2E4E9BFB
:1016400002C0DC2F17CF4E9BFECF8FEB9AE720E135
:10165000815090402040E1F700C00000CB1509F414
:101660008CC0C0939D068C2F0E9485155C9880913C
:10167000000190910101019609F47FC080E090E0A3
:101680000E94351D8AE191E09093DE068093DD068D
:101690000E9458061092D9061092DA061092DB06C4
:1016A0001092DC0680910001909101010E94A41D1E
:1016B000FC012091E806828D938D2B3071F4C48853
:1016C000D588E12CF12C7601DD24CC24A0E0B0E01B
:1016D000C82AD92AEA2AFB2A03C06C01E12CF12C82
:1016E00082E0C81AD108E108F108A091F706B0E03D
:1016F000A70196010E94CA1F0091E4061091E50619
:101700002091E6063091E706600F711F821F931F3C
:101710000E943019E091DD06F091DE068081918112
:10172000A281B3818D3C9240AB4AB14031F5C18B6F
:10173000A091F706B0E0A70196010E94CA1F009190
:10174000E4061091E5062091E6063091E706600F69
:10175000711F821F931FDF91CF911F910F91FF90F7
:10176000EF90DF90CF90BF90AF909F908F907F9041
:101770006F905F904F900C949819DF91CF911F91CB
:101780000F91FF90EF90DF90CF90BF90AF909F9020
:101790008F907F906F905F904F9008957F928F927F
:1017A0009F92AF92BF92CF92DF92EF92FF920F93F0
:1017B0001F93CF93DF930E94D51660E080E00E94D4
:1017C00009160E9478178FE891E00E9413170E9473
:1017D000781743E065E084E00E94AE0363E080E0B8
:1017E0000E9409168BEB91E00E9413178091D80696
:1017F00090E00E94D9169090D806D92DC1E07724A8
:1018000073941AE0812E0E94A0098091D8068D174A
:1018100099F063E080E00E9409168BEB91E00E9452
:1018200013178091D80690E00E94D91688E690E0C0
:101830000E941317D091D80649996BC189B12091A4
:10184000990641E050E0222311F040E050E093B1CE
:1018500061E070E0213011F060E070E092959F70DF
:101860009C27092F017010E0069FF001079FF00DE3
:10187000169FF00D1124082E000C990B8095909561
:101880008827990F881F9927849F9001859F300D85
:10189000949F300D11242E2B3F2B232BB1F189B1B6
:1018A00093B192959F709C2790FBEE24E0F8F12C69
:1018B000E69EF001E79EF00DF69EF00D1124082E35
:1018C000000C990B809590958827990F881F992770
:1018D000849F9001859F300D949F300D11242E2BF5
:1018E0003F2B232BE1F62FEB8AE790E1215080403C
:1018F0009040E1F700C000008091D806815019F0B7
:101900008093D80602C08092D806E3B190919906E0
:1019100021E030E0992311F020E030E069B141E0AE
:1019200050E0913011F040E050E0062E000C770BB3
:1019300060957095CB018827990F881F9927849F00
:10194000B001859F700D949F700D11248E2F82958C
:101950008F708C2780FBCC24C0F8D12CC29EC00194
:10196000C39E900DD29E900D1124682B792B672B6E
:10197000C9F1E3B169B1062E000C770B6095709543
:10198000CB018827990F881F9927849FB001859FD5
:10199000700D949F700D11248E2F82958F708C275F
:1019A00080FBAA24A0F8B12CA29EC001A39E900D9A
:1019B000B29E900D1124682B792B672BD1F62FEB5B
:1019C0008AE790E1215080409040E1F700C000009C
:1019D0008091D8068F5F8B3018F48093D80602C0B0
:1019E0007092D8064E990FCF4E9BFECF2FEB8AE711
:1019F00090E1215080409040E1F700C000008091CC
:101A0000D806891509F485C08091000190910101E3
:101A1000019609F47EC080E090E00E94351D8AE1C5
:101A200091E09093DE068093DD060E9458061092A6
:101A3000D9061092DA061092DB061092DC0680912D
:101A40000001909101010E94A41DFC012091E80673
:101A5000828D938D2B3071F4C488D588E12CF12CC4
:101A60007601DD24CC24A0E0B0E0C82AD92AEA2AF5
:101A7000FB2A03C06C01E12CF12C82E0C81AD108CA
:101A8000E108F108A091F706B0E0A70196010E94D5
:101A9000CA1F0091E4061091E5062091E6063091F8
:101AA000E706600F711F821F931F0E943019E0919B
:101AB000DD06F091DE0680819181A281B3818D3CAB
:101AC0009240AB4AB14029F58091D8068483A09119
:101AD000F706B0E0A70196010E94CA1F0091E40634
:101AE0001091E5062091E6063091E706600F711F20
:101AF000821F931FDF91CF911F910F91FF90EF9065
:101B0000DF90CF90BF90AF909F908F907F900C947C
:101B10009819DF91CF911F910F91FF90EF90DF9077
:101B2000CF90BF90AF909F908F907F9008959F929D
:101B3000AF92BF92CF92DF92EF92FF920F931F93DB
:101B4000CF93DF930E94D51660E080E00E940916D3
:101B50000E9478178CE192E00E9413170E94781778
:101B600043E065E084E00E94AE0362E080E00E9412
:101B700009160E94761780EF91E00E9413170E94C9
:101B8000761763E080E00E9409168AED91E00E94DA
:101B9000131764E080E00E94091684EC91E00E9433
:101BA0001317C1E0992493940E94A00989B1609110
:101BB000990621E030E0662311F020E030E093B197
:101BC00041E050E0613011F040E050E092959F70AC
:101BD0009925092F017010E0049FB001059F700D39
:101BE000149F700D1124082E000C990B8095909570
:101BF0008827990F881F9927829FF001839FF00DF6
:101C0000929FF00D11246E2B7F2B672B09F45BC084
:101C100089B193B192959F70992590FBEE24E0F8DD
:101C2000F12CE49EB001E59E700DF49E700D112420
:101C3000082E000C990B809590958827990F881F86
:101C40009927829FF001839FF00D929FF00D112440
:101C50006E2B7F2B672BE1F62FEB8AE790E121506B
:101C600080409040E1F700C00000D1E0DC0FD430AC
:101C700060F5D13011F40E94761762E080E00E9496
:101C8000091680EF91E00E941317C23010F40E94F1
:101C9000761763E080E00E9409168AED91E00E94C9
:101CA0001317C150C23010F40E94761764E080E030
:101CB0000E94091684EC91E00E941317D33031F48E
:101CC0000E94761703C0DC2F01C0D3E0E3B19091EE
:101CD000990621E030E0992311F020E030E089B14D
:101CE00041E050E0913011F040E050E0082E000C4F
:101CF000990B809590958827990F881F9927849F25
:101D0000B001859F700D949F700D11248E2F8295C8
:101D10008F70892580FBCC24C0F8D12CC29EC001D5
:101D2000C39E900DD29E900D1124682B792B672BAA
:101D300009F45DC0E3B189B1082E000C990B8095C0
:101D400090958827990F881F9927849FB001859FB8
:101D5000700D949F700D11248E2F82958F708925A0
:101D600080FBAA24A0F8B12CA29EC001A39E900DD6
:101D7000B29E900D1124682B792B672BD9F62FEB8F
:101D80008AE790E1215080409040E1F700C00000D8
:101D9000CFEFCD0F71F1C13011F40E94761762E0E0
:101DA00080E00E94091680EF91E00E9413178EEFE9
:101DB0008D0F823010F40E94761763E080E00E945D
:101DC00009168AED91E00E941317D350D23010F417
:101DD0000E94761764E080E00E94091684EC91E08E
:101DE0000E941317C33031F40E94761703C0CD2F21
:101DF00001C0C1E04E99D8CE4E9BFECF2FEB8AE7B3
:101E000090E1215080409040E1F700C00000C130D7
:101E100069F4DF91CF911F910F91FF90EF90DF90C8
:101E2000CF90BF90AF909F900C94CE0BC23069F4CE
:101E3000DF91CF911F910F91FF90EF90DF90CF90A6
:101E4000BF90AF909F900C94A409C330F9F4809197
:101E50009906811106C081E0809399060E9445167B
:101E600004C0109299060E944F166091990680E076
:101E700090E0DF91CF911F910F91FF90EF90DF9055
:101E8000CF90BF90AF909F900C947920DF91CF912D
:101E90001F910F91FF90EF90DF90CF90BF90AF9088
:101EA0009F9008952F923F924F925F926F927F92F0
:101EB0008F929F92AF92BF92CF92DF92EF92FF925A
:101EC0000F931F93CF93DF93CDB7DEB728970FB64D
:101ED000F894DEBF0FBECDBF109209011092080129
:101EE0008AE191E09093DE068093DD0686ED93E033
:101EF00090939F0680939E068FEF9FEFDC01809367
:101F0000D9069093DA06A093DB06B093DC060E9414
:101F100058060E94781760E080E00E94091681E769
:101F200091E00E9413170E94781743E065E084E077
:101F30000E94AE0311E0612F80E00E94091686E046
:101F400092E00E9413171F5F1630A9F763E080E04C
:101F50000E94091682E691E00E94131700E010E04B
:101F6000C8010E94A41D5C01009799F0FC018081CA
:101F700081110FC08091080190910901892BC9F549
:101F800063E080E00E9409168CE491E00E94131740
:101F90000CC2C5010E94E203811105C0C5010E9467
:101FA000F8038823B9F0E0910801F0910901EE0FE0
:101FB000FF1F80919E0690919F06E80FF91F1183E5
:101FC0000083809108019091090101969093090185
:101FD000809308010F5F1F4F8091080190910901C4
:101FE000883C91053CF60039F1E01F0709F0B8CFB5
:101FF000C1CF63E080E00E94091686E391E00E9471
:102000001317809108019091090102978CF4209197
:102010000801309109014091060150910701E091BA
:102020009E06F0919F0600E010E080E090E063C023
:1020300000E010E0809108019091090101970817D4
:1020400019072CF7812C912CAA24A394B12C8091F0
:10205000080190910901801B910BA816B9060CF09C
:1020600040C03501660C771CE0919E06F0919F06FA
:10207000E60DF71D808191810E94A41D48E050E08B
:10208000BC01CE0101960E94F71FE0919E06F091DF
:102090009F06E80DF91D808191810E94A41D48E0F2
:1020A00050E0BC01CE0101960E94EA1F97FF12C0CA
:1020B000E0919E06F0919F06DF01A60DB71D8D9160
:1020C0009C911197E80DF91D208131812D933C934E
:1020D000918380832FEFA21AB20A82E0880E911CAE
:1020E000B6CF0F5F1F4FA6CF61917191461757076B
:1020F00009F48C01019682179307B4F388248A941B
:10210000982CBB24B3940E94A00949994EC189B16F
:102110002091990641E050E0222311F040E050E088
:1021200093B161E070E0213011F060E070E09295D1
:102130009F709B2590FB222420F8312C269EF001D5
:10214000279EF00D369EF00D1124082E000C990BE1
:10215000809590958827990F881F9927849F9001D3
:10216000859F300D949F300D11242E2B3F2B232B58
:10217000C1F189B193B192959F709B2590FB442446
:1021800040F8512C469EF001479EF00D569EF00DF2
:102190001124082E000C990B809590958827990F93
:1021A000881F9927849F9001859F300D949F300D43
:1021B00011242E2B3F2B232BE1F69FEBEAE7F0E1D6
:1021C0009150E040F040E1F700C000000F5F1F4F6A
:1021D00080910801909109010817190711F400E096
:1021E00010E0E3B19091990621E030E0992311F0DD
:1021F00020E030E069B141E050E0913011F040E082
:1022000050E0062E000C770B60957095CB01882767
:10221000990F881F9927849FB001859F700D949F07
:10222000700D11248E2F82958F708B2580FBEE24EC
:10223000E0F8F12CE29EC001E39E900DF29E900D1D
:102240001124682B792B672BC9F1E3B169B1062EF4
:10225000000C770B60957095CB018827990F881F2C
:102260009927849FB001859F700D949F700D112454
:102270008E2F82958F708B2580FBCC24C0F8D12CBB
:10228000C29EC001C39E900DD29E900D1124682B5A
:10229000792B672BD1F62FEB8AE790E12150804014
:1022A0009040E1F700C000000150110917FF06C07F
:1022B0000091080110910901015011094E992FC098
:1022C0004E9BFECFEFEBFAE720E1E150F0402040DB
:1022D000E1F700C00000000F111FE0919E06F09191
:1022E0009F06E00FF11F808191810E94A41D7C0157
:1022F0000E94F803882331F0C7010E94351D0E9417
:10230000520F53C080919E0690919F06FC01E00FF2
:10231000F11FB701808191810E948D0746C0081589
:10232000190511F48401EFCEE0919E06F0919F060D
:10233000C801880F991FE80FF91F808191810E94C1
:10234000A41D782EA92E63E080E00E940916872D37
:102350009A2D0E94F803882319F086E090E002C0CD
:1023600081E090E00E942217872C9A2C340188E0AB
:10237000680E711CA12CF40181914F01803219F07B
:102380000E949315A39486149704A9F78A2C912C84
:1023900020E1821691043CF480E20E949315FFEF45
:1023A0008F1A9F0AF5CF4801BDCF28960FB6F89433
:1023B000DEBF0FBECDBFDF91CF911F910F91FF9078
:1023C000EF90DF90CF90BF90AF909F908F907F90D5
:1023D0006F905F904F903F902F900895CF92DF9233
:1023E000EF92FF920F931F93CF93DF938AE191E0D7
:1023F0009093DE068093DD068FEF9FEFDC018093E4
:10240000D9069093DA06A093DB06B093DC0680E051
:1024100090E00E94351D8FEF9FEF90930101809314
:102420000001CFEFDFEF00E010E0C8010E94A41D23
:102430007C01009709F48FC0FC018081882309F496
:1024400091C0C7010E94E203882329F0CF3FFFEF2C
:10245000DF0709F4E8014BE050E060E770E0C701F6
:102460000E94DC1F892B09F076C0109301010093B4
:1024700000018091E806F701428D538D8B3079F48D
:10248000C488D588E12CF12C7601DD24CC24CA0146
:10249000A0E0B0E08C299D29AE29BF2903C0CA0164
:1024A000A0E0B0E09C01AD01225031094109510981
:1024B000A091F706B0E00E94CA1FC090E406D09039
:1024C000E506E090E606F090E7066C0D7D1D8E1D9A
:1024D0009F1D0E943019E090DD06F090DE06F701A6
:1024E00080819181A281B3818D3C9240AB4AB14001
:1024F00051F5F70184818093D806818980939D06E8
:102500000E9485155C98F70185819681A781B08529
:102510008093ED069093EE06A093EF06B093F0063D
:10252000D184F2848D2D9F2D0E94A41D009739F037
:102530000E94E203882319F0CD2DDF2D13C080E027
:1025400090E00E94351D80E090E00E94351DCF3F55
:10255000FFEFDF07E1F40F5F1F4F003921E01207A3
:1025600009F063CFCF3F8FEFD80789F4F8940E942A
:10257000520F49991BC08091CF06882331F080917A
:102580006E00816080936E00E89A78940FC0CE014F
:102590000E94A41DBC01CE01DF91CF911F910F912C
:1025A000FF90EF90DF90CF900C948D07DF91CF914B
:1025B0001F910F91FF90EF90DF90CF9008954F9271
:1025C0005F926F927F928F929F92AF92BF92CF92C3
:1025D000DF92EF92FF920F931F93CF93DF930E94AE
:1025E000A009499B22C08FEF90E0499BBAC1019797
:1025F000E1F780916E008E7F80936E00E8981092D4
:10260000CF061092A206DF91CF911F910F91FF90FC
:10261000EF90DF90CF90BF90AF909F908F907F9082
:102620006F905F904F900C942B03309B7EC14E9B1C
:1026300059C089B16091990621E030E0662311F01C
:1026400020E030E093B141E050E0613011F040E033
:1026500050E092959F70A1E09A2790FB882480F823
:10266000912C849EB001859E700D949E700D112456
:10267000082E000C990B809590958827990F881F3C
:102680009927829FF001839FF00D929FF00D1124F6
:102690006E2B7F2B672B31F5E3B189B1082E000C2F
:1026A000990B809590958827990F881F9927849F6B
:1026B000B001859F700D949F700D11248E2F82950F
:1026C0008F70A827A0FBAA24A0F8B12CA29EC0015D
:1026D000A39E900DB29E900D1124682B792B672B31
:1026E00009F423C14E9910C084E690E021E04E9990
:1026F00020E00197E1F7222309F433C14E9BFECF7E
:10270000F8940E94520F0EC149B16091990681E080
:1027100090E0662311F080E090E053B121E030E0DA
:10272000613011F020E030E052955F70A1E05A274F
:1027300050FBCC24C0F8D12CC29EB001C39E700DBA
:10274000D29E700D1124042E000C550B409550950F
:102750004427550F441F5527489FF001499FF00D0E
:10276000589FF00D11246E2B7F2B672B09F45BC053
:1027700064E670E0C1E0D1E049B153B152955F70B9
:102780005D2750FBEE24E0F8F12CE29EF001E39E81
:10279000F00DF29EF00D1124042E000C550B409507
:1027A00050954427550F441F5527489FD001499FF6
:1027B000B00D589FB00D1124AF014A2B5B2B452B58
:1027C00009F4C0E061507109B9F6CC2309F4C9C01D
:1027D000A1E049B153B152955F705A27052F01709E
:1027E00010E0029FF001039FF00D129FF00D1124E5
:1027F000042E000C550B409550954427550F441F4F
:102800005527489FB001499F700D589F700D1124A6
:10281000AF01462B572B452BE1F6F8940E94970DFC
:1028200049999FC091C0E3B149B1042E000C550BEA
:10283000409550954427550F441F5527429FB0019E
:10284000439F700D529F700D11245E2F52955F7043
:10285000A527A170CA2F40E0D42FC89FA001C99F0F
:10286000500DD89F500D1124462B572B452B09F4A2
:1028700078C064E670E0F1E0C1E0E3B149B1042E54
:10288000000C550B409550954427550F441F552774
:10289000429FD001439FB00D529FB00D11244E2F87
:1028A00042954F704C2740FB662460F8712C689E5F
:1028B000A001699E500D789E500D11244A2B5B2B70
:1028C000452B09F4F0E061507109B9F6FF2309F4D2
:1028D00048C071E063B149B1042E000C550B40951E
:1028E00050954427550F441F5527429FF001439FA1
:1028F000F00D529FF00D1124462F42954F7047273F
:1029000040FB442440F8512C489EA001499E500DA4
:10291000589E500D11244E2B5F2B452BD9F6F89461
:102920000E940109499B12C01CC08091CF068111F1
:1029300018C08FEF90E0499914C00197E1F7F8941F
:1029400081E00E947D0681110E94EE118091CF06E8
:10295000882331F080916E00816080936E00E89A48
:102960007894DF91CF911F910F91FF90EF90DF90BE
:10297000CF90BF90AF909F908F907F906F905F901F
:102980004F90089596E09A95F1F708950895359B34
:10299000FECFA894089508953C983D984498459892
:1029A00088279927349B0895359B089581E00895E1
:1029B00081E00895359BEBDF3C9AE4DF2AD008954F
:1029C00081E008953D9ADEDF3C98DCDF3D98DADF58
:1029D000359BDDDF3C9AD6DF1CD0089581E0089559
:1029E0008F938F918F93359BD2DF3C9ACBDF11D0A1
:1029F000882311F404D0F5CF0F90089508953D9ADF
:102A00003C9AC0DF3D98BEDF359BC1DF3C98BADF02
:102A100008950894881F01C0880FB9F03D9A0000FE
:102A20000000000018F400003C9802C03C9A00C06E
:102A3000A9DF3D98A894000000000000359BA7DFA7
:102A400012F4882712C09EDFE7CF3D9A00000000F5
:102A50003C9898DF992788273D98A8940000359BDB
:102A600096DF7AF3349B81E08DDF000000003D9A11
:102A7000089581E0089571E03D9A3C9800000000BF
:102A8000000080DF3D987EDFA89400000000000079
:102A9000359B7DDFB2F0889434990894771F60F7F6
:102AA0003D9A803011F03C9801C03C9A0000000033
:102AB000000068DF3D98A89400000000359B67DFA8
:102AC00061DF000000003D9A872F9927089580E27A
:102AD0000895CF93C82F88E70E94DA1480E00E94FF
:102AE00009158C2F0E940915CF910C94FF14CF93D8
:102AF000C82F88E70E94DA1480E40E9409158C2F01
:102B00000E940915CF910C94FF14CF93C82F81E830
:102B100090E00E9469158C2F90E00E946915C09387
:102B2000D306CF9108950F931F93CF93DF93C82FB0
:102B300088E70E94DA1480E40E94091585E0C89FA6
:102B4000E001112400E010E0C05AD109FE01E00FBD
:102B5000F11FE95CFB4FE4918091D1068111E09572
:102B60008091D406813011F080E001C080E891E0CE
:102B70002091D206213009F090E0E92B8E2B0E94A3
:102B800009150F5F1F4F0530110501F791E0809186
:102B9000D106813009F090E0292F21958091D4064B
:102BA000813011F080E001C080E891E03091D206E0
:102BB000313009F090E0922B892B0E940915DF91AA
:102BC000CF911F910F910C94FF14CF93DF93EC01E1
:102BD0008991882319F00E949315FACFDF91CF9144
:102BE000089581E09091D106911180E08093D10603
:102BF000089581E09091D406911180E08093D406ED
:102C0000089581E09091D206911180E08093D206E0
:102C10000895CF93DF93C82F862F90E080559F4F64
:102C20000E946915C695C695C69588E0C89FE001C3
:102C300011242091A006CE0188709927820F911D42
:102C40000E946915CE0124E0959587952A95E1F7B4
:102C50004096DF91CF910C9469150F931F93CF93FA
:102C6000C0E06C2F80E00E94091604E810E080E0CC
:102C70000E94771501501109D1F7CF5FC83089F74D
:102C8000CF911F910F910C94FF1481EA90E00E9464
:102C9000691588EC90E00E9469150C942D1680EA65
:102CA00090E00E94691580EC90E00E9469150C94F8
:102CB0002D160E94CC148EEA90E00E94691586EAD7
:102CC00090E00E94691585ED90E00E94691580E80A
:102CD00090E00E94691588EA90E00E9469158FE3F0
:102CE00090E00E94691583ED90E00E94691580E0F4
:102CF00090E00E94691580E490E00E9469158DE8DB
:102D000090E00E94691584E190E00E94691580E2DC
:102D100090E00E94691580E090E00E94691580EAC9
:102D200090E00E94691588EC90E00E9469158AED98
:102D300090E00E94691582E190E00E94691581E8A7
:102D400090E00E9469158FEC90E00E94691589ED72
:102D500090E00E94691581EF90E00E9469158BED6B
:102D600090E00E94691580E490E00E94691584EA71
:102D700090E00E94691586EA90E00E9469158FEA4A
:102D800090E00E9469158FEC8093D30680939D0696
:102D900082E08093A0061092D1061092D406109281
:102DA000D2060C944F160C9459160C942D160C94B4
:102DB000E515CF93DF93CDB7DEB72A970FB6F8941A
:102DC000DEBF0FBECDBF4AE0BE016F5F7F4F0E94E6
:102DD0000B20CE0101960E94E5152A960FB6F894B5
:102DE000DEBF0FBECDBFDF91CF910895CF93DF93AC
:102DF000CDB7DEB72A970FB6F894DEBF0FBECDBFB2
:102E00002AE0AE014F5F5F4F0E941620CE0101966F
:102E10000E94E5152A960FB6F894DEBF0FBECDBF0F
:102E2000DF91CF910895CF93DF93FC018491EF015F
:102E30002196882321F00E949315FE01F7CFDF91A0
:102E4000CF910895EF92FF920F931F93CF93DF934B
:102E50007C018CE08E9D80018F9D100D1124C0E0BF
:102E6000D0E08FEFE816F10439F0FE01E00FF11F1A
:102E7000ED51FC4FE49101C0E0E08091D106811159
:102E8000E0958091D406813011F020E001C020E867
:102E900091E08091D206813009F090E08E2F892B4D
:102EA000822B0E9477152196CC30D105D1F691E086
:102EB0008091D106813009F090E0292F21958091F1
:102EC000D406813011F080E001C080E891E03091BB
:102ED000D206313009F090E0922B892BDF91CF910F
:102EE0001F910F91FF90EF900C9477150C94F115B2
:102EF0000C94F9150C940116EF92FF920F931F9307
:102F0000CF93E12CF12CC0E06C2F89E10E940916CF
:102F100000E010E0F801EE0DFF1DEF58FD4F849129
:102F20000E9477150F5F1F4F0A34110599F7CF5F85
:102F30008AE4E80EF11CC53039F7CF911F910F914B
:102F4000FF90EF900895549A539A559A5098109282
:102F5000D506089528E030E090E840E258E068E2C5
:102F6000792F782319F05BB96BB902C01BB84BB944
:102F7000969521503109A1F71BB80895CF93DF939F
:102F80001F92CDB7DEB788E08BB9198280E028E2C6
:102F900038E09981983051F02BB999B1880F917030
:102FA000892B3BB999819F5F9983F3CF0F90DF9174
:102FB000CF91089588E38BB988E18BB9089528E112
:102FC00000002A95E9F70197D1F708950895DF9257
:102FD000EF92FF920F931F93CF93DF93082FC8E0D8
:102FE000D0E010E880E2F82E98E0E92E28E2D22E18
:102FF000812F802339F0EBB881E090E00E94DF1749
:10300000DBB806C01BB881E090E00E94DF17FBB878
:103010001695219769F781E090E00E94DF171BB8B1
:10302000DF91CF911F910F91FF90EF90DF90089566
:103030009091D506911103C00E94E71702C00E942B
:10304000AA1780E00895FF920F931F93CF93DF9309
:103050001F92CDB7DEB788E08BB981E090E00E9487
:10306000DF17198210E008E288E0F82E89818830A5
:1030700091F00BB981E090E00E94DF1789B1110F48
:103080008170182BFBB881E090E00E94DF178981E6
:103090008F5F8983EBCF812F0F90DF91CF911F91AD
:1030A0000F91FF9008958091D506811102C00C9474
:1030B00023180C94BE1788E38BB981E090E00E943E
:1030C000DF1788E18BB981E090E00C94DF1781E095
:1030D0008093D50608951092D50608950E94BE17D4
:1030E00087FDFCCF0895CF92DF92EF92FF92CF93AE
:1030F000C82F6A017B010090D70604C0CC0CDD1CF0
:10310000EE1CFF1C0A94D2F78FEF0E94AA178C2F97
:1031100080640E94AA178F2D0E94AA178E2D0E94EC
:10312000AA178D2D0E94AA178C2D0E94AA1785E937
:103130000E94AA178FEF0E94AA170E946E18809310
:10314000E20681508E3FC8F3CF91FF90EF90DF9061
:10315000CF900895AB01BC011092E00681E10E947E
:1031600073180E94BE178093E3068E3FD1F708952F
:10317000FF920F931F93CF93DF9300D000D0CDB772
:10318000DEB7F82E8091DF06811113C08FEE8F0D10
:10319000823040F088EE8F0D823020F080EE8F0D6F
:1031A000823038F489E0440F551F661F771F8A95D7
:1031B000D1F78FEF49835A836B837C830E94181861
:1031C0008F2D80640E9418187C81872F0E94181808
:1031D0006B81862F0E9418185A81852F0E9418181B
:1031E0004981842F0E94181888E0F81202C087E8ED
:1031F00001C085E90E94181810E00E945318082F9A
:103200008F3F19F41150C9F71EC081111CC08AE309
:10321000F81219C00E9453181092D70686FF05C0F5
:1032200081E08093DF0682E006C01092DF0689E02D
:103230008093D70681E08093E1060E9453180E9494
:1032400053180E9453180E945318802F0F900F900C
:103250000F900F90DF91CF911F910F91FF900895E4
:10326000EF92FF920F931F93CF93DF9300D000D084
:10327000CDB7DEB70091D9061091DA062091DB06B2
:103280003091DC06601771078207930709F444C088
:10329000AB01BC014093D9065093DA066093DB067C
:1032A0007093DC065C988FEF49835A836B837C8331
:1032B0000E9418188FEF0E94181849815A816B815B
:1032C0007C8181E10E94B818811127C000E010E0E4
:1032D0000E9453188E3F31F001501109C9F75C9AD2
:1032E00080E01BC0E12CF12C0091DD061091DE0680
:1032F0000E0D1F1D0E945318F8018083FFEFEF1A77
:10330000FF0AE11482E0F80679F70E9453180E9440
:1033100053180E9453185C9A81E00F900F900F9001
:103320000F90DF91CF911F910F91FF90EF90089533
:10333000CF93DF93AB01BC0188E10E94B8188111E3
:103340003DC05C988EEF0E941818C0E0D0E0E0917C
:10335000DD06F091DE06EC0FFD1F80810E9418183B
:103360002196C11582E0D80791F78FEF0E941818B7
:103370008FEF0E9418180E945318982F9F71953054
:1033800079F4C0E0D0E00E945318811103C0219667
:10339000D1F706C05C9A8FEF0E9418185C9808C09D
:1033A0005C9A0CC09E012F5F3F4F2196C9F3E90143
:1033B0000E9453188823B1F35C9A81E0DF91CF918A
:1033C0000895AB01BC0180E10C94B818CF92DF9254
:1033D000EF92FF920F931F93CF93DF931092D60635
:1033E00085E08093D8060E94A3170E946B18499924
:1033F00098C080E285B95C9A8FE097E2A0E0B0E0E7
:103400008093D9069093DA06A093DB06B093DC068E
:10341000C4E60E945B18C150E1F75C98CCE08FEFE6
:103420000E941818C150D9F700E018E040E050E0C1
:10343000BA0180E00E94B8180150110931F415B8A2
:103440005C9A81E08093D6066DC0813079F7CCE03C
:103450008FEF0E941818C150D9F7C1E0D2E04AEAB4
:1034600051E060E070E088E00E94B8188A3A49F4C0
:1034700081E08093E106C12CD12CE12C80E4F82E70
:1034800009C08130A9F3219751F71092E106C12CB0
:10349000D12C7601CCE08FEF0E941818C150D9F7DB
:1034A00001E012E040E050E0BA0187E30E94B81862
:1034B000B701A60189E20E94B8180150110931F440
:1034C00082E08093D60615B85C9A2CC08111EACFB1
:1034D0001092DF0689E08093D7068091E106813063
:1034E00081F040E050E0BA018BE30E94B81860E040
:1034F00072E080E090E00E94E11915B85C9AC1E0AA
:1035000011C0C5E6D0E08FEF0E94181840E050E0EF
:10351000BA018AE30E94B818219719F38111F3CFF9
:10352000E0CFC0E08C2FDF91CF911F910F91FF90E2
:10353000EF90DF90CF90089580E285B9089515B897
:1035400008950E94BE17499902C08F3FD1F7089590
:103550004F925F926F927F928F929F92AF92BF92A3
:10356000CF92DF92EF92FF921F93CF93DF9360E0B1
:1035700070E0CB010E943019E091DD06F091DE068B
:1035800080818D7F893E51F1DF01A250BE4F8D9128
:103590009C9185359A4A11F086E014C0E254FE4FA2
:1035A00084818093E80660857185828593850E9479
:1035B0003019E091DD06F091DE0680818D7F893E35
:1035C00029F083E08093D60680E0A8C08091E806C9
:1035D0008B3021F0863011F084E0F4CFC091DD060D
:1035E000D091DE06438554855093F2064093F10650
:1035F00015851093F70686859785C48CD58CE68C47
:10360000F78CC80ED91EE11CF11CC092F306D092B3
:10361000F406E092F506F092F6062091E8062630D0
:1036200019F48689978902C08CA19DA1A089B0E078
:103630008A9FB0018B9F700D9A9F700D11244601D7
:103640005701860E971EA11CB11C8092E406909231
:10365000E506A092E606B092E7064CA45DA46EA42F
:103660007FA42630B9F0A30192012250310941090B
:103670005109A12FB0E00E94CA1F860E971EA81EF6
:10368000B91E8092E9069092EA06A092EB06B092EB
:10369000EC0625C09C010E94BB1FC60ED71EE81E6B
:1036A000F91EC092E906D092EA06E092EB06F0928B
:1036B000EC068189928935E0880F991F3A95E1F7E8
:1036C000BA010E94851FC60ED71EE11CF11CC092D4
:1036D000E406D092E506E092E606F092E706812F36
:1036E00090E020E031E0320F8130910521F0969595
:1036F0008795232FF7CF2093F8068091E9069091C4
:10370000EA06A091EB06B091EC068093ED0690934B
:10371000EE06A093EF06B093F00681E0DF91CF9123
:103720001F91FF90EF90DF90CF90BF90AF909F9050
:103730008F907F906F905F904F9008954F925F921F
:103740006F927F928F929F92AF92BF92CF92DF92B1
:10375000EF92FF92CF932091E806263039F4882427
:103760008A94982CA12CB12C21E007C088248A943B
:10377000982CA82C2FE0B22E22E004C0660F771FF1
:10378000881F991F2A95D2F72091F1063091F206F1
:1037900040E050E00E94991F6B017C018091F3068C
:1037A0009091F406A091F506B091F60629013A0130
:1037B000480E591E6A1E7B1ECAE0C301B2010E9458
:1037C0003019882311F0C150C1F78091DD06909126
:1037D000DE06FC01EC0DFD1D80819181A281B3818B
:1037E000BC01CD01682179218A219B21CF91FF90D5
:1037F000EF90DF90CF90BF90AF909F908F907F9091
:103800006F905F904F9008954F925F926F927F926A
:103810008F929F92AF92BF92CF92DF92EF92FF92E0
:10382000CF9388EEC82E83E0D82EE12CF12CC7016F
:10383000B6010E949E1B611571058105910591F0ED
:1038400030EAC31636E8D30631E0E306F10431F07E
:103850002FEFC21AD20AE20AF20AE9CF60E070E062
:10386000CB0151C040EAC41646E8D40641E0E40664
:10387000F10409F448C08091E806863011F481E033
:1038800001C082E0A701960104C0220F331F441F2C
:10389000551F8A95D2F7CA01B9012091F1063091DE
:1038A000F20640E050E00E94991F2B013C018091FC
:1038B000F3069091F406A091F506B091F606490141
:1038C0005A01880E991EAA1EBB1ECAE0C501B4018A
:1038D0000E943019882311F0C150C1F78091DD0694
:1038E0009091DE06FC01E40DF51D8FEF90E0A0E065
:1038F000B0E080839183A283B383C501B4010E94A9
:103900009819C701B601CF91FF90EF90DF90CF904B
:10391000BF90AF909F908F907F906F905F904F90EF
:1039200008958F929F92AF92BF92CF92DF92EF92C3
:10393000FF920F931F93CF93DF93EC0155E0CC0FD1
:10394000DD1F5A95E1F78E01012F11270695209171
:10395000F706622F70E0C8010E94851F7B018091ED
:10396000ED069091EE06A091EF06B091F006672B60
:1039700009F44EC03091E806363071F48090E906C3
:103980009090EA06A090EB06B090EC068815990599
:10399000AA05BB0509F45AC08090E4069090E5069C
:1039A000A090E606B090E706BC01CD016819790940
:1039B0008A099B0930E040E050E00E94991FCA014B
:1039C000B9016E5F7F4F8F4F9F4FC12CD12C0E944A
:1039D0009E1B2FEFC21AD20ACE14DF04C1F79B013F
:1039E000AC012250310941095109A091F706B0E01C
:1039F0000E94CA1F8090E4069090E506A090E6061B
:103A0000B090E706DC01CB01880D991DAA1DBB1DF6
:103A10009801322F2227330FC21BD30B4091F70698
:103A20004E9D90014F9D300D1124021B130BBC01C4
:103A3000CD01600F711F811D911D0E943019809171
:103A4000DD069091DE068C0F9D1F02C080E090E0A5
:103A5000DF91CF911F910F91FF90EF90DF90CF906A
:103A6000BF90AF909F908F9008950F931F93FC018C
:103A7000892B49F48091E9069091EA06A091EB0622
:103A8000B091EC0639C09385892F807194FF3DC0B9
:103A90002091E806828D938D2B3079F42489358925
:103AA000A90160E070E0BA0155274427A0E0B0E02A
:103AB000842B952BA62BB72B02C0A0E0B0E000977B
:103AC000A105B105B9F29C01AD01225031094109AE
:103AD0005109A091F706B0E00E94CA1F0091E406C8
:103AE0001091E5062091E6063091E706DC01CB0156
:103AF000800F911FA21FB31F8093ED069093EE06D7
:103B0000A093EF06B093F00681E01F910F91089506
:103B1000FC01892BB1F08081882399F0853E89F0E2
:103B20008E3221F481818E3219F00BC0853049F03C
:103B300083858E3131F08F3021F0883211F0CF0142
:103B4000089580E090E008950E94911C0C94881DD7
:103B50000000000000000000000000000000000065
:103B60000000089500000000000000002091D80629
:103B70002A95F1F70895AF93AFB7AF93BF932F9303
:103B8000A091CE062091CD06A22BA8B9A4EBA6BD8C
:103B900020E0E8DFA091CD06A8B9B091A206BB2332
:103BA00041F02093CE062F91BF91AF91AFBFAF915F
:103BB0001895A8E2ABB9A9B1A170AA0F2A2FA8E065
:103BC000ABB9A0919206B09193061196A09392067C
:103BD000B0939306A03989F4BC3079F4A1E0A093A6
:103BE000A206CF93C0E7A8E0B8E2BBB9B8E0BBB982
:103BF000AA95D1F7CA95B9F7CF912093CE062F9108
:103C0000BF91AF91AFBFAF9118952F932FB72F935F
:103C100030995BC03F9330919A0626B124702327D8
:103C2000E1F326B1247020939A0628E02A95F1F753
:103C300000004F935F936F937F938F93EF93FF9366
:103C400060E0E091A306F091A4063DE541E00DC0DF
:103C500050919A0676B174707527E1F376B174705D
:103C600070939A067EE07A95F1F727E081E079B1CA
:103C70007470D9F4000000007BE17A95F1F776B119
:103C8000747050919A0670939A067527769576957A
:103C9000880F872B2A9559F7853D09F461E060303C
:103CA000B9F281933150404099F69F93AF93BF93FF
:103CB0000E94E705BF91AF919F91FF91EF918F9186
:103CC0007F916F915F914F913F912F912FBF2F91D6
:103CD000189581E00E9440038FEF80931601CBE896
:103CE0000E94DF12309B03C00E949F1AF9CF0E94EE
:103CF0009C1A83B18F7080930C0190910B018917EE
:103D000071F180930B01883049F0843009F4F4C0DC
:103D1000823009F4F3C0813011F5F2C082E02091C5
:103D2000A106982F920FE92FE7708E2F8695E82F26
:103D3000F0E0E459FF4FE49190FFE295EF708E2F91
:103D4000887009F0E86FE20FE53C08F0DBC0E09313
:103D5000A1068091A1068C3810F0C093A106809135
:103D6000CF06882309F4BCCF8091A206882309F4EA
:103D7000B7CFF894309194063F5F3F70309394062C
:103D80002091A106269526952093D00640E1249FF8
:103D9000C0011124830F911D90939C0680939B0674
:103DA0000090F80602C0969587950A94E2F79093E2
:103DB000180180931701880F991F880F991FFC0124
:103DC000EB55F94F80819181A281B3818093950653
:103DD00090939606A0939706B0939806809116014B
:103DE0002817B9F02093160164E08CE00E940916B0
:103DF00087E891E00E9413178091D0068A3020F462
:103E000083E091E00E94D7168091D00690E00E9456
:103E1000D9168091940690910D01981306C02091B7
:103E200012019091D006291741F190910E0198133B
:103E300006C0209113019091D0062917F1F09091BE
:103E40000F01981306C0209114019091D0062917F4
:103E5000A1F090911001981306C020911501909146
:103E6000D006291751F090911101981308C0909134
:103E700016018091D006981302C00E947F058091A0
:103E8000950690919606A0919706B0919806029794
:103E9000A109B109AC01BD010090F80604C0440FAE
:103EA000551F661F771F0A94D2F78091E406909100
:103EB000E506A091E606B091E706840F951FA61FC0
:103EC000B71F2091F70630E02150310940919B0641
:103ED00050919C0624233523BC01CD01620F731F32
:103EE000811D911D0E94AA181092930610929206AD
:103EF0001092A2067894F4CE84E011CF86E00FCF22
:103F000080E00DCF1092A10624CFAA1BBB1B51E16C
:103F100007C0AA1FBB1FA617B70710F0A61BB70B39
:103F2000881F991F5A95A9F780959095BC01CD01DE
:103F30000895A1E21A2EAA1BBB1BFD010DC0AA1FEA
:103F4000BB1FEE1FFF1FA217B307E407F50720F002
:103F5000A21BB30BE40BF50B661F771F881F991F7D
:103F60001A9469F760957095809590959B01AC01C6
:103F7000BD01CF010895A29FB001B39FC001A39FCF
:103F8000700D811D1124911DB29F700D811D112492
:103F9000911D08950E94BB1FA59F900DB49F900D89
:103FA000A49F800D911D11240895FB01DC01059053
:103FB0000D920020E1F70895FB01DC0141505040D3
:103FC00030F08D910590801919F40020B9F7881B05
:103FD000990B0895FB01DC0104C08D9101908019BB
:103FE00021F441505040C8F7881B990B0895DC011B
:103FF000FB014150504058F049F001900D920020D3
:10400000C1F7E61BF70B3197CF0108951C92019081
:104010000020E9F7F6CFBB274A3031F4992322F488
:10402000BDE2909581959F4F0C944820BB272A3084
:1040300051F4992342F4BDE2909580957095619575
:104040007F4F8F4F9F4F0C942620BB27FA01A62F3E
:104050006217710581059105330B30FB66F0AA27C5
:10406000660F771F881F991FAA1FA21710F0A21BA7
:1040700063953850A9F7A05DAA3308F0A95DA19314
:1040800036F7B111B1931082CA010C946120BB279D
:10409000FB015527AA27880F991FAA1FA41710F004
:1040A000A41B83955051B9F7A05DAA3308F0A95D10
:1040B000A193009779F7B111B1931192CB010C94B0
:1040C0006120DC01FC01672F71917723E1F73297C2
:1040D00004C07C916D9370836291AE17BF07C8F3E3
:1040E0000895F999FECF92BD81BDF89A992780B5C0
:1040F0000895262FF999FECF1FBA92BD81BD20BD2C
:104100000FB6F894FA9AF99A0FBE01960895F894AA
:02411000FFCFDF
:06411200FFFFFE2000008B
:00000001FF
