:100000000C94E5000C9479150C9402010C940201F7
:100010000C9402010C9402010C9402010C94020154
:100020000C9402010C9402010C9402010C94020144
:100030000C9402010C9402010C9402010C94020134
:100040000C942F150C9402010C9402010C940201E3
:100050000C9402010C9402010C9402010C94020114
:100060000C9402010C94020120000FED0321534473
:1000700049534B494920434647004E6F2053442083
:10008000696E73657274656400464154313600468A
:100090004154333200547970653A2000436F6465EF
:1000A0003A2000534420426C6F636B204552524FFC
:1000B00052004D697373696E67204D4252202020B3
:1000C00000436C7573746572203C2033326B4200C0
:1000D0004E6F742046415431362F33322020004277
:1000E0006F6F7420736563746F7220202000534417
:1000F0002063616E277420696E6974200053442068
:1001000063616E27742069646C652000452052206D
:1001100052204F205200204E6F726D616C2053446C
:1001200020636172642000202020534448432063F0
:100130006172642020202000536F7274696E672002
:1001400066696C65732E2E2E00204E6F7468696E82
:10015000672068657265212020004275696C6469BA
:100160006E67206C6973742E2E2E0053656C656368
:1001700074204E494320696D6167650054523A20EE
:100180000053656C6563742064656C61793A202066
:100190000044656C61793A20002020202020202036
:1001A000202020202020202020004E49433A2000FB
:1001B0002020202020762E352E3428323031382948
:1001C000004170706C65205D5B0011241FBECFEF95
:1001D000D8E0DEBFCDBF11E0A0E0B1E0EEEEFFE27F
:1001E00002C005900D92AA31B107D9F728E0AAE123
:1001F000B1E001C01D92A736B207E1F70E94DC15FD
:100200000C94F5170C9400000E94DA0E60E080E078
:100210000E94E00E8AE790E00E94300F61E081E0EA
:100220000E94E00E89E991E00E94300F4B99FECFC9
:100230000895CF93C82F14B817B81AB815B818B8BE
:100240001BB8249A2C9A8AE387B982E38AB982E0A0
:1002500088B98BB9399A3B9A419A17BC14BC91E082
:1002600095BD85BF809369001092070810924108E0
:100270001092400810923F0810920608109205084C
:1002800010920D08909314081092130810922501F3
:1002900010922E018FE291E090931608809315083A
:1002A00080E090E00E94DF17823018F480930C0801
:1002B00007C010920C0860E080E090E00E94E71711
:1002C000CC23E9F00E94960E0E94DA0E60E080E0F6
:1002D0000E94E00E81EC91E00E94300F61E080E02E
:1002E0000E94E00E80EB91E00E94300F2FE988E938
:1002F0009BE7215080409040E1F700C00000CF9183
:100300000895FC01892B89F08081882379F0853E4E
:1003100061F08F3551F080858E3439F481858934D0
:1003200021F481E09285933409F080E00895FC0186
:10033000892B59F08081882349F0853E31F08F3533
:1003400021F0838582958170089580E00895CF9291
:10035000DF92EF92FF920F931F93CF93DF938FEF74
:100360009FEF90930101809300010E9479136B012C
:100370007C01672B682B692BD9F180E090E00E940B
:10038000AA1400E010E0C8010E940614EC01892BB9
:1003900049F18881853E11F0811124C08B858F3011
:1003A00009F110930101009300016EE670E0CE01A7
:1003B0000E94431781E08B87FD8AEC8ADB8ECA8E10
:1003C00060914708709148088091490890914A08C7
:1003D000DF91CF911F910F91FF90EF90DF90CF9021
:1003E0000C9416110F5F1F4F003981E0180759F662
:1003F000DF91CF911F910F91FF90EF90DF90CF9001
:1004000008958F929F92AF92BF92CF92DF92EF9218
:10041000FF921F93CF93DF93182FD62FC42F862FD1
:1004200090E020E1429F800D911D1124FC0100907D
:10043000660802C0F695E7950A94E2F7EE0FFF1FF3
:10044000EE0FFF1FE95EF74F40815181628173819A
:1004500022E02BB91BB82091650830E0215031090A
:1004600082239323C0905208D0905308E090540800
:10047000F090550846015701880E991EA11CB11C29
:1004800042505109610971090090660804C0440F87
:10049000551F661F771F0A94D2F7480D591D6A1D14
:1004A0007B1D88E10E940F108FEF0E94460F8EEF98
:1004B0000E94460F80EB90E030E120E33BB92BB97E
:1004C0000197E1F71BB883E00E94460F8CEF0E9472
:1004D000460F8FEF0E94460F8FE30E94460F8FEC6E
:1004E0000E94460F83EF0E94460F8CEF0E94460F3A
:1004F0008FEF0E94460F8FE30E94460F8FEC0E9401
:10050000460F83EF0E94460F8CEF0E94460F85ED49
:100510000E94460F8AEA0E94460F86E90E94460F13
:100520008FEF0E94460F8EEF0E94460F8C2F86950C
:100530008A6A0E94460F8C2F8A6A0E94460F8D2F6E
:1005400086958A6A0E94460F8D2F8A6A0E94460FFE
:100550008EEFD827CD278C2F86958A6A0E94460F6A
:100560008C2F8A6A0E94460F8EED0E94460F8AEAFF
:100570000E94460F8BEE0E94460F8FEF0E94460F9F
:100580008FEF0E94460F8FEF0E94460F8FEF0E9461
:10059000460F8FEF0E94460F8EE591E0189FB00145
:1005A000199F700D112480E090E050E2A0E1B0E3CB
:1005B000FB01E80FF91FE15DFE4FE08128E030E02C
:1005C00040E8FE2FF42319F0ABB9BBB902C01BB849
:1005D0005BB9469521503109A1F701968D3521E08F
:1005E000920731F71BB880E790E030E120E33BB998
:1005F0002BB90197E1F71BB880E093E020E21BB82C
:100600002BB90197E1F71BB88FEF0E94460F8FEFD0
:100610000E94460F0E945A0F0E941F1282E08BB95F
:100620001BB8DF91CF911F91FF90EF90DF90CF909B
:10063000BF90AF909F908F900895CF92DF92EF92EE
:10064000FF920F931F93CF93DF934B9935C000E236
:1006500011E0F80181918F3F59F186E2C82E81E0C7
:10066000D82E9FE2E92E91E0F92EC0E0DFEFF801ED
:1006700060816F3F29F0F60140818C2F0E940102BA
:10068000F801D1938F01F601D1936F01F701128226
:10069000CF5FF2EAEF1AFEEFFF0AC53041F7109282
:1006A00025018FE291E0909316088093150804C00D
:1006B00081E0E532F80771F6DF91CF911F910F913C
:1006C000FF90EF90DF90CF90089580910508909172
:1006D000060880399C40C0F480E18BB98091050800
:1006E0009091060820E330E1803140E1940730F436
:1006F0004B990AC02BB93BB90196F6CF80E99CE033
:10070000909306088093050808954B996EC09091C8
:100710002501292F30E04EE551E0249FF001259F6F
:10072000F00D349FF00D1124E15DFE4F82818D3A72
:1007300009F042C080912E01811131C080910708DB
:10074000F901E05EFE4F8083F901EA5DFE4F4091C2
:100750001308469546954083282F2D7F2D3011F4A0
:100760008E5F01C08F5F8F7080930708943029F4EB
:100770000E9465030E941D031CC09F5F909325018A
:100780004EE551E0949F9001959F300D1124C901D1
:10079000815D9E4F90931608809315080DC080913F
:1007A0001E018093070810922E018F30F1F40E94F1
:1007B000650381E080931408209125018EE591E086
:1007C000289FF001299FF00D1124E15DFE4F8281E9
:1007D000863959F487818575880F90859575892BA1
:1007E00080931E0181E080932E0108952FE231E075
:1007F00045E080E090E0F901E80FF91F10820196D2
:100800008E3551E09507B9F74150225A3E4F4111BC
:10081000F0CFE6E2F1E0A0E2B1E08FEF81938D93BB
:1008200091E0EB32F907D1F70895CF93C82F8FEFFE
:100830009FEF90930101809300010E940710599847
:100840004B9B03C00E9404014CC08FE291E0909347
:100850004C0880934B080E946411811144C00E948F
:10086000DA0E60E080E00E94E00E8CE091E00E94F1
:10087000300F61E080E00E94E00E809144088130FA
:1008800019F48DEF90E004C0823029F48EEE90E0F0
:100890000E94300F22C0833019F48FED90E0F8CF22
:1008A000843019F480ED90E0F3CF853019F481ECB9
:1008B00090E0EECF863019F482EB90E0E9CF8730FC
:1008C00019F483EA90E0E4CF8CE990E00E94300FC5
:1008D0008091440890E00E94F60E109241084B9BD4
:1008E000FECF80E0B0C0CC23D9F00E94DA0E60E0E9
:1008F00080E00E94E00E80914F08823019F487E278
:1009000091E002C086E191E00E94300F59982FEBF0
:1009100085E692E5215080409040E1F700C000005C
:100920000E942612811143C00E94DA0E60E080E02E
:100930000E94E00E8CE091E00E94300F61E080E0C8
:100940000E94E00E80914408813019F48DEF90E010
:1009500004C0823029F48EEE90E00E94300F22C055
:10096000833019F48FED90E0F8CF843019F480EDE6
:1009700090E0F3CF853019F481EC90E0EECF863033
:1009800019F482EB90E0E9CF873019F483EA90E024
:10099000E4CF8CE990E00E94300F8091440890E011
:1009A0000E94F60E109241084B9BFECF9ACF4091C9
:1009B000650820915F0830916008429FC001439F05
:1009C000900D112481159047D0F485E08093440860
:1009D0000E94DA0E60E080E00E94E00E8CE091E080
:1009E0000E94300F61E080E00E94E00E81EC90E018
:1009F0000E94300F109241084B9BFECF72CFCC2348
:100A0000E1F061E080E00E94E00E85E990E00E9464
:100A1000300F809156088B3019F48FE890E002C0B7
:100A200089E890E00E94300F8FEB95E622E5815037
:100A300090402040E1F700C0000059980E94F60362
:100A40000E94031081E0CF9108958F929F92AF9200
:100A5000BF92CF92DF92EF92FF920F931F93CF93AB
:100A6000DF936115710519F480E090E04CC17B01C2
:100A7000EC0160E080E00E94E00E8AEA91E00E94D2
:100A8000300F6701570108E0A00EB11CF6018191FB
:100A90006F01803211F00E94E80EAC14BD04B1F772
:100AA00089E991E00E94300F61E080E00E94E00E51
:100AB00089E991E00E94300F61E080E00E94E00E41
:100AC00081E991E00E94300F8091460890E00E94F9
:100AD000F60ED0931B01C0931A0120915608F7011E
:100AE000828D938D2B3091F44489558960E070E0BC
:100AF000BA0155274427A0E0B0E08A019B01082BEA
:100B0000192B2A2B3B2BC901B80103C0BC0180E083
:100B100090E0611571058105910509F4A5CFE7E124
:100B2000F8E0119211921192119218E0EF33F1074F
:100B3000C1F7609317087093180880931908909371
:100B40001A0811E0663FFFEF7F0781059105A8F4C1
:100B50000E941313663F2FEF72078105910558F429
:100B600034E0139FF0011124E95EF74F6083718335
:100B7000828393831F5F1A3028F380905B089090E4
:100B80005C08A0905D08B0905E0880910001909193
:100B90000101019609F488C080E090E00E94AA1447
:100BA0008FEF9FEFDC018093470890934808A09354
:100BB0004908B0934A0880910001909101010E9478
:100BC0001915FC0120915608828D938D2B3071F4FC
:100BD000C488D588E12CF12C7601DD24CC24A0E05A
:100BE000B0E0C82AD92AEA2AFB2A03C06C01E12C0A
:100BF000F12C02E0C01AD108E108F108A0916508C3
:100C0000B0E0A70196010E94381700915208109198
:100C100053082091540830915508600F711F821FAE
:100C2000931F0E94BF10E0914B08F0914C088DEC8F
:100C300092E0ABEAB1E080839183A283B3834581E4
:100C40005681678170858185928584169506A606F2
:100C5000B70619F48C179D0731F0438754876587D1
:100C60007687908B878785829682A782B086D28787
:100C7000C18780914608848380911008818BA09160
:100C80006508B0E0A70196010E943817C09052088D
:100C9000D0905308E0905408F09055086C0D7D1DDD
:100CA0008E1D9F1D0E94161180925B0890925C0819
:100CB000A0925D08B0925E08109206081092050896
:100CC0001092400810920D08C1E0C09314081092D1
:100CD0001308109207081092250110922E018FE23E
:100CE00091E09093160880931508599840E052E0DF
:100CF00060E070E080E10E9454100E94F603C0930F
:100D0000410881E090E0DF91CF911F910F91FF901A
:100D1000EF90DF90CF90BF90AF909F908F9008950D
:100D2000CF92DF92EF92FF920F931F93CF93DF93B7
:100D3000C0905B08D0905C08E0905D08F0905E0881
:100D40008091000190910101019609F477C080E043
:100D500090E00E94AA148FEF9FEFDC018093470878
:100D600090934808A0934908B0934A0880910001E5
:100D7000909101010E941915FC0120915608828D65
:100D8000938D2B3079F424893589A90160E070E0D6
:100D9000BA0155274427A0E0B0E0842B952BA62B61
:100DA000B72B02C0A0E0B0E09C01AD012250310998
:100DB00041095109A0916508B0E00E9438170091DF
:100DC0005208109153082091540830915508600F33
:100DD000711F821F931F0E94BF10E0914B08F0917A
:100DE0004C088FEF9FEFDC018093470890934808F1
:100DF000A0934908B0934A0883859485A585B68554
:100E000080935B0890935C08A0935D08B0935E08A4
:100E1000C785D089CE010E9419158C010E948101DD
:100E2000882361F0B801CE01DF91CF911F910F911E
:100E3000FF90EF90DF90CF900C942505C0925B0857
:100E4000D0925C08E0925D08F0925E08DF91CF914D
:100E50001F910F91FF90EF90DF90CF9008955E9AD1
:100E60002D9A5F9A08957F928F929F92AF92BF9230
:100E7000CF92DF92EF92FF920F931F93CF93DF9366
:100E80000E94DA0E60E080E00E94E00E81E891E0CE
:100E90000E94300F61E080E00E94E00E81E991E065
:100EA0000E94300F8091460890E00E94F60E9090CC
:100EB0004608A92CBB24B39477247394DAE08D2ED2
:100EC0000E942F0780914608A81699F061E080E003
:100ED0000E94E00E81E991E00E94300F8091460867
:100EE00090E00E94F60E88E690E00E94300FA090FD
:100EF00046084B996BC189B120910C0841E050E044
:100F0000222311F040E050E093B161E070E0213025
:100F100011F060E070E09295969597709B25917026
:100F2000C92F20E0D22FC69FF001C79FF00DD69F9A
:100F3000F00D1124082E000C990B809590958827B0
:100F4000990F881F9927849F9001859F300D949F4A
:100F5000300D11242E2B3F2B232BB1F189B193B1EE
:100F60009295969597709B25092F017010E0069F2A
:100F7000F001079FF00D169FF00D1124082E000CB4
:100F8000990B809590958827990F881F9927849FA2
:100F90009001859F300D949F300D11242E2B3F2BF7
:100FA000232BE1F68FEB9AE720E18150904020401F
:100FB000E1F700C0000080914608815019F080934D
:100FC000460802C08092460893B120910C0861E067
:100FD00070E0222311F060E070E089B141E050E060
:100FE000213011F040E050E09295969597709B2546
:100FF00090FBEE24E0F8F12CE69EF001E79EF00D68
:10100000F69EF00D1124082E000C990B80959095FA
:101010008827990F881F9927849F9001859F300DFD
:10102000949F300D11242E2B3F2B232BC1F193B114
:1010300089B19295969597709B2590FBCC24C0F82A
:10104000D12CC69EF001C79EF00DD69EF00D112446
:10105000082E000C990B809590958827990F881F72
:101060009927849F9001859F300D949F300D112406
:101070002E2B3F2B232BD9F68FEB9AE720E18150C3
:1010800090402040E1F700C00000809146088F5F4B
:101090008B3018F48093460802C0709246084E992F
:1010A0000FCF4E9BFECF8FEB9AE720E1815090400F
:1010B0002040E1F700C0000080914608981609F42E
:1010C00085C08091000190910101019609F47EC0D4
:1010D00080E090E00E94AA148FE291E090934C0887
:1010E00080934B080E94F60310924708109248081C
:1010F0001092490810924A088091000190910101D4
:101100000E941915FC0120915608828D938D2B3079
:1011100071F4C488D588E12CF12C7601DD24CC242F
:10112000A0E0B0E0C82AD92AEA2AFB2A03C06C0151
:10113000E12CF12C82E0C81AD108E108F108A09155
:101140006508B0E0A70196010E9438170091520887
:10115000109153082091540830915508600F711F69
:10116000821F931F0E94BF10E0914B08F0914C0822
:1011700080819181A281B3818D3C9240AB4AB14084
:1011800029F5809146088483A0916508B0E0A70105
:1011900096010E943817009152081091530820912F
:1011A000540830915508600F711F821F931FDF9103
:1011B000CF911F910F91FF90EF90DF90CF90BF9054
:1011C000AF909F908F907F900C941611DF91CF91EC
:1011D0001F910F91FF90EF90DF90CF90BF90AF9055
:1011E0009F908F907F9008952F923F925F926F9281
:1011F0007F928F929F92AF92BF92CF92DF92EF92A7
:10120000FF920F931F93CF93DF93CDB7DEB72A974B
:101210000FB6F894DEBF0FBECDBF10921D01109225
:101220001C018FE291E090934C0880934B088BEE69
:1012300093E090931208809311088FEF9FEFDC01E9
:101240008093470890934808A0934908B0934A08B0
:101250000E94F60360E080E00E94E00E8BE691E0E1
:101260000E94300F61E080E00E94E00E8AE591E08C
:101270000E94300F00E010E0C8010E9419157C01A7
:10128000009799F0FC01808181110FC080911C01B1
:1012900090911D01892BC9F561E080E00E94E00E6C
:1012A00089E491E00E94300F0AC2C7010E948101C7
:1012B000811105C0C7010E9497018823B9F0E09110
:1012C0001C01F0911D01EE0FFF1F809111089091FC
:1012D0001208E80FF91F1183008380911C0190917F
:1012E0001D01019690931D0180931C010F5F1F4FFC
:1012F00080911C0190911D01883C91053CF60039BC
:10130000F1E01F0709F0B8CFC1CF61E080E00E9493
:10131000E00E88E391E00E94300F83E091E00E94AC
:10132000EA0E80911C0190911D0102971CF0812C06
:10133000912C5DC020911C0130911D0140911A013A
:1013400050911B01E0911108F091120800E010E0AB
:1013500080E090E062C08701000F111FE09111084A
:10136000F0911208E00FF11F808191810E94191500
:1013700048E050E0BC01CE0101960E946517E09163
:101380001108F0911208EA0DFB1D808191810E94E5
:10139000191548E050E0BC01CE0101960E94581793
:1013A00097FF12C0E0911108F0911208DF01A00F21
:1013B000B11F8D919C911197EA0DFB1D2081318108
:1013C0002D933C93918380832FEFE21AF20A32E04F
:1013D000A30EB11C80911C0190911D0188199909DF
:1013E000E816F9060CF4B7CF8FEF881A980A8091A7
:1013F0001C0190911D010197881699060CF09ACF57
:10140000A12CB12CEE24E394F12CE4CF61917191E5
:101410006417750709F48C01019682179307B4F3DA
:10142000EE24EA94FE2C552453940E942F074B99E6
:1014300046C189B120910C0841E050E0222311F00F
:1014400040E050E093B161E070E0213011F060E0E5
:1014500070E09295969597709525917099871A8668
:1014600029853A85269FF001279FF00D369FF00DC4
:101470001124082E000C990B809590958827990FC0
:10148000881F9927849F9001859F300D949F300D70
:1014900011242E2B3F2B232BC9F189B193B19295A7
:1014A00096959770952590FB222420F8312C269E46
:1014B000F001279EF00D369EF00D1124082E000C31
:1014C000990B809590958827990F881F9927849F5D
:1014D0009001859F300D949F300D11242E2B3F2BB2
:1014E000232BD9F63FEB8AE790E1315080409040C2
:1014F000E1F700C000000F5F1F4F80911C01909129
:101500001D010817190711F400E010E093B12091B4
:101510000C0861E070E0222311F060E070E089B116
:1015200041E050E0213011F040E050E09295969576
:101530009770952590FB662460F8712C669EF001EB
:10154000679EF00D769EF00D1124082E000C990B6D
:10155000809590958827990F881F9927849F9001DF
:10156000859F300D949F300D11242E2B3F2B232B64
:10157000C1F193B189B1929596959770952590FB9D
:10158000CC24C0F8D12CC69EF001C79EF00DD69E8B
:10159000F00D1124082E000C990B8095909588274A
:1015A000990F881F9927849F9001859F300D949FE4
:1015B000300D11242E2B3F2B232BD9F6EFEBFAE71E
:1015C00020E1E150F0402040E1F700C00000015070
:1015D000110917FF06C000911C0110911D01015057
:1015E00011094E992FC04E9BFECF3FEB8AE790E149
:1015F000315080409040E1F700C00000000F111F03
:10160000E0911108F0911208E00FF11F80819181A3
:101610000E9419157C010E949701882331F0C701AF
:101620000E94AA140E94F4084AC080911108909167
:101630001208FC01E00FF11FB701808191810E9427
:1016400025053DC00E151F0509F4EFCEE0911108E8
:10165000F0911208C801880F991FE80FF91F8081C7
:1016600091810E9419157C0161E080E00E94E00EEA
:10167000C7010E949701882321F083E191E00E9435
:10168000EA0E57014701E8E08E0E911CF5018191A9
:101690005F01803211F00E94E80EA814B904B1F77E
:1016A000C7010E949701882321F085E191E00E9403
:1016B000EA0E89E991E00E94300F7801B6CE2A96B1
:1016C0000FB6F894DEBF0FBECDBFDF91CF911F9153
:1016D0000F91FF90EF90DF90CF90BF90AF909F90D1
:1016E0008F907F906F905F903F902F900895CF9252
:1016F000DF92EF92FF920F931F93CF93DF938FE2CE
:1017000091E090934C0880934B088FEF9FEFDC01A2
:101710008093470890934808A0934908B0934A08DB
:1017200080E090E00E94AA148FEF9FEF9093010158
:1017300080930001CFEFDFEF00E010E0C8010E94CE
:1017400019157C01009709F484C0FC01808188236D
:1017500009F486C0C7010E948101882329F0CF3F88
:10176000FFEFDF0709F4E8014BE050E06EE670E0C0
:10177000C7010E944A17892B09F06BC01093010121
:101780000093000120915608F701828D938D2B3034
:1017900079F424893589A90160E070E0BA01552700
:1017A0004427A0E0B0E0482B592B6A2B7B2B03C0C9
:1017B000AC0160E070E0A09165089A01AB01225095
:1017C000310941095109B0E00E943817C090520810
:1017D000D0905308E0905408F09055086C0D7D1D92
:1017E0008E1D9F1D0E94BF10E0914B08F0914C0888
:1017F00080819181A281B3818D3C9240AB4AB140FE
:1018000001F584818093460885819681A781B08502
:1018100080935B0890935C08A0935D08B0935E088A
:10182000E184F284C7010E941915009731F00E94EB
:101830008101882311F0E70113C080E090E00E944D
:10184000AA1480E090E00E94AA14CF3F8FEFD8073F
:10185000E1F40F5F1F4F0039E1E01E0709F06ECF82
:10186000CF3FFFEFDF0789F4F8940E94F4084B990B
:101870001BC080914108882331F080916E00816007
:1018800080936E00E89A78940FC0CE010E941915DB
:10189000BC01CE01DF91CF911F910F91FF90EF908E
:1018A000DF90CF900C942505DF91CF911F910F9180
:1018B000FF90EF90DF90CF9008954F925F926F92DC
:1018C0007F928F929F92AF92BF92CF92DF92EF92D0
:1018D000FF920F931F93CF93DF930E942F074B9B91
:1018E00022C08FEF90E04B9BC3C10197E1F780913D
:1018F0006E008E7F80936E00E898109241081092DF
:101900001408DF91CF911F910F91FF90EF90DF901E
:10191000CF90BF90AF909F908F907F906F905F908F
:101920004F900C940401309B87C14E9B5AC089B1E3
:1019300040910C0861E070E0442311F060E070E039
:1019400093B121E030E0413011F020E030E0929599
:1019500096959770A1E09A2790FBAA24A0F8B12C45
:10196000A29EA001A39E500DB29E500D1124082EE0
:10197000000C990B809590958827990F881F9927BF
:10198000869FF001879FF00D969FF00D11244E2B3E
:101990005F2B452B31F593B189B192959695977050
:1019A000A927A0FBCC24C0F8D12CC69EA001C79EBD
:1019B000500DD69E500D1124082E000C990B8095C9
:1019C00090958827990F881F9927829FB001839F40
:1019D000700D929F700D1124462B572B452B09F447
:1019E0002BC14E9910C084E690E021E04E9920E092
:1019F0000197E1F7222309F43BC14E9BFECFF894F7
:101A00000E94F40816C129B160910C0841E050E031
:101A1000662311F040E050E033B181E090E06130A6
:101A200011F080E090E0329536953770A1E03A27CA
:101A300030FBEE24E0F8F12CE89EB001E99E700D39
:101A4000F89E700D1124022E000C330B209530955A
:101A50002227330F221F3327249FF001259FF00DEB
:101A6000349FF00D11246E2B7F2B672B09F45FC080
:101A700064E670E0FF24F394EE24E39429B133B1DB
:101A80003295369537703E25032F017010E0089F80
:101A9000F001099FF00D189FF00D1124022E000C8B
:101AA000330B209530952227330F221F3327249F95
:101AB000D001259FB00D349FB00D11249F012A2B1A
:101AC0003B2B232B09F4F12C61507109B9F6FF204F
:101AD00009F4CEC0A1E029B133B132953695377003
:101AE0003A273170C32F30E0D32FC89FF001C99F30
:101AF000F00DD89FF00D1124022E000C330B209511
:101B000030952227330F221F3327249FB001259FB2
:101B1000700D349F700D11249F01262B372B232B22
:101B2000D1F6F8940E9433074B99A2C094C033B108
:101B300029B1329536953770A327A0FB882480F809
:101B4000912C849EB001859E700D949E700D112481
:101B5000022E000C330B209530952227330F221FC5
:101B60003327289FF001299FF00D389FF00D112495
:101B70009B012E2B3F2B232B09F47AC064E670E0E7
:101B8000C1E0D1E033B129B13295369537703D27A8
:101B900030FB662460F8712C649EF001659EF00DA8
:101BA000749EF00D1124022E000C330B20953095FD
:101BB0002227330F221F3327289FD001299FB00DE2
:101BC000389FB00D11249F012A2B3B2B232B09F4A6
:101BD000C0E061507109B1F6CC2309F449C0A1E01D
:101BE00033B129B13295369537703A2730FB44240A
:101BF00040F8512C449EF001459EF00D549EF00D8E
:101C00001124022E000C330B209530952227330F20
:101C1000221F3327289FB001299F700D389F700D18
:101C200011249F01262B372B232BD1F6F8940E94E9
:101C300090064B9B12C01CC080914108811118C0B6
:101C40008FEF90E04B9914C00197E1F7F89481E091
:101C50000E94150481110E94770B8091410888230E
:101C600031F080916E00816080936E00E89A7894E4
:101C7000DF91CF911F910F91FF90EF90DF90CF9068
:101C8000BF90AF909F908F907F906F905F904F909C
:101C90000895459880FF02C0419A01C0419881FF94
:101CA00002C0439A01C0439882FF02C05C9A01C0FF
:101CB0005C9883FF02C05D9A01C05D98459A89E0F7
:101CC0008A95F1F7459889E08A95F1F70895CF93C1
:101CD000C82F599A449882958F700E94490E8C2F74
:101CE0008F700E94490ECC7F29F084E991E0019722
:101CF000F1F704C082ED9CE20197F1F700C000000B
:101D0000CF910895CF93C82F599A449A82958F7096
:101D10000E94490E8C2F8F700E94490E82EA92E039
:101D20000197F1F700C00000CF91089544982FEA81
:101D30008EE194E0215080409040E1F700C0000027
:101D400083E00E94490E85ED93E80197F1F700C00A
:101D5000000083E00E94490E85ED93E80197F1F7BA
:101D600000C0000083E00E94490E85ED93E80197D2
:101D7000F1F700C0000082E00E94490E85ED93E873
:101D80000197F1F700C0000088E20E94670E88E02A
:101D90000E94670E81E00E94670E82E00E94670E3B
:101DA00086E00E94670E8CE00E94670E8AEA8093AC
:101DB0001008089581E00E94670E82E00C94670E7F
:101DC0008F7060FD02C0805801C080540C94670E73
:101DD0000C94820ECF93DF93EC018991882319F044
:101DE0000E94820EFACFDF91CF910895CF93DF93B7
:101DF000CDB7DEB72A970FB6F894DEBF0FBECDBFC2
:101E00004AE0BE016F5F7F4F0E947917CE010196B5
:101E10000E94EA0E2A960FB6F894DEBF0FBECDBF21
:101E2000DF91CF910895CF93DF93CDB7DEB72A9797
:101E30000FB6F894DEBF0FBECDBF2AE0AE014F5FF4
:101E40005F4F0E948417CE0101960E94EA0E2A96E7
:101E50000FB6F894DEBF0FBECDBFDF91CF910895CE
:101E6000CF93DF93FC018491EF012196882321F029
:101E70000E94820EFE01F7CFDF91CF910895519A13
:101E8000549A559A509810924308089528E030E0EB
:101E900090E840E250E160E3782F792319F05BB9D4
:101EA0006BB902C01BB84BB9969521503109A1F707
:101EB0001BB80895CF93DF931F92CDB7DEB780E1B3
:101EC0008BB9198280E020E330E19981983051F09C
:101ED0002BB999B1880F9170892B3BB999819F5F7C
:101EE0009983F3CF0F90DF91CF91089582E38BB95F
:101EF00082E18BB9089528E100002A95E9F701975E
:101F0000D1F708950895DF92EF92FF920F931F93F8
:101F1000CF93DF93082FC8E0D0E010E880E2F82EDE
:101F200090E1E92E20E3D22E802F812339F0EBB807
:101F300081E090E00E947B0FDBB806C01BB881E017
:101F400090E00E947B0FFBB81695219769F781E01E
:101F500090E00E947B0F1BB8DF91CF911F910F91F2
:101F6000FF90EF90DF90089590914308911103C086
:101F70000E94830F02C00E94460F80E00895FF92E6
:101F80000F931F93CF93DF931F92CDB7DEB780E1FE
:101F90008BB981E090E00E947B0F198210E000E392
:101FA00080E1F82E8981883091F00BB981E090E0D2
:101FB0000E947B0F89B1110F8170182BFBB881E053
:101FC00090E00E947B0F89818F5F8983EBCF812F07
:101FD0000F90DF91CF911F910F91FF900895809105
:101FE0004308811102C00C94BF0F0C945A0F82E376
:101FF0008BB981E090E00E947B0F82E18BB981E098
:1020000090E00C947B0F81E0809343080895109238
:10201000430808950E945A0F87FDFCCF0895CF9280
:10202000DF92EF92FF92CF93C82F6A017B0100905D
:10203000450804C0CC0CDD1CEE1CFF1C0A94D2F732
:102040008FEF0E94460F8C2F80640E94460F8F2DC9
:102050000E94460F8E2D0E94460F8D2D0E94460F26
:102060008C2D0E94460F85E90E94460F8FEF0E943B
:10207000460F0E940A108093500881508E3FC8F38B
:10208000CF91FF90EF90DF90CF900895AB01BC010E
:1020900010924E0881E10E940F100E945A0F809307
:1020A00051088E3FD1F70895CF92DF92EF92FF92C1
:1020B000CF93DF93C82F6A017B0180914D08811176
:1020C00013C08FEE8C0F823040F088EE8C0F823080
:1020D00020F080EE8C0F823038F489E0CC0CDD1CCF
:1020E000EE1CFF1C8A95D1F78FEF0E94B40F8C2F46
:1020F00080640E94B40F8F2D0E94B40F8E2D0E9419
:10210000B40F8D2D0E94B40F8C2D0E94B40FC830D7
:1021100011F487E801C085E90E94B40FF12C0E94F8
:10212000EF0FD82F8F3F21F4FA94F110F8CF1DC094
:1021300081111BC0CA33C9F40E94EF0F10924508E9
:1021400086FF05C081E080934D0882E006C01092B2
:102150004D0889E08093450881E080934F080E94F4
:10216000EF0F0E94EF0F0E94EF0F0E94EF0F8D2FD5
:10217000DF91CF91FF90EF90DF90CF900895CF92B5
:10218000DF92EF92FF92CF93DF93C0904708D090F9
:102190004808E0904908F0904A08C616D706E806B5
:1021A000F906E1F16B017C016093470870934808E0
:1021B0008093490890934A0859988FEF0E94B40F72
:1021C0008FEF0E94B40FB701A60181E10E94541065
:1021D000811125C0C0E0D0E00E94EF0F8E3F29F0B2
:1021E0002197D1F7599A80E01AC0E12CF12CC091C7
:1021F0004B08D0914C08CE0DDF1D0E94EF0F888355
:102200008FEFE81AF80AE11482E0F80681F70E94DD
:10221000EF0F0E94EF0F0E94EF0F599A81E0DF91BC
:10222000CF91FF90EF90DF90CF900895CF93DF9301
:10223000AB01BC0188E10E94541081113DC0599846
:102240008EEF0E94B40FC0E0D0E0E0914B08F09117
:102250004C08EC0FFD1F80810E94B40F2196C11520
:1022600082E0D80791F78FEF0E94B40F8FEF0E94A2
:10227000B40F0E94EF0F982F9F71953079F4C0E052
:10228000D0E00E94EF0F811103C02196D1F706C064
:10229000599A8FEF0E94B40F599808C0599A0CC0F0
:1022A0009E012F5F3F4F2196C9F3E9010E94EF0F76
:1022B0008823B1F3599A81E0DF91CF910895AB0162
:1022C000BC0180E10C945410CF92DF92EF92FF9208
:1022D0000F931F93CF93DF931092440885E0809370
:1022E00046080E943F0F0E9407104B9998C080E15A
:1022F00085B9599A8FE097E2A0E0B0E08093470853
:1023000090934808A0934908B0934A08C4E60E94F5
:10231000F70FC150E1F75998CCE08FEF0E94B40F4E
:10232000C150D9F700E018E040E050E0BA0180E089
:102330000E9454100150110931F415B8599A81E0E6
:10234000809344086DC0813079F7CCE08FEF0E9414
:10235000B40FC150D9F7C1E0D2E04AEA51E060E0E1
:1023600070E088E00E9454108A3A49F481E080933A
:102370004F08C12CD12CE12C80E4F82E09C081300B
:10238000A9F3219751F710924F08C12CD12C760157
:10239000CCE08FEF0E94B40FC150D9F701E012E0FA
:1023A00040E050E0BA0187E30E945410B701A60153
:1023B00089E20E9454100150110931F482E08093A7
:1023C000440815B8599A2CC08111EACF10924D08D3
:1023D00089E08093450880914F08813081F040E08A
:1023E00050E0BA018BE30E94541060E072E080E09C
:1023F00090E00E945F1115B8599AC1E011C0C5E67E
:10240000D0E08FEF0E94B40F40E050E0BA018AE3C1
:102410000E945410219719F38111F3CFE0CFC0E04F
:102420008C2FDF91CF911F910F91FF90EF90DF9054
:10243000CF90089580E185B9089515B808950E9458
:102440005A0F4B9902C08F3FD1F708958F929F92F8
:10245000AF92BF92CF92DF92EF92FF921F93CF93F2
:10246000DF9360E070E0CB010E94BF10E0914B0869
:10247000F0914C0880818D7F893E51F1DF01A2509F
:10248000BE4F8D919C9185359A4A11F086E014C01B
:10249000E254FE4F84818093560860857185828561
:1024A00093850E94BF10E0914B08F0914C08808109
:1024B0008D7F893E29F083E08093440880E0A7C0A7
:1024C000809156088B3021F0863011F084E0F4CFF3
:1024D000C0914B08D0914C084385548550936008B7
:1024E00040935F0815851093650886859785C48C91
:1024F000D58CE68CF78CC80ED91EE11CF11CC0925D
:102500006108D0926208E0926308F09264088091BA
:102510005608863019F4A689B78902C0ACA1BDA1BE
:10252000208930E02A9FB0012B9F700D3A9F700DDB
:10253000112446015701860E971EA11CB11C8092E2
:10254000520890925308A0925408B09255088630D1
:10255000D9F08CA59DA5AEA5BFA59C01AD012250CB
:10256000310941095109A12FB0E00E943817860EA8
:10257000971EA81EB91E8092570890925808A092E4
:102580005908B0925A0824C00E942917C60ED71EB7
:10259000E81EF91EC0925708D0925808E0925908D8
:1025A000F0925A088189928935E0880F991F3A95EF
:1025B000E1F7BA010E94F316C60ED71EE11CF11C0A
:1025C000C0925208D0925308E0925408F0925508F5
:1025D000812F90E020E031E0320F8130910521F031
:1025E00096958795232FF7CF2093660880915708FB
:1025F00090915808A0915908B0915A0880935B08AF
:1026000090935C08A0935D08B0935E0881E0DF9131
:10261000CF911F91FF90EF90DF90CF90BF90AF9040
:102620009F908F9008954F925F926F927F928F92BA
:102630009F92AF92BF92CF92DF92EF92FF92CF9391
:1026400020915608263039F488248A94982CA12C9D
:10265000B12C21E007C088248A94982CA82C2FE064
:10266000B22E22E004C0660F771F881F991F2A959B
:10267000D2F720915F083091600840E050E00E945E
:1026800007176B017C018091610890916208A0910D
:102690006308B091640829013A01480E591E6A1E68
:1026A0007B1ECAE0C301B2010E94BF10882311F053
:1026B000C150C1F780914B0890914C08FC01EC0D82
:1026C000FD1D80819181A281B381BC01CD01682172
:1026D00079218A219B21CF91FF90EF90DF90CF90BD
:1026E000BF90AF909F908F907F906F905F904F9032
:1026F00008954F925F926F927F928F929F92AF92C6
:10270000BF92CF92DF92EF92FF92CF9388EEC82EC6
:1027100083E0D82EE12CF12CC701B6010E941313DF
:10272000611571058105910591F030EAC31636E80F
:10273000D30631E0E306F10431F02FEFC21AD20ADA
:10274000E20AF20AE9CF60E070E0CB0151C040EA52
:10275000C41646E8D40641E0E406F10409F448C092
:1027600080915608863011F481E001C082E0A70113
:10277000960104C0220F331F441F551F8A95D2F7BC
:10278000CA01B90120915F083091600840E050E033
:102790000E9407172B013C0180916108909162080B
:1027A000A0916308B091640849015A01880E991EEE
:1027B000AA1EBB1ECAE0C501B4010E94BF10882337
:1027C00011F0C150C1F780914B0890914C08FC0169
:1027D000E40DF51D8FEF90E0A0E0B0E080839183E1
:1027E000A283B383C501B4010E941611C701B601CB
:1027F000CF91FF90EF90DF90CF90BF90AF909F90E0
:102800008F907F906F905F904F9008958F929F92DE
:10281000AF92BF92CF92DF92EF92FF920F931F93EE
:10282000CF93DF93EC0155E0CC0FDD1F5A95E1F714
:102830008E01012F1127069520916508622F70E007
:10284000C8010E94F3167B0180915B0890915C089F
:10285000A0915D08B0915E08672B09F44EC03091DD
:102860005608363071F48090570890905808A09020
:102870005908B0905A0888159905AA05BB0509F4AE
:102880005AC08090520890905308A0905408B0907D
:102890005508BC01CD01681979098A099B0930E006
:1028A00040E050E00E940717CA01B9016E5F7F4FF8
:1028B0008F4F9F4FC12CD12C0E9413132FEFC21AA0
:1028C000D20ACE14DF04C1F79B01AC0122503109BA
:1028D00041095109A0916508B0E00E943817809025
:1028E000520890905308A0905408B0905508DC010D
:1028F000CB01880D991DAA1DBB1D9801322F2227DF
:10290000330FC21BD30B409165084E9D90014F9D24
:10291000300D1124021B130BBC01CD01600F711F80
:10292000811D911D0E94BF1080914B0890914C0811
:102930008C0F9D1F02C080E090E0DF91CF911F912E
:102940000F91FF90EF90DF90CF90BF90AF909F904E
:102950008F9008950F931F93FC01892B49F4809168
:10296000570890915808A0915908B0915A0839C059
:102970009385892F807194FF3DC020915608828DE8
:10298000938D2B3079F424893589A90160E070E0BA
:10299000BA0155274427A0E0B0E0842B952BA62B45
:1029A000B72B02C0A0E0B0E00097A105B105B9F2D5
:1029B0009C01AD012250310941095109A0916508DE
:1029C000B0E00E94381700915208109153082091EE
:1029D000540830915508DC01CB01800F911FA21FD4
:1029E000B31F80935B0890935C08A0935D08B0933D
:1029F0005E0881E01F910F910895FC01892BB1F0D1
:102A00008081882399F0853E89F08E3221F481817E
:102A10008E3219F00BC0853049F083858E3131F04C
:102A20008F3021F0883211F0CF01089580E090E0DE
:102A300008950E9406140C94FD140000000000008C
:102A400000000000000000000000089500000000E9
:102A500000000000209146082A95F1F70895AF93F1
:102A6000AFB7AF93BF932F93A091400820913F0839
:102A7000A22BA8B9AAEAA6BD20E0E8DFA0913F08F2
:102A8000A8B9B0911408BB2341F0209340082F91BE
:102A9000BF91AF91AFBFAF911895A0E3ABB9A9B10A
:102AA000A170AA0F2A2FA0E1ABB9A0910508B0919F
:102AB00006081196A0930508B0930608A03989F47A
:102AC000BC3079F4A1E0A0931408CF93C0E7A8E04C
:102AD000B0E3BBB9B0E1BBB9AA95D1F7CA95B9F7D4
:102AE000CF91209340082F91BF91AF91AFBFAF918D
:102AF00018952F932FB72F9330995AC03F93309149
:102B00000D0826B124702327E1F326B12470209309
:102B10000D0828E02A95F1F700004F935F936F931B
:102B20007F938F93EF93FF9360E0E0911508F0910E
:102B300016083DE541E00DC050910D0876B1747066
:102B40007527E1F376B1747070930D087EE07A9585
:102B5000F1F727E081E079B17470D1F400007EE1F3
:102B60007A95F1F776B1747050910D0870930D0855
:102B7000752776957695880F872B2A9561F7853D81
:102B800009F461E06030C1F2819331504040A1F618
:102B90009F93AF93BF930E948503BF91AF919F9185
:102BA000FF91EF918F917F916F915F914F913F9145
:102BB0002F912FBF2F91189581E00E9419018FEF5F
:102BC00080932B01CBE80E945D0C309B03C00E94D8
:102BD0001D12F9CF0E941A1283B18F7090911F01BC
:102BE000891759F180931F01883049F0843009F426
:102BF000F1C0823009F4F0C08130F9F4EFC082E016
:102C000090911308890FE82FE770E695F0E0E659F8
:102C1000FF4FE49180FFE295EF708E2F887009F0EE
:102C2000E86FE90FE53C08F0DBC0E0931308809102
:102C300013088C3810F0C093130880914108882342
:102C400009F4C1CF80911408882309F4BCCFF8940B
:102C5000809107088F5F8F70809307082091130879
:102C6000269526952093420890E030E1239F800D21
:102C7000911D112490930F0880930E080090660810
:102C800002C0969587950A94E2F790932D01809360
:102C90002C01880F991F880F991FFC01E95EF74FDF
:102CA00080819181A281B381809308089093090863
:102CB000A0930A08B0930B0880912B012817B9F054
:102CC00020932B0161E08AE00E94E00E8CE791E006
:102CD0000E94300F809142088A3020F487E191E011
:102CE0000E94EA0E8091420890E00E94F60E8091C8
:102CF000070890912001981306C020912601909119
:102D00004208291741F190912101891306C02091B1
:102D10002701909142082917F1F09091220189131F
:102D200006C020912801909142082917A1F09091A6
:102D30002301891306C02091290190914208291787
:102D400051F090912401891308C090912A0180913B
:102D50004208981302C00E941D03809108089091B8
:102D60000908A0910A08B0910B080297A109B109BE
:102D7000AC01BD010090660804C0440F551F661FDA
:102D8000771F0A94D2F78091520890915308A0912E
:102D90005408B0915508840F951FA61FB71F2091A6
:102DA000650830E02150310940910E0850910F081C
:102DB00024233523BC01CD01620F731F811D911D9A
:102DC0000E944610109206081092050810921408EE
:102DD0007894F9CE84E014CF86E012CF80E010CF53
:102DE0001092130824CFAA1BBB1B51E107C0AA1FD6
:102DF000BB1FA617B70710F0A61BB70B881F991F9C
:102E00005A95A9F780959095BC01CD010895A1E24E
:102E10001A2EAA1BBB1BFD010DC0AA1FBB1FEE1F54
:102E2000FF1FA217B307E407F50720F0A21BB30B9F
:102E3000E40BF50B661F771F881F991F1A9469F71B
:102E400060957095809590959B01AC01BD01CF0177
:102E50000895A29FB001B39FC001A39F700D811D73
:102E60001124911DB29F700D811D1124911D089593
:102E70000E942917A59F900DB49F900DA49F800DCF
:102E8000911D11240895FB01DC0105900D92002095
:102E9000E1F70895FB01DC014150504030F08D9185
:102EA0000590801919F40020B9F7881B990B089533
:102EB000FB01DC0104C08D910190801921F4415087
:102EC0005040C8F7881B990B0895DC01FB01415065
:102ED000504058F049F001900D920020C1F7E61BD8
:102EE000F70B3197CF0108951C9201900020E9F76C
:102EF000F6CFBB274A3031F4992322F4BDE29095F6
:102F000081959F4F0C94B617BB272A3051F4992313
:102F100042F4BDE290958095709561957F4F8F4FFB
:102F20009F4F0C949417BB27FA01A62F62177105C7
:102F300081059105330B30FB66F0AA27660F771FDA
:102F4000881F991FAA1FA21710F0A21B6395385063
:102F5000A9F7A05DAA3308F0A95DA19336F7B111D6
:102F6000B1931082CA010C94CF17BB27FB015527E0
:102F7000AA27880F991FAA1FA41710F0A41B8395D6
:102F80005051B9F7A05DAA3308F0A95DA19300974D
:102F900079F7B111B1931192CB010C94CF17DC01E9
:102FA000FC01672F71917723E1F7329704C07C9180
:102FB0006D9370836291AE17BF07C8F30895F999B6
:102FC000FECF92BD81BDF89A992780B50895262F2E
:102FD000F999FECF1FBA92BD81BD20BD0FB6F894FE
:0E2FE000FA9AF99A0FBE01960895F894FFCF61
:102FEE00FFFFFE6C796820436865636B20506F6944
:0A2FFE006E74005B005D002000000F
:00000001FF
