:100000000C9423020C94DB1B0C9440020C944002D1
:100010000C9440020C9440020C9440020C94400258
:100020000C9440020C9440020C9440020C94400248
:100030000C9440020C9440020C9440020C94400238
:100040000C94911B0C9440020C9440020C944002BE
:100050000C9440020C9440020C9440020C94400218
:100060000C9440020C944002200020000FED03216C
:10007000534449534B494920434647004E6F205350
:100080004420696E7365727465640046415431366C
:1000900000464154333200547970653A2000436F72
:1000A00064653A2000534420426C6F636B204552D4
:1000B000524F52004D697373696E67204D42522052
:1000C000202000436C7573746572203C2033326BC2
:1000D00042004E6F742046415431362F3332202077
:1000E00000426F6F7420736563746F72202020006C
:1000F00053442063616E277420696E697420005335
:10010000442063616E27742069646C65200045207B
:10011000522052204F2052004E6F726D616C20535E
:1001200044206361726400202020534448432063CC
:1001300061726420200020536F7274696E672066BC
:10014000696C657300204E6F7468696E672068651E
:1001500072652100204275696C64696E67206C6964
:100160007374002053454C454354204E494320208E
:100170002000547261636B3A2000205344204445B0
:100180004C4159202020202000204C434420434F44
:100190004E545241535420002056616C75653A20EC
:1001A000002053657420636F6E7472617374200055
:1001B000205365742053442064656C6179200020CD
:1001C000202020202020202020202020200020531C
:1001D00045545550202020202020202000204E492A
:1001E000432020202020202020202000762E203593
:1001F0002E3420283230313829004170706C65204F
:100200005D5B202D20425200534469736B205D5B7F
:100210000008141C1C1C1C1C1C366363220000FFFD
:10022000FFF7E3E3F7FFFD00000074325242424261
:100230004A4C2E00000000000402FF0204000000EF
:10024000000000002040FF402000000000000020CF
:1002500070A82020203F0000000000FE82828284DF
:1002600084FC000000000000000000005F000000AF
:1002700007000700147F147F14242A7F2A122313F7
:1002800008646236495522500005030000001C2214
:1002900041000041221C0014083E081408083E08D2
:1002A00008005030000008080808080060600000DE
:1002B00020100804023E5149453E00427F40004262
:1002C000615149462141454B311814127F10274591
:1002D0004545393C4A4949300171090503364949C8
:1002E0004936064949291E003636000000563600B8
:1002F000000814224100141414141400412214089C
:100300000201510906324979413E7E1111117E7F69
:10031000494949363E414141227F4141221C7F49A2
:100320004949417F090909013E4149497A7F080845
:10033000087F00417F41002040413F017F08142297
:10034000417F404040407F020C027F7F0408107FC5
:100350003E4141413E7F090909063E4151215E7FF0
:1003600009192946464949493101017F01013F40A8
:1003700040403F1F2040201F3F4038403F6314084B
:10038000146307087008076151494543007F4141E4
:100390000002040810200041417F00040201020411
:1003A0004040404040000102040020545454787FF3
:1003B000484444383844444420384444487F3854FE
:1003C000545418087E0901020C5252523E7F080410
:1003D000047800447D40002040443D007F102844C4
:1003E0000000417F40007C041804787C08040478F5
:1003F00038444444387C14141408081414187C7CC1
:10040000080404084854545420043F4440203C400D
:1004100040207C1C2040201C3C4030403C442810A4
:1004200028440C5050503C4464544C44000836411D
:100430000000007F00000041360800100808100886
:1004400000060909060011241FBECFEFD8E0DEBF69
:10045000CDBF11E0A0E0B1E0E2EBFCE302C005900B
:100460000D92A631B107D9F728E0A6E1B1E001C0AD
:100470001D92A636B207E1F70E943E1C0C94571E4F
:100480000C9400000E94471461E08FE00E94541415
:100490008EE091E00E947A1563E080E00E9454149F
:1004A0008CE790E00E947A154B99FECF0895CF9388
:1004B000C82F14B817B81AB815B818B81BB8249AAA
:1004C0002C9A8AE387B982E38AB982E088B98BB92A
:1004D000399A3B9A419A17BC14BC91E095BD85BFEF
:1004E00080936900109203081092400810923F0810
:1004F00010923E081092020810920108109209080A
:1005000090931308109212081092210110922A0160
:100510008BE291E0909315088093140880E090E0BE
:100520000E94411E823018F48093080807C0109280
:10053000080860E080E090E00E94491ECC2359F159
:100540000E9438140E94471460E080E00E94541416
:100550000E94611461E082E10E94541488E092E0FC
:100560000E947A1562E083E00E9454148AEF91E0C1
:100570000E947A1564E083E00E9454148CEE91E0AE
:100580000E947A152FE988E99BE72150804090402E
:10059000E1F700C00000CF9108951F93CF93DF9340
:1005A000182FD62FC42F65E080E00E9454140E94BB
:1005B00099158FEB91E00E947A1565E080E00E942A
:1005C0005414812F90E00E94941465E084E20E940C
:1005D00054148D2F90E00E94941465E087E40E94EB
:1005E00054148C2F90E00E949414DF91CF911F91AE
:1005F0000C949915FC01892B89F08081882379F06E
:10060000853E61F08F3551F080858E3439F48185D7
:10061000893421F481E09285933409F080E00895D3
:10062000FC01892B59F08081882349F0853E31F007
:100630008F3521F0838582958170089580E008953B
:10064000CF92DF92EF92FF920F931F93CF93DF939E
:100650008FEF9FEF90930101809300010E94DB19BF
:100660006B017C01672B682B692BD9F180E090E04E
:100670000E940C1B00E010E0C8010E94681AEC0107
:10068000892B49F18881853E11F0811124C08B8529
:100690008F3009F1109301010093000160E770E0D1
:1006A000CE010E94A51D81E08B87FD8AEC8ADB8E3E
:1006B000CA8E6091460870914708809148089091D1
:1006C0004908DF91CF911F910F91FF90EF90DF903C
:1006D000CF900C9478170F5F1F4F003981E01807F7
:1006E00059F6DF91CF911F910F91FF90EF90DF901E
:1006F000CF9008958F929F92AF92BF92CF92DF9248
:10070000EF92FF921F93CF93DF93182FD62FC42F12
:10071000862F90E020E1429F800D911D1124FC0165
:100720000090650802C0F695E7950A94E2F7EE0F8F
:10073000FF1FEE0FFF1FEA5EF74F4081518162817C
:10074000738122E02BB91BB82091640830E021505E
:10075000310982239323C0905108D0905208E09031
:100760005308F090540846015701880E991EA11CA9
:10077000B11C42505109610971090090650804C01B
:10078000440F551F661F771F0A94D2F7480D591D55
:100790006A1D7B1D88E10E9471168FEF0E94A815CB
:1007A0008EEF0E94A81580EB90E030E120E33BB98A
:1007B0002BB90197E1F71BB883E00E94A8158CEFD5
:1007C0000E94A8158FEF0E94A8158FE30E94A8151C
:1007D0008FEC0E94A81583EF0E94A8158CEF0E9451
:1007E000A8158FEF0E94A8158FE30E94A8158FEC23
:1007F0000E94A81583EF0E94A8158CEF0E94A815EF
:1008000085ED0E94A8158AEA0E94A81586E90E9433
:10081000A8158FEF0E94A8158EEF0E94A8158C2FA7
:1008200086958A6A0E94A8158C2F8A6A0E94A8154C
:100830008D2F86958A6A0E94A8158D2F8A6A0E943C
:10084000A8158EEFD827CD278C2F86958A6A0E940F
:10085000A8158C2F8A6A0E94A8158EED0E94A815F3
:100860008AEA0E94A8158BEE0E94A8158FEF0E94BD
:10087000A8158FEF0E94A8158FEF0E94A8158FEF83
:100880000E94A8158FEF0E94A8158EE591E0189F91
:10089000B001199F700D112480E090E050E2A0E1BA
:1008A000B0E3FB01E80FF91FE55DFE4FE08128E0B2
:1008B00030E040E8FE2FF42319F0ABB9BBB902C019
:1008C0001BB85BB9469521503109A1F701968D35CA
:1008D00021E0920731F71BB880E790E030E120E398
:1008E0003BB92BB90197E1F71BB880E093E020E218
:1008F0001BB82BB90197E1F71BB88FEF0E94A81521
:100900008FEF0E94A8150E94BC150E94811882E0FA
:100910008BB91BB8DF91CF911F91FF90EF90DF90C3
:10092000CF90BF90AF909F908F900895CF92DF921D
:10093000EF92FF920F931F93CF93DF934B9935C0A4
:100940000CE111E0F80181918F3F59F182E2C82E4C
:1009500081E0D82E9BE2E92E91E0F92EC0E0DFEF96
:10096000F80160816F3F29F0F60140818C2F0E94D1
:100970007A03F801D1938F01F601D1936F01F7014A
:100980001282CF5FF2EAEF1AFEEFFF0AC53041F79D
:10099000109221018BE291E0909315088093140846
:1009A00004C081E0E132F80771F6DF91CF911F9129
:1009B0000F91FF90EF90DF90CF9008958091010804
:1009C0009091020880399C40C0F480E18BB98091FD
:1009D00001089091020820E330E1803140E1940762
:1009E00030F44B990AC02BB93BB90196F6CF80E998
:1009F0009CE0909302088093010808954B996EC083
:100A000090912101292F30E04EE551E0249FF00123
:100A1000259FF00D349FF00D1124E55DFE4F82817E
:100A20008D3A09F042C080912A01811131C0809134
:100A30000308F901E45EFE4F8083F901EE5DFE4F8D
:100A400040911208469546954083282F2D7F2D30E2
:100A500011F48E5F01C08F5F8F7080930308943014
:100A600029F40E94DE040E9496041CC09F5F9093AC
:100A700021014EE551E0949F9001959F300D112486
:100A8000C901855D9E4F90931508809314080DC091
:100A900080911A018093030810922A018F30F1F49B
:100AA0000E94DE0481E080931308209121018EE5ED
:100AB00091E0289FF001299FF00D1124E55DFE4F84
:100AC0008281863959F487818575880F908595755F
:100AD000892B80931A0181E080932A0108952BE2EB
:100AE00031E045E080E090E0F901E80FF91F108265
:100AF00001968E3551E09507B9F74150225A3E4F85
:100B00004111F0CFE2E2F1E0ACE1B1E08FEF81938F
:100B10008D9391E0E732F907D1F70895CF93C82F6D
:100B20008FEF9FEF90930101809300010E9469165F
:100B300059984B9B03C00E9442024CC08BE291E04B
:100B400090934B0880934A080E94C617811144C0B5
:100B50000E94471461E08FE00E9454148EE091E0FF
:100B60000E947A1563E080E00E945414809143084B
:100B7000813019F48FEF90E004C0823029F480EFC7
:100B800090E00E947A1522C0833019F481EE90E043
:100B9000F8CF843019F482ED90E0F3CF853019F46A
:100BA00083EC90E0EECF863019F484EB90E0E9CF4F
:100BB000873019F485EA90E0E4CF8EE990E00E9456
:100BC0007A158091430890E00E94401510924008E9
:100BD0004B9BFECF80E0B0C0CC23D9F00E944714DD
:100BE00061E080E00E94541480914E08823019F434
:100BF00087E291E002C088E191E00E947A1559985D
:100C00002FEB85E692E5215080409040E1F700C04F
:100C100000000E948818811143C00E94471461E0BF
:100C20008FE00E9454148EE091E00E947A1563E0F8
:100C300080E00E94541480914308813019F48FEFB2
:100C400090E004C0823029F480EF90E00E947A1591
:100C500022C0833019F481EE90E0F8CF843019F48B
:100C600082ED90E0F3CF853019F483EC90E0EECF85
:100C7000863019F484EB90E0E9CF873019F485EAE7
:100C800090E0E4CF8EE990E00E947A1580914308CD
:100C900090E00E944015109240084B9BFECF9ACFE7
:100CA0004091640820915E0830915F08429FC00126
:100CB000439F900D112481159047D0F485E08093D7
:100CC00043080E94471461E08FE00E9454148EE0B4
:100CD00091E00E947A1563E080E00E94541483EC56
:100CE00090E00E947A15109240084B9BFECF72CF85
:100CF000CC23E1F064E089E00E94541487E990E09D
:100D00000E947A15809155088B3019F481E990E0A2
:100D100002C08BE890E00E947A158FEB95E622E501
:100D2000815090402040E1F700C0000059980E9497
:100D30006F050E94651681E0CF9108958F929F9272
:100D4000AF92BF92CF92DF92EF92FF920F931F93D9
:100D5000CF93DF936115710519F480E090E055C1E0
:100D60007B01EC010E94471460E080E00E94541473
:100D70000E9491158DED91E00E947A1560E085E367
:100D80000E945414809155088B3019F481E990E049
:100D900002C08BE890E00E947A150E94911542E013
:100DA00061E080E00E94CD0262E080E00E94541485
:100DB00081E090E00E9494146701570108E0A00EC2
:100DC000B11CF60181916F01803211F00E94E9148B
:100DD000AC14BD04B1F7D0931701C0931601209154
:100DE0005508F701828D938D2B3091F444895589F4
:100DF00060E070E0BA0155274427A0E0B0E08A0126
:100E00009B01082B192B2A2B3B2BC901B80103C0CE
:100E1000BC0180E090E0611571058105910509F440
:100E20009CCFE6E1F8E0119211921192119218E034
:100E3000EE33F107C1F7609316087093170880939B
:100E400018089093190811E0663FFFEF7F078105AE
:100E50009105A8F40E947519663F2FEF720781056E
:100E6000910558F434E0139FF0011124EA5EF74F26
:100E700060837183828393831F5F1A3028F380908D
:100E80005A0890905B08A0905C08B0905D08809133
:100E9000000190910101019609F488C080E090E082
:100EA0000E940C1B8FEF9FEFDC018093460890930C
:100EB0004708A0934808B093490880910001909199
:100EC00001010E947B1BFC0120915508828D938DAE
:100ED0002B3071F4C488D588E12CF12C7601DD2407
:100EE000CC24A0E0B0E0C82AD92AEA2AFB2A03C011
:100EF0006C01E12CF12C02E0C01AD108E108F108E4
:100F0000A0916408B0E0A70196010E949A1D00918B
:100F10005108109152082091530830915408600FE5
:100F2000711F821F931F0E942117E0914A08F091C0
:100F30004B088DEC92E0ABEAB1E080839183A28311
:100F4000B38345815681678170858185928584163A
:100F50009506A606B70619F48C179D0731F043874E
:100F6000548765877687908B878785829682A7824C
:100F7000B086D287C18780914508848380910C0810
:100F8000818BA0916408B0E0A70196010E949A1D90
:100F9000C0905108D0905208E0905308F090540847
:100FA0006C0D7D1D8E1D9F1D0E94781780925A0822
:100FB00090925B08A0925C08B0925D0810920208C3
:100FC0001092010810923F0810920908C1E0C093E6
:100FD0001308109212081092030810922101109227
:100FE0002A018BE291E09093150880931408599898
:100FF00040E052E060E070E080E10E94B6160E949E
:101000006F05C093400881E090E0DF91CF911F9180
:101010000F91FF90EF90DF90CF90BF90AF909F9097
:101020008F900895CF92DF92EF92FF920F931F93CC
:10103000CF93DF93C0905A08D0905B08E0905C0893
:10104000F0905D088091000190910101019609F4F2
:1010500077C080E090E00E940C1B8FEF9FEFDC01D7
:101060008093460890934708A0934808B093490896
:1010700080910001909101010E947B1BFC01209155
:101080005508828D938D2B3079F424893589A901F7
:1010900060E070E0BA0155274427A0E0B0E0842B5F
:1010A000952BA62BB72B02C0A0E0B0E09C01AD01B0
:1010B0002250310941095109A0916408B0E00E9411
:1010C0009A1D0091510810915208209153083091B7
:1010D0005408600F711F821F931F0E942117E09117
:1010E0004A08F0914B088FEF9FEFDC018093460890
:1010F00090934708A0934808B09349088385948546
:10110000A585B68580935A0890935B08A0935C08E8
:10111000B0935D08C785D089CE010E947B1B8C01EE
:101120000E94FA02882361F0B801CE01DF91CF91CD
:101130001F910F91FF90EF90DF90CF900C949E063F
:10114000C0925A08D0925B08E0925C08F0925D0869
:10115000DF91CF911F910F91FF90EF90DF90CF9093
:1011600008955E9A2D9A5F9A08957F928F929F922A
:10117000AF92BF92CF92DF92EF92FF920F931F93A5
:10118000CF93DF938091000190910101019611F4BA
:101190001FEA5BC080E090E00E940C1B8BE291E0B4
:1011A00090934B0880934A080E946F05109246085E
:1011B0001092470810924808109249088091000147
:1011C000909101010E947B1BFC0120915508828DAA
:1011D000938D2B3079F424893589A90160E070E082
:1011E000BA0155274427A0E0B0E0482B592B6A2BC1
:1011F0007B2B03C0AC0160E070E0A09164089A0111
:10120000AB012250310941095109B0E00E949A1DF9
:1012100000915108109152082091530830915408C0
:10122000600F711F821F931F0E942117E0914A08CF
:10123000F0914B0880819181A281B3818D3C9240D5
:10124000AB4AB14009F0A4CF11890E94471460E075
:1012500080E00E9454140E94911589E891E00E9458
:101260007A150E94911543E065E084E00E94CD026A
:1012700062E080E00E94541488E991E00E947A15AF
:10128000812F90E00E944015712ED12F01E00E9425
:10129000B108D71581F062E080E00E94541488E91B
:1012A00091E00E947A158D2F90E00E9440158AE609
:1012B00090E00E947A154B9972C189B1209108087B
:1012C00041E050E0222311F040E050E093B161E0B2
:1012D00070E0213011F060E070E092959695977083
:1012E000902790FB882480F8912C869EF001879EA1
:1012F000F00D969EF00D1124082E000C990B809590
:1013000090958827990F881F9927849F9001859F22
:10131000300D949F300D11242E2B3F2B232BB9F130
:1013200089B193B1929596959770902790FBAA24D6
:10133000A0F8B12CA69EF001A79EF00DB69EF00D70
:101340001124082E000C990B809590958827990FF1
:10135000881F9927849F9001859F300D949F300DA1
:1013600011242E2B3F2B232BD9F68FEB9AE720E16C
:10137000815090402040E1F700C00000CFEFCD0F3A
:10138000CE3138F0C0930C080E94191403C0CD2F41
:1013900001C0CEE193B12091080861E070E0222302
:1013A00011F060E070E089B141E050E0213011F0CF
:1013B00040E050E0929596959770902790FBEE2430
:1013C000E0F8F12CE69EF001E79EF00DF69EF00DA0
:1013D0001124082E000C990B809590958827990F61
:1013E000881F9927849F9001859F300D949F300D11
:1013F00011242E2B3F2B232BB9F193B189B1929558
:1014000096959770902790FBCC24C0F8D12CC69E5F
:10141000F001C79EF00DD69EF00D1124082E000C91
:10142000990B809590958827990F881F9927849FFD
:101430009001859F300D949F300D11242E2B3F2B52
:10144000232BD9F68FEB9AE720E181509040204082
:10145000E1F700C00000CF5FCD3328F4C0930C0843
:101460000E94191401C0CCE37D2E4E9B02C0DC2FDC
:101470000ECF4E9BFECF8FEB9AE720E1815090403C
:101480002040E1F700C000001C1709F488C0C09399
:101490000C080E9419145998809100019091010143
:1014A000019609F47CC080E090E00E940C1B8BE266
:1014B00091E090934B0880934A080E946F05109228
:1014C00046081092470810924808109249088091E7
:1014D0000001909101010E947B1BFC0120915508A5
:1014E000828D938D2B3071F4C488D588E12CF12C3A
:1014F0007601DD24CC24A0E0B0E0C82AD92AEA2A6B
:10150000FB2A03C06C01E12CF12C82E0C81AD1083F
:10151000E108F108A0916408B0E0A70196010E94DB
:101520009A1D009151081091520820915308309152
:101530005408600F711F821F931F0E942117E091B2
:101540004A08F0914B0880819181A281B3818D3C42
:101550009240AB4AB14019F5C18BA0916408B0E04C
:10156000A70196010E949A1D0091510810915208FE
:101570002091530830915408600F711F821F931FF0
:10158000DF91CF911F910F91FF90EF90DF90CF905F
:10159000BF90AF909F908F907F900C947817DF91C1
:1015A000CF911F910F91FF90EF90DF90CF90BF9060
:1015B000AF909F908F907F9008957F928F929F928F
:1015C000AF92BF92CF92DF92EF92FF920F931F9351
:1015D000CF93DF930E94471460E080E00E94541490
:1015E0000E9491158AE791E00E947A150E94911558
:1015F00043E065E084E00E94CD0262E080E00E946A
:10160000541488E991E00E947A158091450890E091
:101610000E94401590904508A92CBB24B3947724D0
:101620007394DAE08D2E0E94B10880914508A816C7
:1016300099F062E080E00E94541488E991E00E94F1
:101640007A158091450890E00E94401588E690E068
:101650000E947A15A09045084B996BC189B12091E1
:10166000080841E050E0222311F040E050E093B13F
:1016700061E070E0213011F060E070E092959695A5
:1016800097709B259170C92F20E0D22FC69FF00143
:10169000C79FF00DD69FF00D1124082E000C990B5A
:1016A000809590958827990F881F9927849F90018E
:1016B000859F300D949F300D11242E2B3F2B232B13
:1016C000B1F189B193B19295969597709B25092FA9
:1016D000017010E0069FF001079FF00D169FF00DBE
:1016E0001124082E000C990B809590958827990F4E
:1016F000881F9927849F9001859F300D949F300DFE
:1017000011242E2B3F2B232BE1F68FEB9AE720E1C0
:10171000815090402040E1F700C0000080914508D2
:10172000815019F08093450802C08092450893B11A
:101730002091080861E070E0222311F060E070E081
:1017400089B141E050E0213011F040E050E0929545
:10175000969597709B2590FBEE24E0F8F12CE69E81
:10176000F001E79EF00DF69EF00D1124082E000CFE
:10177000990B809590958827990F881F9927849FAA
:101780009001859F300D949F300D11242E2B3F2BFF
:10179000232BC1F193B189B19295969597709B25B2
:1017A00090FBCC24C0F8D12CC69EF001C79EF00D52
:1017B000D69EF00D1124082E000C990B8095909563
:1017C0008827990F881F9927849F9001859F300D46
:1017D000949F300D11242E2B3F2B232BD9F68FEB0A
:1017E0009AE720E1815090402040E1F700C00000DE
:1017F000809145088F5F8B3018F48093450802C0B4
:10180000709245084E990FCF4E9BFECF8FEB9AE713
:1018100020E1815090402040E1F700C0000080911D
:101820004508981609F485C0809100019091010146
:10183000019609F47EC080E090E00E940C1B8BE2D0
:1018400091E090934B0880934A080E946F05109294
:101850004608109247081092480810924908809153
:101860000001909101010E947B1BFC012091550811
:10187000828D938D2B3071F4C488D588E12CF12CA6
:101880007601DD24CC24A0E0B0E0C82AD92AEA2AD7
:10189000FB2A03C06C01E12CF12C82E0C81AD108AC
:1018A000E108F108A0916408B0E0A70196010E9448
:1018B0009A1D0091510810915208209153083091BF
:1018C0005408600F711F821F931F0E942117E0911F
:1018D0004A08F0914B0880819181A281B3818D3CAF
:1018E0009240AB4AB14029F5809145088483A0918C
:1018F0006408B0E0A70196010E949A1D009151086A
:10190000109152082091530830915408600F711FB4
:10191000821F931FDF91CF911F910F91FF90EF9046
:10192000DF90CF90BF90AF909F908F907F900C945E
:101930007817DF91CF911F910F91FF90EF90DF907B
:10194000CF90BF90AF909F908F907F9008959F927F
:10195000AF92BF92CF92DF92EF92FF920F931F93BD
:10196000CF93DF930E94471460E080E00E945414FC
:101970000E9491158EEC91E00E947A150E949115BB
:1019800043E065E084E00E94CD0262E080E00E94D6
:1019900054140E94891580EB91E00E947A150E94F0
:1019A000891563E080E00E94541481EA91E00E946E
:1019B0007A15C1E0992493940E94B10889B160918D
:1019C000080821E030E0662311F020E030E093B118
:1019D00041E050E0613011F040E050E09295969582
:1019E00097709925092F017010E0049FB001059FA1
:1019F000700D149F700D1124082E000C990B80950A
:101A000090958827990F881F9927829FF001839FBF
:101A1000F00D929FF00D11246E2B7F2B672B09F494
:101A200045C089B193B1929596959770992590FB91
:101A3000EE24E0F8F12CE49EB001E59E700DF49EDA
:101A4000700D1124082E000C990B80959095882715
:101A5000990F881F9927829FF001839FF00D929F15
:101A6000F00D11246E2B7F2B672BD9F62FEB8AE715
:101A700090E1215080409040E1F700C00000C1306B
:101A8000A1F462E080E00E94541480EB91E00E9497
:101A90007A150E94891563E080E00E94541481EA5F
:101AA00091E00E947A150E948915C2E093B160917D
:101AB000080841E050E0662311F040E050E089B1B1
:101AC00021E030E0613011F020E030E09295969511
:101AD0009770992590FBCC24C0F8D12CC49EB001FE
:101AE000C59E700DD49E700D1124082E000C990B0C
:101AF000809590958827990F881F9927829FF001DC
:101B0000839FF00D929FF00D11246E2B7F2B672B7E
:101B100009F44FC093B189B1929596959770992524
:101B200090FBAA24A0F8B12CA49EB001A59E700D34
:101B3000B49E700D1124082E000C990B8095909581
:101B40008827990F881F9927829FF001839FF00DA6
:101B5000929FF00D11246E2B7F2B672BD9F62FEB64
:101B60008AE790E1215080409040E1F700C00000FA
:101B7000DFEFDC0F01F1D13011F40E94891562E032
:101B800080E00E94541480EB91E00E947A15C250CC
:101B9000C23010F40E94891563E080E00E94541462
:101BA00081EA91E00E947A15D23031F40E948915C1
:101BB00003C0DC2F01C0D1E04E9B02C0CD2FFCCE74
:101BC0004E9BFECF2FEB8AE790E121508040904062
:101BD000E1F700C00000D13069F4DF91CF911F918F
:101BE0000F91FF90EF90DF90CF90BF90AF909F90BC
:101BF0000C94DD0AD23069F4DF91CF911F910F91DF
:101C0000FF90EF90DF90CF90BF90AF909F900C949B
:101C1000B508DF91CF911F910F91FF90EF90DF906A
:101C2000CF90BF90AF909F9008952F923F924F9288
:101C30005F926F927F928F929F92AF92BF92CF925C
:101C4000DF92EF92FF920F931F93CF93DF93CDB765
:101C5000DEB728970FB6F894DEBF0FBECDBF109247
:101C60001901109218018BE291E090934B08809338
:101C70004A0887EE93E090930F0880930E088FEF49
:101C80009FEFDC018093460890934708A093480893
:101C9000B09349080E946F050E94911560E080E0B2
:101CA0000E94541483E691E00E947A1561E080E07E
:101CB0000E9454140E94911543E065E084E00E9464
:101CC000CD0211E0612F80E00E9454148FEB91E06F
:101CD0000E947A151F5F1530A9F762E080E00E942C
:101CE000541484E591E00E947A1500E010E0C801E8
:101CF0000E947B1B7C01009799F0FC01808181117F
:101D00000FC08091180190911901892BC9F562E0EB
:101D100080E00E94541485E491E00E947A1502C28A
:101D2000C7010E94FA02811105C0C7010E94100379
:101D30008823B9F0E0911801F0911901EE0FFF1F0F
:101D400080910E0890910F08E80FF91F118300830E
:101D50008091180190911901019690931901809337
:101D600018010F5F1F4F8091180190911901883C55
:101D700091053CF60039F1E01F0709F0B8CFC1CF5B
:101D800062E080E00E94541486E391E00E947A159C
:101D900083E091E00E94341580911801909119011F
:101DA00002971CF0A12CB12C5DC02091180130913C
:101DB00019014091160150911701E0910E08F09120
:101DC0000F0800E010E080E090E062C08701000FA3
:101DD000111FE0910E08F0910F08E00FF11F8081B4
:101DE00091810E947B1B48E050E0BC01CE0101962E
:101DF0000E94C71DE0910E08F0910F08EC0DFD1D2B
:101E0000808191810E947B1B48E050E0BC01CE01A3
:101E100001960E94BA1D97FF12C0E0910E08F09142
:101E20000F08DF01A00FB11F8D919C911197EC0D50
:101E3000FD1D208131812D933C93918380832FEF71
:101E4000E21AF20A82E0C80ED11C8091180190912A
:101E500019018A199B09E816F9060CF4B7CF9FEF10
:101E6000A91AB90A80911801909119010197A81631
:101E7000B9060CF09ACFC12CD12CEE24E394F12CAE
:101E8000E4CF619171916417750709F48C01019693
:101E900082179307B4F3EE24EA94FE2CDD24D39446
:101EA0000E94B1084B993EC189B12091080841E0D8
:101EB00050E0222311F040E050E093B161E070E087
:101EC000213011F060E070E09295969597709D2515
:101ED00090FB222420F8312C269EF001279EF00D45
:101EE000369EF00D1124082E000C990B80959095CC
:101EF0008827990F881F9927849F9001859F300D0F
:101F0000949F300D11242E2B3F2B232BC9F189B127
:101F100093B19295969597709D2590FB442440F837
:101F2000512C469EF001479EF00D569EF00D112457
:101F3000082E000C990B809590958827990F881F83
:101F40009927849F9001859F300D949F300D112417
:101F50002E2B3F2B232BD9F6EFEBFAE720E1E150B4
:101F6000F0402040E1F700C000000F5F1F4F80915C
:101F70001801909119010817190711F400E010E0F9
:101F800093B12091080861E070E0222311F060E035
:101F900070E089B141E050E0213011F040E050E0C4
:101FA0009295969597709D2590FB662460F8712C0C
:101FB000669EF001679EF00D769EF00D1124082EAE
:101FC000000C990B809590958827990F881F992769
:101FD000849F9001859F300D949F300D11242E2BEE
:101FE0003F2B232BC1F193B189B1929596959770B0
:101FF0009D2590FB882480F8912C869EF001879E79
:10200000F00D969EF00D1124082E000C990B809572
:1020100090958827990F881F9927849F9001859F05
:10202000300D949F300D11242E2B3F2B232BD9F6EE
:102030008FEB9AE7E0E181509040E040E1F700C08B
:1020400000000150110917FF06C0009118011091FE
:102050001901015011094E992FC04E9BFECFFFEB85
:102060002AE780E1F15020408040E1F700C0000005
:10207000000F111FE0910E08F0910F08E00FF11F03
:10208000808191810E947B1B7C010E941003882328
:1020900031F0C7010E940C1B0E94150E43C08091B5
:1020A0000E0890910F08FC01E00FF11FB70180812D
:1020B00091810E949E0636C00E151F0509F4F0CED0
:1020C000E0910E08F0910F08C801880F991FE80FE2
:1020D000F91F808191810E947B1B7C0162E080E07E
:1020E0000E945414C7010E941003882319F086E04F
:1020F00090E002C081E090E00E949414570198E0C3
:10210000E90EF11CF50181915F01803211F00E940E
:10211000E914AE14BF04B1F78FEB91E00E947A1579
:102120007801BECE28960FB6F894DEBF0FBECDBFA5
:10213000DF91CF911F910F91FF90EF90DF90CF90A3
:10214000BF90AF909F908F907F906F905F904F90D7
:102150003F902F9008958F929F92AF92BF92CF920F
:10216000DF92EF92FF920F931F93CF93DF938BE257
:1021700091E090934B0880934A088FEF9FEFDC012A
:102180008093460890934708A0934808B093490865
:1021900080E090E00E940C1B8FEF9FEF9093010175
:1021A00080930001CFEFDFEF00E010E03EE1F32E7F
:1021B0004CE3E42EC8010E947B1B6C01009709F4DC
:1021C0009AC0FC018081882309F49CC0C6010E944A
:1021D000FA02882329F0CF3FFFEFDF0709F4E80177
:1021E0004BE050E060E770E0C6010E94AC1D892B17
:1021F00009F081C01093010100930001209155085E
:10220000F601828D938D2B3079F424893589A901CB
:1022100060E070E0BA0155274427A0E0B0E0482B09
:10222000592B6A2B7B2B03C0AC0160E070E0A091BE
:1022300064089A01AB012250310941095109B0E00B
:102240000E949A1D8090510890905208A0905308C7
:10225000B0905408680D791D8A1D9B1D0E9421179E
:10226000C0904A08D0904B08F60180819181A281EC
:10227000B3818D3C9240AB4AB140A9F5F60184810F
:102280008093450881898D3318F480930C0802C02F
:10229000E0920C0880910C088E3110F4F0920C083A
:1022A0000E9419145998F60185819681A781B085FD
:1022B00080935A0890935B08A0935C08B0935D08E4
:1022C000B184D2848B2D9D2D0E947B1B009739F009
:1022D0000E94FA02882319F0CB2DDD2D13C080E077
:1022E00090E00E940C1B80E090E00E940C1BCF3F0E
:1022F000FFEFDF07E1F40F5F1F4F003921E0120706
:1023000009F058CFCF3F8FEFD80789F4F8940E9497
:10231000150E4B991FC080914008882331F08091A1
:102320006E00816080936E00E89A789413C0CE01AD
:102330000E947B1BBC01CE01DF91CF911F910F91B9
:10234000FF90EF90DF90CF90BF90AF909F908F90D5
:102350000C949E06DF91CF911F910F91FF90EF900B
:10236000DF90CF90BF90AF909F908F9008954F9245
:102370005F926F927F928F929F92AF92BF92CF9215
:10238000DF92EF92FF920F931F93CF93DF930E9400
:10239000B1084B9B22C08FEF90E04B9BC3C10197CC
:1023A000E1F780916E008E7F80936E00E898109226
:1023B000400810921308DF91CF911F910F91FF9069
:1023C000EF90DF90CF90BF90AF909F908F907F90D5
:1023D0006F905F904F900C944202309B87C14E9B50
:1023E0005AC089B14091080861E070E0442311F0BF
:1023F00060E070E093B121E030E0413011F020E086
:1024000030E0929596959770A1E09A2790FBAA24C8
:10241000A0F8B12CA29EA001A39E500DB29E500D1B
:102420001124082E000C990B809590958827990F00
:10243000881F9927869FF001879FF00D969FF00DCA
:1024400011244E2B5F2B452B31F593B189B1929519
:1024500096959770A927A0FBCC24C0F8D12CC69ED6
:10246000A001C79E500DD69E500D1124082E000CC1
:10247000990B809590958827990F881F9927829F9F
:10248000B001839F700D929F700D1124462B572B26
:10249000452B09F42BC14E9910C084E690E021E051
:1024A0004E9920E00197E1F7222309F43BC14E9BAE
:1024B000FECFF8940E94150E16C129B1609108084C
:1024C00041E050E0662311F040E050E033B181E09C
:1024D00090E0613011F080E090E0329536953770F1
:1024E000A1E03A2730FBEE24E0F8F12CE89EB001A1
:1024F000E99E700DF89E700D1124022E000C330B16
:10250000209530952227330F221F3327249FF00177
:10251000259FF00D349FF00D11246E2B7F2B672B20
:1025200009F45FC064E670E0FF24F394EE24E394C2
:1025300029B133B13295369537703E25032F01709E
:1025400010E0089FF001099FF00D189FF00D112475
:10255000022E000C330B209530952227330F221FBB
:102560003327249FD001259FB00D349FB00D112437
:102570009F012A2B3B2B232B09F4F12C615071096D
:10258000B9F6FF2009F4CEC0A1E029B133B13295EC
:10259000369537703A273170C32F30E0D32FC89F5C
:1025A000F001C99FF00DD89FF00D1124022E000CF0
:1025B000330B209530952227330F221F3327249F7A
:1025C000B001259F700D349F700D11249F01262BA3
:1025D000372B232BD1F6F8940E94A70C4B99A2C05D
:1025E00094C033B129B1329536953770A327A0FB3B
:1025F000882480F8912C849EB001859E700D949E55
:10260000700D1124022E000C330B209530952227DB
:10261000330F221F3327289FF001299FF00D389F89
:10262000F00D11249B012E2B3F2B232B09F47AC094
:1026300064E670E0C1E0D1E033B129B1329536955E
:1026400037703D2730FB662460F8712C649EF001E2
:10265000659EF00D749EF00D1124022E000C330BBC
:10266000209530952227330F221F3327289FD00132
:10267000299FB00D389FB00D11249F012A2B3B2BB1
:10268000232B09F4C0E061507109B1F6CC2309F4A1
:1026900049C0A1E033B129B13295369537703A2758
:1026A00030FB442440F8512C449EF001459EF00D2F
:1026B000549EF00D1124022E000C330B2095309502
:1026C0002227330F221F3327289FB001299F700D27
:1026D000389F700D11249F01262B372B232BD1F609
:1026E000F8940E9412084B9B12C01CC080914008B5
:1026F000811118C08FEF90E04B9914C00197E1F75A
:10270000F89481E00E948E0581110E94AB108091A7
:102710004008882331F080916E00816080936E00C4
:10272000E89A7894DF91CF911F910F91FF90EF90ED
:10273000DF90CF90BF90AF909F908F907F906F90E1
:102740005F904F9008956115710571F448B121E0D3
:1027500030E0B90102C0660F771F8A95E2F7CB011E
:102760008095842388B908956130710539F498B152
:1027700001C0660F8A95EAF7692B68B908958F92B0
:102780009F92AF92BF92CF92DF92EF92FF920F9300
:102790001F93CF93DF93042FA62EB12C11E001C01D
:1027A000110F6A95EAF7C7E0D0E0E22EF12CC82EAF
:1027B000D12C87E0882E912C013029F4C4018C1B88
:1027C0009D0BB70102C0B7018C2F02C075956795AC
:1027D0008A95E2F761707727C6010E94A31388B13A
:1027E000812B88B960E070E0C5010E94A313219796
:1027F00018F7DF91CF911F910F91FF90EF90DF902D
:10280000CF90BF90AF909F908F900895CF93C62F99
:10281000599A682F70E083E090E00E94A3134598D6
:102820002C2F40E064E081E00E94BF13459ACF91D5
:102830000895599A61E280E00E94061460910C08A4
:10284000606880E00E94061464E080E00E94061444
:1028500064E180E00E9406146CE080E00E940614AF
:1028600060E280E00E9406146CE080E00C940614A4
:102870008FE280930C0810921008109211081092A9
:102880000D083D9A3B9A399A3C9A0C941914CF93AF
:10289000DF93C8EFD1E060E081E00E940614219749
:1028A000D1F7DF91CF910895CF93C62F682F60683D
:1028B00080E00E9406146C2F606480E0CF910C943D
:1028C0000614CF93C0E060E08C2F0E94541461E0A6
:1028D00081E00E940614CF5FC435A9F7C0E065E02F
:1028E0008C2F0E94541460E881E00E940614CF5F90
:1028F000C435A9F7C0E06C2F83E50E9454146FEF34
:1029000081E00E940614CF5FC630A9F7C0E06C2FAB
:1029100080E00E9454146FEF81E00E940614CF5FA4
:10292000C630A9F7CF910895EF92FF920F931F93AE
:10293000CF93DF937C018CE08E9D80018F9D100DE5
:102940001124C0E0D0E08FEFE816F10439F0FE0169
:10295000E00FF11FEF5EFD4FE49101C0E0E08091D8
:1029600010088111E09580911108813011F060E02C
:1029700001C060E881E090910D08913009F080E09D
:10298000E82B6E2B81E00E9406142196CC30D105F5
:10299000D1F661E080911008813009F060E0862F67
:1029A000819590911108913011F090E001C090E86C
:1029B00061E020910D08213009F060E0682B692B5F
:1029C00081E0DF91CF911F910F91FF90EF900C94D8
:1029D00006140F931F93CF93DF9325E0829FC001CE
:1029E0001124C0E0D0E08C01005A1109F801EC0F6D
:1029F000FD1FEB59FD4FE491809110088111E09586
:102A000080911108813011F060E001C060E881E040
:102A100090910D08913009F080E0E82B6E2B81E059
:102A20000E9406142196C530D10501F761E080911E
:102A30001008813009F060E0862F8195909111088F
:102A4000913011F090E001C090E861E020910D0814
:102A5000213009F060E0682B692B81E0DF91CF9194
:102A60001F910F910C940614CF93DF93EC01899181
:102A7000882319F00E94E914FACFDF91CF910895CD
:102A8000CF93DF93CDB7DEB72A970FB6F894DEBFAA
:102A90000FBECDBF4AE0BE016F5F7F4F0E94DB1DBE
:102AA000CE0101960E9434152A960FB6F894DEBF27
:102AB0000FBECDBFDF91CF910895CF93DF93CDB7F8
:102AC000DEB72A970FB6F894DEBF0FBECDBF2AE05F
:102AD000AE014F5F5F4F0E94E61DCE0101960E943E
:102AE00034152A960FB6F894DEBF0FBECDBFDF9126
:102AF000CF910895CF93DF93FC018491EF0121964C
:102B0000882321F00E94E914FE01F7CFDF91CF91D5
:102B1000089581E090911008911180E08093100851
:102B2000089581E090911108911180E0809311083F
:102B3000089581E090910D08911180E080930D0837
:102B40000895519A549A559A5098109242080895AF
:102B500028E030E090E840E250E160E3782F79230C
:102B600019F05BB96BB902C01BB84BB996952150EF
:102B70003109A1F71BB80895CF93DF931F92CDB70A
:102B8000DEB780E18BB9198280E020E330E19981E2
:102B9000983051F02BB999B1880F9170892B3BB9BE
:102BA00099819F5F9983F3CF0F90DF91CF91089523
:102BB00082E38BB982E18BB9089528E100002A9560
:102BC000E9F70197D1F708950895DF92EF92FF9208
:102BD0000F931F93CF93DF93082FC8E0D0E010E846
:102BE00080E2F82E90E1E92E20E3D22E802F81237F
:102BF00039F0EBB881E090E00E94DD15DBB806C04B
:102C00001BB881E090E00E94DD15FBB81695219776
:102C100069F781E090E00E94DD151BB8DF91CF914C
:102C20001F910F91FF90EF90DF90089590914208CF
:102C3000911103C00E94E51502C00E94A81580E012
:102C40000895FF920F931F93CF93DF931F92CDB7F9
:102C5000DEB780E18BB981E090E00E94DD1519823A
:102C600010E000E380E1F82E8981883091F00BB903
:102C700081E090E00E94DD1589B1110F8170182B61
:102C8000FBB881E090E00E94DD1589818F5F898328
:102C9000EBCF812F0F90DF91CF911F910F91FF907C
:102CA000089580914208811102C00C9421160C9461
:102CB000BC1582E38BB981E090E00E94DD1582E1D2
:102CC0008BB981E090E00C94DD1581E0809342089F
:102CD00008951092420808950E94BC1587FDFCCF0C
:102CE0000895CF92DF92EF92FF92CF93C82F6A019F
:102CF0007B010090440804C0CC0CDD1CEE1CFF1CC2
:102D00000A94D2F78FEF0E94A8158C2F80640E943E
:102D1000A8158F2D0E94A8158E2D0E94A8158D2D07
:102D20000E94A8158C2D0E94A81585E90E94A8155F
:102D30008FEF0E94A8150E946C1680934F08815057
:102D40008E3FC8F3CF91FF90EF90DF90CF90089522
:102D5000AB01BC0110924D0881E10E9471160E94E6
:102D6000BC15809350088E3FD1F70895CF92DF9223
:102D7000EF92FF92CF93DF93C82F6A017B0180917E
:102D80004C08811113C08FEE8C0F823040F088EE1A
:102D90008C0F823020F080EE8C0F823038F489E086
:102DA000CC0CDD1CEE1CFF1C8A95D1F78FEF0E9426
:102DB00016168C2F80640E9416168F2D0E941616F0
:102DC0008E2D0E9416168D2D0E9416168C2D0E9497
:102DD0001616C83011F487E801C085E90E9416165E
:102DE000F12C0E945116D82F8F3F21F4FA94F11044
:102DF000F8CF1DC081111BC0CA33C9F40E945116FF
:102E00001092440886FF05C081E080934C0882E060
:102E100006C010924C0889E08093440881E08093BA
:102E20004E080E9451160E9451160E9451160E948F
:102E300051168D2FDF91CF91FF90EF90DF90CF90C3
:102E40000895CF92DF92EF92FF92CF93DF93C090DD
:102E50004608D0904708E0904808F0904908C61608
:102E6000D706E806F906E1F16B017C01609346089C
:102E700070934708809348089093490859988FEFBA
:102E80000E9416168FEF0E941616B701A60181E167
:102E90000E94B616811125C0C0E0D0E00E945116F4
:102EA0008E3F29F02197D1F7599A80E01AC0E12C82
:102EB000F12CC0914A08D0914B08CE0DDF1D0E9425
:102EC000511688838FEFE81AF80AE11482E0F806B9
:102ED00081F70E9451160E9451160E945116599A6C
:102EE00081E0DF91CF91FF90EF90DF90CF90089538
:102EF000CF93DF93AB01BC0188E10E94B61681112C
:102F00003DC059988EEF0E941616C0E0D0E0E091C7
:102F10004A08F0914B08EC0FFD1F80810E941616A5
:102F20002196C11582E0D80791F78FEF0E941616FF
:102F30008FEF0E9416160E945116982F9F719530A0
:102F400079F4C0E0D0E00E945116811103C02196AF
:102F5000D1F706C0599A8FEF0E941616599808C0EB
:102F6000599A0CC09E012F5F3F4F2196C9F3E9018A
:102F70000E9451168823B1F3599A81E0DF91CF91D5
:102F80000895AB01BC0180E10C94B616CF92DF929C
:102F9000EF92FF920F931F93CF93DF93109243080A
:102FA00085E0809345080E94A1150E9469164B99FF
:102FB00098C080E185B9599A8FE097E2A0E0B0E02F
:102FC0008093460890934708A0934808B093490817
:102FD000C4E60E945916C150E1F75998CCE08FEF32
:102FE0000E941616C150D9F700E018E040E050E00A
:102FF000BA0180E00E94B6160150110931F415B8EB
:10300000599A81E0809343086DC0813079F7CCE014
:103010008FEF0E941616C150D9F7C1E0D2E04AEAFC
:1030200051E060E070E088E00E94B6168A3A49F408
:1030300081E080934E08C12CD12CE12C80E4F82E45
:1030400009C08130A9F3219751F710924E08C12C85
:10305000D12C7601CCE08FEF0E941616C150D9F723
:1030600001E012E040E050E0BA0187E30E94B616AA
:10307000B701A60189E20E94B6160150110931F488
:1030800082E08093430815B8599A2CC08111EACF89
:1030900010924C0889E08093440880914E0881305A
:1030A00081F040E050E0BA018BE30E94B61660E088
:1030B00072E080E090E00E94C11715B8599AC1E013
:1030C00011C0C5E6D0E08FEF0E94161640E050E038
:1030D000BA018AE30E94B616219719F38111F3CF42
:1030E000E0CFC0E08C2FDF91CF911F910F91FF9027
:1030F000EF90DF90CF90089580E185B9089515B8DD
:1031000008950E94BC154B9902C08F3FD1F70895D6
:103110008F929F92AF92BF92CF92DF92EF92FF92E7
:103120001F93CF93DF9360E070E0CB010E942117E3
:10313000E0914A08F0914B0880818D7F893E51F1E2
:10314000DF01A250BE4F8D919C9185359A4A11F0B6
:1031500086E014C0E254FE4F848180935508608558
:103160007185828593850E942117E0914A08F0912C
:103170004B0880818D7F893E29F083E0809343084E
:1031800080E0A7C0809155088B3021F0863011F087
:1031900084E0F4CFC0914A08D0914B084385548510
:1031A00050935F0840935E081585109364088685E8
:1031B0009785C48CD58CE68CF78CC80ED91EE11C83
:1031C000F11CC0926008D0926108E0926208F0920F
:1031D000630880915508863019F4A689B78902C022
:1031E000ACA1BDA1208930E02A9FB0012B9F700DBA
:1031F0003A9F700D112446015701860E971EA11C9F
:10320000B11C8092510890925208A0925308B0923B
:1032100054088630D9F08CA59DA5AEA5BFA59C010C
:10322000AD012250310941095109A12FB0E00E949E
:103230009A1D860E971EA81EB91E8092560890925F
:103240005708A0925808B092590824C00E948B1DBC
:10325000C60ED71EE81EF91EC0925608D092570817
:10326000E0925808F09259088189928935E0880FD8
:10327000991F3A95E1F7BA010E94551DC60ED71E57
:10328000E11CF11CC0925108D0925208E092530800
:10329000F0925408812F90E020E031E0320F81302D
:1032A000910521F096958795232FF7CF20936508F8
:1032B0008091560890915708A0915808B0915908EC
:1032C00080935A0890935B08A0935C08B0935D08C4
:1032D00081E0DF91CF911F91FF90EF90DF90CF9031
:1032E000BF90AF909F908F9008954F925F926F9292
:1032F0007F928F929F92AF92BF92CF92DF92EF9286
:10330000FF92CF9320915508263039F488248A946F
:10331000982CA12CB12C21E007C088248A94982CE9
:10332000A82C2FE0B22E22E004C0660F771F881F62
:10333000991F2A95D2F720915E0830915F0840E0EE
:1033400050E00E94691D6B017C01809160089091A2
:103350006108A0916208B091630829013A01480E02
:10336000591E6A1E7B1ECAE0C301B2010E942117CA
:10337000882311F0C150C1F780914A0890914B0801
:10338000FC01EC0DFD1D80819181A281B381BC0106
:10339000CD01682179218A219B21CF91FF90EF9067
:1033A000DF90CF90BF90AF909F908F907F906F9065
:1033B0005F904F9008954F925F926F927F928F929D
:1033C0009F92AF92BF92CF92DF92EF92FF92CF93F4
:1033D00088EEC82E83E0D82EE12CF12CC701B6016F
:1033E0000E947519611571058105910591F030EA0A
:1033F000C31636E8D30631E0E306F10431F02FEFCF
:10340000C21AD20AE20AF20AE9CF60E070E0CB0108
:1034100051C040EAC41646E8D40641E0E406F1048F
:1034200009F448C080915508863011F481E001C04C
:1034300082E0A701960104C0220F331F441F551FCD
:103440008A95D2F7CA01B90120915E0830915F08D0
:1034500040E050E00E94691D2B013C018091600812
:1034600090916108A0916208B091630849015A01E6
:10347000880E991EAA1EBB1ECAE0C501B4010E9497
:103480002117882311F0C150C1F780914A0890910B
:103490004B08FC01E40DF51D8FEF90E0A0E0B0E0DB
:1034A00080839183A283B383C501B4010E947817FE
:1034B000C701B601CF91FF90EF90DF90CF90BF9002
:1034C000AF909F908F907F906F905F904F900895F6
:1034D0008F929F92AF92BF92CF92DF92EF92FF9224
:1034E0000F931F93CF93DF93EC0155E0CC0FDD1FBB
:1034F0005A95E1F78E01012F112706952091640856
:10350000622F70E0C8010E94551D7B0180915A080E
:1035100090915B08A0915C08B0915D08672B09F45D
:103520004EC030915508363071F480905608909016
:103530005708A0905808B090590888159905AA0511
:10354000BB0509F45AC08090510890905208A09091
:103550005308B0905408BC01CD01681979098A0953
:103560009B0930E040E050E00E94691DCA01B901AA
:103570006E5F7F4F8F4F9F4FC12CD12C0E947519CA
:103580002FEFC21AD20ACE14DF04C1F79B01AC019F
:103590002250310941095109A0916408B0E00E940C
:1035A0009A1D8090510890905208A0905308B090B6
:1035B0005408DC01CB01880D991DAA1DBB1D980183
:1035C000322F2227330FC21BD30B409164084E9D2C
:1035D00090014F9D300D1124021B130BBC01CD0136
:1035E000600F711F811D911D0E94211780914A0853
:1035F00090914B088C0F9D1F02C080E090E0DF91FE
:10360000CF911F910F91FF90EF90DF90CF90BF90DF
:10361000AF909F908F9008950F931F93FC01892B7B
:1036200049F48091560890915708A0915808B0919C
:10363000590839C09385892F807194FF3DC020912E
:103640005508828D938D2B3079F424893589A90111
:1036500060E070E0BA0155274427A0E0B0E0842B79
:10366000952BA62BB72B02C0A0E0B0E00097A105D8
:10367000B105B9F29C01AD0122503109410951094E
:10368000A0916408B0E00E949A1D00915108109129
:1036900052082091530830915408DC01CB01800F6F
:1036A000911FA21FB31F80935A0890935B08A093A9
:1036B0005C08B0935D0881E01F910F910895FC01B3
:1036C000892BB1F08081882399F0853E89F08E3274
:1036D00021F481818E3219F00BC0853049F0838549
:1036E0008E3131F08F3021F0883211F0CF01089502
:1036F00080E090E008950E94681A0C945F1B00001F
:10370000000000000000000000000000000008951C
:103710000000000000000000209145082A95F1F704
:103720000895AF93AFB7AF93BF932F93A0913F0886
:1037300020913E08A22BA8B9AAEAA6BD20E0E8DFA6
:10374000A0913E08A8B9B0911308BB2341F0209383
:103750003F082F91BF91AF91AFBFAF911895A0E3F4
:10376000ABB9A9B1A170AA0F2A2FA0E1ABB9A09162
:103770000108B09102081196A0930108B0930208C5
:10378000A03989F4BC3079F4A1E0A0931308CF9359
:10379000C0E7A8E0B0E3BBB9B0E1BBB9AA95D1F7E7
:1037A000CA95B9F7CF9120933F082F91BF91AF9160
:1037B000AFBFAF9118952F932FB72F9330995AC061
:1037C0003F933091090826B124702327E1F326B1F5
:1037D00024702093090828E02A95F1F700004F9300
:1037E0005F936F937F938F93EF93FF9360E0E091EC
:1037F0001408F09115083DE541E00DC0509109080D
:1038000076B174707527E1F376B17470709309081E
:103810007EE07A95F1F727E081E079B17470D1F418
:1038200000007EE17A95F1F776B174705091090845
:1038300070930908752776957695880F872B2A95BA
:1038400061F7853D09F461E06030C1F28193315048
:103850004040A1F69F93AF93BF930E94FE04BF9197
:10386000AF919F91FF91EF918F917F916F915F91B8
:103870004F913F912F912FBF2F91189581E00E947A
:1038800057028FEF80932701CBE80E94B711309B3E
:1038900003C00E947F18F9CF0E947C1883B18F70FB
:1038A00090911B01891759F180931B01883049F0D1
:1038B000843009F4F1C0823009F4F0C08130F9F4A9
:1038C000EFC082E090911208890FE82FE770E6952B
:1038D000F0E0E459FF4FE49180FFE295EF708E2F06
:1038E000887009F0E86FE90FE53C08F0DBC0E09371
:1038F0001208809112088C3810F0C0931208809141
:103900004008882309F4C1CF80911308882309F463
:10391000BCCFF894809103088F5F8F708093030869
:1039200020911208269526952093410890E030E1D9
:10393000239F800D911D112490930B0880930A08FA
:103940000090650802C0969587950A94E2F79093D7
:10395000290180932801880F991F880F991FFC0166
:10396000EA5EF74F80819181A281B3818093040840
:1039700090930508A0930608B0930708809127014B
:103980002817B9F02093270163E08CE00E945414BB
:1039900082E791E00E947A15809141088A3020F4F4
:1039A00083E191E00E9434158091410890E00E94EB
:1039B00040158091030890911C01981306C0209136
:1039C000220190914108291741F190911D0189131D
:1039D00006C020912301909141082917F1F09091A0
:1039E0001E01891306C020912401909141082917D6
:1039F000A1F090911F01891306C02091250190919B
:103A00004108291751F090912001891308C0909125
:103A1000260180914108981302C00E94960480916B
:103A2000040890910508A0910608B0910708029734
:103A3000A109B109AC01BD010090650804C0440FA3
:103A4000551F661F771F0A94D2F7809151089091F5
:103A50005208A0915308B0915408840F951FA61FD7
:103A6000B71F2091640830E02150310940910A08C5
:103A700050910B0824233523BC01CD01620F731F25
:103A8000811D911D0E94A816109202081092010833
:103A9000109213087894F9CE84E014CF86E012CF08
:103AA00080E010CF1092120824CFAA1BBB1B51E15B
:103AB00007C0AA1FBB1FA617B70710F0A61BB70B9E
:103AC000881F991F5A95A9F780959095BC01CD0143
:103AD0000895A1E21A2EAA1BBB1BFD010DC0AA1F4F
:103AE000BB1FEE1FFF1FA217B307E407F50720F067
:103AF000A21BB30BE40BF50B661F771F881F991FE2
:103B00001A9469F760957095809590959B01AC012A
:103B1000BD01CF010895A29FB001B39FC001A39F33
:103B2000700D811D1124911DB29F700D811D1124F6
:103B3000911D08950E948B1DA59F900DB49F900D1F
:103B4000A49F800D911D11240895FB01DC010590B7
:103B50000D920020E1F70895FB01DC014150504037
:103B600030F08D910590801919F40020B9F7881B69
:103B7000990B0895FB01DC0104C08D91019080191F
:103B800021F441505040C8F7881B990B0895DC017F
:103B9000FB014150504058F049F001900D92002037
:103BA000C1F7E61BF70B3197CF0108951C920190E6
:103BB0000020E9F7F6CFBB274A3031F4992322F4ED
:103BC000BDE2909581959F4F0C94181EBB272A301B
:103BD00051F4992342F4BDE29095809570956195DA
:103BE0007F4F8F4F9F4F0C94F61DBB27FA01A62FD6
:103BF0006217710581059105330B30FB66F0AA272A
:103C0000660F771F881F991FAA1FA21710F0A21B0B
:103C100063953850A9F7A05DAA3308F0A95DA19378
:103C200036F7B111B1931082CA010C94311EBB2733
:103C3000FB015527AA27880F991FAA1FA41710F068
:103C4000A41B83955051B9F7A05DAA3308F0A95D74
:103C5000A193009779F7B111B1931192CB010C9414
:103C6000311EDC01FC01672F71917723E1F7329758
:103C700004C07C916D9370836291AE17BF07C8F347
:103C80000895F999FECF92BD81BDF89A992780B524
:103C90000895262FF999FECF1FBA92BD81BD20BD90
:103CA0000FB6F894FA9AF99A0FBE01960895F8940F
:023CB000FFCF44
:103CB200FFFFFE6C796820436865636B20506F6973
:063CC2006E7400200000FA
:00000001FF
