:100000000C940C030C94D41D0C9429030C94290318
:100010000C9429030C9429030C9429030C942903B0
:100020000C9429030C9429030C9429030C942903A0
:100030000C9429030C9429030C9429030C94290390
:100040000C948A1D0C9429030C9429030C94290305
:100050000C9429030C9429030C9429030C94290370
:100060000C9429030C942903200020000FED032198
:10007000534449534B494920434647004E6F205350
:100080004420696E7365727465640046415431366C
:1000900000464154333200547970653A2000436F72
:1000A00064653A2000534420426C6F636B204552D4
:1000B000524F52004D697373696E67204D42522052
:1000C000202000436C7573746572203C2033326BC2
:1000D00042004E6F742046415431362F3332202077
:1000E00000426F6F7420736563746F72202020006C
:1000F00053442063616E277420696E697420005335
:10010000442063616E27742069646C65200045207B
:10011000522052204F2052004E6F726D616C20535E
:1001200044206361726400534448432063617264F5
:1001300020202020200020536F7274696E67206693
:10014000696C6573202E2E2E20202000204E6F74A7
:1001500068696E6720666F756E64206865726521D8
:100160002000204275696C64696E67206C69737445
:10017000002053454C454354204E49432020202025
:1001800020202020202000547261636B3A20002040
:1001900053442053454C4543542044454C41592039
:1001A0002020202000204C434420434F4E545241F5
:1001B00053542020202020202020002056616C75E0
:1001C000653A200020526F74617465206469737011
:1001D0006C6179202020202020002053657420634A
:1001E0006F6E747261737420202020202020200004
:1001F000205365742053442064656C61792020206D
:10020000202020202000202020202020202020200E
:100210002020202020202020202020002053455472
:100220005550202020202020202020202020202069
:100230002000204E49432020202020202020202064
:100240002020202020202000202076657273696FF6
:100250006E20352E342028323031382900202053AA
:100260004449534B205D5B202D2042524153494C61
:1002700000000000000000000000000000000080FE
:10028000C0E0F0F8F83800000000000000000000B6
:10029000000000000000000000000000000000005E
:1002A000000000000000000000000000000000004E
:1002B000000000000000000000000000C0E0F0F0BE
:1002C000F8F8F8F8F8F8F8F0F0F7F7FFFBF9F8F8B5
:1002D000F8F8F8F8F07000000000000000000000DE
:1002E000000000000000000000000000000000000E
:1002F00000000000000000C0E0E00000000000007E
:100300000000000000FFFFFFFFFFFFFFFFFFFFFFF8
:10031000FFFFFFFFFFFFFFFFFFFFFFFFFF83007CEB
:10032000FEFFC7C7C70707FFFF00FFFFFF0787C71D
:10033000C7EFFEFE1800FFFFFF07C7C7C7FFFE7C21
:1003400000FFFFFF007CFEFFC7C7E7F7FFFFDF07E7
:100350001F7FFFFFFFFFFFFFFFFFFFFFFFFFFFFF0D
:10036000FFFFFFFFFFFFFFFFFEFC3801010101005F
:1003700000010100070F0F00010101010000000052
:100380000F0F070001010101000000010101000041
:100390000001010101010101010000000103070F3B
:1003A0001F1F1F1F1F0F0F0F0F0F0F1F1F1F1F1FBD
:1003B0000F07030000000000000000000000000024
:1003C000000000000000000000000000000000002D
:1003D000000000000000000000000000000000001D
:1003E00000000008141C1C1C1C1C1C36636322002B
:1003F00000FFFFF7E3E3F7FFFD0000007432524215
:1004000042424A4C2E00000000000402FF02040099
:100410000000000000002040FF402000000000001D
:10042000002070A82020203F0000000000FE8282F3
:10043000828484FC000000000000000000005F00D7
:10044000000007000700147F147F14242A7F2A125B
:10045000231308646236495522500005030000004A
:100460001C2241000041221C0014083E0814080808
:100470003E080800503000000808080808006060C6
:10048000000020100804023E5149453E00427F40D2
:100490000042615149462141454B311814127F10E9
:1004A00027454545393C4A4949300171090503361C
:1004B00049494936064949291E003636000000568A
:1004C00036000008142241001414141414004122B0
:1004D00014080201510906324979413E7E11111179
:1004E0007E7F494949363E414141227F4141221C9C
:1004F0007F494949417F090909013E4149497A7FBC
:100500000808087F00417F41002040413F017F08EB
:100510001422417F404040407F020C027F7F04084C
:10052000107F3E4141413E7F090909063E4151216C
:100530005E7F09192946464949493101017F010178
:100540003F4040403F1F2040201F3F4038403F6316
:100550001408146307087008076151494543007F78
:1005600041410002040810200041417F00040201C3
:100570000204404040404000010204002054545412
:10058000787F484444383844444420384444487FC1
:100590003854545418087E0901020C5252523E7FBE
:1005A0000804047800447D40002040443D007F1052
:1005B00028440000417F40007C041804787C080433
:1005C000047838444444387C14141408081414186B
:1005D0007C7C080404084854545420043F444020C0
:1005E0003C4040207C1C2040201C3C4030403C448F
:1005F000281028440C5050503C4464544C4400088B
:1006000036410000007F0000004136080010080855
:10061000100800060909060011241FBECFEFD8E01C
:10062000DEBFCDBF11E0A0E0B1E0E4EAF0E402C03B
:1006300005900D92A631B107D9F728E0A6E1B1E007
:1006400001C01D92A836B207E1F70E94371E0C9434
:1006500050200C9400000E94CD1662E085E20E94BA
:1006600001168EE091E00E940B1764E086E10E9483
:1006700001168CE790E00E940B174B99FECF08956E
:10068000CF93C82F14B817B81AB815B818B81BB834
:10069000249A2C9A8AE387B982E38AB982E088B9DE
:1006A0008BB9399A3B9A419A17BC14BC91E095BD1D
:1006B00085BF809369001092030810923E08109243
:1006C0003D0810923C081092020810920108109206
:1006D00009089093110810921008109221011092AD
:1006E0002A018BE291E0909313088093120880E036
:1006F00090E00E943A20823018F48093080807C0E6
:100700001092080860E080E090E00E944220CC2334
:1007100049F10E94CB1680910808813011F40E94A3
:100720003D160E94CD1660E080E00E9401160E94F6
:10073000731766E08DE00E9401168DE592E00E943D
:100740000B1767E087E00E94011688E492E00E94A0
:100750000B172FE988E99BE7215080409040E1F793
:1007600000C00000CF9108951F93CF93DF93182FFF
:10077000D62FC42F67E080E00E9401160E947117F7
:1007800086E092E00E940B1767E080E00E9401166D
:10079000812F90E00E941A1767E08AE30E940116F9
:1007A0008D2F90E00E941A1767E083E70E940116E0
:1007B0008C2F90E00E941A17DF91CF911F910C941B
:1007C0007117FC01892B89F08081882379F0853E9F
:1007D00061F08F3551F080858E3439F4818589340C
:1007E00021F481E09285933409F080E00895FC01C2
:1007F000892B59F08081882349F0853E31F08F356F
:1008000021F0838582958170089580E00895CF92CC
:10081000DF92EF92FF920F931F93CF93DF938FEFAF
:100820009FEF90930101809300010E94D41B6B0104
:100830007C01672B682B692BD9F180E090E00E9446
:10084000051D00E010E0C8010E94611CEC01892B2D
:1008500049F18881853E11F0811124C08B858F304C
:1008600009F1109301010093000160E770E0CE01EF
:100870000E949E1F81E08B87FD8AEC8ADB8ECA8EE8
:10088000609148087091490880914A0890914B08FE
:10089000DF91CF911F910F91FF90EF90DF90CF905C
:1008A0000C9471190F5F1F4F003981E0180759F63A
:1008B000DF91CF911F910F91FF90EF90DF90CF903C
:1008C00008958F929F92AF92BF92CF92DF92EF9254
:1008D000FF921F93CF93DF93182FD62FC42F862F0D
:1008E00090E020E1429F800D911D1124FC010090B9
:1008F000670802C0F695E7950A94E2F7EE0FFF1F2E
:10090000EE0FFF1FEC5EF74F4081518162817381D2
:1009100022E02BB91BB82091660830E02150310944
:1009200082239323C0905308D0905408E090550838
:10093000F090560846015701880E991EA11CB11C63
:1009400042505109610971090090670804C0440FC1
:10095000551F661F771F0A94D2F7480D591D6A1D4F
:100960007B1D88E10E946A188FEF0E94A1178EEF0D
:100970000E94A11780EB90E030E120E33BB92BB956
:100980000197E1F71BB883E00E94A1178CEF0E944A
:10099000A1178FEF0E94A1178FE30E94A1178FEC80
:1009A0000E94A11783EF0E94A1178CEF0E94A1174C
:1009B0008FEF0E94A1178FE30E94A1178FEC0E9476
:1009C000A11783EF0E94A1178CEF0E94A11785ED5C
:1009D0000E94A1178AEA0E94A11786E90E94A11726
:1009E0008FEF0E94A1178EEF0E94A1178C2F869582
:1009F0008A6A0E94A1178C2F8A6A0E94A1178D2FE4
:100A000086958A6A0E94A1178D2F8A6A0E94A11773
:100A10008EEFD827CD278C2F86958A6A0E94A11742
:100A20008C2F8A6A0E94A1178EED0E94A1178AEA74
:100A30000E94A1178BEE0E94A1178FEF0E94A117B1
:100A40008FEF0E94A1178FEF0E94A1178FEF0E94D6
:100A5000A1178FEF0E94A1178EE591E0189FB001BA
:100A6000199F700D112480E090E050E2A0E1B0E306
:100A7000FB01E80FF91FE55DFE4FE08128E030E063
:100A800040E8FE2FF42319F0ABB9BBB902C01BB884
:100A90005BB9469521503109A1F701968D3521E0CA
:100AA000920731F71BB880E790E030E120E33BB9D3
:100AB0002BB90197E1F71BB880E093E020E21BB867
:100AC0002BB90197E1F71BB88FEF0E94A1178FEFA9
:100AD0000E94A1170E94B5170E947A1A82E08BB972
:100AE0001BB8DF91CF911F91FF90EF90DF90CF90D7
:100AF000BF90AF909F908F900895CF92DF92EF922A
:100B0000FF920F931F93CF93DF934B9935C00CE166
:100B100011E0F80181918F3F59F182E2C82E81E006
:100B2000D82E9BE2E92E91E0F92EC0E0DFEFF8012C
:100B300060816F3F29F0F60140818C2F0E94610493
:100B4000F801D1938F01F601D1936F01F701128261
:100B5000CF5FF2EAEF1AFEEFFF0AC53041F71092BD
:100B600021018BE291E0909313088093120804C056
:100B700081E0E132F80771F6DF91CF911F910F917B
:100B8000FF90EF90DF90CF900895809101089091B1
:100B9000020880399C40C0F480E18BB98091010843
:100BA0009091020820E330E1803140E1940730F475
:100BB0004B990AC02BB93BB90196F6CF80E99CE06E
:100BC000909302088093010808954B996EC090910C
:100BD0002101292F30E04EE551E0249FF001259FAF
:100BE000F00D349FF00D1124E55DFE4F82818D3AAA
:100BF00009F042C080912A01811131C0809103081F
:100C0000F901E45EFE4F8083F901EE5DFE4F4091F5
:100C10001008469546954083282F2D7F2D3011F4DE
:100C20008E5F01C08F5F8F7080930308943029F42A
:100C30000E94C5050E947D051CC09F5F9093210105
:100C40004EE551E0949F9001959F300D1124C9010C
:100C5000855D9E4F90931308809312080DC080917C
:100C60001A018093030810922A018F30F1F40E9438
:100C7000C50581E080931108209121018EE591E066
:100C8000289FF001299FF00D1124E55DFE4F828120
:100C9000863959F487818575880F90859575892BDC
:100CA00080931A0181E080932A0108952BE231E0BC
:100CB00045E080E090E0F901E80FF91F108201960D
:100CC0008E3551E09507B9F74150225A3E4F4111F8
:100CD000F0CFE2E2F1E0ACE1B1E08FEF81938D93F0
:100CE00091E0E732F907D1F70895CF93C82F8FEF3E
:100CF0009FEF90930101809300010E946218599820
:100D00004B9B03C00E942B034CC08BE291E090935D
:100D10004D0880934C080E94BF19811144C00E9465
:100D2000CD1662E085E20E9401168EE091E00E94FD
:100D30000B1764E086E10E9401168091450881301E
:100D400019F48FEF90E004C0823029F480EF90E036
:100D50000E940B1722C0833019F481EE90E0F8CF87
:100D6000843019F482ED90E0F3CF853019F483ECF0
:100D700090E0EECF863019F484EB90E0E9CF873035
:100D800019F485EA90E0E4CF8EE990E00E940B1719
:100D90008091450890E00E94D11610923E084B9B2E
:100DA000FECF80E0B0C0CC23D9F00E94CD1662E027
:100DB00080E00E94011680915008823019F487E289
:100DC00091E002C088E191E00E940B1759982FEB47
:100DD00085E692E5215080409040E1F700C0000098
:100DE0000E94811A811143C00E94CD1662E085E203
:100DF0000E9401168EE091E00E940B1764E086E1EC
:100E00000E94011680914508813019F48FEF90E01F
:100E100004C0823029F480EF90E00E940B1722C0BA
:100E2000833019F481EE90E0F8CF843019F482ED2C
:100E300090E0F3CF853019F483EC90E0EECF86306C
:100E400019F484EB90E0E9CF873019F485EA90E05B
:100E5000E4CF8EE990E00E940B178091450890E066
:100E60000E94D11610923E084B9BFECF9ACF409124
:100E700066082091600830916108429FC001439F3D
:100E8000900D112481159047D0F485E0809345089A
:100E90000E94CD1662E085E20E9401168EE091E08C
:100EA0000E940B1764E086E10E94011683EC90E03B
:100EB0000E940B1710923E084B9BFECF72CFCC23A3
:100EC000E1F064E080E00E94011687E990E00E9472
:100ED0000B17809157088B3019F481E990E002C01C
:100EE0008BE890E00E940B178FEB95E622E581508E
:100EF00090402040E1F700C0000059980E9456063B
:100F00000E945E1881E0CF9108958F929F92AF92D8
:100F1000BF92CF92DF92EF92FF920F931F93CF93E6
:100F2000DF936115710519F480E090E055C17B01F4
:100F3000EC010E94CD1660E080E00E9401160E9444
:100F40006F1782E392E00E940B1760E080E60E9438
:100F50000116809157088B3019F481E990E002C0A6
:100F60008BE890E00E940B170E946F1742E061E04F
:100F700080E00E94B40362E080E00E94011681E0FC
:100F800090E00E941A176701570108E0A00EB11CFB
:100F9000F60181916F01803211F00E948B15AC1423
:100FA000BD04B1F7D0931701C093160120915708E3
:100FB000F701828D938D2B3091F44489558960E03F
:100FC00070E0BA0155274427A0E0B0E08A019B01F8
:100FD000082B192B2A2B3B2BC901B80103C0BC01DC
:100FE00080E090E0611571058105910509F49CCFC1
:100FF000E4E1F8E0119211921192119218E0EC33B1
:10100000F107C1F7609314087093150880931608D0
:101010009093170811E0663FFFEF7F078105910568
:10102000A8F40E946E1B663F2FEF720781059105A1
:1010300058F434E0139FF0011124EC5EF74F608305
:101040007183828393831F5F1A3028F380905C083A
:1010500090905D08A0905E08B0905F0880910001BC
:1010600090910101019609F488C080E090E00E940F
:10107000051D8FEF9FEFDC0180934808909349088E
:10108000A0934A08B0934B08809100019091010110
:101090000E94741DFC0120915708828D938D2B3086
:1010A00071F4C488D588E12CF12C7601DD24CC24A0
:1010B000A0E0B0E0C82AD92AEA2AFB2A03C06C01C2
:1010C000E12CF12C02E0C01AD108E108F108A0914E
:1010D0006608B0E0A70196010E94931F0091530893
:1010E000109154082091550830915608600F711FD7
:1010F000821F931F0E941A19E0914C08F0914D082D
:101100008DEC92E0ABEAB1E080839183A283B3835C
:101110004581568167817085818592858416950603
:10112000A606B70619F48C179D0731F0438754873C
:1011300065877687908B878785829682A782B0861F
:10114000D287C18780914708848380910C08818B66
:10115000A0916608B0E0A70196010E94931FC0907D
:101160005308D0905408E0905508F09056086C0D44
:101170007D1D8E1D9F1D0E94711980925C089092AA
:101180005D08A0925E08B0925F081092020810926B
:10119000010810923D0810920908C1E0C09311089F
:1011A00010921008109203081092210110922A0147
:1011B0008BE291E09093130880931208599840E0D5
:1011C00052E060E070E080E10E94AF180E94560695
:1011D000C0933E0881E090E0DF91CF911F910F9185
:1011E000FF90EF90DF90CF90BF90AF909F908F9047
:1011F0000895CF92DF92EF92FF920F931F93CF93B8
:10120000DF93C0905C08D0905D08E0905E08F0909D
:101210005F088091000190910101019609F477C067
:1012200080E090E00E94051D8FEF9FEFDC0180932E
:10123000480890934908A0934A08B0934B088091BE
:101240000001909101010E94741DFC01209157083A
:10125000828D938D2B3079F424893589A90160E042
:1012600070E0BA0155274427A0E0B0E0842B952B0D
:10127000A62BB72B02C0A0E0B0E09C01AD0122502C
:10128000310941095109A0916608B0E00E94931FFD
:101290000091530810915408209155083091560838
:1012A000600F711F821F931F0E941A19E0914C0852
:1012B000F0914D088FEF9FEFDC01809348089093E9
:1012C0004908A0934A08B0934B0883859485A58567
:1012D000B68580935C0890935D08A0935E08B093F8
:1012E0005F08C785D089CE010E94741D8C010E94C1
:1012F000E103882361F0B801CE01DF91CF911F9106
:101300000F91FF90EF90DF90CF900C948507C092E3
:101310005C08D0925D08E0925E08F0925F08DF9171
:10132000CF911F910F91FF90EF90DF90CF90089594
:101330005E9A2D9A5F9A08957F928F929F92AF92B4
:10134000BF92CF92DF92EF92FF920F931F93CF93B2
:10135000DF938091000190910101019611F41FEA41
:101360005BC080E090E00E94051D8BE291E09093CD
:101370004D0880934C080E9456061092480810921F
:10138000490810924A0810924B08809100019091F0
:1013900001010E94741DFC0120915708828D938DDC
:1013A0002B3079F424893589A90160E070E0BA0115
:1013B00055274427A0E0B0E0482B592B6A2B7B2B04
:1013C00003C0AC0160E070E0A09166089A01AB0137
:1013D0002250310941095109B0E00E94931F009148
:1013E0005308109154082091550830915608600F09
:1013F000711F821F931F0E941A19E0914C08F091EF
:101400004D0880819181A281B3818D3C9240AB4A8D
:10141000B14009F0A4CF11890E94CD1660E080E0B0
:101420000E9401160E946F1785EA91E00E940B1737
:101430000E946F1743E065E084E00E94B40362E01D
:1014400080E00E9401168BEB91E00E940B17812F28
:1014500090E00E94D116712ED12F01E00E949809D0
:10146000D71581F062E080E00E9401168BEB91E0DD
:101470000E940B178D2F90E00E94D1168AE690E013
:101480000E940B174B996DC189B12091080841E06A
:1014900050E0222311F040E050E093B161E070E0B1
:1014A000213011F060E070E092959695977090274A
:1014B00090FB882480F8912C869EF001879EF00D89
:1014C000969EF00D1124082E000C990B8095909596
:1014D0008827990F881F9927849F9001859F300D39
:1014E000949F300D11242E2B3F2B232BB1F189B16A
:1014F00093B1929596959770902790FBAA24A0F8A7
:10150000B12CA69EF001A79EF00DB69EF00D112401
:10151000082E000C990B809590958827990F881FAD
:101520009927849F9001859F300D949F300D112441
:101530002E2B3F2B232BD9F68FEB9AE720E18150FE
:1015400090402040E1F700C00000CFEFCD0FC093E6
:101550000C088C2F0E947D1501C0CD2F93B12091D6
:10156000080861E070E0222311F060E070E089B1CA
:1015700041E050E0213011F040E050E09295969526
:101580009770902790FBEE24E0F8F12CE69EF00196
:10159000E79EF00DF69EF00D1124082E000C990B1D
:1015A000809590958827990F881F9927849F90018F
:1015B000859F300D949F300D11242E2B3F2B232B14
:1015C000A1F193B189B1929596959770902790FB70
:1015D000CC24C0F8D12CC69EF001C79EF00DD69E3B
:1015E000F00D1124082E000C990B809590958827FA
:1015F000990F881F9927849F9001859F300D949F94
:10160000300D11242E2B3F2B232BD9F68FEB9AE78D
:1016100020E1815090402040E1F700C00000CF5F02
:10162000C0930C088C2F0E947D157D2E4E9B02C00E
:10163000DC2F14CF4E9BFECF8FEB9AE720E1815039
:1016400090402040E1F700C000001C1709F489C059
:10165000C0930C088C2F0E947D1559988091000131
:1016600090910101019609F47CC080E090E00E9415
:10167000051D8BE291E090934D0880934C080E94E9
:101680005606109248081092490810924A08109283
:101690004B0880910001909101010E94741DFC0192
:1016A00020915708828D938D2B3071F4C488D58892
:1016B000E12CF12C7601DD24CC24A0E0B0E0C82A96
:1016C000D92AEA2AFB2A03C06C01E12CF12C82E022
:1016D000C81AD108E108F108A0916608B0E0A70196
:1016E00096010E94931F0091530810915408209175
:1016F000550830915608600F711F821F931F0E947A
:101700001A19E0914C08F0914D0880819181A281D5
:10171000B3818D3C9240AB4AB14019F5C18BA09189
:101720006608B0E0A70196010E94931F009153083C
:10173000109154082091550830915608600F711F80
:10174000821F931FDF91CF911F910F91FF90EF9018
:10175000DF90CF90BF90AF909F908F907F900C9430
:101760007119DF91CF911F910F91FF90EF90DF9052
:10177000CF90BF90AF909F908F907F9008957F9271
:101780008F929F92AF92BF92CF92DF92EF92FF9291
:101790000F931F93CF93DF930E94CD1660E080E0FC
:1017A0000E9401160E946F178FE891E00E940B17AC
:1017B0000E946F1743E065E084E00E94B40363E099
:1017C00080E00E9401168BEB91E00E940B17809144
:1017D000470890E00E94D11690904708A92CBB249E
:1017E000B39477247394DAE08D2E0E949809809147
:1017F0004708A81699F063E080E00E9401168BEB81
:1018000091E00E940B178091470890E00E94D1164A
:1018100088E690E00E940B17A09047084B996BC197
:1018200089B12091080841E050E0222311F040E006
:1018300050E093B161E070E0213011F060E070E0C1
:101840009295969597709B259170C92F20E0D22F85
:10185000C69FF001C79FF00DD69FF00D1124082EF2
:10186000000C990B809590958827990F881F9927D0
:10187000849F9001859F300D949F300D11242E2B55
:101880003F2B232BB1F189B193B192959695977027
:101890009B25092F017010E0069FF001079FF00DB6
:1018A000169FF00D1124082E000C990B8095909531
:1018B0008827990F881F9927849F9001859F300D55
:1018C000949F300D11242E2B3F2B232BE1F68FEB11
:1018D0009AE720E1815090402040E1F700C00000ED
:1018E00080914708815019F08093470802C0809288
:1018F000470893B12091080861E070E0222311F0BD
:1019000060E070E089B141E050E0213011F040E04A
:1019100050E09295969597709B2590FBEE24E0F809
:10192000F12CE69EF001E79EF00DF69EF00D1124DD
:10193000082E000C990B809590958827990F881F89
:101940009927849F9001859F300D949F300D11241D
:101950002E2B3F2B232BC1F193B189B192959695F4
:1019600097709B2590FBCC24C0F8D12CC69EF0012B
:10197000C79EF00DD69EF00D1124082E000C990B79
:10198000809590958827990F881F9927849F9001AB
:10199000859F300D949F300D11242E2B3F2B232B30
:1019A000D9F68FEB9AE720E1815090402040E1F793
:1019B00000C00000809147088F5F8B3018F480933F
:1019C000470802C0709247084E990FCF4E9BFECF3A
:1019D0008FEB9AE720E1815090402040E1F700C072
:1019E000000080914708981609F485C08091000195
:1019F00090910101019609F47EC080E090E00E9480
:101A0000051D8BE291E090934D0880934C080E9455
:101A10005606109248081092490810924A081092EF
:101A20004B0880910001909101010E94741DFC01FE
:101A300020915708828D938D2B3071F4C488D588FE
:101A4000E12CF12C7601DD24CC24A0E0B0E0C82A02
:101A5000D92AEA2AFB2A03C06C01E12CF12C82E08E
:101A6000C81AD108E108F108A0916608B0E0A70102
:101A700096010E94931F00915308109154082091E1
:101A8000550830915608600F711F821F931F0E94E6
:101A90001A19E0914C08F0914D0880819181A28142
:101AA000B3818D3C9240AB4AB14029F58091470803
:101AB0008483A0916608B0E0A70196010E94931F5D
:101AC0000091530810915408209155083091560800
:101AD000600F711F821F931FDF91CF911F910F9194
:101AE000FF90EF90DF90CF90BF90AF909F908F903E
:101AF0007F900C947119DF91CF911F910F91FF90FE
:101B0000EF90DF90CF90BF90AF909F908F907F909D
:101B100008959F92AF92BF92CF92DF92EF92FF9281
:101B20000F931F93CF93DF930E94CD1660E080E068
:101B30000E9401160E946F178CE192E00E940B1721
:101B40000E946F1743E065E084E00E94B40362E006
:101B500080E00E9401160E946D1780EF91E00E94C4
:101B60000B170E946D1763E080E00E9401168AED5A
:101B700091E00E940B1764E080E00E94011684EC63
:101B800091E00E940B17C1E0992493940E94980958
:101B900089B16091080821E030E0662311F020E06F
:101BA00030E093B141E050E0613011F040E050E0AE
:101BB0009295969597709925092F017010E0049FD2
:101BC000B001059F700D149F700D1124082E000C9C
:101BD000990B809590958827990F881F9927829F48
:101BE000F001839FF00D929FF00D11246E2B7F2B3F
:101BF000672B09F457C089B193B192959695977068
:101C0000992590FBEE24E0F8F12CE49EB001E59ECE
:101C1000700DF49E700D1124082E000C990B809508
:101C200090958827990F881F9927829FF001839F9D
:101C3000F00D929FF00D11246E2B7F2B672BD9F6A0
:101C40002FEB8AE790E1215080409040E1F700C0FF
:101C50000000CF5FC43018F562E080E00E940116FA
:101C600080EF91E00E940B17C23011F40E946D17B3
:101C700063E080E00E9401168AED91E00E940B175C
:101C80000E946D1764E080E00E94011684EC91E0F0
:101C90000E940B17C33029F40E946D1703C0C3E0E4
:101CA00001C0C2E093B16091080841E050E06623B2
:101CB00011F040E050E089B121E030E0613011F0F6
:101CC00020E030E0929596959770992590FBCC2472
:101CD000C0F8D12CC49EB001C59E700DD49E700D6D
:101CE0001124082E000C990B809590958827990F48
:101CF000881F9927829FF001839FF00D929FF00D1E
:101D000011246E2B7F2B672B09F45DC093B189B131
:101D1000929596959770992590FBAA24A0F8B12CDE
:101D2000A49EB001A59E700DB49E700D1124082EC6
:101D3000000C990B809590958827990F881F9927FB
:101D4000829FF001839FF00D929FF00D11246E2B66
:101D50007F2B672BD9F62FEB8AE790E1215080404B
:101D60009040E1F700C00000DFEFDC0F71F1D130EF
:101D700011F40E946D1762E080E00E94011680EF6E
:101D800091E00E940B178EEF8C0F823010F40E94AE
:101D90006D1763E080E00E9401168AED91E00E94D9
:101DA0000B17C350C23010F40E946D1764E080E03E
:101DB0000E94011684EC91E00E940B17D33031F49D
:101DC0000E946D1703C0DC2F01C0D1E04E9B02C002
:101DD000CD2FDCCE4E9BFECF2FEB8AE790E121503A
:101DE00080409040E1F700C00000D13069F4DF91FD
:101DF000CF911F910F91FF90EF90DF90CF90BF9008
:101E0000AF909F900C94BF0BD23069F4DF91CF91CB
:101E10001F910F91FF90EF90DF90CF90BF90AF9008
:101E20009F900C949C09D330F9F48091080881119B
:101E300006C081E0809308080E943D1604C01092FD
:101E400008080E9447166091080880E090E0DF9142
:101E5000CF911F910F91FF90EF90DF90CF90BF90A7
:101E6000AF909F900C944220DF91CF911F910F91E2
:101E7000FF90EF90DF90CF90BF90AF909F9008952C
:101E80002F923F924F925F926F927F928F929F928A
:101E9000AF92BF92CF92DF92EF92FF920F931F9378
:101EA000CF93DF93CDB7DEB728970FB6F894DEBF98
:101EB0000FBECDBF10921901109218018BE291E074
:101EC00090934D0880934C0887EE93E090930E0812
:101ED00080930D088FEF9FEFDC018093480890936B
:101EE0004908A0934A08B0934B080E9456060E94E6
:101EF0006F1760E080E00E94011681E791E00E9488
:101F00000B170E946F1743E065E084E00E94B40362
:101F100011E0612F80E00E94011686E092E00E94AD
:101F20000B171F5F1630A9F763E080E00E940116CF
:101F300082E691E00E940B1700E010E0C8010E94C9
:101F4000741D7C01009799F0FC01808181110FC004
:101F50008091180190911901892BC9F563E080E007
:101F60000E9401168CE491E00E940B170DC2C7017C
:101F70000E94E103811105C0C7010E94F703882375
:101F8000B9F0E0911801F0911901EE0FFF1F809157
:101F90000D0890910E08E80FF91F118300838091BE
:101FA00018019091190101969093190180931801DD
:101FB0000F5F1F4F8091180190911901883C910586
:101FC0003CF60039F1E01F0709F0B8CFC1CF63E05C
:101FD00080E00E94011686E391E00E940B1783E0E7
:101FE00091E00E94CF1680911801909119010297FB
:101FF0001CF0A12CB12C5DC0209118013091190169
:102000004091160150911701E0910D08F0910E08D2
:1020100000E010E080E090E062C08701000F111F37
:10202000E0910D08F0910E08E00FF11F8081918181
:102030000E94741D48E050E0BC01CE0101960E9450
:10204000C01FE0910D08F0910E08EC0DFD1D808180
:1020500091810E94741D48E050E0BC01CE010196C0
:102060000E94B31F97FF12C0E0910D08F0910E0877
:10207000DF01A00FB11F8D919C911197EC0DFD1DFB
:10208000208131812D933C93918380832FEFE21A3D
:10209000F20A82E0C80ED11C8091180190911901BA
:1020A0008A199B09E816F9060CF4B7CF9FEFA91A15
:1020B000B90A80911801909119010197A816B906E3
:1020C0000CF09ACFC12CD12CEE24E394F12CE4CF68
:1020D000619171916417750709F48C01019682175B
:1020E0009307B4F3EE24EA94FE2CDD24D3940E94EB
:1020F00098094B9949C189B12091080841E050E005
:10210000222311F040E050E093B161E070E0213013
:1021100011F060E070E09295969597709D2590FB88
:10212000222420F8312C269EF001279EF00D369EA9
:10213000F00D1124082E000C990B8095909588279E
:10214000990F881F9927849F9001859F300D949F38
:10215000300D11242E2B3F2B232BC9F189B193B1C4
:102160009295969597709D2590FB442440F8512CAC
:10217000469EF001479EF00D569EF00D1124082E4C
:10218000000C990B809590958827990F881F9927A7
:10219000849F9001859F300D949F300D11242E2B2C
:1021A0003F2B232BD9F6EFEBFAE720E1E150F0408B
:1021B0002040E1F700C000000F5F1F4F8091180121
:1021C000909119010817190711F400E010E093B17C
:1021D0002091080861E070E0222311F060E070E0D7
:1021E00089B141E050E0213011F040E050E092959B
:1021F000969597709D2590FB662460F8712C669EDD
:10220000F001679EF00D769EF00D1124082E000C53
:10221000990B809590958827990F881F9927849FFF
:102220009001859F300D949F300D11242E2B3F2B54
:10223000232BC1F193B189B19295969597709D2505
:1022400090FB882480F8912C869EF001879EF00DEB
:10225000969EF00D1124082E000C990B80959095F8
:102260008827990F881F9927849F9001859F300D9B
:10227000949F300D11242E2B3F2B232BD9F68FEB5F
:102280009AE7E0E181509040E040E1F700C00000B3
:102290000150110917FF06C0009118011091190192
:1022A000015011094E992FC04E9BFECFFFEB2AE73C
:1022B00080E1F15020408040E1F700C00000000FB5
:1022C000111FE0910D08F0910E08E00FF11F8081C1
:1022D00091810E94741D7C010E94F703882331F0D4
:1022E000C7010E94051D0E94400F4EC080910D083D
:1022F00090910E08FC01E00FF11FB70180819181E0
:102300000E94850741C00E151F0509F4F0CEE0912B
:102310000D08F0910E08C801880F991FE80FF91FEA
:10232000808191810E94741D7C0163E080E00E94A5
:102330000116C7010E94F703882319F086E090E098
:1023400002C081E090E00E941A17570198E0E90E60
:10235000F11CC12CF50181915F01803219F00E94BE
:102360008B15C394EA14FB04A9F7EC2CF12C20E1A3
:10237000E216F1043CF480E20E948B15FFEFEF1AA5
:10238000FF0AF5CF7801B3CE28960FB6F894DEBFDA
:102390000FBECDBFDF91CF911F910F91FF90EF90B6
:1023A000DF90CF90BF90AF909F908F907F906F9075
:1023B0005F904F903F902F900895CF92DF92EF92D1
:1023C000FF920F931F93CF93DF938BE291E0909353
:1023D0004D0880934C088FEF9FEFDC0180934808F5
:1023E00090934908A0934A08B0934B0880E090E08E
:1023F0000E94051D8FEF9FEF9093010180930001D4
:10240000CFEFDFEF00E010E0C8010E94741D7C01F7
:10241000009709F48FC0FC018081882309F491C0E2
:10242000C7010E94E103882329F0CF3FFFEFDF07B8
:1024300009F4E8014BE050E060E770E0C7010E945A
:10244000A51F892B09F076C01093010100930001AC
:1024500020915708F701828D938D2B3079F42489D0
:102460003589A90160E070E0BA0155274427A0E052
:10247000B0E0482B592B6A2B7B2B03C0AC0160E0EA
:1024800070E0A09166089A01AB0122503109410920
:102490005109B0E00E94931FC0905308D090540897
:1024A000E0905508F09056086C0D7D1D8E1D9F1D07
:1024B0000E941A19E0904C08F0904D08F7018081B5
:1024C0009181A281B3818D3C9240AB4AB14051F5DC
:1024D000F701848180934708818980930C080E94CA
:1024E0007D155998F70185819681A781B0858093E4
:1024F0005C0890935D08A0935E08B0935F08D18458
:10250000F2848D2D9F2D0E94741D009739F00E943A
:10251000E103882319F0CD2DDF2D13C080E090E07A
:102520000E94051D80E090E00E94051DCF3FFFEF57
:10253000DF07E1F40F5F1F4F003921E0120709F0B8
:1025400063CFCF3F8FEFD80789F4F8940E94400FF4
:102550004B991BC080913E08882331F080916E001A
:10256000816080936E00E89A78940FC0CE010E943B
:10257000741DBC01CE01DF91CF911F910F91FF908F
:10258000EF90DF90CF900C948507DF91CF911F9152
:102590000F91FF90EF90DF90CF9008954F925F9250
:1025A0006F927F928F929F92AF92BF92CF92DF9263
:1025B000EF92FF920F931F93CF93DF930E9498099E
:1025C0004B9B22C08FEF90E04B9BC3C10197E1F77B
:1025D00080916E008E7F80936E00E89810923E0886
:1025E00010921108DF91CF911F910F91FF90EF9002
:1025F000DF90CF90BF90AF909F908F907F906F9023
:102600005F904F900C942B03309B87C14E9B5AC018
:1026100089B14091080861E070E0442311F060E066
:1026200070E093B121E030E0413011F020E030E083
:10263000929596959770A1E09A2790FBAA24A0F80E
:10264000B12CA29EA001A39E500DB29E500D11244C
:10265000082E000C990B809590958827990F881F5C
:102660009927869FF001879FF00D969FF00D11240A
:102670004E2B5F2B452B31F593B189B192959695F1
:102680009770A927A0FBCC24C0F8D12CC69EA0012E
:10269000C79E500DD69E500D1124082E000C990B8C
:1026A000809590958827990F881F9927829FB00160
:1026B000839F700D929F700D1124462B572B452B35
:1026C00009F42BC14E9910C084E690E021E04E99A8
:1026D00020E00197E1F7222309F43BC14E9BFECF96
:1026E000F8940E94400F16C129B16091080841E09A
:1026F00050E0662311F040E050E033B181E090E01B
:10270000613011F080E090E0329536953770A1E0AD
:102710003A2730FBEE24E0F8F12CE89EB001E99E68
:10272000700DF89E700D1124022E000C330B2095B5
:1027300030952227330F221F3327249FF001259F36
:10274000F00D349FF00D11246E2B7F2B672B09F4B5
:102750005FC064E670E0FF24F394EE24E39429B1B3
:1027600033B13295369537703E25032F017010E056
:10277000089FF001099FF00D189FF00D1124022E03
:10278000000C330B209530952227330F221F33275F
:10279000249FD001259FB00D349FB00D11249F01BF
:1027A0002A2B3B2B232B09F4F12C61507109B9F62C
:1027B000FF2009F4CEC0A1E029B133B1329536959E
:1027C00037703A273170C32F30E0D32FC89FF00104
:1027D000C99FF00DD89FF00D1124022E000C330B71
:1027E000209530952227330F221F3327249FB001D5
:1027F000259F700D349F700D11249F01262B372BC0
:10280000232BD1F6F8940E94890D4B99A2C094C055
:1028100033B129B1329536953770A327A0FB8824B0
:1028200080F8912C849EB001859E700D949E700D51
:102830001124022E000C330B209530952227330FE4
:10284000221F3327289FF001299FF00D389FF00D9C
:1028500011249B012E2B3F2B232B09F47AC064E615
:1028600070E0C1E0D1E033B129B1329536953770CF
:102870003D2730FB662460F8712C649EF001659E54
:10288000F00D749EF00D1124022E000C330B2095D8
:1028900030952227330F221F3327289FD001299FED
:1028A000B00D389FB00D11249F012A2B3B2B232BF9
:1028B00009F4C0E061507109B1F6CC2309F449C0B4
:1028C000A1E033B129B13295369537703A2730FB04
:1028D000442440F8512C449EF001459EF00D549E36
:1028E000F00D1124022E000C330B20953095222779
:1028F000330F221F3327289FB001299F700D389F67
:10290000700D11249F01262B372B232BD1F6F89421
:102910000E94F9084B9B12C01CC080913E08811197
:1029200018C08FEF90E04B9914C00197E1F7F8942D
:1029300081E00E94750681110E94DD1180913E08A0
:10294000882331F080916E00816080936E00E89A58
:102950007894DF91CF911F910F91FF90EF90DF90CE
:10296000CF90BF90AF909F908F907F906F905F902F
:102970004F90089596E09A95F1F708950895359B44
:10298000FECFA894089508953C983D9844984598A2
:1029900088279927349B0895359B089581E00895F1
:1029A00081E00895359BEBDF3C9AE4DF2AD008955F
:1029B00081E008953D9ADEDF3C98DCDF3D98DADF68
:1029C000359BDDDF3C9AD6DF1CD0089581E0089569
:1029D0008F938F918F93359BD2DF3C9ACBDF11D0B1
:1029E000882311F404D0F5CF0F90089508953D9AEF
:1029F0003C9AC0DF3D98BEDF359BC1DF3C98BADF13
:102A000008950894881F01C0880FB9F03D9A00000E
:102A10000000000018F400003C9802C03C9A00C07E
:102A2000A9DF3D98A894000000000000359BA7DFB7
:102A300012F4882712C09EDFE7CF3D9A0000000005
:102A40003C9898DF992788273D98A8940000359BEB
:102A500096DF7AF3349B81E08DDF000000003D9A21
:102A6000089581E0089571E03D9A3C9800000000CF
:102A7000000080DF3D987EDFA89400000000000089
:102A8000359B7DDFB2F0889434990894771F60F706
:102A90003D9A803011F03C9801C03C9A0000000043
:102AA000000068DF3D98A89400000000359B67DFB8
:102AB00061DF000000003D9A872F9927089580E28A
:102AC0000895CF93C82F88E70E94D21480E00E9417
:102AD00001158C2F0E940115CF910C94F714CF9300
:102AE000C82F88E70E94D21480E40E9401158C2F21
:102AF0000E940115CF910C94F714CF93C82F81E851
:102B000090E00E9461158C2F90E00E946115C093A7
:102B10004208CF9108950F931F93CF93DF93C82F4F
:102B200088E70E94D21480E40E94011585E0C89FC6
:102B3000E001112400E010E0C05AD109FE01E00FCD
:102B4000F11FE95CFB4FE491809140088111E09511
:102B500080914308813011F080E001C080E891E06D
:102B600020914108213009F090E0E92B8E2B0E9442
:102B700001150F5F1F4F0530110501F781E090919E
:102B80004008913009F080E0982F9195809143089A
:102B9000813011F020E001C020E881E0309141084F
:102BA000313009F080E0892B822B0E940115DF91E2
:102BB000CF911F910F910C94F714CF93DF93EC01F9
:102BC0008991882319F00E948B15FACFDF91CF915C
:102BD000089581E090914008911180E08093400831
:102BE000089581E090914308911180E0809343081B
:102BF000089581E090914108911180E0809341080F
:102C00000895CF93DF93C82F862F90E080559F4F74
:102C10000E946115C695C695C69588E0C89FE001DB
:102C2000112420910F08CE0188709927820F911DE1
:102C30000E946115CE0124E0959587952A95E1F7CC
:102C40004096DF91CF910C9461150F931F93CF9312
:102C5000C0E06C2F80E00E94011604E810E080E0E4
:102C60000E946F1501501109D1F7CF5FC83089F765
:102C7000CF911F910F910C94F71481EA90E00E947C
:102C8000611588EC90E00E9461150C94251680EA8D
:102C900090E00E94611580EC90E00E9461150C9418
:102CA00025160E94C4148EEA90E00E94611586EAFF
:102CB00090E00E94611585ED90E00E94611580E82A
:102CC00090E00E94611588EA90E00E9461158FE310
:102CD00090E00E94611583ED90E00E94611580E014
:102CE00090E00E94611580E490E00E9461158DE8FB
:102CF00090E00E94611584E190E00E94611580E2FD
:102D000090E00E94611580E090E00E94611580EAE9
:102D100090E00E94611588EC90E00E9461158AEDB8
:102D200090E00E94611582E190E00E94611581E8C7
:102D300090E00E9461158FEC90E00E94611589ED92
:102D400090E00E94611581EF90E00E9461158BED8B
:102D500090E00E94611580E490E00E94611584EA91
:102D600090E00E94611586EA90E00E9461158FEA6A
:102D700090E00E9461158FEC8093420880930C08CC
:102D800082E080930F08109240081092430810923E
:102D900041080C9447160C9451160C9425160C946B
:102DA000DD15CF93DF93CDB7DEB72A970FB6F89432
:102DB000DEBF0FBECDBF4AE0BE016F5F7F4F0E94F6
:102DC000D41FCE0101960E94DD152A960FB6F89405
:102DD000DEBF0FBECDBFDF91CF910895CF93DF93BC
:102DE000CDB7DEB72A970FB6F894DEBF0FBECDBFC2
:102DF0002AE0AE014F5F5F4F0E94DF1FCE010196B8
:102E00000E94DD152A960FB6F894DEBF0FBECDBF27
:102E1000DF91CF910895CF93DF93FC018491EF016F
:102E20002196882321F00E948B15FE01F7CFDF91B8
:102E3000CF910895EF92FF920F931F93CF93DF935B
:102E40007C018CE08E9D80018F9D100D1124C0E0CF
:102E5000D0E08FEFE816F10439F0FE01E00FF11F2A
:102E6000ED51FC4FE49101C0E0E0809140088111F8
:102E7000E09580914308813011F080E001C080E846
:102E800091E020914108213009F090E0E92B8E2B50
:102E90000E946F152196CC30D105D9F681E0909132
:102EA0004008913009F080E0982F91958091430877
:102EB000813011F020E001C020E881E0309141082C
:102EC000313009F080E0892B822BDF91CF911F9167
:102ED0000F91FF90EF900C946F150C94E9150C94E2
:102EE000F1150C94F915EF92FF920F931F93CF9366
:102EF000E12CF12CC0E06C2F89E10E94011600E06A
:102F000010E0F801EE0DFF1DEF58FD4F84910E9477
:102F10006F150F5F1F4F0A34110599F7CF5F8AE4D1
:102F2000E80EF11CC53039F7CF911F910F91FF903A
:102F3000EF900895519A549A559A509810924408D7
:102F4000089528E030E090E840E250E160E3782F17
:102F5000792319F05BB96BB902C01BB84BB99695D0
:102F600021503109A1F71BB80895CF93DF931F9229
:102F7000CDB7DEB780E18BB9198280E020E330E184
:102F80009981983051F02BB999B1880F9170892BA4
:102F90003BB999819F5F9983F3CF0F90DF91CF91D8
:102FA000089582E38BB982E18BB9089528E100008E
:102FB0002A95E9F70197D1F708950895DF92EF92E6
:102FC000FF920F931F93CF93DF93082FC8E0D0E0B9
:102FD00010E880E2F82E90E1E92E20E3D22E802F37
:102FE000812339F0EBB881E090E00E94D617DBB87E
:102FF00006C01BB881E090E00E94D617FBB816957A
:10300000219769F781E090E00E94D6171BB8DF9105
:10301000CF911F910F91FF90EF90DF9008959091C5
:103020004408911103C00E94DE1702C00E94A1173C
:1030300080E00895FF920F931F93CF93DF931F9229
:10304000CDB7DEB780E18BB981E090E00E94D61762
:10305000198210E000E380E1F82E8981883091F038
:103060000BB981E090E00E94D61789B1110F8170F1
:10307000182BFBB881E090E00E94D61789818F5F02
:103080008983EBCF812F0F90DF91CF911F910F910B
:10309000FF90089580914408811102C00C941A1881
:1030A0000C94B51782E38BB981E090E00E94D617AB
:1030B00082E18BB981E090E00C94D61781E0809397
:1030C000440808951092440808950E94B51787FD9A
:1030D000FCCF0895CF92DF92EF92FF92CF93C82F4B
:1030E0006A017B010090460804C0CC0CDD1CEE1C7C
:1030F000FF1C0A94D2F78FEF0E94A1178C2F8064D7
:103100000E94A1178F2D0E94A1178E2D0E94A1173A
:103110008D2D0E94A1178C2D0E94A11785E90E9478
:10312000A1178FEF0E94A1170E9465188093510884
:1031300081508E3FC8F3CF91FF90EF90DF90CF90FA
:103140000895AB01BC0110924F0881E10E946A18FA
:103150000E94B517809352088E3FD1F70895CF9201
:10316000DF92EF92FF92CF93DF93C82F6A017B012A
:1031700080914E08811113C08FEE8C0F823040F089
:1031800088EE8C0F823020F080EE8C0F823038F485
:1031900089E0CC0CDD1CEE1CFF1C8A95D1F78FEF6B
:1031A0000E940F188C2F80640E940F188F2D0E9490
:1031B0000F188E2D0E940F188D2D0E940F188C2D28
:1031C0000E940F18C83011F487E801C085E90E94F9
:1031D0000F18F12C0E944A18D82F8F3F21F4FA942F
:1031E000F110F8CF1DC081111BC0CA33C9F40E9471
:1031F0004A181092460886FF05C081E080934E0869
:1032000082E006C010924E0889E08093460881E073
:10321000809350080E944A180E944A180E944A1837
:103220000E944A188D2FDF91CF91FF90EF90DF9091
:10323000CF900895CF92DF92EF92FF92CF93DF93DA
:10324000C0904808D0904908E0904A08F0904B0898
:10325000C616D706E806F906E1F16B017C0160931A
:1032600048087093490880934A0890934B085998EE
:103270008FEF0E940F188FEF0E940F18B701A60161
:1032800081E10E94AF18811125C0C0E0D0E00E940A
:103290004A188E3F29F02197D1F7599A80E01AC039
:1032A000E12CF12CC0914C08D0914D08CE0DDF1DC2
:1032B0000E944A1888838FEFE81AF80AE11482E026
:1032C000F80681F70E944A180E944A180E944A187C
:1032D000599A81E0DF91CF91FF90EF90DF90CF90EE
:1032E0000895CF93DF93AB01BC0188E10E94AF1832
:1032F00081113DC059988EEF0E940F18C0E0D0E0B8
:10330000E0914C08F0914D08EC0FFD1F80810E9468
:103310000F182196C11582E0D80791F78FEF0E9410
:103320000F188FEF0E940F180E944A18982F9F7154
:10333000953079F4C0E0D0E00E944A18811103C0B2
:103340002196D1F706C0599A8FEF0E940F1859980D
:1033500008C0599A0CC09E012F5F3F4F2196C9F3B8
:10336000E9010E944A188823B1F3599A81E0DF915C
:10337000CF910895AB01BC0180E10C94AF18CF92BE
:10338000DF92EF92FF920F931F93CF93DF931092F0
:10339000450885E0809347080E949A170E946218AA
:1033A0004B9998C080E185B9599A8FE097E2A0E0E7
:1033B000B0E08093480890934908A0934A08B093DE
:1033C0004B08C4E60E945218C150E1F75998CCE06E
:1033D0008FEF0E940F18C150D9F700E018E040E0CD
:1033E00050E0BA0180E00E94AF180150110931F499
:1033F00015B8599A81E0809345086DC0813079F7FE
:10340000CCE08FEF0E940F18C150D9F7C1E0D2E095
:103410004AEA51E060E070E088E00E94AF188A3A22
:1034200049F481E080935008C12CD12CE12C80E438
:10343000F82E09C08130A9F3219751F71092500856
:10344000C12CD12C7601CCE08FEF0E940F18C15017
:10345000D9F701E012E040E050E0BA0187E30E94B2
:10346000AF18B701A60189E20E94AF1801501109F7
:1034700031F482E08093450815B8599A2CC0811127
:10348000EACF10924E0889E0809346088091500858
:10349000813081F040E050E0BA018BE30E94AF1828
:1034A00060E072E080E090E00E94BA1915B8599A85
:1034B000C1E011C0C5E6D0E08FEF0E940F1840E0D8
:1034C00050E0BA018AE30E94AF18219719F38111E5
:1034D000F3CFE0CFC0E08C2FDF91CF911F910F9100
:1034E000FF90EF90DF90CF90089580E185B9089527
:1034F00015B808950E94B5174B9902C08F3FD1F7B8
:1035000008958F929F92AF92BF92CF92DF92EF92E7
:10351000FF921F93CF93DF9360E070E0CB010E9496
:103520001A19E0914C08F0914D0880818D7F893EF9
:1035300051F1DF01A250BE4F8D919C9185359A4A81
:1035400011F086E014C0E254FE4F84818093570846
:1035500060857185828593850E941A19E0914C08D7
:10356000F0914D0880818D7F893E29F083E0809322
:10357000450880E0A7C0809157088B3021F0863045
:1035800011F084E0F4CFC0914C08D0914D084385F0
:103590005485509361084093600815851093660820
:1035A00086859785C48CD58CE68CF78CC80ED91E81
:1035B000E11CF11CC0926208D0926308E09264089A
:1035C000F092650880915708863019F4A689B7896A
:1035D00002C0ACA1BDA1208930E02A9FB0012B9F81
:1035E000700D3A9F700D112446015701860E971EEB
:1035F000A11CB11C8092530890925408A0925508C7
:10360000B09256088630D9F08CA59DA5AEA5BFA571
:103610009C01AD012250310941095109A12FB0E0AF
:103620000E94931F860E971EA81EB91E80925808EE
:1036300090925908A0925A08B0925B0824C00E9448
:10364000841FC60ED71EE81EF91EC0925808D092DD
:103650005908E0925A08F0925B088189928935E016
:10366000880F991F3A95E1F7BA010E944E1FC60EC6
:10367000D71EE11CF11CC0925308D0925408E0926E
:103680005508F0925608812F90E020E031E0320F8B
:103690008130910521F096958795232FF7CF2093C0
:1036A00067088091580890915908A0915A08B091E4
:1036B0005B0880935C0890935D08A0935E08B093CC
:1036C0005F0881E0DF91CF911F91FF90EF90DF9035
:1036D000CF90BF90AF909F908F9008954F925F9240
:1036E0006F927F928F929F92AF92BF92CF92DF9212
:1036F000EF92FF92CF9320915708263039F4882417
:103700008A94982CA12CB12C21E007C088248A949B
:10371000982CA82C2FE0B22E22E004C0660F771F51
:10372000881F991F2A95D2F720916008309161086F
:1037300040E050E00E94621F6B017C0180916208B2
:1037400090916308A0916408B091650829013A013D
:10375000480E591E6A1E7B1ECAE0C301B2010E94B8
:103760001A19882311F0C150C1F780914C0890912B
:103770004D08FC01EC0DFD1D80819181A281B3817A
:10378000BC01CD01682179218A219B21CF91FF9035
:10379000EF90DF90CF90BF90AF909F908F907F90F1
:1037A0006F905F904F9008954F925F926F927F92CB
:1037B0008F929F92AF92BF92CF92DF92EF92FF9241
:1037C000CF9388EEC82E83E0D82EE12CF12CC701D0
:1037D000B6010E946E1B611571058105910591F07E
:1037E00030EAC31636E8D30631E0E306F10431F0DF
:1037F0002FEFC21AD20AE20AF20AE9CF60E070E0C3
:10380000CB0151C040EAC41646E8D40641E0E406C4
:10381000F10409F448C080915708863011F481E022
:1038200001C082E0A701960104C0220F331F441F8C
:10383000551F8A95D2F7CA01B901209160083091CD
:10384000610840E050E00E94621F2B013C01809122
:10385000620890916308A0916408B09165084901DD
:103860005A01880E991EAA1EBB1ECAE0C501B401EA
:103870000E941A19882311F0C150C1F780914C0899
:1038800090914D08FC01E40DF51D8FEF90E0A0E054
:10389000B0E080839183A283B383C501B4010E9409
:1038A0007119C701B601CF91FF90EF90DF90CF90D3
:1038B000BF90AF909F908F907F906F905F904F9050
:1038C00008958F929F92AF92BF92CF92DF92EF9224
:1038D000FF920F931F93CF93DF93EC0155E0CC0F32
:1038E000DD1F5A95E1F78E01012F112706952091D2
:1038F0006608622F70E0C8010E944E1F7B01809114
:103900005C0890915D08A0915E08B0915F08672BFC
:1039100009F44EC030915708363071F48090580841
:1039200090905908A0905A08B0905B0888159905A6
:10393000AA05BB0509F45AC080905308909054081A
:10394000A0905508B0905608BC01CD0168197909BE
:103950008A099B0930E040E050E00E94621FCA01E2
:10396000B9016E5F7F4F8F4F9F4FC12CD12C0E94AA
:103970006E1B2FEFC21AD20ACE14DF04C1F79B01CF
:10398000AC012250310941095109A0916608B0E00B
:103990000E94931F8090530890905408A09055085F
:1039A000B0905608DC01CB01880D991DAA1DBB1DE6
:1039B0009801322F2227330FC21BD30B4091660888
:1039C0004E9D90014F9D300D1124021B130BBC0125
:1039D000CD01600F711F811D911D0E941A198091E8
:1039E0004C0890914D088C0F9D1F02C080E090E024
:1039F000DF91CF911F910F91FF90EF90DF90CF90CB
:103A0000BF90AF909F908F9008950F931F93FC01EC
:103A1000892B49F48091580890915908A0915A082F
:103A2000B0915B0839C09385892F807194FF3DC0A8
:103A300020915708828D938D2B3079F42489358914
:103A4000A90160E070E0BA0155274427A0E0B0E08A
:103A5000842B952BA62BB72B02C0A0E0B0E00097DB
:103A6000A105B105B9F29C01AD012250310941090E
:103A70005109A0916608B0E00E94931F009153087D
:103A8000109154082091550830915608DC01CB0163
:103A9000800F911FA21FB31F80935C0890935D0855
:103AA000A0935E08B0935F0881E01F910F91089585
:103AB000FC01892BB1F08081882399F0853E89F043
:103AC0008E3221F481818E3219F00BC0853049F09D
:103AD00083858E3131F08F3021F0883211F0CF01A3
:103AE000089580E090E008950E94611C0C94581D98
:103AF00000000000000000000000000000000000C6
:103B000008950000000000000000209147082A9559
:103B1000F1F70895AF93AFB7AF93BF932F93A091F1
:103B20003D0820913C08A22BA8B9AAEAA6BD20E036
:103B3000E8DFA0913C08A8B9B0911108BB2341F07F
:103B400020933D082F91BF91AF91AFBFAF911895D2
:103B5000A0E3ABB9A9B1A170AA0F2A2FA0E1ABB91C
:103B6000A0910108B09102081196A0930108B093AA
:103B70000208A03989F4BC3079F4A1E0A0931108BF
:103B8000CF93C0E7A8E0B0E3BBB9B0E1BBB9AA9559
:103B9000D1F7CA95B9F7CF9120933D082F91BF91E6
:103BA000AF91AFBFAF9118952F932FB72F93309947
:103BB0005AC03F933091090826B124702327E1F3BE
:103BC00026B124702093090828E02A95F1F7000017
:103BD0004F935F936F937F938F93EF93FF9360E087
:103BE000E0911208F09113083DE541E00DC05091BD
:103BF000090876B174707527E1F376B1747070932B
:103C000009087EE07A95F1F727E081E079B17470D8
:103C1000D1F400007EE17A95F1F776B1747050919D
:103C2000090870930908752776957695880F872B74
:103C30002A9561F7853D09F461E06030C1F2819316
:103C400031504040A1F69F93AF93BF930E94E5058A
:103C5000BF91AF919F91FF91EF918F917F916F9164
:103C60005F914F913F912F912FBF2F91189581E038
:103C70000E9440038FEF80932701CBE80E94CE1271
:103C8000309B03C00E94781AF9CF0E94751A83B145
:103C90008F7090911B01891759F180931B01883017
:103CA00049F0843009F4F1C0823009F4F0C0813069
:103CB000F9F4EFC082E090911008890FE82FE770C7
:103CC000E695F0E0E459FF4FE49180FFE295EF7054
:103CD0008E2F887009F0E86FE90FE53C08F0DBC033
:103CE000E0931008809110088C3810F0C0931008F1
:103CF00080913E08882309F4C1CF80911108882360
:103D000009F4BCCFF894809103088F5F8F70809383
:103D10000308209110082695269520933F0890E0EF
:103D200030E1239F800D911D112490930B08809307
:103D30000A080090670802C0969587950A94E2F7F2
:103D40009093290180932801880F991F880F991F4C
:103D5000FC01EC5EF74F80819181A281B381809359
:103D6000040890930508A0930608B0930708809173
:103D700027012817B9F02093270164E08CE00E9406
:103D8000011687E891E00E940B1780913F088A3066
:103D900020F483E191E00E94CF1680913F0890E0EB
:103DA0000E94D1168091030890911C01981306C0BF
:103DB0002091220190913F08291741F190911D0116
:103DC000891306C02091230190913F082917F1F033
:103DD00090911E01891306C02091240190913F0803
:103DE0002917A1F090911F01891306C02091250188
:103DF00090913F08291751F090912001891308C034
:103E00009091260180913F08981302C00E947D0581
:103E10008091040890910508A0910608B0910708C8
:103E20000297A109B109AC01BD010090670804C067
:103E3000440F551F661F771F0A94D2F780915308CD
:103E400090915408A0915508B0915608840F951F81
:103E5000A61FB71F2091660830E02150310940911C
:103E60000A0850910B0824233523BC01CD01620FB1
:103E7000731F811D911D0E94A118109202081092BB
:103E80000108109211087894F9CE84E014CF86E0EE
:103E900012CF80E010CF1092100824CFAA1BBB1BBA
:103EA00051E107C0AA1FBB1FA617B70710F0A61B3A
:103EB000B70B881F991F5A95A9F780959095BC015B
:103EC000CD010895A1E21A2EAA1BBB1BFD010DC056
:103ED000AA1FBB1FEE1FFF1FA217B307E407F507BA
:103EE00020F0A21BB30BE40BF50B661F771F881F96
:103EF000991F1A9469F760957095809590959B012C
:103F0000AC01BD01CF010895A29FB001B39FC001D4
:103F1000A39F700D811D1124911DB29F700D811DF5
:103F20001124911D08950E94841FA59F900DB49F98
:103F3000900DA49F800D911D11240895FB01DC01BB
:103F400005900D920020E1F70895FB01DC0141503E
:103F5000504030F08D910590801919F40020B9F788
:103F6000881B990B0895FB01DC0104C08D91019021
:103F7000801921F441505040C8F7881B990B0895CF
:103F8000DC01FB014150504058F049F001900D9286
:103F90000020C1F7E61BF70B3197CF0108951C9263
:103FA00001900020E9F7F6CFBB274A3031F499237E
:103FB00022F4BDE2909581959F4F0C941120BB2770
:103FC0002A3051F4992342F4BDE290958095709582
:103FD00061957F4F8F4F9F4F0C94EF1FBB27FA01C6
:103FE000A62F6217710581059105330B30FB66F032
:103FF000AA27660F771F881F991FAA1FA21710F004
:10400000A21B63953850A9F7A05DAA3308F0A95DFB
:10401000A19336F7B111B1931082CA010C942A20F2
:10402000BB27FB015527AA27880F991FAA1FA41792
:1040300010F0A41B83955051B9F7A05DAA3308F086
:10404000A95DA193009779F7B111B1931192CB01BA
:104050000C942A20DC01FC01672F71917723E1F792
:10406000329704C07C916D9370836291AE17BF0745
:10407000C8F30895F999FECF92BD81BDF89A9927AA
:1040800080B50895262FF999FECF1FBA92BD81BD44
:1040900020BD0FB6F894FA9AF99A0FBE01960895CA
:0440A000F894FFCFC2
:1040A400FFFFFE6C796820436865636B20506F697D
:0640B4006E740020000004
:00000001FF
