:100000000C9408010C9425010C9425010C942501F5
:100010000C9425010C9425010C9425010C942501C8
:100020000C9425010C9425010C9425010C942501B8
:100030000C9435220C9425010C9425010C94250177
:100040000C9425010C9425010C9487010C94250136
:100050000C9425010C9425010C9425010C94250188
:100060000C9425010C9425010C9425010C94250178
:100070000C9425010C9425010C947E2C0C942501E4
:100080000C9425010C9425010C9425010C948522D7
:100090000C9425010C9425010C9425010C94250148
:1000A0000C9425010C9425010C942501002010309E
:1000B0000008040C0002010300020103000D0B09FB
:1000C000070503010E0C0A080604020F00000000D9
:1000D0000000000000000000000000000000000020
:1000E0000000000000000000000000000000000010
:1000F0000000000000000000000000000000000000
:1001000000000000000000000000000000000000EF
:1001100000000000000000000000000000000000DF
:1001200000000000000000000000000000000000CF
:1001300000000000000000000000000000000000BF
:1001400000000000000000000000000000000000AF
:10015000000000000000000000000000000000009F
:10016000000000010000020300040506000000007A
:1001700000000708000000090A0B0C0D00000E0F1C
:1001800010111213001415161718191A0000000088
:10019000000000000000001B001C1D1E0000001FCE
:1001A000000020210022232425262728000000000B
:1001B00000292A2B002C2D2E2F3031320000333411
:1001C0003536373800393A3B3C3D3E3F96979A9B4F
:1001D0009D9E9FA6A7ABACADAEAFB2B3B4B5B6B75C
:1001E000B9BABBBCBDBEBFCBCDCECFD3D6D7D9DA83
:1001F000DBDCDDDEDFE5E6E7E9EAEBECEDEEEFF296
:10020000F3F4F5F6F7F9FAFBFCFDFEFF0FED032121
:1002100011241FBECFEFCDBFDFE2DEBF11E2A0E0B1
:10022000B0E2E0E6F8E602C005900D92A434B10712
:10023000D9F72EE2A4E4B1E201C01D92A83DB207B5
:10024000E1F70E9487320C942E340C9400008FE06A
:10025000809302068093B00088E18093100690E4BA
:10026000909302068093160624E020936206809302
:10027000720620E2209362068093750690936206D0
:100280008093760690E8909302068093170620E10B
:10029000209362068093740621E020936106909378
:1002A0006106809110068093100680910A068F6087
:1002B00080930A06209309062093A20089E391E027
:1002C000809366089093670887E0809340081092B7
:1002D00046082093A2008091502D882349F0109267
:1002E000C4261092E72710920A2910922D2A089509
:1002F00010920A2910922D2A0895FC0160817181C3
:10030000828193810895FC018081918108951F92DB
:100310000F920FB60F9211248F939F9381E08093D9
:100320004C088091532D9091542D892B49F0809148
:10033000532D9091542D01978093532D9093542DCC
:100340008091512D9091522D892B49F08091512D02
:100350009091522D01978093512D9093522D809121
:1003600045218F5F813249F0809345219F918F9184
:100370000F900FBE0F901F901895109245218091FD
:10038000442191E08927809344219F918F910F9080
:100390000FBE0F901F901895EF92FF920F931F932F
:1003A000CF93DF93EC017C0103E210E221E030E225
:1003B00040E050E0BA0185E59DE20E94670C88812B
:1003C000882391F01882B39916C07E0100E012E0F4
:1003D00020E030E04BE150E260E070E0CB010E94B1
:1003E000C5178881882389F0DF91CF911F910F91E4
:1003F000FF90EF9008958AE090E2DF91CF911F91F6
:100400000F91FF90EF900C946B2403E210E221E037
:1004100030E240E050E0BA0185E59DE20E94670CC1
:1004200088818111E1CF9E0140E050E0BA0185E56D
:100430009DE20E94D01486E0F82EBE0180E00E946A
:10044000200388818111D0CF0FE310E005C0015057
:1004500011090115110541F0BE0180E20E9420033F
:1004600088818823A1F3C0CFFA9439F710E003C044
:100470001F5F103841F0BE0180E20E942003888196
:100480008823B1F3B1CFCE01DF91CF911F910F91AE
:10049000FF90EF900C943815EF92FF920F931F93FB
:1004A000CF93DF93D82FC92F8B019B0140E050E001
:1004B000BA0185E59DE20E941A14F80120812111FC
:1004C00014C0ED2EFC2EC0E0D0E005C02196C11571
:1004D000F2E0DF0789F0C8010E943303F70181933E
:1004E0007F01F8018081882389F3DF91CF911F91EB
:1004F0000F91FF90EF900895C801DF91CF911F9168
:100500000F91FF90EF900C949414EF92FF920F9341
:100510001F93CF93DF93D82FC92F8B019B0140E00E
:1005200050E0BA0185E59DE20E94D014F8012081D7
:10053000211114C0ED2EFC2EC0E0D0E005C02196A4
:10054000C115F2E0DF0789F0B801F70181917F0161
:100550000E942003F8018081882389F3DF91CF91E5
:100560001F910F91FF90EF900895C801DF91CF91F7
:100570001F910F91FF90EF900C943815DF92EF923E
:10058000FF920F931F93CF93DF938C01D62E7A01A6
:10059000E901B9010E944C028881882341F0DF9172
:1005A000CF911F910F91FF90EF90DF900895B801C8
:1005B00080E4D89E600D711D1124C701DF91CF9199
:1005C0001F910F91FF90EF90DF900C940634DF9213
:1005D000EF92FF920F931F93CF93DF93EC01D62EF0
:1005E0007A018901B9010E944C02F80180818111D0
:1005F0001FC0F0E4DF9ED0011124CE018A0F9B1FA3
:10060000FC01A05CBF4FAC0FBD1F20E22193EA1795
:10061000FB07E1F7B7010E940634B801CE01DF9174
:10062000CF911F910F91FF90EF90DF900C94850276
:10063000DF91CF911F910F91FF90EF90DF90089580
:100640008093E30889EE93E005C00197009739F0A5
:10065000959905C02091E20827FFF7CF089581E022
:10066000FB01808308952FEF2093E30829EE33E008
:1006700007C0215031092115310549F0959907C06E
:100680004091E20847FFF5CF8091E308089521E00B
:10069000FC01208380E00895FC019FEF9093E30824
:1006A00029EE33E007C0215031092115310579F0D9
:1006B00095990DC08091E20887FFF5CF8091E308FE
:1006C0008F3F41F08081811102C0959BE7CF81E08F
:1006D000808308950895FC0149EE53E06FEF71E0C7
:1006E0006093E30829EE33E007C02150310921155A
:1006F0003105B1F0959914C08091E20887FFF5CFDC
:100700009091E308415051094115510581F08081D4
:1007100081110DC095990BC097FDE2CF892F0895E7
:10072000708390E0415051094115510581F781E0F6
:10073000808380E008950F931F93F8019FEF9093BB
:10074000E308A9EEB3E006C01197109709F48CC036
:1007500095998AC09091E20897FFF6CF9081911108
:1007600085C0805C8093E30889EE93E006C0019722
:10077000009709F479C0959977C03091E20837FF66
:10078000F6CF8081811172C0872F9927AA27BB27B6
:100790008093E30889EE93E006C00197009709F47F
:1007A00063C0959961C03091E20837FFF6CF808130
:1007B00081115CC0CB01AA27BB278093E30889EE97
:1007C00093E006C00197009709F44EC095994CC07C
:1007D0003091E20837FFF6CF8081811147C0BB27F7
:1007E000A72F962F852F8093E30889EE93E005C00D
:1007F00001970097C9F1959937C03091E20837FF0A
:10080000F7CF8081811132C04093E30889EE93E0F5
:1008100005C00197009741F1959926C03091E208F3
:1008200037FFF7CF8081811121C02093E30889EE43
:1008300093E005C001970097B9F0959915C02091F4
:10084000E20827FFF7CF8081811110C08FEF8093DE
:10085000E30889EE93E02091E20827FD07C00197A5
:10086000009711F0959BF7CF81E080831F910F9146
:100870000895BF92CF92DF92EF92FF920F931F9352
:10088000CF93DF93D42EE901072FF62EE52EBB245C
:10089000BA9410E4180F45E9C42E9599A2C0B092FD
:1008A000E308E9EEF3E006C03197309709F499C008
:1008B000959997C08091E20887FFF6CF88818111D2
:1008C00086C01093E308E9EEF3E006C03197309755
:1008D00009F487C0959985C08091E20887FFF6CF1B
:1008E0008881811174C00093E308E9EEF3E006C04B
:1008F0003197309709F475C0959973C08091E208DB
:1009000087FFF6CF8881811162C0F092E308E9EE9B
:10091000F3E006C03197309709F463C0959961C040
:100920008091E20887FFF6CF8881811150C0E09264
:10093000E308E9EEF3E006C03197309709F451C0BF
:1009400095994FC08091E20887FFF6CF8881811189
:100950003EC0D092E30889EE93E006C0019700976D
:1009600009F43FC095993DC02091E20827FFF6CFDA
:10097000888181112CC0C092E30889EE93E005C004
:100980000197009771F195992CC02091E20827FFFB
:10099000F7CF888181111BC0B092E30889EE93E004
:1009A00005C001970097E9F095991BC02091E208D6
:1009B00027FFF7CF888181110AC0CE010E946B0307
:1009C0009881911104C081508E3F08F466CFDF9169
:1009D000CF911F910F91FF90EF90DF90CF90BF903C
:1009E000089581E08883F3CFCF93DF93EA019A01E2
:1009F000AB01BC0181E10E9439048881811118C0DA
:100A00003FEF959918C03093E30889EE93E005C055
:100A10000197009781F095990EC02091E20827FF79
:100A2000F7CF8091E3089881911102C08E3F49F77A
:100A3000DF91CF91089581E08883DF91CF91089570
:100A400020E1209346062091812E211107C0E9E084
:100A5000660F771F881F991FEA95D1F70C94F4044D
:100A60002FEF2093E30829EE33E007C0215031092E
:100A70002115310519F1959921C04091E20847FFF0
:100A8000F5CF2091E308FC012081211116C02FEF42
:100A90002093E30829EE33E007C0215031092115E6
:100AA000310581F095990EC04091E20847FFF5CFDE
:100AB0008091E30880E180934506089521E0FC01E0
:100AC0002083089521E0FC012083F4CFCF93DF93AE
:100AD000EA0120E1209346062091812E211107C0D2
:100AE000F9E0660F771F881F991FFA95D1F7AE01BD
:100AF0000E94F4048881811131C020E030E05FEF72
:100B000061E095992EC0E091782EF091792EE20F58
:100B1000F31F5093E30889EE93E005C00197009717
:100B2000B9F0959915C04091E20847FFF7CF809141
:100B3000E30880838881811111C02F5F3F4F211509
:100B400082E03807F1F6CE01DF91CF910C943005A9
:100B5000688380E080838881882379F3DF91CF9157
:100B6000089581E08883DF91CF910895CF93DF933B
:100B7000EA0120E1209346062091812EAB01BC01C1
:100B8000211107C0A9E0440F551F661F771FAA95C2
:100B9000D1F79E0188E10E9439048881811126C025
:100BA00080E180934506809346068FEF8093E308AB
:100BB00089EE93E005C001970097D9F0959919C087
:100BC0002091E20827FFF7CF888181110FC08EEFB7
:100BD0008093E30889EE93E005C00197009749F000
:100BE000959907C02091E20827FFF7CFDF91CF91B9
:100BF000089581E08883DF91CF910895CF932FEFFF
:100C00002093E30829EE33E007C021503109211574
:100C1000310551F1959928C04091E20847FFF5CF81
:100C2000FC012081211123C02FEF2093E30829EE3E
:100C300033E007C02150310921153105A9F09599FC
:100C400013C04091E20847FFF5CFFC01208121113C
:100C50000EC0C0E1C0934506C09346060E944C03F7
:100C6000C0934506CF91089521E0FC012083CF91E8
:100C700008956F927F928F929F92AF92BF92CF9280
:100C8000DF92EF92FF920F931F93CF93DF934B016D
:100C90005C013A016901E70180E180934606809199
:100CA000812E811199C0C501B401B9E0660F771F8B
:100CB000881F991FBA95D1F7AE010E94F40488816C
:100CC00081117BC020E030E05FEF61E0E0917A2E9F
:100CD000F0917B2EE20FF31F5093E30889EE93E02F
:100CE00006C00197009709F461C095995FC04091D3
:100CF000E20847FFF6CF8091E30880838881811165
:100D00005CC02F5F3F4F211582E03807F9F6CE0116
:100D10000E9430050115110591F0D601060D171D31
:100D200001C03C01C30101962D91E0917A2EF09112
:100D30007B2EE60DF71D20838017910791F7AE01FA
:100D4000C501B4010E94B6058881811136C0E091C9
:100D50007A2EF0917B2E20E030E081918093E308A1
:100D600089EE93E005C001970097C9F1959937C0C6
:100D70004091E20847FFF7CF888181111EC02F5FA5
:100D80003F4F211582E0380741F7CE01DF91CF9127
:100D90001F910F91FF90EF90DF90CF90BF90AF9099
:100DA0009F908F907F906F900C94FE05688380E0F9
:100DB00080838881882309F4A4CFDF91CF911F918C
:100DC0000F91FF90EF90DF90CF90BF90AF909F90EA
:100DD0008F907F906F900895C501B4016DCF81E031
:100DE0008883EBCFEF92FF920F931F93CF93DF9304
:100DF00000D0CDB7DEB729833A83780102E010E056
:100E00009E012F5F3F4F0E9439060F900F90DF9198
:100E1000CF911F910F91FF90EF900895EF92FF9265
:100E20000F931F93CF93DF9300D000D0CDB7DEB7E1
:100E300009831A832B833C8304E010E09E012F5F1B
:100E40003F4F0E9439062496CDBFDEBFDF91CF9180
:100E50001F910F91FF90EF9008958093782E9093BB
:100E6000792E08952F923F924F925F926F927F92C8
:100E70008F929F92AF92BF92CF92DF92EF92FF92AA
:100E80000F931F93CF93DF9300D0CDB7DEB71C0134
:100E900080E59BE28093782E9093792E8CE491E20A
:100EA00080937A2E90937B2E10927C2E80E28093FA
:100EB000020688E18093150698E09093420680939D
:100EC000530695996FC093E59093E00890EB90934B
:100ED00041068093560680E1809345062AE030E083
:100EE0005FEF5093E30889EE93E006C00197009707
:100EF00009F475C0959973C04091E20847FFF6CF99
:100F0000D1018C9181116EC021503109211531051B
:100F100041F780E18093460622E030E05FEF509396
:100F2000E30889EE93E006C00197009709F457C0E3
:100F3000959955C04091E20847FFF6CFD1018C91B9
:100F4000811150C0215031092115310541F781012E
:100F500025E940E050E0BA010E949B03F101808145
:100F6000811140C020E137E25FEF95991BC050939B
:100F7000E30889EE93E005C00197009781F1959908
:100F80002EC04091E20847FFF7CF8091E308D101DE
:100F90009C91911127C08130D1F121503109211547
:100FA000310519F781E0D1018C931CC08091E308D1
:100FB00086FF03C081E08093812ED1018C91811145
:100FC00011C08FEF8093E30889EE93E02091E2084F
:100FD00027FD73C20197009711F0959BF7CF81E031
:100FE000F10180830F900F90DF91CF911F910F91AE
:100FF000FF90EF90DF90CF90BF90AF909F908F9039
:101000007F906F905F904F903F902F900895810157
:1010100027E84AEA51E060E070E088E00E949B0324
:10102000F10180818111DECFC1010E946B03D101EA
:101030009C919111D7CF9FEF9093E30829EE33E075
:1010400007C0215031092115310549F29599C7CFC3
:101050009091E20897FFF5CF9091E308D1019C9120
:101060009111C0CF9FEF9093E30829EE33E008C0C1
:10107000215031092115310509F4B1CF9599AFCF30
:101080009091E20897FFF4CF9091E308D1019C91F1
:101090009111A8CF9FEF9093E30829EE33E008C0A9
:1010A000215031092115310509F499CF959997CF30
:1010B0009091E20897FFF4CF2091E30830E0D1014E
:1010C0009C9191118FCF9FEF9093E30849EE53E0ED
:1010D00008C0415051094115510509F480CF959937
:1010E0007ECF9091E20897FFF4CF9091E308322FE2
:1010F0002227292B3F70D1019C91911173CF813010
:1011000009F458C0CC24C39480E180934506959996
:1011100066CF80E6E82E8AEEF82E90E1D92E31C017
:10112000982F9E7F09F03ECF882309F452C0D092B9
:101130004506D0924606B2E0CB1609F445C040E021
:1011400050E0BA01810120E089E20E949B03F10195
:101150008081811147CFC1010E946B038823C9F1AF
:10116000D1019C9191113ECF8F3F59F1D09245060C
:10117000B1E0EB1AF108E114F10409F430CF9599CC
:101180002ECFD0924606810120E040E050E0BA0127
:1011900087E30E949B03D1018C91811123CFC10170
:1011A0000E946B03F101908191111CCF8F3F09F0D8
:1011B000B7CFF8CE2A3A314009F011CF22E0C22E43
:1011C000A3CF81E08C930ECF40E050E060E070E46C
:1011D000B9CF1092812EE2E0CE1609F424C180ED41
:1011E0008093E00880EB8093410688E18093560667
:1011F000D1018C918111F6CE910140E052E060E086
:1012000070E080E10E943904F10180818111EACE11
:10121000A10160E070E0CB010E946605D1018C91D4
:101220008111E0CE10927D2E10927E2E10927F2E94
:101230001092802E0091782E1091792E45E050E08A
:1012400067E270E2C801C6960E94F933892B61F00B
:1012500045E050E06DE270E2C8018E5A9F4F0E9457
:10126000F933892B09F002C1F801E250FE4F808169
:10127000853509F097CE319680818A3A09F092CE71
:10128000C8010E960E9483014C018091782E9091A6
:10129000792EFC0120892093912E41960E94830192
:1012A0005C018091782E9091792E43960E94830163
:1012B0003C018091782E9091792E46960E94830170
:1012C0008C018091782E9091792E80960E947D01DC
:1012D0006B017C018091782E9091792E84960E94EA
:1012E0007D012C018091782E9091792E0B96698347
:1012F0007A830E9483018093822E9093832EE091C3
:10130000782EF091792EE585E093842E69817A819B
:101310008115924009F046CE6114710419F0630101
:10132000E12CF12C0115110509F4C4C0980140E02D
:1013300050E020938D2E30938E2E40938F2E50931D
:10134000902E40907D2E50907E2E60907F2E70903B
:10135000802E480C591C611C711C4092852E5092A5
:10136000862E6092872E7092882EA091912EB0E0EA
:101370000E94EE336093892E70938A2E80938B2E79
:1013800090938C2E460E571E681E791E4092922E08
:101390005092932E6092942E7092952EC501880FD4
:1013A000991F82959295907F9827807F98278150EA
:1013B0009E4F892F99278695A0E0B0E08093962EC6
:1013C0009093972EA093982EB093992E480E591E65
:1013D0006A1E7B1E40929A2E50929B2E60929C2EEB
:1013E00070929D2EC701B601641975098609970987
:1013F0002E2F30E040E050E00E94BD33DA01C901F9
:10140000865F9F40A109B1098115904FA105B105E3
:1014100008F047C010929E2E81E080937C2E80E1E0
:1014200080934506DFCD810120E040E050E0BA0125
:101430008AE30E949B03F10180818111D3CDC10118
:101440000E946B03D1018C918111CCCD8FEF8093E1
:10145000E30889EE93E02091E20827FDA7CD0197EC
:10146000009709F4BCCD959BF6CFB9CDF801EA53AE
:10147000FE4F608171818281938160937D2E709394
:101480007E2E80937F2E9093802EA1010E94660570
:10149000F10180818111A6CD0091782E1091792ED5
:1014A000E3CE81E0263F3F4F41055105E0F08093B8
:1014B0009E2EB2CF9B01A2013CCF8091E308D101C7
:1014C0008C9181118FCD8FEF8093E30889EE93E0AB
:1014D0002091E20827FD0AC00197009709F47FCD0B
:1014E000959BF6CF7CCDD1018C937CCD8091E30888
:1014F000D1018C91811176CD8FEF8093E30889EE35
:1015000093E02091E20827FD07C00197009709F4B6
:1015100066CD959BF6CF63CD8091E308D1018C9188
:10152000882309F45CCE5ECDCF93DF931F92CDB7B5
:10153000DEB7811102C0959B2DC080917C2E811158
:1015400029C0198283E390E20E946B2484EF91E02A
:101550009C0121503109892B31F0C901959BF8CFAD
:1015600083EF91E0FBCFF894CE0101960E94320701
:10157000789489818111E1CF60E080E00E94A82306
:1015800068E084E490E20E94B52381E00F90DF914F
:10159000CF91089580E00F90DF91CF9108952F9221
:1015A0003F924F925F926F927F928F929F92AF92F3
:1015B000BF92CF92DF92EF92FF921F93CF93DF9370
:1015C000CDB7DEB72E97CDBFDEBF1C016B877C8702
:1015D000FC01E25FFE4F80819181A281B381209165
:1015E000822E3091832E29873A878090842E109105
:1015F0009E2EE950F14020E030E0E984FA840EC0EC
:1016000047EF5FEF60E070E0419351936193719316
:101610002C5F3F4F211541E0340711F1959907C028
:10162000112371F347EF5FEF6FEF7FE0EDCF81E0C4
:10163000AB85BC858C932E96CDBFDEBFDF91CF915D
:101640001F91FF90EF90DF90CF90BF90AF909F9051
:101650008F907F906F905F904F903F902F90089564
:10166000E986FA862701612C712C912CA12CB12CD2
:1016700075016401E1E0CE1AD108E108F108BC016E
:10168000CD016150710981099109A3019201620F95
:10169000731F841F951F0E94BD33C20ED31EE41E0C
:1016A000F51EC701B601A50194010E94BD33D10109
:1016B0001196CD90DD90ED90FC901497F101C582CC
:1016C000D682E782F086EB5FFE4FC082D182E28253
:1016D000F38234961082118212821382DA01C901D8
:1016E0000197A109B1098D839E83AF83B887892BA8
:1016F0008A2B8B2B09F49FCF959999CFDA01C901D9
:10170000CF96A11DB11D26E0B695A7959795879513
:101710002A95D1F789839A83AB83BC8389859A857F
:1017200021E030E040E050E0412C512C3201812C8E
:10173000912C54018D879E8729863A862B843C8480
:1017400069C0660F771F881F991F660F771F881F54
:10175000991FED85FE859F0140E050E00E94BD335A
:101760002091782E3091792E260F371FC9010E94C3
:101770007D016B017C01FFE0FF22FFEF8F1A9F0AC2
:10178000AF0ABF0AC501B40129813A814B815C814E
:101790000E94BD33672B682B692B69F4F901EE0FAA
:1017A000FF1FEE0FFF1F29853A85E20FF31FC58249
:1017B000D682E782F08610919E2E112309F475C01F
:1017C00037EFC3163FEFD306E3063FE0F30608F01A
:1017D00032CF24E030E040E050E08091822E9091C2
:1017E000832E8D879E87C701B6010E94AD33AD85DC
:1017F000BE859D0140E050E00E94BD338D819E81F9
:10180000AF81B88588169906AA06BB0608F013CFE3
:1018100095990DCF421653066406750651F11111C4
:1018200051C022E030E040E050E0C701B6010E9424
:10183000AD33ED85FE859F0140E050E00E94BD3351
:1018400029013A016091852E7091862E8091872E14
:101850009091882E620F731F841F951FA1010E9413
:10186000660510919E2EE091822EF091832EED87D9
:10187000FE87C701B601111164CF660F771F881F5D
:10188000991FED85FE859F0140E050E00E94BD3329
:101890002091782E3091792E260F371FC9010E9492
:1018A00083016C01E12CF12C68CF47EFC4164FEF98
:1018B000D406E104F10408F0BECE22E030E040E0BE
:1018C00050E08BCF24E030E040E050E0AECF2F92EC
:1018D0003F924F925F926F927F928F929F92AF92C0
:1018E000BF92CF92DF92EF92FF920F931F93CF930D
:1018F000DF93CDB7DEB7E597CDBFDEBF8A8B9B8B7D
:10190000298F3A8F0F8B188FEC8AFD8A21E02DA347
:10191000411551056105710509F4AEC11DA2309153
:10192000842E3E8B49A35AA36BA37CA39A01AB01DF
:1019300022503109410951098E89A82FB0E00E9437
:10194000EE332B013C0180919A2E90919B2EA09119
:101950009C2EB0919D2E480E591E6A1E7B1EAA8990
:10196000BB891C921CA61B8E1C8E1DA61EA61EA229
:101970001FA218A619A61D8E1E8E1F8E18A2AA5E63
:10198000BE4FAFA7B8ABEA89FB89E25EFE4FE9AB79
:10199000FAAB2A893B892F5D3E4F2BAB3CAB3E898E
:1019A000332309F4CEC068E0362E232E4E865F86A0
:1019B000688A798A4C895D896E857F85888999894D
:1019C0000E946605C12CD12C76010CC030E2C30EFA
:1019D000D11CE11CF11CC11442E0D406E104F10465
:1019E00009F49FC0460195992DC10091782E109160
:1019F000792EC8018C0D9D1DFC01DE011196232D51
:101A000001900D922A95E1F719862981222309F484
:101A100076C12E32D9F2253EC9F2FC0123852F3042
:101A2000A9F2283099F2822F8E7081F6F801EC0D20
:101A3000FD1D80859185A2858A879B87AC871D8641
:101A400043E050E06F89788DCE010A962DAB0E945D
:101A5000F9335C01C6014696800F911F0E948301F5
:101A60008AA79BA7F8E18F0E911C8091782E909108
:101A7000792E880D991D0E9483018C012DA94F8913
:101A8000588D452B19F0AB2809F0A0CF898D9A8D80
:101A9000009761F048E050E0BE016F5F7F4F2DABD3
:101AA0000E94F9332DA9892B09F090CFAB8DBC8D05
:101AB000A017B10760F0A017B10709F087CFEAA51A
:101AC000FBA54DA55EA5E417F50708F47FCF229589
:101AD00021702CA7FE013196AFA5B8A9832D0190E6
:101AE0000D928A95E1F78A859B85AC85E9A9FAA9CB
:101AF00080839183A283ABA9BCA91C920B8F1C8FFE
:101B00002AA53BA52DA73EA7CEA2DFA2E8A6F9A64F
:101B10002E853F85488959892D8F3E8F4F8F58A339
:101B200055CF2E853F85488959892F5F3F4F4F4FAD
:101B30005F4F2E873F87488B598B822F84198211E4
:101B400039CF3DA1332309F452C180919E2E8823C1
:101B500009F4D5C0C090852ED090862EE090872EB7
:101B6000F090882E24E030E040E050E069A17AA1B6
:101B70008BA19CA10E94AD332091822E3091832EA7
:101B800040E050E00E94BD33CA01B9016C0D7D1DDB
:101B90008E1D9F1D4C895D890E94660580919E2E39
:101BA000882309F435C169A17AA18BA19CA1660F94
:101BB000771F881F991F660F771F881F991F209115
:101BC000822E3091832E40E050E00E94BD33209160
:101BD000782E3091792E260F371FC9010E947D0182
:101BE000DC01CB01BF7089A39AA3ABA3BCA38091F6
:101BF0009E2E882309F45BC089A19AA1ABA1BCA148
:101C0000873F9F4FAF4FBF4008F079C0A091842E0F
:101C1000B0E029A13AA14BA15CA1225031094109B0
:101C200051090E94EE332B013C0180919A2E909134
:101C30009B2EA0919C2EB0919D2E480E591E6A1E7F
:101C40007B1EADCE81E0AC89BD898C93E596CDBF7E
:101C5000DEBFDF91CF911F910F91FF90EF90DF904A
:101C6000CF90BF90AF909F908F907F906F905F903C
:101C70004F903F902F90089580919E2E811113C018
:101C800090E49E8B4090922E5090932E6090942ED4
:101C90007090952E22E030E040E050E029A33AA376
:101CA0004BA35CA35CCE3091842E3E8BEBCF29A15D
:101CB0003AA14BA15CA1273F3F4F41055105F8F4E4
:101CC000A091842EB0E029A13AA14BA15CA12250A1
:101CD0003109410951090E94EE332B013C018091E9
:101CE0009A2E90919B2EA0919C2EB0919D2E480EE5
:101CF000591E6A1E7B1E4DA1442309F450CE2D8D22
:101D00003E8D4F8D58A1232B242B252B29F481E0C8
:101D1000EC89FD8980839ACF4C895D896D8D7E8D9C
:101D20008F8D98A10E9466058EA19FA14C9620914F
:101D3000782E3091792E820F931F0E947D01EA89BF
:101D4000FB89E25FFE4F60837183828393838EA160
:101D50009FA14A962091782E3091792E820F931F61
:101D60000E9483018C018EA19FA144962091782E20
:101D70003091792E820F931F0E948301A0E0B0E082
:101D8000DC0199278827800F911FA11DB11DEA89C9
:101D9000FB8981839283A383B483DF01A35FBE4F5A
:101DA000E091782EF091792E2EA13FA1E20FF31F42
:101DB000838581708C93EA89FB89EE5EFE4F3CA59A
:101DC000832F90E0A0E0B0E080839183A283B3836F
:101DD0006C897D898A899B890E94CF0A81E0AA89C2
:101DE000BB898C93FD01EE5DFE4F10822FCFC0901A
:101DF000852ED090862EE090872EF090882E8091B0
:101E00009E2E8111AFCE22E030E040E050E0AECE19
:101E100069A17AA18BA19CA1660F771F881F991FCA
:101E20002091822E3091832E40E050E00E94BD33FD
:101E30002091782E3091792E260F371FC9010E94EC
:101E400083019C0140E050E029A33AA34BA35CA38B
:101E5000CECE8F929F92AF92BF92CF92DF92EF92AF
:101E6000FF920F931F93CF93DF936C01EB015A0105
:101E700040E050E0BA014C018EEE881A8EEF980ACD
:101E80000FC02B96F6014181528163817481F40168
:101E900080819181A281B381892B8A2B8B2B61F068
:101EA00075018E01085F1F4F9E01C6010E94670CDD
:101EB000F5018081882329F3DF91CF911F910F9144
:101EC000FF90EF90DF90CF90BF90AF909F908F905A
:101ED00008958F929F92AF92BF92CF92DF92EF922E
:101EE000FF920F931F93CF93DF93EC014B015A01A5
:101EF0006901A701688179818A819B810E946605B9
:101F00008114910471F0E091782EF091792E8C81FA
:101F10009D81E80FF91F88E0D40101900D928A9508
:101F2000E1F7A114B10479F08C819D81E091782EC4
:101F3000F091792EE80FF91F80859185A285F50132
:101F400080839183A283C114D10459F0E091782E4B
:101F5000F091792E8C819D81E80FF91F8385F60120
:101F600080830115110531F18C819D814A96209164
:101F7000782E3091792E820F931F0E9483016C017D
:101F80008C819D8144962091782E3091792E820FFC
:101F9000931F0E948301AC0160E070E0BA015527F5
:101FA00044274C0D5D1D611D711DF8014083518357
:101FB00062837383DF91CF911F910F91FF90EF9018
:101FC000DF90CF90BF90AF909F908F9008952F9209
:101FD0003F924F925F926F927F928F929F92AF92B9
:101FE000BF92CF92DF92EF92FF920F931F93CF9306
:101FF000DF93CDB7DEB7AF97CDBFDEBF4E8F5F8F1C
:1020000019010AA71BA7EE24E39461157105810548
:10201000910509F472C1E12CE091842E6CA37DA39B
:102020008EA39FA39B01AC012250310941095109A4
:10203000AE2FB0E00E94EE332B013C0180919A2E2E
:1020400090919B2EA0919C2EB0919D2E480E591ED2
:102050006A1E7B1E2E2F30E028A739A7AE8DBF8DBC
:102060001D921D921D921C92139714961D921C9204
:102070001597AA24A394B12C0E2D410128A539A5AA
:10208000232B09F482C04CA65DA66EA67FA648A2AB
:1020900059A26AA27BA22AA43BA4A10168A179A1AA
:1020A0008AA19BA10E946605E12CF12C48A059A0B1
:1020B0006AA07BA095991AC1E091782EF091792EB3
:1020C000EE0DFF1D80819181882309F465C0853E56
:1020D000E9F18E3209F401C11385812F8E70B1F5BB
:1020E00080859185A28589839A83AB83F401808161
:1020F000882309F4F6C0640108C0F3E0CF0ED11CB8
:10210000D6018C91882309F4ECC043E050E0B6017D
:10211000CE0101960E94F933892B79F7B4EBAB1607
:10212000B104A0F4F501EE0FFF1FEA0DFB1DEE0F49
:10213000FF1F2E8D3F8DE20FF31F4082518262827E
:1021400073823FEFA31AB30AE482F58240E2E40E01
:10215000F11CE11452E0F50609F0ACCF28A139A139
:102160004AA15BA12F5F3F4F4F4F5F4F28A339A379
:102170004AA35BA3C9014CA55DA5841B950BA8A52B
:10218000B9A58A179B0709F088CF002309F44CC131
:1021900080919E2E8111D1C0A8A2B9A248A059A0B9
:1021A000212C86E0382E42E04416510408F47BC00E
:1021B0009201220F331F440C551C440C551C440C37
:1021C000551C240D351DA5ECBEE40E94DF332C0107
:1021D000569447945694479468A079A0641875085B
:1021E00009F482C0AE8CBF8C6201CC0CDD1CC40C27
:1021F000D51CCC0CDD1CCA0CDB1C212C812C912C99
:102200001D8EDE015D967D0100E010E020E030E0F3
:10221000AE014C5E5F4FBE01645F7F4FC5010E94FF
:10222000690F20E030E0AE014C5E5F4FBE016F5F92
:102230007F4FC6010E94690F4BE050E0BE016F5F07
:102240007F4FCE010C960E94F93318161906CCF474
:10225000F501DE015796832D01900D928A95E1F7E5
:10226000F601D501832D01900D928A95E1F7FE01CB
:102270007796D601832D01900D928A95E1F722245D
:102280002394FFEF8F1A9F0A26E0A20EB11C36E0BE
:10229000C30ED11C8614970409F0B2CF42E0441655
:1022A000510408F085CF211097CF88A199A1AF964E
:1022B000CDBFDEBFDF91CF911F910F91FF90EF90C7
:1022C000DF90CF90BF90AF909F908F907F906F9056
:1022D0005F904F903F902F9008959E3209F036CF37
:1022E000FBCE14FD1BCF32CF212C5DCF81E0AAA500
:1022F000BBA58C9380E090E0DACF80919E2E811177
:1023000015C040E450E048A759A74090922E509045
:10231000932E6090942E7090952E82E090E0A0E035
:10232000B0E08CA39DA3AEA3BFA398CE8091842ED2
:10233000A82FB0E0A8A7B9A7E8CFC090852ED0906D
:10234000862EE090872EF090882E24E030E040E04A
:1023500050E06CA17DA18EA19FA10E94AD33209180
:10236000822E3091832E40E050E00E94BD33CA019E
:10237000B9016C0D7D1D8E1D9F1D4AA55BA50E9498
:10238000660580919E2E882309F488C06CA17DA1EA
:102390008EA19FA1660F771F881F991F660F771F59
:1023A000881F991F2091822E3091832E40E050E0AB
:1023B0000E94BD332091782E3091792E260F371F41
:1023C000C9010E947D019B01AC015F702CA33DA35C
:1023D0004EA35FA380919E2E8823B9F18CA19DA16D
:1023E000AEA1BFA1873F9F4FAF4FBF4008F0D4CEF3
:1023F000A091842EB0E02CA13DA14EA15FA122505E
:102400003109410951090E94EE332B013C018091B1
:102410009A2E90919B2EA0919C2EB0919D2E480EAD
:10242000591E6A1E7B1E2ACEC090852ED090862E05
:10243000E090872EF090882E80919E2E811185CF7E
:1024400022E030E040E050E084CF2CA13DA14EA13D
:102450005FA1273F3F4F4105510508F09DCEA09158
:10246000842EB0E02CA13DA14EA15FA122503109E4
:10247000410951090E94EE332B013C0180919A2EB3
:1024800090919B2EA0919C2EB0919D2E480E591E8E
:102490006A1E7B1E002309F4F1CD7ECE6CA17DA1C6
:1024A0008EA19FA1660F771F881F991F2091822EF2
:1024B0003091832E40E050E00E94BD332091782E71
:1024C0003091792E260F371FC9010E9483019C018C
:1024D00040E050E02CA33DA34EA35FA37BCF2F92FF
:1024E0003F924F925F926F927F928F929F92AF92A4
:1024F000BF92CF92DF92EF92FF920F931F93CF93F1
:10250000DF93CDB7DEB72697CDBFDEBF5C01698311
:102510007A83C801B701CB82DC82215C3F4F4F4FE9
:102520005F4F16E056954795379527951A95D1F741
:10253000442755270E94BD332B013C01220F331F36
:10254000220F331FA20EB31EF5013581268197811C
:102550008085E981FA8130832183928383834114CA
:1025600051046104710409F4C0C09599DEC0109152
:102570009E2EE091822EF091832EC32ED22EE92E34
:10258000F82E21E030E040E050E0812C912C540105
:10259000212C312C51C0660F771F881F991F660FA1
:1025A000771F881F991F9F0140E050E00E94BD33B4
:1025B0002091782E3091792E260F371FC9010E9465
:1025C0007D019F70E981FA816083718382839383A7
:1025D000673FFFEF7F078F07FFE09F0708F085C089
:1025E0006B017C0110919E2E112309F494C024E00C
:1025F00030E040E050E08091822E9091832E8D83D8
:102600009E83C701B6010E94AD33ED81FE819F011B
:1026100040E050E00E94BD33FFEF2F1A3F0AC10196
:10262000A0E0B0E084159505A605B70508F05DC0EB
:1026300095997BC0ED81FE8182169306A406B506AE
:1026400069F111116DC022E030E040E050E0C701B7
:10265000B6010E94AD339F0140E050E00E94BD33BF
:1026600049015A016091852E7091862E8091872EA6
:102670009091882E620F731F841F951F4B815C8180
:102680000E94660510919E2EE981FA81C080D1805A
:10269000E280F380E091822EF091832EC701B60193
:1026A000111179CF660F771F881F991F9F0140E096
:1026B00050E00E94BD332091782E3091792E260F64
:1026C000371FC9010E9483016C01E12CF12CE981C3
:1026D000FA81C082D182E282F382F7EFCF16FFEF58
:1026E000DF06E104F10408F47DCF2696CDBFDEBFFE
:1026F000DF91CF911F910F91FF90EF90DF90CF90DE
:10270000BF90AF909F908F907F906F905F904F9011
:102710003F902F90089522E030E040E050E06BCFF2
:1027200024E030E040E050E092CF81E0EB81FC819A
:102730008083DBCF2F923F924F925F926F927F9276
:102740008F929F92AF92BF92CF92DF92EF92FF92C1
:102750000F931F93CF93DF9300D000D0CDB7DEB798
:102760001A0169014090842E512C612C712CA30117
:1027700092010E94BD3379018A01F101E75FFE4FAA
:1027800080819181A281B38182179307A407B50745
:10279000D9F120833183428353832091822E30915B
:1027A000832E40E050E05301420181E0881A9108F5
:1027B000A108B10835966081718182819381615051
:1027C000710981099109620F731F841F951F0E946F
:1027D000BD33820E931EA41EB51EC501B401A30114
:1027E00092010E94BD33BE016F5F7F4FC1010E9405
:1027F0006F12F101EB5FFE4F89819A81AB81BC8141
:1028000080839183A283B3832496CDBFDEBFDF9103
:10281000CF911F910F91FF90EF90DF90CF90BF90DD
:10282000AF909F908F907F906F905F904F903F9070
:102830002F9008954F925F926F927F928F929F9206
:10284000AF92BF92CF92DF92EF92FF92CF93DF933E
:102850007C014A015B01E901FC018081811111C009
:1028600081E08883DF91CF91FF90EF90DF90CF9050
:10287000BF90AF909F908F907F906F905F904F90A0
:102880000895A701C501B4010E949A134090842EB7
:10289000512C612C712CF701EB5FFE4F608171812F
:1028A000828193816250710981099109A30192018A
:1028B0000E94AD336B017C0180919A2E90919B2EEA
:1028C000A0919C2EB0919D2EC80ED91EEA1EFB1E13
:1028D000C501B4010E94BD33C60ED71EE81EF91E05
:1028E00080E1809346068091812E882399F0C7016C
:1028F000B601AE01DF91CF91FF90EF90DF90CF90C6
:10290000BF90AF909F908F907F906F905F904F900F
:102910000C94F404C701B60129E0660F771F881FE5
:10292000991F2A95D1F7E5CF0C943005CF93DF930B
:10293000E901FC012081211105C081E08883DF913C
:10294000CF9108959E010E941A1460E070E09FEFFD
:1029500021E0E091782EF091792EE60FF71F909309
:10296000E30849EE53E007C04150510941155105B4
:10297000A1F0959912C08091E20887FFF5CF809170
:10298000E30880836F5F7F4F6115F2E07F0709F7EF
:10299000CE01DF91CF910C943005288380E0F1CFF8
:1029A0004F925F926F927F928F929F92AF92BF925F
:1029B000CF92DF92EF92FF920F931F93CF93DF930B
:1029C000EC014A015B0189018881811114C081E019
:1029D000F9018083DF91CF911F910F91FF90EF90CC
:1029E000DF90CF90BF90AF909F908F907F906F902F
:1029F0005F904F900895AE01C501B4010E949A13F3
:102A00004090842E512C612C712CFE01EB5FFE4F07
:102A1000608171818281938162507109810991097C
:102A2000A30192010E94AD336B017C0180919A2E2B
:102A300090919B2EA0919C2EB0919D2EC80ED91ED8
:102A4000EA1EFB1EC501B4010E94BD33C60ED71E8F
:102A5000E81EF91EA801C701B6010E94B605F801DB
:102A600080818111B7CFCE5DDE4F81E08883B2CF08
:102A70000C94FE052F923F924F925F926F927F923D
:102A80008F929F92AF92BF92CF92DF92EF92FF927E
:102A90000F931F93CF93DF93CDB7DEB7A097CDBF32
:102AA000DEBF6F87788B898B9A8B4F8B588F298FDE
:102AB0003A8FEB8EFC8E0D8F1E8FCF8EA8A2140145
:102AC000A2E04A2E512C612C712CBB24B3941B8A9A
:102AD0001C8A1D8A1E8AE0909E2EED860091822E11
:102AE0001091832E49865A866B867C867B2CFD84CA
:102AF000FF2009F461C124E030E040E050E06801CB
:102B0000E12CF12C69857A858B859C850E94AD33FB
:102B1000A70196010E94BD33672B682B692B11F426
:102B200077247394959909C20B8D1C8D2D8D3E8D44
:102B30008B899C89AD89BE8980179107A207B3074D
:102B400008F047C1772019F14090852E5090862ECD
:102B50006090872E7090882E0D85002309F4E8C1BF
:102B600024E030E040E050E069857A858B859C85E3
:102B70000E94AD33A70196010E94BD33CA01B9017D
:102B8000640D751D861D971DA1010E946605D1016A
:102B90008C918111AEC180919E2E2091822E309118
:102BA000832E40E050E0882309F475C169857A8559
:102BB0008B859C85660F771F881F991F660F771F6F
:102BC000881F991F0E94BD332091782E3091792E55
:102BD000260F371FC9010E947D019F702B893C89F8
:102BE0004D895E89EB8CFC8C0D8D1E8D2E153F055D
:102BF0004007510709F412C1672B682B692B09F0B4
:102C0000F8C029853A852D873E8738A1332309F4FA
:102C10004AC0A091842EAA2309F445C049845A844D
:102C20006B847C8442E0441A51086108710800E01A
:102C300011E0C0909A2ED0909B2EE0909C2EF090A8
:102C40009D2EC00ED11CE11CF11CB0E0A30192012D
:102C50000E94EE33C60ED71EE81EF91EA101C70161
:102C6000B6010E94B60520E032E0F1011092E308BF
:102C700089EE93E006C00197009709F4A2C09599E8
:102C8000A0C04091E20847FFF6CF2150310921153D
:102C9000310561F71F01CF010E94FE050F5FA09172
:102CA000842E0A1730F28B899C89AD89BE890196E2
:102CB000A11DB11D8B8B9C8BAD8BBE8BAD85BE8555
:102CC000AF83B887710102E010E09E01295F3F4F9A
:102CD000498D5A8D6F85788989899A890E9439062C
:102CE000F1018081811105C180919E2E8111EAC080
:102CF000FF8DFF2329F08091912E823009F493C03B
:102D00008090852E9090862EA090872EB090882E51
:102D1000E0909E2EED86EE2009F4B4C049845A84DA
:102D20006B847C84440C551C661C771C440C551C1D
:102D3000661C771C0091822E1091832E6801E12C75
:102D4000F12CC301B201A70196010E94BD33280DE9
:102D5000391D4A1D5B1D2F87388B498B5A8BC30148
:102D6000B201A70196010E94BD33698F7A8FFB01E2
:102D70003296EF8BF88F29853A854B855C852F5FDE
:102D80003F4F4F4F5F4F29873A874B875C878B8D2B
:102D90009C8DAD8DBE8D2B893C894D895E898217B6
:102DA0009307A407B50708F4A4C07724739431E00F
:102DB0003F8FFD84F1109FCE22E030E040E050E0F4
:102DC0009ECE1083215031092115310509F04ECFD7
:102DD00061CFED84E110A3C00FEF1FEF20E030E0E2
:102DE00009871A872B873C87AFEFBFEFAD87BE8778
:102DF0005ACF09851A852B853C850F5F1F4F2F4FB2
:102E00003F4F09871A872B873C87712C10919E2E84
:102E10001D870091822E1091832E69CE09851A8517
:102E20000D871E8740CF60918D2E70918E2E8091E0
:102E30008F2E9091902E0F85188929893A89600FDD
:102E4000711F821F931F2D853E852B833C8371014B
:102E500002E010E09E012D5F3F4F498D5A8D0E9488
:102E60003906D1018C91811144C0E0909E2EED86EF
:102E7000E11067C08090852E9090862EA090872EBE
:102E8000B090882E49845A846B847C84440C551CF1
:102E9000661C771C4FCF69857A858B859C85660F6C
:102EA000771F881F991F0E94BD332091782E309183
:102EB000792E260F371FC9010E948301BC0180E0D3
:102EC00090E08CCEEB84FC84ED82FE82710102E006
:102ED00010E09E012B5F3F4F4F89588D6F85788999
:102EE00089899A890E943906D1018C91882309F435
:102EF000FFCEA096CDBFDEBFDF91CF911F910F9186
:102F0000FF90EF90DF90CF90BF90AF909F908F9009
:102F10007F906F905F904F903F902F9008958FEF2C
:102F20009FEFAFEFBFE089879A87AB87BC875CCF05
:102F300022E030E040E050E017CE81E0D1018C93F8
:102F4000D8CF60918D2E70918E2E80918F2E909182
:102F5000902E0F85188929893A89600F711F821F69
:102F6000931F2B853C8529833A83710102E010E091
:102F70009E012F5F3F4F4F89588D0E943906D10126
:102F80008C91882309F4BCCEB4CF2F923F924F92FC
:102F90005F926F927F928F929F92AF92BF92CF92E9
:102FA000DF92EF92FF920F931F93CF93DF93CDB7F2
:102FB000DEB7AF97CDBFDEBF4CA75DA708A719A7A7
:102FC0002AA73BA7E9A2FAA221E02FA36115710568
:102FD0008105910509F479C11FA2B090842E6BA3DD
:102FE0007CA38DA39EA39B01AC0122503109410912
:102FF0005109AB2DB0E00E94EE336B017C01809152
:103000009A2E90919B2EA0919C2EB0919D2EC80E31
:10301000D91EEA1EFB1E4091822E5091832E4EA790
:103020005FA726013701DB2C29A03AA0DD2051F152
:1030300053014201A101C501B4010E946605E0915E
:10304000782EF091792E3B9680E090E0959923C1FF
:10305000DF011B972C913081253E11F0211103C017
:103060003F3009F04CC18096B0968115B2E09B07C5
:1030700069F7EFEF8E1A9E0AAE0ABE0A882D8419F0
:103080008D11D8CF5FA1552309F4ACC180919E2E3C
:10309000882309F400C18090852E9090862EA09000
:1030A000872EB090882E24E030E040E050E06BA105
:1030B0007CA18DA19EA10E94AD332091822E3091E2
:1030C000832E40E050E00E94BD33CA01B901680D73
:1030D000791D8A1D9B1DA1010E94660580919E2E6F
:1030E000882309F490C18BA09CA0ADA0BEA0880C41
:1030F000991CAA1CBB1C880C991CAA1CBB1C2091E7
:10310000822E3091832E40E050E0C501B4010E9430
:10311000BD332091782E3091792E260F371FC901AB
:103120000E947D019F7020919E2E211192C1673FC8
:103130002FEF72078105910508F486C18BA09CA032
:10314000ADA0BEA0880C991CAA1CBB1CE090822ECE
:10315000F090832E00E010E0C501B401A8019701B2
:103160000E94BD3329013A018091852E9091862ECF
:10317000A091872EB091882E480E591E6A1E7B1E84
:10318000C501B401A80197010E94BD33AB014E5F98
:103190005F4F4101AA24A394CC24C394E12CF12CC9
:1031A0008701E3949B01C301B2010E943A1580900C
:1031B000852E9090862EA090872EB090882E80919C
:1031C0009E2E882309F44EC124E030E040E050E018
:1031D0006BA17CA18DA19EA10E94AD332091822E76
:1031E0003091832E40E050E00E94BD33CA01B90106
:1031F000680D791D8A1D9B1DA1010E9466058091A5
:103200009E2E882309F433C16BA17CA18DA19EA1C0
:10321000660F771F881F991F660F771F881F991FDA
:103220002091822E3091832E40E050E00E94BD33E9
:103230002091782E3091792E260F371FC9010E94D8
:103240007D01DC01CB01BF708BA39CA3ADA3BEA30A
:10325000A091842EB0E02BA13CA14DA15EA12250F3
:103260003109410951090E94EE332B013C01809143
:103270009A2E90919B2EA0919C2EB0919D2E480E3F
:10328000591E6A1E7B1E3FA1332309F4CFCE8091C5
:103290009E2E8111CBCE81E0A9A1BAA18C93AF96CD
:1032A000CDBFDEBFDF91CF911F910F91FF90EF90C7
:1032B000DF90CF90BF90AF909F908F907F906F9056
:1032C0005F904F903F902F90089580919E2E811196
:1032D00013C0A0E4BA2EC090922ED090932EE0900E
:1032E000942EF090952E82E090E0A0E0B0E08BA3C9
:1032F0009CA3ADA3BEA38FCEB090842EECCF2401AF
:1033000035011C018090842EFE013196CE018196FC
:103310001192E817F907E1F78BE0ECA5FDA5DE01B6
:10332000119601900D928A95E1F788A599A5AAA515
:10333000BBA58D8F9E8FAF8FB8A3E9A0FAA000E246
:1033400010E09E012F5F3F4FA101C301B2010E9417
:103350003906A9A1BAA18C918111A1CF4EA55FA573
:103360009A0140E050E02BA33CA34DA35EA3912C17
:10337000A12CB12C7501640151E0C51AD108E108F6
:10338000F1086BA17CA18DA19EA1615071098109F9
:10339000910928A539A54AA55BA5620F731F841F53
:1033A000951F2BA13CA14DA15EA10E94BD33C20E71
:1033B000D31EE41EF51EC701B601A50194010E94AB
:1033C000BD3379018A019101265E3F4FA1014C5E18
:1033D0005F4F89A09AA0A12CC12CC301B2010E9409
:1033E0003A155DCF8090852E9090862EA090872EE6
:1033F000B090882E80919E2E811155CE22E030E033
:1034000040E050E054CE2091822E3091832E40E057
:1034100050E06BA17CA18DA19EA1660F771F881F34
:10342000991F0E94BD332091782E3091792E260F5E
:10343000371FC9010E948301BC0180E090E0209108
:103440009E2E222309F473CE6BA37CA38DA39EA38F
:10345000FFCE673FFFEF7F078F07FFE09F0708F072
:1034600075CEF2CF22E030E040E050E0B1CE6BA16B
:103470007CA18DA19EA1660F771F881F991F2091A7
:10348000822E3091832E40E050E00E94BD33209187
:10349000782E3091792E260F371FC9010E948301A3
:1034A0009C0140E050E02BA33CA34DA35EA3D0CEF3
:1034B0004F925F926F927F928F929F92AF92BF9244
:1034C000CF92DF92EF92FF920F931F93CF93DF93F0
:1034D0005C01EB0129013A01680160E070E0CB0179
:1034E00045012EEE821A2EEF920A1CC08E01085F53
:1034F0001F4F9E01AB01BC01C5010E94670CF60184
:103500008081811118C02B96F501618172818381C0
:103510009481F4010081118122813381012B022BDE
:10352000032BD1F02B8576012111E0CF930182018D
:10353000AE010E94C517DF91CF911F910F91FF90AF
:10354000EF90DF90CF90BF90AF909F908F907F9043
:103550006F905F904F90089581E0F6018083EBCFEC
:10356000FC018385882321F03B9683858111FCCF64
:10357000DB012D913D914C91208731874287089541
:10358000ECE4F1E222E238E2CF01825A9E4F11923E
:10359000E817F907E1F72E173F07B1F7E5EBFEE271
:1035A000A7EABEE28FEF81938D939EE2EA3BF90793
:1035B000D1F70895E0E6F6E041E041878289826034
:1035C000828B84E08287E0E0F8E08DE790E086A3DC
:1035D00097A34083168296E49093A52E8EEF809356
:1035E000A12E9093A62E8093A22E1092AF2E109211
:1035F000B42E40939F2E1092A02E1092B02E1092B7
:10360000B32E1092AE2E1092BA2E5091BA2E2EE5F5
:1036100031E0529FC001539F900D1124845B9E4D59
:103620008093AC2E9093AD2E80E59BE28093B12EDB
:103630009093B22E4093A32E0C94C01A959913C068
:10364000D69912C0A0E082B38F709091472189175C
:1036500051F080934721883061F1843061F18230EC
:1036600039F0813051F10895D599FDCFA1E0EBCF2C
:1036700026E0B0E0AB55B14D9C91290F822F8770A9
:103680008695E82FF0E0E45FFD4F849120FF82955E
:103690008F70282F2870E82F09F0E86FE90FE53CBC
:1036A00028F4EC3808F0EBE8EC930895E0E0EC93B4
:1036B000089522E0DECF24E0DCCF20E0DACFDF92F5
:1036C000EF92FF920F931F93CF93DF931F92CDB78B
:1036D000DEB7D82EE62EF42E1982462F50E020E1D8
:1036E000F29E400D511D11242091AF2E83E291E0F6
:1036F000289FF001299FF00D1124E65FF64D3097C9
:1037000009F424C160E070E09E012F5F3F4FCF01BC
:103710000E94D01406E110E0BE016F5F7F4F8FEF73
:103720000E9420030150110901151105A9F7BE01DE
:103730006F5F7F4F83E00E942003BE016F5F7F4F6A
:103740008CEF0E942003BE016F5F7F4F8FEF0E94BE
:103750002003BE016F5F7F4F8FE30E942003BE01F5
:103760006F5F7F4F8FEC0E942003BE016F5F7F4F22
:1037700083EF0E942003BE016F5F7F4F8CEF0E949A
:103780002003BE016F5F7F4F8FEF0E942003BE01B9
:103790006F5F7F4F8FE30E942003BE016F5F7F4FFB
:1037A0008FEC0E942003BE016F5F7F4F83EF0E946A
:1037B0002003BE016F5F7F4F8CEF0E942003BE018C
:1037C0006F5F7F4F85ED0E942003BE016F5F7F4FCB
:1037D0008AEA0E942003BE016F5F7F4F86E90E9444
:1037E0002003E091AF2EF0E0EF55F14D80818695FA
:1037F000BE016F5F7F4F8A6A0E942003E091AF2E67
:10380000F0E0EF55F14D8081BE016F5F7F4F8A6A16
:103810000E9420038F2D8695BE016F5F7F4F8A6ABD
:103820000E942003BE016F5F7F4F8F2D8A6A0E9426
:1038300020038E2D8695BE016F5F7F4F8A6A0E949E
:103840002003BE016F5F7F4F8E2D8A6A0E94200386
:10385000E091AF2EF0E0EF55F14D10811E251F25B0
:10386000812F8695BE016F5F7F4F8A6A0E94200379
:10387000BE016F5F7F4F812F8A6A0E942003BE01C5
:103880006F5F7F4F8EED0E942003BE016F5F7F4F01
:103890008AEA0E942003BE016F5F7F4F8BEE0E9479
:1038A0002003BE016F5F7F4F8FEF0E942003BE0198
:1038B0006F5F7F4F8FEF0E942003BE016F5F7F4FCE
:1038C0008FEF0E942003BE016F5F7F4F8FEF0E943A
:1038D0002003BE016F5F7F4F8FEF0E9420032EE514
:1038E00031E0D29EC001D39E900D11248C01045B67
:1038F0001E4DFC01E755FD4D7F01BE016F5F7F4FFF
:10390000F80181918F010E9420030E151F05A9F770
:103910000EE010E0BE016F5F7F4F8FEF0E9420032B
:103920000150110901151105A9F700E610E0BE01CB
:103930006F5F7F4F80E00E94200301501109011545
:103940001105A9F7CE0101960E9438150F90DF915D
:10395000CF911F910F91FF90EF90DF9008959F926C
:10396000AF92BF92CF92DF92EF92FF920F931F938D
:10397000CF93DF9397EAA92E9EE2B92E2CEAC22EAE
:103980002EE2D22EF50181918F3F81F48EE2EC3A46
:10399000F807C9F7DF91CF911F910F91FF90EF903A
:1039A000DF90CF90BF90AF909F90089585EBE82E69
:1039B0008EE2F82E0EE411E2C7EADEE299249A9430
:1039C0008C2F8A1968816F3F21F0F70140810E9496
:1039D0005F1B9992F70191927F01F8011082025AC0
:1039E0001E4FCC16DD0661F71092BA2E4091BA2E0A
:1039F0002EE531E0429FC001439F900D1124845B6E
:103A00009E4D8093AC2E9093AD2EC4CF2091BA2EB4
:103A10008EE591E0289FF001299FF00D1124E45BD1
:103A2000FE4D82818D3A69F12091BA2E8EE591E0AA
:103A3000289FF001299FF00D1124E45BFE4D2281A7
:103A4000263909F008952091BA2E3091BA2E289F78
:103A5000F001299FF00D1124E45BFE4D27812575AF
:103A6000220F389FF001399FF00D1124E45BFE4DC9
:103A700080858575282B2093462181E08093B02E88
:103A800008958091B02E81113DC0E091BA2E8091B1
:103A9000B42EF0E0E955F14D8083E091BA2EA0916B
:103AA000AF2EB0E0AB55B14D8C91F0E0EB54F14D41
:103AB0008695869580838091B42E8F3051F18091C8
:103AC000B42E8D3031F18091B42E8F5F8F70809342
:103AD000B42E8091BA2E843009F18091BA2E8F5F76
:103AE0008093BA2E4091BA2E2EE531E0429FC0015C
:103AF000439F900D1124845B9E4D8093AC2E909338
:103B0000AD2E92CF809146218093B42E1092B02E8C
:103B10008BCF8091B42E8E5F8F70D9CF0E94AF1C57
:103B200083CFCF93DF931F92CDB7DEB77C0160E0E8
:103B300080E00E94A82368E08DE490E20E94B52313
:103B40008824839450E5C52E5BE2D52E03E211E074
:103B5000772473948091AF2EB399DCC0809FF001DD
:103B6000819FF00D1124E65FF64D8081882329F0B6
:103B7000E35FFE4F80818111CDC09199CBC08091D0
:103B800064068F778093640680E0F70109958111C0
:103B9000CCC00E94A5288111DCC080919F2E882373
:103BA00009F4A7C0198210920608D699E4C0809142
:103BB000AF2E882321F01092AF2E88248394809119
:103BC000B42E8F5F8F708093B42EE091AF2EF0E013
:103BD000EB55F14D9080969496945091B42E90911F
:103BE000B42E4091B42E3091B42E2091B42E8091F9
:103BF000B62E89256091A82E9627892B9091B52EF7
:103C000099256091A72E5627952B89239091B72E41
:103C100099255091A92E4527942B89239091B82E50
:103C200099254091AA2E3427932B89239091B92E60
:103C300099253091AB2E2327922B892309F4A7C015
:103C40006090B42E60E086E00E94A823892D90E069
:103C5000A0E0B0E042E0BC01CD010E9415248091BB
:103C6000AF2E809F5001819FB00C1124C501865F4B
:103C7000964D5C01FC0180818823D9F181108CC0B4
:103C8000462D50E0F0E19F9E400D511D112460E053
:103C900070E09E012F5F3F4FC5010E941A14898179
:103CA000811178C040E5A42E4BE2B42ECE010196DE
:103CB0000E943303F50181935F01FCEEAF16FCE235
:103CC000BF06A1F736E6B32ECE0101960E9433035C
:103CD000BA94D1F7CE0101960E94941410929F2EAF
:103CE000C092B12ED092B22E7092A32E709206087E
:103CF000812C8091A02E882309F42CCF1092A02E25
:103D0000109206080E94061D709206088091AF2E40
:103D1000B39B24CF8091640680688093640680E022
:103D2000F7010995882309F434CF0E94C01A7092D4
:103D30009F2E60E080E00E94A82368E08DE490E27E
:103D40000E94B523882483940E94A528882309F41F
:103D500024CF0E94AF1C0E94C01A70929F2E60E078
:103D600080E00E94A82368E08DE490E20E94B523E1
:103D70008824839412CFD59922CF8091AF2E8130A1
:103D800009F41DCF7092AF2E8824839418CF0E941F
:103D9000AF1C56CF812CADCF60E082E00E94A823FB
:103DA0006091AF2E70E06F5F7F4F882777FD809521
:103DB000982F41E00E94152461E080E00E94A82332
:103DC00068E0C5018A5E9E4F0E94B52359CF2F92AD
:103DD0003F924F925F926F927F928F929F92AF929B
:103DE000BF92CF92DF92EF92FF920F931F93CF93E8
:103DF000DF93CDB7DEB76B97CDBFDEBF8D8B9E8BCC
:103E00006A8F7B8F4B873901ECE4F3E29FEF8FEFF2
:103E1000919323E2E236F207D1F793E09093622385
:103E20009CEF90936323809364234FE34093652337
:103E30003FEC3093662323EF20936723909368230E
:103E40008093692340936A2330936B2320936C23E0
:103E500090936D2345ED40936E239AEA90936F23E0
:103E600026E9209370233EED3093792390937A23B3
:103E70002BEE20937B2380937C2380937D23809360
:103E80007E2380937F23809380234093812390938C
:103E900082238DEA809383233093DB249093DC2468
:103EA0002093DD24EEEDF4E28FEF819334E2EC3EDB
:103EB000F307D9F7ECEEF4E20CE415E2119245E2D7
:103EC000EC34F407D9F760E080E00E94A82368E0B2
:103ED00086E590E20E94B52361E080E00E94A8237D
:103EE00066E08FE590E20E94B5235B8556955A6A9D
:103EF0005C871D861E861F86188A812C912C540192
:103F00008B858A6A898F8F829886A986BA868F81E7
:103F1000882E8694382D3A6A832E2D853E854F85CE
:103F20005889220F331F441F551F298B3A8B4B8B07
:103F30005C8BC12CD12C7601382F3A6A3F8B4B8594
:103F40004827488F2F80388449845A84C982DA826E
:103F5000EB82FC826D827E8261E082E00E94A82377
:103F600042E0C201B1010E94152461E086E00E9496
:103F7000A82342E069817A818B819C810E9415246B
:103F8000E981FA81E454FF4F9490692C712C998156
:103F900090FFB6C0FCE4AF2EF2E2BF2EFC85F0939A
:103FA0007123298D20937223809273233F8930934C
:103FB0007423C301969587958A6A80937523892D0A
:103FC0008A6A80937623988D9925892F86958A6AA7
:103FD000809377239A6A9093782395012A5A3F4FCA
:103FE00084E893E2D50160E040E050E07C0119C034
:103FF000FD01E555FF4FE081E370F0E0E455FF4F30
:10400000E4918E2B6827E62FF0E0E453FE4F949165
:10401000F70191937F014F5F5F4F46355105B1F036
:10402000682FED91E370F0E0EC54FF4F9491F901AB
:1040300081919F018370E82FF0E0E055FF4F84915C
:10404000892B44355105A0F2E0E0DBCF782FAAEDB3
:10405000B3E2950101C0782FF90181919F01869506
:104060008695E72FE827F0E0E453FE4FE491ED93C7
:10407000F4E2AA3DBF0779F7E82FF0E0E453FE4FE2
:10408000E491E093DA2449895A896B897C89490D46
:10409000511D611D711D2D813E818D899E890E945A
:1040A000D014AD81BE818C91811114C07CE4A72E07
:1040B00073E2B72E7D0104C00A151B0509F44AC03E
:1040C000B701F50181915F010E942003D7018C9116
:1040D000882391F36B96CDBFDEBFDF91CF911F9107
:1040E0000F91FF90EF90DF90CF90BF90AF909F9097
:1040F0008F907F906F905F904F903F902F9008959A
:10410000892F86954D855E856F857889480F511D6D
:10411000611D711D2D813E818A8D9B8D0E941A1417
:10412000AD81BE818C918111D5CF2CE431E2690142
:104130007D0105C0B3E2EC34FB0709F444C0C701BC
:104140000E943303F60181936F01D7018C9188237C
:1041500089F3C0CF8D819E810E943815ED81FE814B
:1041600080818111B7CF29813A814B815C812F5F9A
:104170003F4F4F4F5F4F29833A834B835C832031FE
:1041800031054105510509F0E7CE3F018F81988542
:10419000A985BA850196A11DB11D8F839887A9872E
:1041A000BA872D853E854F855889285F3F4F4F4FF1
:1041B0005F4F2D873E874F87588B8397A105B105A9
:1041C00009F0A5CE87CF8D819E810E949414ED8148
:1041D000FE81808181117ECFACE4AA2EA1E2BA2EAD
:1041E000DDCE2F923F924F925F926F927F928F928D
:1041F0009F92AF92BF92CF92DF92EF92FF920F9376
:104200001F93CF93DF93CDB7DEB72A97CDBFDEBF25
:104210008D839E831B013A0160E080E00E94A82309
:1042200068E086E690E20E94B52361E080E00E94AB
:10423000A82366E08FE590E20E94B523812C912CA3
:10424000540119821A821B821C8249805A80440CB4
:10425000551CC12CD12C760161E082E00E94A8237C
:1042600042E0C501B4010E94152461E086E00E948D
:10427000A82342E0C701B6010E941524F601E454C8
:10428000FF4FE491A2014E0F511D60E070E09301D9
:10429000C1010E941A14D3018C91811117C02CE422
:1042A00031E27C2C8901AF83B88704C0B3E2EC34DF
:1042B000FB0711F18F8198850E943303F8018193E8
:1042C0008F01AF81B8858C91882381F32A96CDBF69
:1042D000DEBFDF91CF911F910F91FF90EF90DF90A4
:1042E000CF90BF90AF909F908F907F906F905F9096
:1042F0004F903F902F900895172D6F807884C301C1
:104300000E949414F30180818111E0CF512F5170EC
:1043100010FF7BC06CE474E2A4E8B1E29B01245579
:104320003F4FCB018A5A9F4F40E06F8378875A876F
:10433000ED91F0E0E453FF4F04910427402F4F73B9
:10434000E42FE295EF70F0E0E854FF4F5491F9014B
:1043500051939F01E42FE695E695E370F0E0E85471
:10436000FF4F5491FC015193CF010370E02FF0E017
:10437000E854FF4F0491EF81F8850193EF83F887AC
:10438000F1E2AA3DBF07A1F65A852AED31E2DB0131
:10439000F90181919F01E82FF0E0E453FF4FE49190
:1043A0004E274F73842F880F880F9C91892B8D93F4
:1043B000F2E22A3D3F0761F751112AC02FEFC21ADE
:1043C000D20AE20AF20A50E1C516D104E104F1046E
:1043D00009F042CF89819A81AB81BC810896A11DE9
:1043E000B11D89839A83AB83BC839FEF891A990A95
:1043F000A90AB90A89819A81AB81BC81883191402F
:10440000A105B10509F021CF61CF6CE473E284CF3F
:10441000169549815A816B817C81410F511D611D27
:10442000711D93018D819E810E94D014D3018C91C6
:1044300081114CCF0CE413E204C0B5E20C341B072D
:1044400059F0B301F80181918F010E942003D3013B
:104450008C91882391F33ACFC3010E943815F30160
:104460008081882309F4AACF31CF2F932FB72F93C0
:1044700021E020930C0820919F2E213021F42F91D0
:104480002FBF2F9118952AB320762036D1F1209195
:10449000B32E20FDC89A3F93AF93BF930000A8E0CE
:1044A000AA95F1F7C8982091A32E2A952093A32EC0
:1044B000E1F428E02093A32EB091B22EA091B12E6A
:1044C0002C912093A42E1196B093B22EA093B12ECE
:1044D000BC3259F4AC3E49F421E020939F2E20E5F4
:1044E0002093B12E2BE22093B22E2091A42E30E007
:1044F000221F2093A42E331F3093B32EBF91AF9170
:104500003F912F912FBF2F9118952F932FB72F9356
:1045100020E02093AE2E2AB32076203611F40C949E
:10452000E8223F933091AE2E22B320742327E1F38B
:1045300022B320742093AE2E20E12A95F1F70000DB
:104540004F935F936F937F938F93EF93FF9360E00D
:10455000E091AC2EF091AD2E3DE541E00DC05091C3
:10456000AE2E72B370747527E1F372B370747093EA
:10457000AE2E78E17A95F1F727E081E07AB3747096
:10458000E1F40000000073E27A95F1F772B3707401
:104590005091AE2E7093AE2E7527769576957295C6
:1045A000880F872B2A9551F7853D09F461E060302B
:1045B000B1F281933150404091F651E05093A02EDA
:1045C000FF91EF918F917F916F915F914F913F910B
:1045D000DA9A2F912FBF2F9118959FB7F894809159
:1045E00050008460809350008091510082FFFCCF86
:1045F00080915000826080935000809141008078CB
:1046000028ED24BF8093410080915600837F8093E2
:10461000560080916000816080936000809151001D
:1046200081FFFCCF80914000887F816028ED24BF0E
:104630008093400080915000867E809350009FBF01
:1046400008959CE7909386049091840496FFFCCF94
:10465000809387048091840486FFFCCF6093870455
:104660008091840486FFFCCF83E0809383040895C7
:10467000E0E8F4E0148283E2858381E0848388E0CB
:1046800081832FEF87EE93E0215080409040E1F747
:1046900000C0000068E380E00E9421238FEF90E0DB
:1046A0000197F1F700C0000069E380E00E94212338
:1046B0008FEF90E00197F1F700C0000064E180E027
:1046C0000E9421238FEF90E00197F1F700C00000D6
:1046D00060E780E00E9421238FEF90E00197F1F7DF
:1046E00000C0000066E580E00E9421238FEF90E08B
:1046F0000197F1F700C000006CE680E00E942123E2
:104700009FEF2BE785E1915020408040E1F700C00A
:10471000000068E380E00E9421238FEF90E0019782
:10472000F1F700C000006CE080E00E9421238FEFD1
:1047300090E00197F1F700C0000061E080E00E9486
:1047400021238FE79EE30197F1F700C00000089551
:10475000805890E4699F800D1124682F80E00C94AC
:104760002123682F80E40C9421230F931F93CF9370
:10477000DF93062F662349F0EC0110E0699180E495
:104780000E9421231F5F1013F9CFDF91CF911F915A
:104790000F910895FF920F931F93CF93DF93CDB79F
:1047A000DEB72897CDBFDEBF042F112707FD109578
:1047B000101611068CF520E030E040E015C0505D89
:1047C000E1E0F0E0EC0FFD1FE20FF31F508324E067
:1047D00096958795779567952A95D1F74F5F242F02
:1047E00030E02017310734F4562F5F705A3038F319
:1047F000595CE6CF80E090E0F12CF801E81BF90B62
:10480000EC0FFD1F608180E40E942123F3948F2D23
:1048100090E0801791078CF32896CDBFDEBFDF9123
:10482000CF911F910F91FF9008959F92AF92BF92E9
:10483000CF92DF92EF92FF920F931F93CF93DF936C
:10484000CDB7DEB72897CDBFDEBF042F112707FDF8
:1048500010951016110684F5E0E0F0E0912C4AE086
:10486000C42ED12CE12CF12CAA24A394B12CAC0E93
:10487000BD1EAE0EBF1EA70196010E94BD33605D36
:10488000F5016083B901CA019394E92DF0E0E017C6
:10489000F10754F380E090E0F12CF801E81BF90BEC
:1048A000EC0FFD1F608180E40E942123F3948F2D83
:1048B00090E0801791078CF32896CDBFDEBFDF9183
:1048C000CF911F910F91FF90EF90DF90CF90BF900D
:1048D000AF909F900895FF920F931F93CF93DF9314
:1048E0008C01EC0109900020E9F72197C81BD90B36
:1048F000FC2E60E880E00E9421236C2F88E08C175A
:1049000008F468E0C8010E94B52387E08F1508F518
:1049100060EC80E00E94212388E0F8120BC060E187
:104920006C1B87E790E2DF91CF911F910F91FF9071
:104930000C94B5236C2F6850C80108960E94B523CB
:104940008FE08F1560F7DF91CF911F910F91FF904E
:10495000089568E06C1B88E790E20E94B52360EC44
:1049600080E00E942123DBCF8FE690E20C946B2441
:104970000C946B240E946B24FFCF813009F469C032
:10498000823009F46AC09AB3833009F46BC09695FB
:104990009170E82FF0E0E75BFE4D992369F190817B
:1049A000992311F122E030E02093532D3093542DC0
:1049B00041E00BC08230D1F09AB3833009F440C09B
:1049C00096959170942791110FC02091532D30919D
:1049D000542D232B09F44AC0813061F792B392958C
:1049E0009F709827917089F380E0089596B392FBA9
:1049F000992790F99427E7CF90819111F5CF22E084
:104A000030E02093532D3093542D09C0823099F01B
:104A10009AB38330D1F0969591709111E5CF2091A2
:104A2000532D3091542D232B21F1813079F792B3FE
:104A300092959170F2CF96B392FB992790F9EDCFB2
:104A400093FB992790F99427BECF93FB992790F970
:104A5000E4CF92B3929591709CCF96B392FB992735
:104A600090F997CF93FB992790F993CF108280E02C
:104A7000089591E0908328E230E02093532D309305
:104A8000542D09C0823099F09AB38330A9F09695DD
:104A90009170911117C02091532D3091542D232BDB
:104AA00079F0813079F792B392959170F2CF96B305
:104AB00092FB992790F9EDCF93FB992790F9E9CFD5
:104AC00082E0089581E00895E0E0F6E080E18283ED
:104AD00088E1848BE0E4F6E094E09283828BE0E668
:104AE000F6E098E09283838B92E09283818B109220
:104AF000C42E109248211092BB2E1092BC2E109200
:104B0000BD2E1092BE2E84E896E28093C22E909322
:104B1000C32E1092C12E1092BF2E1092C02E089557
:104B20001092C42E109248211092BB2E1092BC2ECF
:104B30001092BD2E1092BE2E84E896E28093C22E73
:104B40009093C32E1092C12E1092BF2E1092C02EA1
:104B500008952F923F924F925F926F927F928F9221
:104B60009F92AF92BF92CF92DF92EF92FF920F93FC
:104B70001F93CF93DF93CDB7DEB76497CDBFDEBF72
:104B80003C015B011092090682E990E20E946B24CD
:104B90008091502D811143C120E830E26091BB2EFD
:104BA0007091BC2E8091BD2E9091BE2E8501A301E7
:104BB0000E94E70F8B8B9C8B81E080930906188AFB
:104BC0002B893C89232B09F49FC18CE291E08093CF
:104BD000512D9093522DCC24CA94DC2C10E2212E1E
:104BE000322C422C9599CEC060E080E00E94A82330
:104BF00065E084EB90E20E94B52360E082E00E94D1
:104C0000A8236091C42E772767FD70956F5F7F4F53
:104C1000882777FD8095982F41E00E941524809188
:104C2000C42EE091C22EF091C32EE80FF11D87FD36
:104C3000FA9580818111F6C09599A4C02B893C8991
:104C400021503109298B3A8B68E0962E07C0CE019E
:104C5000019668E00E94B523959994C081E00E9476
:104C6000BD24882351F0813009F4C9C08091C42E3D
:104C700018161CF481508093C42E82E00E94BD243B
:104C80008823A9F0813009F4ADC04091C42E242FAF
:104C9000332727FD30958091502D8111A0C081E0F0
:104CA00090E0281739071CF44F5F4093C42E60E052
:104CB00082E00E94A8236091C42E772767FD70953B
:104CC0006F5F7F4F882777FD8095982F41E00E9486
:104CD00015248091BF2E9091C02EC816D906D1F10F
:104CE0006C0110920906FC01EE0FFF1FE80FF91F7F
:104CF000EE0FFF1FE60DF71D408151816281738128
:104D0000452B462B472B09F057C084819581892B71
:104D100009F052C0EAEBF0E2DE011196892D019014
:104D20000D928A95E1F72D863E864F86188A81E09E
:104D300080930906F5018081811127C060E085E03C
:104D40000E94A823888984FD47C0CE010D9663E0A8
:104D50000E94B52383E00E94BD248111E9C084E054
:104D60000E94BD248111E0C061E00E94A8238091CF
:104D7000442181116CCF87E790E268E00E94B5235F
:104D8000959B6CCF81E0F501808380E06496CDBF78
:104D9000DEBFDF91CF911F910F91FF90EF90DF90D9
:104DA000CF90BF90AF909F908F907F906F905F90CB
:104DB0004F903F902F900895750100E010E09E0104
:104DC000205F3F4FAE01435F5F4FBE016F5F7F4F7C
:104DD000CF010E94690FABCF8EE890E2B8CF83E09D
:104DE00090E05FCF8091BF2E9091C02E009709F484
:104DF0005ECF01978093BF2E9093C02E58CF8091A5
:104E0000BF2E9091C02EE989FA898E179F0708F06E
:104E100034CF01968093BF2E9093C02E2ECF27E8DB
:104E200030E2BCCE2B893C89232B09F405CF698A5B
:104E30007A8A812C912C552453943AC0EAEBF0E203
:104E4000DE01119688E001900D928A95E1F72D869A
:104E50003E864F8650920906F5018081811195CFDB
:104E60000091C22E1091C32E48E050E0B801CE014F
:104E700001960E94F933892B61F4B801685F7F4F76
:104E800043E050E0CE010D960E94F933892B09F4DE
:104E9000FFC0FFEF8F1A9F0A29893A892A5F3F4F87
:104EA000298B3A8B8B899C898816990609F4C4CE84
:104EB000109209068091BF2E9091C02EFC01EE0F3A
:104EC000FF1FE80FF91FEE0FFF1FE60DF71D808192
:104ED0009181A281B381892B8A2B8B2B29F4848128
:104EE0009581892B09F4AACF750100E010E020E03C
:104EF00030E0AE01435F5F4FBE016F5F7F4F898936
:104F00009A890E94690FA6CF83EA90E20E946B24DF
:104F100084E690E08093532D9093542D8091532DEF
:104F20009091542D892BD1F70E94B42480E02ECF8C
:104F30000E94B42461E080E00E94A82368E0CE01D2
:104F400001960E94B523109209068091BF2E909180
:104F5000C02EFC01EE0FFF1FE80FF91FEE0FFF1F21
:104F6000E60DF71D4081518162817381452B462BEF
:104F7000472B09F07CC084819581892B09F077C08B
:104F800088E0EAEBF0E2DE01119601900D928A953D
:104F9000E1F72D863E864F86188A19861A861B866B
:104FA0001C8681E080930906F50180818111EDCE98
:104FB000888984FF9CC042E050E063EC70E2CE013F
:104FC00001960E94F933892B29F08091C12E8430FB
:104FD0000CF008CE89859A85AB85BC858093BB2E65
:104FE0009093BC2EA093BD2EB093BE2E10920906B6
:104FF00086EC90E20E946B248091502D81114DC06F
:1050000020E830E26091BB2E7091BC2E8091BD2EC5
:105010009091BE2E8501A3010E94E70F8B8B9C8B84
:1050200081E080930906F50180818111AECE109256
:10503000BF2E1092C02E42E050E063EC70E2CE0131
:1050400001960E94F933892B59F58091C22E9091D7
:10505000C32E0B978093C22E9093C32E8091C12EA6
:1050600081508093C12ECC24CA94DC2CBBCD750119
:105070008E01075F1F4F9E01205F3F4FAE01435FD0
:105080005F4FBE016F5F7F4FCF010E94690F89CFD5
:105090008092BF2E9092C02ECFCD27E830E2B2CFC3
:1050A0008091C12E8430FCF6A091C22EB091C32E07
:1050B00088E0FE01319601900D928A95E1F7E0912A
:1050C000C22EF091C32E8D859E85AF8580879187F6
:1050D000A2873B96E093C22EF093C32E8091C12EFF
:1050E0008F5F8093C12ECC24CA94DC2C7BCD48E00A
:1050F00050E06AEB70E2CE0101960E94F933892BF1
:1051000061F4E4E8F6E280E2819326E2E43CF2070F
:10511000D9F710928F2681E039CEA091C22EB0919E
:10512000C32E88E0FE01319601900D928A95E1F739
:10513000E091C22EF091C32E8D859E85AF8580872C
:105140009187A287138681E021CEAF92BF92CF9242
:10515000DF92EF92FF920F931F93CF93DF9300D0D4
:10516000CDB7DEB780910020882359F18AB3082F8C
:10517000027081FD26C011E08091502D81113EC04A
:1051800010920020D19BFECF1092060881E0809300
:10519000460880934821111129C019826091C42EBC
:1051A0006E5F9E012F5F3F4F44E856E28CE492E22F
:1051B0000E94BE028981882319F11092482180E063
:1051C00006C0D19B11C081E08093002080E00F9049
:1051D0000F90DF91CF911F910F91FF90EF90DF9093
:1051E000CF90BF90AF90089580E0F1CFD3994EC09B
:1051F000B39B50C01092460881E0E9CF10E0C0CFC9
:10520000BE016F5F7F4F8CE492E20E94A925882344
:10521000D1F1112309F4A2C09E012F5F3F4F44E852
:1052200056E26091C42E8CE492E20E94E7024BE0C9
:1052300050E064E770E284E896E20E94F93340911E
:10524000C42E23E231E0892B09F079C04203F0013A
:10525000439FF00D1124EC53F94D1082112309F4F2
:1052600045C0F8948981882309F481C04091C42EF7
:1052700023E231E04203F001439FF00D1124E65F89
:10528000F64D1082789410924821B4CF1982609123
:10529000C42E87CF1A82BE016E5F7F4F84EC94E2EA
:1052A0000E944C028A81811188CF0AE019E28CE2C7
:1052B000A82E8AE2B82E94ECE92E94E2F92EF80199
:1052C0008081882321F0F50180818111C8C00D5DA6
:1052D0001E4FFDEDAF1AFEEFBF0A40E4E40EF11CD5
:1052E0005BE20035150709F485CFE9CF8091C42E24
:1052F000E82EFF24E7FCF094898181111BC023E292
:1053000031E0E29EC001E39E900DF29E900D1124CB
:10531000FC01EC53F94D0081002361F043E050E0C3
:105320006AE870E28E51984D0E94F93301E0892BB2
:1053300009F000E0F701E353F14D0083A4CF4203ED
:10534000C001439F900D11248C53994DAE014F5FC6
:105350005F4F64E876E20E94290F80CF6091C42EEF
:105360006E5F9E012F5F3F4F44E856E25CCF67EDD2
:1053700070E284E896E20E94B01A2091C42E03E203
:10538000E02EFF24F394A7012403C001259F900D74
:105390001124AE014F5F5F4F64E876E2865F964D61
:1053A0000E94290F8981882309F46CCFB3997AC0B0
:1053B00019828BED90E20E946B242091C42EA701EC
:1053C0002403C001259F900D11248E010F5F1F4FF4
:1053D00020E030E644E050E064E876E2865F964DF7
:1053E0000E94581A898181114DCF2091C42EA701A6
:1053F0002403C001259F900D1124A80164E876E2E2
:10540000865F964D0E94290F2091C42EA701240388
:10541000C001259F900D11249C01245B3E4DF90194
:10542000EB57F94F4081EA5BFD4F4083BC016C5361
:10543000794D98014EEF865F964D0E94E71E898157
:10544000882309F41FCF2091C42EA7012403F00163
:10545000259FF00D1124E65FF64D108213CF1982BF
:105460006801F6E4CF1AF2E0DF0AAE014F5F5F4F4A
:10547000B701C6010E94290F8981811128CFF80147
:10548000E953F1408081811122CFAE014F5F5F4F20
:10549000B801C6010E94F1208981811118CFF50160
:1054A000108215CF8CEE90E20E946B24EBCE10920E
:1054B000C52E1092C62E1092C72E1092C82E109292
:1054C000C92E1092CA2E1092CB2E1092CC2EE0E64E
:1054D000F6E012860895EC0180E0FE0109950E9435
:1054E000A528FACF4F925F926F927F928F929F92F0
:1054F000AF92BF92CF92DF92EF92FF920F931F93E2
:10550000CF93DF93E82F562F5901A3E9B4E20E940D
:10551000DF334501881A990A96948794880E991E5C
:105520006401D694C794D694C7949601220F331F72
:10553000220F331F220F331F2C193D096501C21A98
:10554000D30A7C2C9694879496948794C82D8FEFD9
:1055500080934C219FE390934D219FEC90934E219B
:1055600093EF90934F219CEF909350218093512182
:1055700083EC8093522180E880935321E068E0938C
:105580005421506850935521809356214068409390
:1055900057218C2D806880935821882D80688093B6
:1055A0005921CC20F1F0E0E5FBE2ABE5B1E24FEFB1
:1055B0004C0D50E04F5A544D70E86191862F90E0A9
:1055C0009F0120553B4202C0959587952A95E2F7A9
:1055D0008074780F60686D93E417F50771F7709326
:1055E0005A21CC2309F452C0C6010F96711002C093
:1055F0008EE090E07601E0E1EE0EF11C772009F4F8
:105600008BC0A701D601A05BB44D9C01245B3E4D2D
:1056100029018601095A144D2FEF280D37E0239FE9
:10562000000D111D11247A01E81AF90A60E870E0F2
:10563000FD0180E090E0612C2191019630E0082E80
:1056400002C0359527950A94E2F7AB01082E02C0F7
:10565000559547950A94E2F72423622A87309105ED
:1056600059F7862D8068F2018083E701C40DD51DAE
:10567000FD0137E02191206829933150D9F7179621
:10568000F8E04F0E511CA017B10791F6711041C000
:1056900086E190E0A401552741505109440F551F60
:1056A000440F551F440F551F480F591FA114B10433
:1056B000B1F1E0E5FBE2C501805B944D20E0319162
:1056C0002327E817F907D9F7E3E5F1E281912827C5
:1056D00031E2EA35F307D1F7FA01E45BFE4D822FA0
:1056E0008A6A808326952A6A218388EC82831382C2
:1056F000DF91CF911F910F91FF90EF90DF90CF90AE
:10570000BF90AF909F908F907F906F905F904F90E1
:105710000895C6014796BECF4FE050E073CF20E01A
:10572000D3CF2F923F924F925F927F928F929F9210
:10573000AF92BF92CF92DF92EF92FF920F931F939F
:10574000CF93DF935C019C01A3E9B4E20E94DF33B5
:105750002501481A590A56944794480E591E620169
:10576000D694C794D694C794C601880F991F880F02
:10577000991F880F991F8C199D096501C81AD90AAC
:105780009C2C5694479456944794742CCC2011F139
:105790006091592170E0EAE5F1E2A0E5BBE24FEF4C
:1057A0004C0D50E0455A5E4D23EF3FEF2C543142F3
:1057B000C9018E0F9F1FEB0102C0CC0FDD1F8A9520
:1057C000E2F7CE01807891919F77892B8D93E41732
:1057D000F50771F7772009F446C0C9E5D1E2F60173
:1057E000E05BF44D7F0140E050E0812C8601015FD9
:1057F0001F4FD70121E030E080E090E01E012C0C2B
:105800003D1C1BC0F1016181E62F022E01C0EE0F8D
:105810000A94EAF76E2F6078F801E45BFE4DE80F1A
:10582000F91FE40FF51FE081EF77E62BED9301966A
:105830002F5F3F4F8730910569F09110E3CFE881EA
:10584000022E01C0EE0F0A94EAF76E2F6078EEE0A8
:10585000F0E0E3CF8394485F5F4F2896F7E0EF0EC8
:10586000F11C871430F2911042C085E190E0A20152
:10587000552741505109440F551F440F551F440FE0
:10588000551F480F591FA114B104B1F1E0E5FBE227
:10589000C501805B944D20E031912327E817F9077B
:1058A000D9F7E2E5F1E28191282781E2E935F807AD
:1058B000D1F7FA01E45BFE4D81818575880F9081F7
:1058C0009575892B2817B1F086E0DF91CF911F9154
:1058D0000F91FF90EF90DF90CF90BF90AF909F908F
:1058E0008F907F905F904F903F902F900895C601CA
:1058F0004696BDCF80E0E9CF20E0D3CF1F920F9234
:105900000FB60F9211244F925F926F927F928F92F7
:105910009F92AF92BF92CF92DF92EF92FF920F933E
:105920001F932F933F934F935F936F937F938F9327
:105930009F93AF93BF93EF93FF93CF93DF931F9208
:10594000CDB7DEB780910C068F6080930C068091F6
:10595000502D813021F10E941E1B0F90DF91CF91BD
:10596000FF91EF91BF91AF919F918F917F916F9137
:105970005F914F913F912F911F910F91FF90EF9069
:10598000DF90CF90BF90AF909F908F907F906F905F
:105990005F904F900F900FBE0F901F90189582B39D
:1059A000982F9A709A3021F0982F95709530A9F61B
:1059B0008F708C30C0F48A30D0F4853071F68091CD
:1059C0004821882309F454C082B38F708530E1F3F5
:1059D0001092D12E1092D22E1092D32E1092D42E3D
:1059E0001092D52EBACF8E50823008F0B6CFCF9A13
:1059F00080E197E204C00197009709F46CC0909B86
:105A0000FACF8CE491E20E94BA308111A6CF809146
:105A10005A21823809F4E4C080F5803809F45DC069
:105A2000813809F09ACF80914821811196CF50900A
:105A3000522104EC16E232ED832E3EE2932E4DEC21
:105A4000A42E4EE2B42EF8018081882309F485CF7C
:105A5000F40181914F01851509F448C20D5D1E4F77
:105A60002FEFA21AB20A8BE20035180761F775CF43
:105A70008DEF90E20E946B24A7CF833809F4ECC12C
:105A8000853809F06ACF80914821811166CF8091D5
:105A900052212091D12EE22FF0E0EE52F14D808381
:105AA0002F5F2093D12E30E09091D72E992309F4C7
:105AB00011C24091D62E50E0241735070CF4EDC2E8
:105AC0004FEF20E030E060E00E94722A8CE491E227
:105AD0000E94063142CFCF9840CF9090522185E06E
